:4000000000800020110000002D0400002D04000080B500AF024A034B1B68136000F010FABC760040FA46004010B5054C237833B9044B13B10448AFF300800123237010BDAB
:400040005081FF1F00000000F00F0000084B10B51BB108490848AFF300800848036803B910BD074B002BFBD0BDE81040184700BF000000005481FF1FF00F0000C880FF1FF4
:400080000000000080B582B000AF00F0B5FA0223FB80FB88013B9BB20121184600F08AFEFB880133FB80154B1B889BB2184600F05FFE124B1B889BB21A46FB88D31A002B72
:4000C00008DD0E4B1B889AB2FB88D31A9AB20B4B1A8008E0094B1B889BB2FA889A4202D1064B64221A80FB88B3F5FA6FD1D9034B64221A800223FB80CBE700BFCC80FF1F32
:4001000080B582B000AF786039603A680021786800F065FF00BF0837BD4680BD80B584B000AFF860B9607A607A68B968F86800F04BFF00BF1037BD4680BD00BF80B483B097
:4001400000AF0346FB71FEE780B487B000AF7860396000233B6100237B6127E07B699B007A6813441B68BB60BB68FB73BB6823F0FF03BB6014E03B695B003A6813441B782D
:400180001A46BB68134419463B695B003A6813445B780B703B6901333B61FB7B013BFB73FB7B002BE7D17B6901337B617B690C2BD4D900BF1C37BD4680BC704780B582B0A8
:4001C00000AF304B5F221A802F4B18221A702F4B02221A704FF0402308221A702C4B03221A702C4B2C4A1278D2B21A702B4B08221A802B4B41F251221A800023FB70192399
:400200007B6014E0FB785B00DAB2264B1B78DBB203F00103DBB21343DBB203F00303FB704FF4F07000F094FE7B68013B7B607B68002B02D0FB78032BE4D17B68002B02D103
:400240000320FFF77BFF184B4FF480721A80164B07221A70154B00221A70154B48221A70114B00221A70134B02221A70124A124B1B78DBB243F00103DBB2137000BF083713
:40028000BD4680BD80400040824000400043004000420040A14600400801004922420040204200402542004004400040064000400840004001400040A243004080B483B0F2
:4002C00000AF0E4B1B78FB710D4AFB7903F00703DBB213700B4AFB791B09DBB213700A4B10221A70094B40F201121A80084B44221A7000BF0C37BD4680BC7047CF0100498A
:400300006E5800406F580040985A0040425B00407658004080B582B000AF72B6334A334B1B78DBB243F00403DBB213700023FB7113E0FA7913465B0013445B002C4A1344C8
:400340003B603B681A683B689B889BB219461046FFF7D6FEFB790133FB71FB79092BE8D924494FF09040FFF7EFFE04212248FFF7C7FE04212148FFF7C3FE214A204B1B7857
:40038000DBB243F00203DBB213701E4A1D4B1B78DBB243F00203DBB2137008221A491B48FFF7BCFE08221A491A48FFF7B7FE1A4A194B1B78DBB243F00803DBB21370174B5E
:4003C00061221A70FFF7FAFE144B81221A70144B01221A70FFF772FF0E2212491248FFF79DFE00BF0837BD4680BD00BFE8460040F40F00003400004800760040087600402F
:40040000035001401350014058000048125100406000004832510040224300400048004004000840A0430040B043004080B500AF00F09EFD03461B680C2B00D1FEE7FEE7FA
:4004400080B586B000AF224B7B61224B3B61204B7B6135E03B691B68FB603B695B68BB603B699B683B6000237B600CE0FB681A68BB681A60BB680433BB60FB680433FB6098
:400480007B6804337B607A683B689A42EED13B69DB683B6000237B6008E0BB6800221A60BB680433BB607B6804337B607A683B689A42F2D13B6910333B617B69013B7B61F3
:4004C0007B69002BC6D100F059FDFFF7DBFDFEE701000000EC10000080B582B000AF194B194A1A60194A194B1B6843F40073136000237B600FE07B68032B04D8144A7B6887
:4005000052F8233000E0134B13497A6841F822307B6801337B607B682F2BECD90F4B1B78DAB20F4B1A700F4B0B4A1A60FFF7F2FE00F032FA0C4B00221A6000BF0837BD46A7
:4005400080BD00BF0CED00E00004FA0514ED00E0000000002D0400000080FF1FBC760040C480FF1F08ED00E0C080FF1F80B500AF00F020F9022000F055F9002000F072F924
:4005800000F0BEF900F058FB03461A46084B1A7000F052FB03461A46064B1A706421064800F03CF83221054800F06CF800BF80BD6F81FF1F7081FF1F301000009410000022
:4005C00080B500AF00F014F900F0A2F9084B1B780121184600F00EFA064B1B780121184600F008FA002000F05DF900BF80BD00BF6D81FF1F6E81FF1F80B500AF064B1B78D9
:40060000002B04D1FFF7B2FF034B01221A70FFF7D7FF00BF80BD00BF6C81FF1F80B582B000AF78600B467B807B681B0C9AB24FF480430121012000F059F803461A460F4B69
:400640001A700F4B18780E4B1A787988012300F021FB0B4B1B787A6891B245F68332184600F058FB054B1A78054B1B781946104600F074FA00BF0837BD4680BD6D81FF1F29
:400680006F81FF1F80B582B000AF78600B467B807B681B0C9AB24FF480430121012000F057F803461A460F4B1A700F4B18780E4B1A787988012300F0EDFA0B4B1B787A68EB
:4006C00091B245F68332184600F024FB054B1A78054B1B781946104600F040FA00BF0837BD4680BD6E81FF1F7081FF1F90B585B002AF0446084611461A462346FB710346C4
:40070000BB710B46BB8013467B80104B00221A700E4B1878BA79F9790023019300230093002300F039FA094B1B787A88B988184600F0D8F9054B1B780221184600F0A0F92F
:40074000024B1B7818460C37BD4690BDCE80FF1F90B585B002AF0446084611461A462346FB710346BB710B46BB8013467B80104B01221A700E4B1878BA79F979002301934B
:4007800000230093002300F007FA094B1B787A88B988184600F0A6F9054B1B780221184600F06EF9024B1B7818460C37BD4690BDCF80FF1F80B500AF0A4B00221A700A4B25
:4007C00000221A70094A094B1B78DBB243F00803DBB21370002000F045F8022000F022F800BF80BD2C5800402D5800409F5A004080B400AF094A094B1B78DBB243F0080319
:40080000DBB21370064A064B1B78DBB243F00803DBB2137000BFBD4680BC7047A8430040B843004080B483B000AF0346FB710C4A0B4B1B78DBB223F00203DBB2137008496E
:40084000074B1B78DAB2FB7903F00203DBB21343DBB20B7000BF0C37BD4680BC704700BF2C58004080B582B000AF0346FB710C4A0B4B1B78DBB223F00C03DBB2137008491B
:40088000074B1B78DAB2FB7903F00C03DBB21343DBB20B7000F016F800BF0837BD4680BD2C58004080B483B000AF0346FB71044AFB79137000BF0C37BD4680BC704700BF9F
:4008C000835B004080B483B000AF0B4B1B78DBB203F00C039B08DBB20633FB71074AFB7903F1924303F59C731B78DBB2137000BF0C37BD4680BC70472C5800400B460040F2
:4009000080B500AF022000F027F800BF80BD00BF80B400AF0D4A0D4B1B78DBB243F06003DBB213700A4A0A4B1B78DBB243F00203DBB21370074A074B1B78DBB243F0020383
:40094000DBB2137000BFBD4680BC704777580040A4430040B443004080B483B000AF0346FB710C4A0B4B1B78DBB223F00303DBB213700849074B1B78DAB2FB7903F0030356
:40098000DBB21343DBB20B7000BF0C37BD4680BC704700BF5A58004080B483B000AF134B7F221A70124B80221A707F23FB710CE0FB79DB0003F1804303F5F043FA79013AA2
:4009C000D2B21A70FB79013BFB71FB79002BEFD1FB79DB0003F1804303F5F04300221A7000BF0C37BD4680BC704700BFD180FF1FD080FF1F80B485B000AF03460A46FB71E0
:400A00001346BB710123FB60FB79172B2FD8BB79002B0ED0FB791A01184B1344FA791101164A0A441278D2B242F02002D2B21A700DE0FB791A01114B1344FA7911010F4ABF
:400A40000A441278D2B222F02002D2B21A70FB791A010A4B1344FA791101084A0A441278D2B242F00102D2B21A700023FB60FB6818461437BD4680BC704700BF1070004028
:400A800080B485B000AF03460A46FB711346BB710123FB60FB79172B1BD8FB791A01104B13441B78DBB223F00E03FB72FB791A010B4B1344BA795200D2B252B202F00E022F
:400AC00051B297F90B200A4352B2D2B21A700023FB60FB6818461437BD4680BC704700BF1070004080B485B000AF0346FB710B46BB8013467B800123FB60BB8841F6FF72C3
:400B0000934202D14FF40053BB807B8841F6FF72934202D14FF400537B80FB79172B17D8FB79DB0003F1804303F5EC430433BB60BB68BA881A80FB79DB0003F1804303F537
:400B4000EC430633BB60BB687A881A800023FB60FB6818461437BD4680BC704780B485B000AF03460A46FB711346BB710123FB60FB79172B07D8FB791A01064B1344BA7993
:400B80005A720023FB60FB6818461437BD4680BC704700BF1070004090B484B000AF0446084611461A462346FB710346BB710B467B7113463B710123FB60FB79172B34D827
:400BC000FB79DB0003F1804303F5EC43BA7902F07F02D1B27A79D201D2B20A43D2B21A70FB79DB0003F1804303F5EC433A7E1201D1B23A7902F00F02D2B20A43D2B25A70AA
:400C0000FB79DB0003F1804303F5EC433A7F02F00F02D2B29A70FB79DB0003F1804303F5EC430022DA700023FB60FB6818461037BD4690BC704700BF80B582B000AFFF2321
:400C4000FB7100F08DF90346BB71104B1B78182B12D90F4B1B78FB710C4B1B78013BDAB20A4B1A70FB79DB0003F1804303F5F0431B78DAB2064B1A70BB79184600F074F9FD
:400C8000FB7918460837BD4680BD00BFD080FF1FD180FF1F90B484B000AF0446084611461A462346FB710346BB800B46BB711346FB700123FB6097F90730002B23DBBB8885
:400CC00023F47F6323F00F039BB2002B1BD1FB79DB0003F1804303F5F043BB60BB68BA881A80FB79DB0003F1804303F5F043BA799A70FB79DB0003F1804303F5F043FA7816
:400D0000DA700023FB60FB6818461037BD4690BC704700BF80B485B000AF0346FB710B46BB8013467B800123FB6097F90730002B17DBFB79DB0003F1804303F5F0430433A6
:400D4000BB60BB68BA881A80FB79DB0003F1804303F5F0430633BB60BB687A881A800023FB60FB6818461437BD4680BC704700BF80B582B000AF786008E00C4B1B681846C8
:400D800000F0E6F87B68A3F500437B607B68B3F5004FF2D8064B1B687A6802FB03F3184600F0D6F800BF0837BD4680BDE480FF1FDC80FF1F80B584B000AF03460A46FB80FD
:400DC00013467B7100F0B4F80346FB7300F0A4F80346BB81FA88BB899A4200F08880464B1B78DBB203F00103FB72FB7B002B20D1BB89002B02D0FB88002B1AD1BB89002BC0
:400E00000BD13E4AFB8813803D4A3D4B1B78DBB223F04003DBB2137069E0394A384B1B78DBB243F04003DBB21370344AFB8813805DE0FB7A002B33D0324B00221A70324B94
:400E400001221A70314B00221A70314A304B1B78DBB203F07F03DBB21370294B1B78DBB203F00803002B02D0FB88002B18D1294ABB891380234B07221A7000BF214B1B78B3
:400E8000DBB203F00103002BF8D11B4A1A4B1B78DBB223F00103DBB213701A4B00221A70154B1B78DBB203F00103002B13D0194AFB881380134A7B79002B01D0032300E047
:400EC0000123137000BF0F4B1B78DBB203F00103002BF8D10BE0094AFB8813800649064B1B78DAB2FB7A1343DBB20B70FFE700BF1037BD4680BD00BFA24300408040004031
:400F000082400040014000401040004014400040084000400240004080B400AF034B1B889BB21846BD4680BC704700BF8040004080B400AF044B1B78DBB203F00703DBB2F0
:400F40001846BD4680BC704782400040000000000230800803D000BF01380046FCD17047EFF3108072B6704780F31088704700BF014B1868704700BF4881FF1F0E4B70B553
:400F80001E460E4C0025E41AA410A54204D056F8253098470135F8E700F096F8084B094C1E46E41AA4100025A54204D056F8253098470135F8E770BDD4100000D4100000A2
:400FC000D4100000DC10000010B5431E0A44914204D011F8014B03F8014FF8E710BD03460244934202D003F8011BFAE7704700000000000000510040100020510040100073
:40100000405100403000C05100401000F0510040100000000140001000140140000800400140000A004C014000020050014020000305080A0D0F121417191C1E21232628EC
:401040002B2D303235383A3D3F424447494C4E515356585B5D606265686A6D6F727477797C7E818386888B8D909295979A9D9FA2A4A7A9ACAEB1B3B6B8BBBDC0C2C5C7CAD4
:40108000CDCFD2D4D7D9DCDEE1E3E6E8EBEDF0F2F5F7FAFC808F9FAEBCC9D5E0E9F1F6FAFCFCFAF6F1E9E0D5C9BCAE9F8F8070605143362A1F160E0905030305090E161F32
:4010C0002A36435160704300F8B500BFF8BC08BC9E4670474D000000D9040000F8B500BFF8BC08BC9E4670472900000000110000C880FF1F88000000280000000000000071
:40110000000000006400FFFF807F00000300000000366E01C05D0000180000000000E02E000000000000000000000000000000000000000000000000000000000000000063
:40114000C610000000000000000000000000000000000000000000000000000000000000000000000000000000000000000000000000000000000000000000000000000099
:40118000E880FF1F000000000000000000000000000000000000000000000000000000000000000000000000000000000000000000000000000000000000000000000000A9
:4011C00000000000000000000000000000000000000000000000000000000000000000000000000000000000000000000000000000000000000000000000000000000000EF
:4012000000000000000000000000000000000000000000000000000000000000000000000000000000000000000000000000000000000000000000000000000000000000AE
:40124000000000000000000000000000000000000000000000000000000000000000000000000000000000000000000000000000000000000000000000000000000000006E
:40128000000000000000000000000000000000000000000000000000000000000000000000000000000000000000000000000000000000000000000000000000000000002E
:020000040003F7
:0200000480007A
:40000000015A004001150140011B014002400140014101400142014001430140024701400348014001490140014C0140024D0140015101409F01EC10EC103D80CE20A540E8
:40004000A540A5403020CC082550A540C820B510A420B420EC081002000B0B0000000000000000000000400000000000000000000000000000000000000000000000000097
:400080000000000000000000000000000000000000000000000000000000000000000000000000000000000000000000000000000000000000000000000000000000000040
:4000C0000000000000000000000000000000000000000000000000000000000000000000000000000000000000000000000000000000000000000000000000000000000000
:4001000000000000000000000000000000000000000000000000000000000000000000000000000000000000000000000000000000000000000000000000000000000000BF
:40014000000000000000000000000000000000000000000000000000000000000000000000000000000000000000000000000000000000000000000000000000000000007F
:0200000490006A
:0400000000004005B7
:0200000490105A
:04000000BC90ACAF55
:0200000490303A
:02000000B0311D
:0200000490402A
:4000000000000000000000000000000000000000000000000000000000000000000000000000000000000000000000000000000000000000000000000000000000000000C0
:400040000000000000000000000000000000000000000000000000000000000000000000000000000000000000000000000000000000000000000000000000000000000080
:400080000000000000000000000000000000000000000000000000000000000000000000000000000000000000000000000000000000000000000000000000000000000040
:4000C0000000000000000000000000000000000000000000000000000000000000000000000000000000000000000000000000000000000000000000000000000000000000
:0200000490501A
:0C00000000012E16106900012E1CC09A91
:00000001FF