:400000000080002011000000B5050000B505000080B500AF024A034B1B68136000F0FEFABC760040FA46004010B5054C237833B9044B13B10448AFF300800123237010BDAB
:400040005881FF1F00000000401C0000084B10B51BB108490848AFF300800848036803B910BD074B002BFBD0BDE81040184700BF000000005C81FF1F401C0000C880FF1F2A
:400080000000000090B585B002AF0823FB8001F0A9F84E4B1B78DBB2002B05D100F09AFB4B4B01221A7009E0484B1B78DBB27F2B04D100F0A1FB464B00221A70434B1B7856
:4000C000DBB20133DAB2414B1A70FB88013B9BB20121184600F0BAFFFB880133FB803D4B1B889BB2184600F08FFF3A4B1B889BB21A46FB88D31A002B08DD364B1B889AB21D
:40010000FB88D31A9AB2334B1A8008E0314B1B889BB2FA889A4202D12E4B64221A80FB88B3F5FA6F04D92B4B64221A800823FB80FB88294A92FBF3F39AB2284B1A8000233B
:400140003B603EE0264A3B6832F81320234B1B889BB29A4232D11E4B1B78DBB2002B2DD03B68DAB21F4B1A701E4B1B78DBB21A461D4B13F8223018461A4B1B78DBB21A4A50
:400180009B0013445B781C46164B1B78DBB2164A9B0013449B781A46124B1B78DBB219460F4B33F8113001930092234602460F490F4801F021F90E4801F090F83B680133F9
:4001C0003B603B686A2BBDDD63E700BF7481FF1F8681FF1FCC80FF1F90D003008481FF1FF81D00008B81FF1F481C0000302200008C81FF1F80B582B000AF786039603A6818
:400200000021786801F0EFF800BF0837BD4680BD80B584B000AFF860B9607A607A68B968F86801F0D5F800BF1037BD4680BD00BF80B483B000AF0346FB71FEE780B487B003
:4002400000AF7860396000233B6100237B6127E07B699B007A6813441B68BB60BB68FB73BB6823F0FF03BB6014E03B695B003A6813441B781A46BB68134419463B695B00A8
:400280003A6813445B780B703B6901333B61FB7B013BFB73FB7B002BE7D17B6901337B617B69112BD4D900BF1C37BD4680BC704780B582B000AF334B19221A80324B182221
:4002C0001A70324B5F221A80314B18221A70314B02221A704FF0402308221A702E4B03221A702E4B2E4A1278D2B21A702D4B08221A802D4B41F251221A800023FB701923AD
:400300007B6014E0FB785B00DAB2284B1B78DBB203F00103DBB21343DBB203F00303FB704FF4F07001F018F87B68013B7B607B68002B02D0FB78032BE4D17B68002B02D181
:400340000320FFF775FF1A4B4FF480721A80184B07221A70174B00221A70174B48221A70134B00221A70154B02221A70144A144B1B78DBB243F00303DBB2137000BF083706
:40038000BD4680BD804000408240004084400040864000400043004000420040A1460040080100492242004020420040254200400440004006400040084000400140004073
:4003C000A243004080B483B000AF0E4B1B78FB710D4AFB7903F00703DBB213700B4AFB791B09DBB213700A4B10221A70094B40F201121A80084B44221A7000BF0C37BD4609
:4004000080BC7047CF0100496E5800406F580040985A0040425B00407658004080B586B000AF72B64F4A4F4B1B78DBB243F00403DBB213700023FB7513E0FA7D13465B00F6
:4004400013445B00484A13443B613B691A683B699B889BB219461046FFF7CCFEFB7D0133FB75FB7D092BE8D90023FB751CE0FA7D13469B0013445B003C4A1344FB60FB68C6
:400480001B68BB60FB685B687B60FB681A7A5B7A1B0213437B807B881A467968B868FFF7B7FEFB7D0133FB75FB7D012BDFD930494FF09040FFF7C2FE04212E48FFF79AFE75
:4004C00004212D48FFF796FE2C4A2C4B1B78DBB243F00203DBB21370294A294B1B78DBB243F00203DBB21370264A264B1B78DBB243F04003DBB21370234A234B1B78DBB2B2
:4005000043F01003DBB213700A2220492048FFF77FFE08221F492048FFF77AFE08221F491F48FFF775FE1F4A1E4B1B78DBB243F00803DBB213701C4B61221A70FFF7B8FECB
:40054000194B81221A70194B01221A70FFF73AFF0E220C491648FFF75BFE00BF1837BD4680BD00BFE8460040402200007C2200004800004800760040087600400350014065
:4005800013500140A0430040C243004048030048C051004054030048125100405C03004832510040224300400048004004000840B043004080B500AF00F0DEFE03461B6877
:4005C0000C2B00D1FEE7FEE780B584B000AF7860104B1A687B6813441A460F4BD31AB3F5805F09DC0B4B1B68FB600A4B1A687B681344084A136007E000F0BEFE02460C23FB
:4006000013604FF0FF33FB60FB6818461037BD4680BD00BFD080FF1FF881FF1F80B586B000AF224B7B61224B3B61204B7B6135E03B691B68FB603B695B68BB603B699B68FC
:400640003B6000237B600CE0FB681A68BB681A60BB680433BB60FB680433FB607B6804337B607A683B689A42EED13B69DB683B6000237B6008E0BB6800221A60BB68043373
:40068000BB607B6804337B607A683B689A42F2D13B6910333B617B69013B7B617B69002BC6D100F06FFEFFF7EDFCFEE7010000008023000080B582B000AF194B194A1A60C5
:4006C000194A194B1B6843F40073136000237B600FE07B68032B04D8144A7B6852F8233000E0134B13497A6841F822307B6801337B607B682F2BECD90F4B1B78DAB20F4B0D
:400700001A700F4B0B4A1A60FFF788FE00F060FA0C4B00221A6000BF0837BD4680BD00BF0CED00E00004FA0514ED00E000000000B50500000080FF1FBC760040C480FF1F67
:4007400008ED00E0C080FF1F80B500AF00F034F9022000F083F9002000F0A0F900F0ECF900F0B6FB03461A46084B1A7000F0B0FB03461A46064B1A706421064800F050F8E8
:400780003221054800F080F800BF80BD7881FF1F7981FF1F90220000F422000080B500AF00F028F900F0D0F9084B1B780121184600F03CFA064B1B780121184600F036FA80
:4007C000002000F08BF900BF80BD00BF7681FF1F7781FF1F80B500AF064B1B78002B04D1FFF7B2FF034B01221A70FFF7D7FF00BF80BD00BF7581FF1F80B500AF064B1B78B2
:40080000184600F059FA054B1B78184600F054FA00F00AF900BF80BD7681FF1F7781FF1F80B582B000AF78600B467B807B681B0C9AB24FF480430121012000F059F803461B
:400840001A460F4B1A700F4B18780E4B1A787988012300F06BFB0B4B1B787A6891B245F68332184600F0A2FB054B1A78054B1B781946104600F0BEFA00BF0837BD4680BD9B
:400880007681FF1F7881FF1F80B582B000AF78600B467B807B681B0C9AB24FF480430121012000F057F803461A460F4B1A700F4B18780E4B1A787988012300F037FB0B4BF5
:4008C0001B787A6891B245F68332184600F06EFB054B1A78054B1B781946104600F08AFA00BF0837BD4680BD7781FF1F7981FF1F90B585B002AF0446084611461A4623465C
:40090000FB710346BB710B46BB8013467B80104B00221A700E4B1878BA79F9790023019300230093002300F083FA094B1B787A88B988184600F022FA054B1B78022118466C
:4009400000F0EAF9024B1B7818460C37BD4690BDD480FF1F90B585B002AF0446084611461A462346FB710346BB710B46BB8013467B80104B01221A700E4B1878BA79F97927
:400980000023019300230093002300F051FA094B1B787A88B988184600F0F0F9054B1B780221184600F0B8F9024B1B7818460C37BD4690BDD580FF1F80B500AF0A4B002267
:4009C0001A700A4B00221A70094A094B1B78DBB243F00803DBB21370002000F05FF8022000F03CF800BF80BD2C5800402D5800409F5A004080B400AF094A094B1B78DBB242
:400A000043F00803DBB21370064A064B1B78DBB243F00803DBB2137000BFBD4680BC7047A8430040B843004080B400AF094A094B1B78DBB223F00803DBB21370064A064BC5
:400A40001B78DBB223F00803DBB2137000BFBD4680BC7047A8430040B843004080B483B000AF0346FB710C4A0B4B1B78DBB223F00203DBB213700849074B1B78DAB2FB7918
:400A800003F00203DBB21343DBB20B7000BF0C37BD4680BC704700BF2C58004080B582B000AF0346FB710C4A0B4B1B78DBB223F00C03DBB213700849074B1B78DAB2FB79D9
:400AC00003F00C03DBB21343DBB20B7000F016F800BF0837BD4680BD2C58004080B483B000AF0346FB71044AFB79137000BF0C37BD4680BC704700BF835B004080B483B0BD
:400B000000AF0B4B1B78DBB203F00C039B08DBB20633FB71074AFB7903F1924303F59C731B78DBB2137000BF0C37BD4680BC70472C5800400B46004080B500AF022000F03E
:400B400027F800BF80BD00BF80B400AF0D4A0D4B1B78DBB243F06003DBB213700A4A0A4B1B78DBB243F00203DBB21370074A074B1B78DBB243F00203DBB2137000BFBD4665
:400B800080BC704777580040A4430040B443004080B483B000AF0346FB710C4A0B4B1B78DBB223F00303DBB213700849074B1B78DAB2FB7903F00303DBB21343DBB20B70FB
:400BC00000BF0C37BD4680BC704700BF5A58004080B483B000AF134B7F221A70124B80221A707F23FB710CE0FB79DB0003F1804303F5F043FA79013AD2B21A70FB79013B8D
:400C0000FB71FB79002BEFD1FB79DB0003F1804303F5F04300221A7000BF0C37BD4680BC704700BFD980FF1FD880FF1F80B485B000AF03460A46FB711346BB710123FB6047
:400C4000FB79172B2FD8BB79002B0ED0FB791A01184B1344FA791101164A0A441278D2B242F02002D2B21A700DE0FB791A01114B1344FA7911010F4A0A441278D2B222F013
:400C80002002D2B21A70FB791A010A4B1344FA791101084A0A441278D2B242F00102D2B21A700023FB60FB6818461437BD4680BC704700BF1070004080B485B000AF0346F3
:400CC000FB710123FB60FB79172B1DD8FB791A01104B1344FA7911010E4A0A441278D2B222F00102D2B21A70FB791A01094B1344FA791101074A0A441278D2B222F0200221
:400D0000D2B21A700023FB60FB6818461437BD4680BC70471070004080B485B000AF03460A46FB711346BB710123FB60FB79172B1BD8FB791A01104B13441B78DBB223F027
:400D40000E03FB72FB791A010B4B1344BA795200D2B252B202F00E0251B297F90B200A4352B2D2B21A700023FB60FB6818461437BD4680BC704700BF1070004080B485B025
:400D800000AF0346FB710B46BB8013467B800123FB60BB8841F6FF72934202D14FF40053BB807B8841F6FF72934202D14FF400537B80FB79172B17D8FB79DB0003F180437D
:400DC00003F5EC430433BB60BB68BA881A80FB79DB0003F1804303F5EC430633BB60BB687A881A800023FB60FB6818461437BD4680BC704780B485B000AF03460A46FB719E
:400E00001346BB710123FB60FB79172B07D8FB791A01064B1344BA795A720023FB60FB6818461437BD4680BC704700BF1070004090B484B000AF0446084611461A46234605
:400E4000FB710346BB710B467B7113463B710123FB60FB79172B34D8FB79DB0003F1804303F5EC43BA7902F07F02D1B27A79D201D2B20A43D2B21A70FB79DB0003F180430D
:400E800003F5EC433A7E1201D1B23A7902F00F02D2B20A43D2B25A70FB79DB0003F1804303F5EC433A7F02F00F02D2B29A70FB79DB0003F1804303F5EC430022DA700023B5
:400EC000FB60FB6818461037BD4690BC704700BF80B582B000AFFF23FB7100F045FA0346BB71104B1B78182B12D90F4B1B78FB710C4B1B78013BDAB20A4B1A70FB79DB002D
:400F000003F1804303F5F0431B78DAB2064B1A70BB79184600F02CFAFB7918460837BD4680BD00BFD880FF1FD980FF1F90B484B000AF0446084611461A462346FB7103469C
:400F4000BB800B46BB711346FB700123FB6097F90730002B23DBBB8823F47F6323F00F039BB2002B1BD1FB79DB0003F1804303F5F043BB60BB68BA881A80FB79DB0003F133
:400F8000804303F5F043BA799A70FB79DB0003F1804303F5F043FA78DA700023FB60FB6818461037BD4690BC704700BF80B485B000AF0346FB710B46BB8013467B800123FD
:400FC000FB6097F90730002B17DBFB79DB0003F1804303F5F0430433BB60BB68BA881A80FB79DB0003F1804303F5F0430633BB60BB687A881A800023FB60FB681846143762
:40100000BD4680BC704700BF80B582B000AF786008E00C4B1B68184600F09EF97B68A3F500437B607B68B3F5004FF2D8064B1B687A6802FB03F3184600F08EF900BF0837AD
:40104000BD4680BDEC80FF1FE480FF1F80B584B000AF03460A46FB8013467B7100F0B4F80346FB7300F0A4F80346BB81FA88BB899A4200F08880464B1B78DBB203F002030C
:40108000FB72FB7B002B20D1BB89002B02D0FB88002B1AD1BB89002B0BD13E4AFB8813803D4A3D4B1B78DBB223F04003DBB2137069E0394A384B1B78DBB243F04003DBB267
:4010C0001370344AFB8813805DE0FB7A002B33D0324B00221A70324B02221A70314B00221A70314A304B1B78DBB203F07F03DBB21370294B1B78DBB203F00803002B02D053
:40110000FB88002B18D1294ABB891380234B07221A7000BF214B1B78DBB203F00103002BF8D11B4A1A4B1B78DBB223F00203DBB213701A4B00221A70154B1B78DBB203F0E1
:401140000203002B13D0194AFB881380134A7B79002B01D0032300E00123137000BF0F4B1B78DBB203F00103002BF8D10BE0094AFB8813800649064B1B78DAB2FB7A1343E7
:40118000DBB20B70FFE700BF1037BD4680BD00BFA24300408440004086400040014000401040004014400040084000400240004080B400AF034B1B889BB21846BD4680BCA0
:4011C000704700BF8440004080B400AF044B1B78DBB203F00703DBB21846BD4680BC70478640004080B500AF064B1B78002B04D100F00AF8034B01221A7000F025F800BFBE
:4012000080BD00BF7A81FF1F80B400AF094B72221A70094B00221A70084B06221A70084B47221A70074B00221A7000BFBD4680BC704700BF88650040896500402A6500405D
:401240003A6500408B65004080B582B000AF00F08BF80346FB71114A104B1B78DBB243F02003DBB213700E4A0D4B1B78DBB243F01003DBB213700B4A0A4B1B78DBB243F0C2
:401280001003DBB2137000F04BF8FB79184600F06FF800BF0837BD4680BD00BF98650040996500409B65004080B483B000AF0346FB7100BF074B1B78DBB203F00403002BD6
:4012C000F8D1054AFB79137000BF0C37BD4680BC704700BF6B6500404B65004080B584B000AF78600023FB810C4B1B78002B10D009E0FB897A6813441B781846FFF7D4FF44
:40130000FB890133FB81FB897A6813441B78002BEFD100BF1037BD4680BD00BF7A81FF1F80B400AF094A094B1B78DBB243F00103DBB21370064A064B1B78DBB243F0010337
:40134000DBB2137000BFBD4680BC7047A2430040B2430040000000000230800803D000BF01380046FCD17047EFF3108072B6704780F31088704700BF014B1868704700BFEB
:401380005081FF1F0E4B70B51E460E4C0025E41AA410A54204D056F8253098470135F8E700F0DCFF084B094C1E46E41AA4100025A54204D056F8253098470135F8E770BDAC
:4013C0006823000068230000682300007023000010B5431E0A44914204D011F8014B03F8014FF8E710BD03460244934202D003F8011BFAE7704700000EB400B54FF4027140
:401400009CB0ADF814106FF00041049107914FF6FF711DAB02900690084853F8042BADF81610006802A9019300F064F8029B00221A701CB05DF804EB03B070475081FF1FEB
:401440002DE9F0478E6882469E420C46914698463ED88A8912F4906F3AD02568096902236F1A656905EB450595FBF3F57B1C43449D4238BF1D4653050FD5294600F040FBE8
:40148000064698B13A462169FFF7A2FFA38923F4906343F08003A38113E02A4600F08EFB064670B92169504600F0DEFA0C23CAF80030A3894FF0FF3043F04003A381BDE8B3
:4014C000F08726613E44266046466561ED1BA560464528BF464649463246206800F0A8FAA36800209B1BA36023681E442660BDE8F08700002DE9F04F9DB003938B898046E3
:401500001C060D4616460DD50B695BB9402100F0F7FA2860286118B90C23C8F80030CDE040236B610023099320238DF82930DFF89CB130238DF82A3037463C4614F8013BD4
:401540001BB9B7EB060910D003E0252BF9D02746F3E74B46324629464046FFF771FF013000F0A780099B4B4409933B78002B00F0A08000234FF0FF32049307930592069366
:401580008DF853301A930126052221784E4800F041FA671C049B38B14B4A3C46801A06FA00F018430490EFE7D90644BF20228DF853201A0744BF2B228DF8532022782A2AEA
:4015C00003D0079A00210A200BE0039A111D12680391002A10DA524243F00200079204900BE027463B780134303B092B03D800FB02320121F5E701B107923B782E2B1ED131
:401600007B782A2B0AD1039B02371A1D1B680392002BB8BF4FF0FF33059310E0002319460593781C0A2407463A780130303A092A03D804FB01210123F5E703B105910322B2
:401640003978224800F0E6F940B14023CBEB000003FA00F0049B013718430490397806221B487E1C8DF8281000F0D4F988B1194B33B9039B073323F007030833039314E030
:4016800003AB00932A46144B04A94046AFF3008007E003AB00932A460F4B04A9404600F093F8B0F1FF3F824603D0099B5344099342E7AB895B0601D4099801E04FF0FF3051
:4016C0001DB0BDE8F08F00BF282300002E2300003223000000000000411400002DE9F04791461F460A698B6806469342B8BF1346C9F8003091F843200C46DDF8208012B1AD
:401700000133C9F800302368990642BFD9F800300233C9F80030256815F0060510D104F1190A07E00123524639463046C04701301AD00135E368D9F800209B1A9D42F1DB10
:4017400094F843302268003318BF012392060FD5E118302081F843005A1C94F845102244023382F8431003E04FF0FF30BDE8F08704F1430239463046C0470130F4D0226850
:40178000D9F80050E36802F00602042A08BF5D1B2269A3680CBF25EAE57500259342C4BF9B1AED184FF000091A344D4509D00123224639463046C0470130D5D009F10109F2
:4017C000F3E70020BDE8F0872DE9F04317460A7E85B06E2A984606460C460C9B01F1430E00F0AE8011D8632A22D009D8002A00F0BB80582A40F0CA8081F84520834955E0DB
:40180000642A1ED0692A1CD0C0E0732A00F0B08009D86F2A2ED0702A40F0B8800A6842F020020A603EE0752A24D0782A3AD0ADE01A6801F14205111D1960136884F84230F1
:40184000A8E021681A6811F0800F02D0111D196008E011F0400F02F10401196002D0B2F9003000E01368002B3CDA2D225B4284F8432037E021681A6811F0800F02D0111D5D
:40188000196007E011F0400F02F10401196001D0138800E01368227E5C496F2A14BF0A2208221BE078225A4984F845202268186812F0800F00F104051D6003D1550601D509
:4018C000038800E00368D00744BF42F0200222601BB9226822F0200222601022002084F8430001E049490A226568002DA56008DB206820F0040020602BB9002D7DD1754686
:401900000CE0002B79D07546B3FBF2F002FB1033CB5C05F8013D03460028F5D1082A0BD12368DA0708D5236962689A42DEBF302305F8013C05F1FF35C5EB0E0323612EE0F3
:4019400008681A6810F0800F496903D0101D1860136808E010F0400F02F104001860136801D0198000E0196000232361754616E01A68111D1960156800216268284600F016
:4019800049F808B1401B6060636804E004F1420584F8422001232361002384F84330CDF800803B4603AA21463046FFF797FE013002D14FF0FF3026E023692A46394630464B
:4019C000C0470130F5D023689B0710D5002504F1190907E001234A4639463046C0470130E7D00135E368039A9B1A9D42F2DBE068039B9842B8BF184605E00B7804F1420565
:401A000084F842308AE705B0BDE8F083392300004A23000010B5C9B202449042034605D01C7801308C42F8D1184610BD002010BD884210B501EB020301D8421E0BE0984249
:401A4000FBD28118D21AD34204D013F8014D01F8014DF8E710BD994204D011F8014B02F8014FF8E710BD000038B50546002944D051F8043C0C1F002BB8BFE41800F0D4F862
:401A80001E4A1368114613B96360146030E0A3420DD92268A018834201BF18685B681218226063600C6023E0A24203D813465A68002AF9D118681918A1420BD1216801441A
:401AC00058188242196013D110685268014419605A600DE002D90C232B6009E021686018824201BF106852680918216062605C602846BDE8384000F098B838BD8081FF1F8A
:401B000070B5CD1C25F0030508350C2D38BF0C25002D064601DBA94202D90C23336046E000F082F8234B1C681A462146A1B10B685B1B0ED40B2B03D90B60CC18CD501EE01D
:401B40008C420BBF63684B681360636018BF0C4615E00C464968E9E7174C23681BB9304600F052F820602946304600F04DF8431C18D0C41C24F00304A0420DD1256030461F
:401B800000F053F804F10B00231D20F00700C31A0ED05A42E25070BD211A304600F034F80130EBD10C233360304600F03EF8002070BD00BF8081FF1F7C81FF1FF8B5074685
:401BC00015460E4621B91146BDE8F840FFF798BF1AB9FFF749FF2846F8BD00F027F885420ED929463846FFF78BFF044650B131462A46FFF7EDFB31463846FFF735FF01E06D
:401C00003046F8BD2046F8BD38B5064C0023054608462360FEF7D8FC431C02D1236803B12B6038BDF081FF1F7047704751F8040C0028BEBF091851F8043CC01804387047B6
:401C40000000000000000000433020004323300044302000442330004530200046302000462330004730200047233000413020004123300042302000433120004323310039
:401C800044312000442331004531200046312000462331004731200047233100413120004123310042312000433220004323320044322000442332004532200046322000B8
:401CC000462332004732200047233200413220004123320042322000433320004323330044332000442333004533200046332000462333004733200047233300413320005F
:401D00004123330042332000433420004323340044342000442334004534200046342000462334004734200047233400413420004123340042342000433520004323350014
:401D400044352000442335004535200046352000462335004735200047233500413520004123350042352000433620004323360044362000442336004536200046362000B7
:401D8000462336004736200047233600413620004123360042362000433720004323370044372000442337004537200046372000462337004737200047233700413720005E
:401DC0004123370042372000433820004323380044382000442338004538200046382000462338004738200047233800413820004123380042382000100011001200130009
:401E000015001600170019001A001C001D001F00210023002500270029002C002E003100340037003A003E004100450049004E00520057005C00620068006E0075007B0064
:401E400083008B0093009C00A500AF00B900C400D000DC00E900F70006011501260137014A015D01720188019F01B801D201EE010B022A024B026E029302BA02E40210034C
:401E80003F037003A403DC03170455049704DD0427057505C80520067D06E0064907B8072D08A9082D09B9094D0AEA0A900B400CFA0CC00D920E6F0F5A1053115B12721325
:401EC0009A14D4151F178018F519801B231DDE1E9A9999999959304052B81E85EB5131409A9999999959324033333333337333409A9999999999344014AE47E17AD4354011
:401F00001F85EB51B81E37400000000000803840F6285C8FC2F539400000000000803B40A4703D0AD7233D401F85EB51B8DE3E409A999999995940403333333333534140D8
:401F40007B14AE47E15A424052B81E85EB7143409A999999999944403333333333D345400000000000204740000000000080484014AE47E17AF449400000000000804B4087
:401F8000C3F5285C8F224D401F85EB51B8DE4E400AD7A3703D5A504033333333335351407B14AE47E15A524052B81E85EB7153400AD7A3703D9A5440A4703D0AD7D35540BF
:401FC0000000000000205740000000000080584085EB51B81EF559400000000000805B40C3F5285C8F225D40AE47E17A14DE5E4052B81E85EB5960407B14AE47E15261407F
:40200000C3F5285C8F5A624052B81E85EB71634052B81E85EB996440EC51B81E85D3654000000000002067400000000000806840CDCCCCCCCCF469400000000000806B4094
:40204000C3F5285C8F226D40AE47E17A14DE6E40AE47E17A145A70407B14AE47E1527140C3F5285C8F5A7240AE47E17A14727340AE47E17A149A744048E17A14AED3754001
:40208000A4703D0AD71F77400000000000807840CDCCCCCCCCF479400000000000807B40C3F5285C8F227D40AE47E17A14DE7E4000000000005A8040295C8FC2F552814059
:4020C000713D0AD7A35A8240000000000072834000000000009A844048E17A14AED3854052B81E85EB1F874052B81E85EB7F88407B14AE47E1F489400000000000808B4038
:40210000713D0AD7A3228D405C8FC2F528DE8E4000000000005A904052B81E85EB529140713D0AD7A35A9240D7A3703D0A729340D7A3703D0A9A9440713D0AD7A3D39540D6
:4021400052B81E85EB1F974052B81E85EB7F98407B14AE47E1F499400000000000809B40713D0AD7A3229D4085EB51B81EDE9E4000000000005AA04052B81E85EB52A140CC
:40218000713D0AD7A35AA240D7A3703D0A72A340D7A3703D0A9AA4405C8FC2F5A8D3A54052B81E85EB1FA74052B81E85EB7FA8407B14AE47E1F4A940000000000080AB4030
:4021C00085EB51B89E22AD40713D0AD723DEAE40F6285C8F025AB04052B81E85EB52B1407B14AE47A15AB240E17A14AE0772B340D7A3703D0A9AB44066666666A6D3B5404C
:402200005C8FC2F5E81FB74048E17A14EE7FB8407B14AE47E1F4B940000000000080BB4085EB51B89E22BD407B14AE4721DEBE40256325632563203A202569200A0D000087
:40224000005100401000205100401000405100403000F0510040100000000140001000140140000480180140800300400140000A004C0140000200500140200060520040A7
:40228000C0020048060000180140C8020048800080848A8F94989EA2A8ACB2B6BCC0C6CAD0D5DADEE4E8EEF2F8FCF8F2EEE8E4DEDAD4D0CAC6C0BCB6B2ADA8A29E98948F11
:4022C0008A84807A76706B66615D58534E49443E39342F2A25211C17120D0803080D12171C21252A2F34393E44494E53585D61666B70767A808F9FAEBCC9D5E0E9F1F6FABB
:40230000FCFCFAF6F1E9E0D5C9BCAE9F8F8070605143362A1F160E0905030305090E161F2A36435160704300232D302B2000686C4C0065666745464700303132333435367E
:4023400037383941424344454600303132333435363738396162636465660000F8B500BFF8BC08BC9E4670474D000000B5060000F8B500BFF8BC08BC9E467047290000008F
:4023800090230000C880FF1F90000000A00000000000000064000000F881FF1FFFFF0000807F00000300000000366E01C05D0000180000000000E02E0000000000000000F1
:4023C0000000000000000000000000000000000000000000000000002623000000000000000000000000000000000000000000000000000000000000000000000000000094
:40240000000000000000000000000000000000000000000000000000F080FF1F0000000000000000000000000000000000000000000000000000000000000000000000000E
:40244000000000000000000000000000000000000000000000000000000000000000000000000000000000000000000000000000000000000000000000000000000000005C
:40248000000000000000000000000000000000000000000000000000000000000000000000000000000000000000000000000000000000000000000000000000000000001C
:4024C00000000000000000000000000000000000000000000000000000000000000000000000000000000000000000000000000000000000000000000000000000000000DC
:40250000000000000000000000000000000000000000000000000000000000000000000000000000000000000000000000000000000000000000000000000000000000009B
:020000040003F7
:0200000480007A
:40000000015A0040036500400115014015180140421901406F1A0140551B014002400140014101400142014001430140024701400448014001490140014C01400B4D0140C9
:4000400002500140015101409F01887289388B0FEC2080088E049204960299019A02A401A801AC01B002B201B404B501B608BE51BF10D418D804D904DB04DF010001020208
:4000800005110602071009110A200C400D080E0810221110154116011724180419401B091C081D091E0923042510260A27102C102D402E022F0832043328348035013608BF
:4000C0003C403D083E204490451847404E1455015B015E01600463026C226D106E0475107621772088408A048C408D10C0F9C2EEC4F7CAF0CCD4CE70D0F0D220D681D80C55
:4001000002030410058006AC0713080C0A710F0C1414152C17431C091ED01F082010224025712620270628DC29712A222B0E31C0330F34E03530361F39223A203B083F10A8
:400140004002454049FF4A074BFF4C404D204EF04F055008580459045A045F01604061A86240632081118364840A85308614881389308A048E089003921493039413960CC7
:40018000970398E099229B149C809D039E40A040A103A2A0A308A503A615A8E0AB03AC20AE40B010B10CB20FB340B530B6E0B703BA08BE01BF01C026C103C50BC6ECC80DBD
:4001C000C9FFCAFFCBFFCEF0CF44D00CD401D804D904DA04DB04DF01E6C0EA40EB020001012003100440052007200A220C040E060F801080110413201515160218011920FF
:400200001D041E401F40204421082201232025042620274529242A242C102D012F4830803108348035013628384839043D103E06400444044624471048804C044E10500400
:4002400057E05C205D025E405F048102822183208A028C208F8091109204930494019501989099019E029F45A208A308A504A720B084B140C0EEC2F5C4FECAE6CCFACEEADD
:40028000D064D220D6F0EC203F40CE209740974097403020CC08208023409740C840B040A4201040750288409902B020B102C408DE04E201E801EC0410011C011002000043
:4002C00080800000400000001F0020001C0023010418000001080000001900623F39004433000C000067231803010000027F00000C000026081000002C40001F0F38100051
:4003000000022A080000400046030200010C00E021FFFFFF62A0F0410C000000000002130404040400000001000000000000400200103010001010120000000000000000CA
:400340000000000000000000800040808000800000000000000B0B0000000000000000000000400000000000000000000000000000000000000000000000000000000000E7
:40038000000000000000000000000000000000000000000000000000000000000000000000000000000000000000000000000000000000000000000000000000000000003D
:4003C00000000000000000000000000000000000000000000000000000000000000000000000000000000000000000000000000000000000000000000000000000000000FD
:4004000000000000000000000000000000000000000000000000000000000000000000000000000000000000000000000000000000000000000000000000000000000000BC
:40044000000000000000000000000000000000000000000000000000000000000000000000000000000000000000000000000000000000000000000000000000000000007C
:0200000490006A
:0400000000004005B7
:0200000490105A
:04000000BC90ACAF55
:0200000490303A
:02000000046A90
:0200000490402A
:4000000000000000000000000000000000000000000000000000000000000000000000000000000000000000000000000000000000000000000000000000000000000000C0
:400040000000000000000000000000000000000000000000000000000000000000000000000000000000000000000000000000000000000000000000000000000000000080
:400080000000000000000000000000000000000000000000000000000000000000000000000000000000000000000000000000000000000000000000000000000000000040
:4000C0000000000000000000000000000000000000000000000000000000000000000000000000000000000000000000000000000000000000000000000000000000000000
:0200000490501A
:0C00000000012E16106900012E2414D3FC
:00000001FF