:400000000080002011000000852700008527000080B500AF024A034B1B68136002F0E6FBBC760040FA46004010B5054C237833B9044B13B10448AFF300800123237010BDDC
:40004000408BFF1F000000004C6A0000084B10B51BB108490848AFF300800848036803B910BD074B002BFBD0BDE81040184700BF00000000448BFF1F4C6A0000C880FF1F92
:400080000000000080B500AF03F0D2FA03461A463C4B1A7003F0DCFA03461A463A4B1A70384B1B78DBB2002B16D1374B1B78DBB2002B11D1354B1B78DBB2002B0CD0334BD9
:4000C00000221A70002003F0D3FA002003F0EEFA2F4802F057FE53E02A4B1B78DBB2002B16D1294B1B78DBB2012B11D1274B1B78DBB2012B0CD0254B01221A70002003F075
:40010000B7FA012003F0D2FA224802F03BFE37E01C4B1B78DBB2012B16D11B4B1B78DBB2002B11D1194B1B78DBB2022B0CD0174B02221A70012003F09BFA002003F0B6FA4C
:40014000154802F01FFE1BE00E4B1B78DBB2012B16D10D4B1B78DBB2012B11D10B4B1B78DBB2032B0CD0094B03221A70012003F07FFA012003F09AFA084802F003FEFFE725
:4001800000BF80BDDC8BFF1F4E8CFF1FA48AFF1F707500007C750000887500009475000090B587B004AF4B4B1B78DBB2002B00F08C80494B1B88B3F5FA5F03D9464B4FF4AA
:4001C0007A721A80444B1B881A46444B93FBF2F3184605F017FD03460C46414AC2E900343F4B18CB1846214605F0ACFF03469AB23C4B1A800023FB8044E0FB883A4A32F8FE
:400200001320384B1B889BB29A4238D1FB88DAB2364B1A70354B1B78DBB21946344A0B465B000B4413441B781846304B1B78DBB219462F4A0B465B000B44134401331B78CD
:400240001C462A4B1B78DBB21946294A0B465B000B44134402331B781A46224B1B889BB219461D4B1B88029301910092234602462049214805F0C6FF1F4802F083FDFB8822
:400280000133FB80FB886B2BB7D9134B1B88013B9BB20121184602F02DFC0F4B1B8801339AB20D4B1A800C4B1B885B004FF4FA5292FBF3F39BB214339AB2104B1A800F4BCC
:4002C0001B889BB2184603F031F900BF0C37BD4690BD00BF5E8BFF1FA88AFF1F90D00300D08BFF1FB88BFF1F946B0000E48BFF1F506A0000A0750000E88BFF1FA28AFF1FB8
:4003000090B589B004AF0346FB710B46BB711346BB80BB796B2B01D96B23BB712F4B1B78DBB2002B57D02E4802F02CFDFB79FB734BE02C4B1B78DBB2002B4BD1FB7B2A4A16
:4003400032F813301A46294B93FBF2F39AB2284B1A80274B1B88013B9BB20121184602F0C9FBFA7B234913465B0013440B441B781846FA7B1F4913465B0013440B44013305
:400380001B781C46FA7B1B4913465B0013440B4402331B781946FB7B134A32F813301A46134B1B88029301920091234602461249124805F027FF114802F0E4FCBB88184647
:4003C00003F0B4F8FB7B0133FB73FA7BBB799A42AFD900E000BF1437BD4690BD5D8BFF1FB87500005E8BFF1F946B000090D00300A88AFF1F506A0000A0750000E88BFF1FB3
:4004000080B582B000AF03460A46FB711346BB71FB79194A32F813301A46184B93FBF2F39AB2174B1A80164B1B88013B9BB20121184602F05FFBBB790F4A32F813301A46A7
:400440000E4B93FBF2F39AB20D4B1A800C4B1B88013B9BB20121184604F03AFD02F0A2FA05F012F8074B01221A70074B01221A7000BF0837BD4680BD946B000090D0030019
:40048000A88AFF1FD88BFF1FBA8BFF1F80B500AF02F09AFA05F00AF8034B00221A70034B00221A7000BF80BDD88BFF1FBA8BFF1F80B500AFB94B1B889AB2B94B1B889BB208
:4004C0009A420BD2B54B1B889BB2002B40F09380B44B1B78DBB2002B40F08D80AF4B00221A80B04B1B78DBB21A46AF49AF4805F089FEAE4802F046FCAA4B1B78DBB2052B53
:4005000050D801A252F823F021050000370500004D05000063050000790500008F0500004FF4FB71A24802F063FA4FF4FB71A14804F0D0FF37E04FF4FB719F4802F058FA31
:400540004FF4FB719B4804F0C5FF2CE04FF4FB719A4802F04DFA4FF4FB71964804F0BAFF21E04FF4FB71924802F042FA4FF4FB71914804F0AFFF16E04FF4FB718D4802F0D3
:4005800037FA4FF4FB718C4804F0A4FF0BE04FF4FB718B4802F02CFA4FF4FB71854804F099FF00E000BF7F4B1B78DBB20133DAB27C4B1A70834B1B78DBB2013BDAB2814B47
:4005C0001A70804B1B78DBB2002B03D07D4B1B78DBB200E009237B4A1370724B1B78DBB2052B03D86F4B1B78DBB200E000236D4A137000F066BF694B1B889BB2724AA2FB3B
:4006000003239B099BB2DBB20133DAB26F4B1A70624B1B889BB201339AB2604B1A806B4B1B78DBB2013B0C2B00F2448701A252F823F000BF690600000707000071070000F6
:400640000F080000270A0000430C0000A10C00001F0D0000990F00009D110000FD1100007D120000711400004C4B1B889BB2483B162B45D801A252F823F000BFD90600008C
:400680000107000001070000010700000107000001070000E306000001070000E90600000107000001070000010700000107000001070000EF06000001070000F506000012
:4006C0000107000001070000010700000107000001070000FB06000030214820FFF790FE0FE002F071F90CE002F05CF909E002F06BF906E002F056F903E002F065F900E09D
:4007000000BF00F0D8BE254B1B889BB2603B4E2B1DD04E2B06DC2E2B13D0482B14D0012B0CD023E0562B18D0562B02DC502B11D01CE0582B14D05E2B15D017E002F032F911
:4007400014E002F041F911E002F02CF90EE002F03BF90BE002F026F908E002F035F905E002F020F902E002F02FF900BF00F0A3BE0A4B1B889BB2C03B4E2B37D04E2B06DC22
:400780002E2B2DD0482B2ED0012B26D03DE0562B32D0562B1CDC502B2BD036E07A8BFF1FB08AFF1F7C8BFF1FC8750000E88BFF1FB486FF1FC482FF1FAC88FF1FCC80FF1FC5
:4007C000BC84FF1FB28AFF1FABAAAAAA4D8CFF1F582B14D05E2B15D017E002F0E3F814E002F0F2F811E002F0DDF80EE002F0ECF80BE002F0D7F808E002F0E6F805E002F081
:40080000D1F802E002F0E0F800BF00F054BEEE4B1B889BB2A3F59073013B5D2B00F2008101A252F823F000BFA1090000210A0000210A0000210A0000210A0000210A000047
:40084000210A0000210A0000210A0000210A0000210A0000210A0000210A0000210A0000210A0000210A0000210A0000210A0000210A0000210A0000210A0000AB0900003F
:40088000210A0000B1090000210A0000210A0000210A0000210A0000210A0000BB090000210A0000C1090000210A0000210A0000210A0000210A0000210A0000CB09000018
:4008C000210A0000D1090000210A0000210A0000210A0000210A0000210A0000DB090000210A0000E1090000210A0000210A0000210A0000210A0000210A0000210A000021
:40090000210A0000210A0000210A0000210A0000210A0000210A0000210A0000210A0000210A0000210A0000210A0000210A0000210A0000210A0000210A0000EB0900003E
:40094000210A0000F1090000210A0000210A0000210A0000210A0000210A0000FB090000210A0000010A0000210A0000210A0000210A0000210A0000210A00000B0A000055
:40098000210A0000110A0000210A0000210A0000210A0000210A0000210A00001B0A00004C214820FFF72CFD3BE0FFF76FFD38E001F0F8FF04F068FD33E0FFF767FD30E0AE
:4009C00001F0F0FF04F060FD2BE0FFF75FFD28E001F0E8FF04F058FD23E0FFF757FD20E001F0E0FF04F050FD1BE0FFF74FFD18E001F0D8FF04F048FD13E0FFF747FD10E08F
:400A000001F0D0FF04F040FD0BE0FFF73FFD08E001F0C8FF04F038FD03E0FFF737FD00E000BF00F048BD684B1B889BB2A3F5C073013B5D2B00F2028101A252F823F000BFD8
:400A4000B90B00003D0C00003D0C00003D0C00003D0C00003D0C00003D0C00003D0C00003D0C00003D0C00003D0C00003D0C00003D0C00003D0C00003D0C00003D0C00006B
:400A80003D0C00003D0C00003D0C00003D0C00003D0C0000C30B00003D0C0000CD0B00003D0C00003D0C00003D0C00003D0C00003D0C0000D70B00003D0C0000DD0B00005A
:400AC0003D0C00003D0C00003D0C00003D0C00003D0C0000E70B00003D0C0000ED0B00003D0C00003D0C00003D0C00003D0C00003D0C0000F70B00003D0C0000FD0B000096
:400B00003D0C00003D0C00003D0C00003D0C00003D0C00003D0C00003D0C00003D0C00003D0C00003D0C00003D0C00003D0C00003D0C00003D0C00003D0C00003D0C000025
:400B40003D0C00003D0C00003D0C00003D0C00003D0C0000070C00003D0C00000D0C00003D0C00003D0C00003D0C00003D0C00003D0C0000170C00003D0C00001D0C000091
:400B80003D0C00003D0C00003D0C00003D0C00003D0C0000270C00003D0C00002D0C00003D0C00003D0C00003D0C00003D0C00003D0C0000370C00004F214820FFF720FC79
:400BC0003DE0FFF763FC3AE07A8BFF1F4F214820FFF716FC33E0FFF759FC30E04F214820FFF70EFC2BE0FFF751FC28E04F214820FFF706FC23E0FFF749FC20E04F214820E4
:400C0000FFF7FEFB1BE0FFF741FC18E054214820FFF7F6FB13E0FFF739FC10E058214C20FFF7EEFB0BE0FFF731FC08E05B214F20FFF7E6FB03E0FFF729FC00E000BF00F0C4
:400C40003ABCD24B1B889BB2A3F5F073302B15D0302B04DC012B09D02E2B0CD01EE0542B14D05E2B17D0522B0DD017E060214520FFF7C6FB12E0FFF709FC0FE05F2147203F
:400C8000FFF7BEFB0AE0FFF701FC07E05A214720FFF7B6FB02E0FFF7F9FB00BF00F00BBCBA4B1B889BB2A3F510732E2B21D02E2B06DC162B15D0182B16D0012B0CD02DE0FD
:400CC000462B1ED0462B02DC302B15D026E0482B1AD05E2B1FD021E05D214C20FFF790FB1CE004F0E3FB19E05B214C20FFF788FB14E0FFF7CBFB11E059214D20FFF780FB9E
:400D00000CE0FFF7C3FB09E056214120FFF778FB04F0BAFB02E0FFF7B9FB00BFCBE39B4B1B889BB2A3F52873013B5D2B00F22C8101A252F823F000BFB10E0000890F0000C5
:400D4000890F0000890F0000890F0000890F0000890F0000890F0000890F0000890F0000890F0000890F0000890F0000890F0000890F0000890F0000890F0000890F0000F3
:400D8000890F0000890F0000890F0000890F0000890F0000890F0000890F0000890F0000890F0000890F0000890F0000890F0000890F0000890F0000890F0000BB0E000082
:400DC000890F0000C10E0000890F0000890F0000890F0000E90E0000890F0000EF0E0000890F0000890F0000890F0000170F0000890F00001D0F0000890F0000890F000056
:400E0000890F0000890F0000890F0000890F0000890F0000890F0000890F0000890F0000890F0000890F0000890F0000890F0000890F0000890F0000890F0000890F000032
:400E4000890F0000890F0000890F0000270F0000890F00002D0F0000890F0000890F0000890F0000890F0000890F0000890F0000890F0000890F0000890F0000890F0000B0
:400E8000890F0000890F0000890F0000890F0000890F0000550F0000890F00005B0F0000890F0000890F0000890F0000830F000054214320FFF7A4FA67E004F0F7FA64E09E
:400EC0004FF4F7631A46324B93FBF2F39AB2314B1A80304B1B88013B9BB20121184603F0F7FF04F0D1FA50E004F0E0FA4DE040F62D031A46264B93FBF2F39AB2254B1A80A9
:400F0000244B1B88013B9BB20121184603F0E0FF04F0BAFA39E0FFF7B9FA36E056214320FFF76EFA31E004F0C1FA2EE04FF4C4631A46174B93FBF2F39AB2164B1A80154BF8
:400F40001B88013B9BB20121184603F0C1FF04F09BFA1AE004F0AAFA17E040F62D131A460B4B93FBF2F39AB20A4B1A80094B1B88013B9BB20121184603F0AAFF04F084FA18
:400F800003E0FFF783FA00E000BF94E27A8BFF1F90D00300A88AFF1FB74B1B889BB2A3F54073013B5D2B00F2F78001A252F823F0291100009911000099110000991100004E
:400FC0009911000099110000991100009911000099110000991100009911000099110000991100009911000099110000991100009911000099110000991100009911000051
:40100000991100003311000099110000391100009911000099110000991100009911000099110000991100009911000099110000991100004311000099110000491100007C
:401040009911000099110000991100009911000099110000991100009911000099110000991100005311000099110000591100009911000099110000991100009911000056
:4010800099110000991100009911000099110000991100006311000099110000691100009911000099110000991100009911000099110000991100009911000099110000F6
:4010C00099110000731100009911000079110000991100009911000099110000991100009911000099110000991100009911000099110000831100009911000089110000BC
:401100009911000099110000991100009911000099110000991100009911000099110000991100009311000058214820FFF768F933E001F049FC30E048213C20FFF760F96C
:401140002BE0FFF7A3F928E04C214020FFF758F923E0FFF79BF920E04F214320FFF750F91BE0FFF793F918E054214820FFF748F913E0FFF78BF910E058214C20FFF740F91D
:401180000BE0FFF783F908E05B214F20FFF738F903E0FFF77BF900E000BF8CE1364B1B889BB2A3F55873302B17D0302B04DC012B09D02E2B0CD020E0542B16D05E2B19D01D
:4011C000522B0FD019E060214520FFF719F914E001F0FAFB04F06AF90FE05F214720FFF70FF90AE0FFF752F907E05A214720FFF707F902E0FFF74AF900BF5CE11E4B1B889A
:401200009BB2A3F570732E2B21D02E2B06DC162B15D0182B16D0012B0CD02BE0462B1ED0462B02DC302B15D024E0482B1AD05E2B1DD01FE05D214C20FFF7E2F81AE004F093
:4012400035F917E05B214C20FFF7DAF812E0FFF71DF90FE059214D20FFF7D2F80AE0FFF715F907E056214120FFF7CAF802E0FFF70DF900BF1FE100BF7A8BFF1F924B1B88A1
:401280009BB2A3F58463013B5D2B00F2EF8001A252F823F00D1400006D1400006D1400006D1400006D1400006D1400006D1400006D1400006D1400006D1400006D14000012
:4012C0006D1400006D1400006D1400006D1400006D1400006D1400006D1400006D1400006D1400006D1400006D1400006D1400006D1400006D1400006D1400006D140000DE
:401300006D1400006D1400006D1400006D1400006D1400006D140000171400006D1400001D1400006D1400006D1400006D140000271400006D1400002D1400006D140000C9
:401340006D1400006D140000371400006D1400003D1400006D1400006D1400006D1400006D1400006D1400006D1400006D1400006D1400006D1400006D1400006D140000C3
:401380006D1400006D1400006D1400006D1400006D1400006D1400006D1400006D1400006D1400006D140000471400006D1400004D1400006D1400006D1400006D14000063
:4013C0006D1400006D1400006D1400006D1400006D1400006D1400006D1400006D1400006D1400006D1400006D1400006D140000571400006D1400005D1400006D14000003
:401400006D1400006D1400006714000054214320FEF7F6FF2BE004F049F828E053214A20FEF7EEFF23E0FFF731F820E054214C20FEF7E6FF1BE0FFF729F818E058214F2096
:40144000FEF7DEFF13E0FFF721F810E054214D20FEF7D6FF0BE0FFF719F808E058214F20FEF7CEFF03E0FFF711F800E000BF22E0154B1B889BB2A3F590632E2B0ED02E2B8A
:4014800002DC012B05D014E0302B0AD0462B0DD00FE056214320FEF7B3FF0AE0FEF7F6FF07E054214820FEF7ABFF02E0FEF7EEFF00BF00E000BF054B1B78DBB2184602F04D
:4014C00035F800BF80BD00BF7A8BFF1FB28AFF1F90B583B000AF9A4B1B78002B1BD0994B1B78DBB283F00103DAB2964B1A70954B1B78DBB2184602F0BBF8924B1B78DBB260
:40150000002B0CBF01230023DBB2184602F0CEF88B4B00221A708C4B1B78012B15D1894B1B78DBB2002B05D0884B1B680133874A136006E0864B1B78DBB20133DAB2844BA5
:401540001A70814B00221A7018E07F4B1B78022B14D17C4B1B78DBB2002B05D07B4B1B68013B7A4A136006E0794B1B78DBB2013BDAB2774B1A70744B00221A70744B1B78C4
:40158000DBB2502B03D8724B1B78DBB200E050236F4A13706E4B1B78DBB2002B03D06C4B1B78DBB200E00C23694A1370674B1B68502B02DC654B1B6800E05023634A1360B5
:4015C000644B1B78DBB2002B3DD05E4B1B78DBB2002B1AD0604B1B78DBB20133DAB25E4B1A705D4B1B78DBB2042B02D95A4B01221A70594B1B78DBB21A465849584804F0CB
:4016000001FE574801F0BEFB1AE0564B1B889BB25B009AB2534B1A80524B1B889BB2B3F5967F02D94F4B28221A804E4B1B889BB21A464D494A4804F0E5FD494801F0A2FB4F
:40164000444B00221A70494B1B78DBB2002B2FD0474B1B78DBB2642B06D1454B00221A70444B00221A7015E0414B1B78DBB21A460623013B9A4206D13D4B64221A703D4B89
:4016800064221A7006E03A4B1B78DBB20133DAB2374B1A70354B00221A70354B1B78DBB21A4635492E4804F0ADFD2D4801F06AFB324B1B78DBB2002B29D02E4B1B78DBB2E0
:4016C000642B03D12B4B00221A7012E0294B1B78DBB21A460823013B9A4203D1254B00221A7006E0234B1B78DBB20133DAB2214B1A70224B00221A701E4B1B78DBB21A4620
:401700001F49174804F07EFD154801F03BFB1D4B1B78DBB2002B37D1002003F08BFA022001F026FF012003F085FA142001F020FF002003F07FFA134B01221A7016E100BF40
:40174000608BFF1F4C8CFF1FCC8BFF1F748BFF1FAD8AFF1F5D8BFF1FAC8AFF1FE0750000E88BFF1FAE8AFF1FF47500005E8BFF1FAA8AFF1FAB8AFF1F087600005F8BFF1F52
:401780001C760000788BFF1F7D4B1B78DBB2022B40F0EC807B4B1B889AB27B4B1B889BB2D31A9AB2794B1A80784B1B889BB2B3F5A07F19D2754B1B889BB20A2B14D9734BCE
:4017C0001B889BB2184604F01DFA4FF00002704B04F0A8FB03460C461846214604F0B2FC03469AB26B4B1A806B4B1B78DBB2642B4AD000237B6043E0664B1B889BB203F1E1
:401800000C01664B83FB01235A10CB17D21A13465B0013449B00CA1A5F4B1B78DBB21C465F4B1B78DBB218465E49E3000344DB0019447B680B441B789A421ED1554B1B8856
:401840009BB2DAB2584B1B78DBB21344DAB2574B1B78DBB2194649000B449B00DBB21344DAB2534B1A70534B1B68DAB2504B1B78DBB21344DAB2504B1A707B6801337B609B
:401880007B68072BB8DD1EE0424B1B889BB2DAB2454B1B78DBB21344DAB2444B1B78DBB2194649000B449B00DBB21344DAB2404B1A70404B1B68DAB23D4B1B78DBB2134485
:4018C000DAB23D4B1A703A4B1B78DBB2642B04D8374B1B78DBB2002B02D1354B0C221A70354B1B78DBB2642B04D8314B1B78DBB2002B06D12F4B1B68DBB20C33DAB22E4BEB
:401900001A70294B1B78DBB21A46294B1B78DBB22A492B4804F076FC294801F033FA244B1B78DBB21A46274B33F812301A46264B93FBF2F39BB2013B9BB20121184601F061
:40194000D9F81D4B1B78DBB21A461E4B33F812301A461D4B93FBF2F39BB2013B9BB20121184603F0B5FA064B00221A70174B1B889BB2184601F0DAFD00BF0C37BD4690BDDE
:40198000788BFF1FE08BFF1FDA8BFF1FCE8BFF1F00001640E28BFF1FAA8AFF1FABAAAA2AAB8AFF1F706C0000AD8AFF1FAC8AFF1FE48BFF1F748BFF1FDE8BFF1F3076000078
:4019C000E88BFF1F946B000090D00300AE8AFF1F80B483B000AF78607B68E62B06DD124B1B68C72B02DC114B02221A707B6813F1A00F07DA0C4B1B6813F1810F02DB0B4B07
:401A000001221A707B68952B06DC7B6813F1630F02DB064B00221A70034A7B68136000BF0C37BD4680BC7047708BFF1FCC8BFF1F80B500AF03F036FF03461A46154B1A7079
:401A400003F020FF03461A46134B1A70114B1B78DBB2002B03D1012003F034FF07E00D4B1B78DBB2002B02D0002003F02BFF0A4B1B78DBB2002B03D1012003F041FF07E0B9
:401A8000054B1B78DBB2002B02D0002003F038FF00BF80BDD98BFF1FDD8BFF1F80B500AF1F4B1B78DBB2002B0AD11E4B1B78DBB2002B05D100F076FF1A4B01221A700EE008
:401AC000174B1B78DBB2002B09D0164B1B78DBB2002B04D000F078FF124B00221A70124B1B78DBB2002B0AD1104B1B78DBB2002B05D103F0C9FC0D4B01221A700EE00A4B71
:401B00001B78DBB2002B09D0084B1B78DBB2002B04D003F0CBFC054B00221A7000BF80BDD98BFF1FD88BFF1FDD8BFF1FBA8BFF1F80B582B000AF78607B68E62B11DD304B26
:401B40001B68C72B0DDC2F4B1B78042B03D12D4B00221A7005E02B4B1B780133DAB2294B1A707B6813F1A00F12DA254B1B6813F1810F0DDB234B1B78002B03D1214B0422A4
:401B80001A7005E01F4B1B78013BDAB21D4B1A701C4B1B78042B2BD801A252F823F000BFB51B0000C11B0000CD1B0000D91B0000E51B00004FF4FB71134800F019FF17E083
:401BC0004FF4FB71114800F013FF11E04FF4FB710F4800F00DFF0BE04FF4FB710D4800F007FF05E04FF4FB710B4800F001FF00BF034A7B68136000BF0837BD4680BD00BFCD
:401C00006C8BFF1F5C8BFF1FC482FF1FCC80FF1FBC84FF1FB486FF1FAC88FF1F0000000090B583B000AF62B601F00CFFBE4801F06DFEBE4801F0B8FEBD4801F01DFFBD4853
:401C400001F068FFBC4801F0B3FFBC4801F0FEFFBB4802F049F8BB4802F0C2F802F092F8B94B1B78DBB2184602F0A6F802F05CFA02F072FA01F00AF8B44801F083F801F00E
:401C8000F5FD00F01DFF03F009F9B14801F02CFD02F0ECFF03F030F8AE4803F0B1F803F059F803461A46AC4B1A8003F051FA03F09FFAAA4803F054FB00F086FE03F0F6FBC0
:401CC000FFF7B6FEA64B1B78DBB2002B09D0A54B1B78DBB2002B04D0FEF7D4F9A14B00221A70A14B1B78DBB2002B52D002F044FA0346A3F22A337B607B68002B0EDD924B47
:401D00001B78DBB219467B68984A82FB0302D210DB17D31A964A42F8213015E08A4B1B78DBB21C46786803F06DFF7DA3D3E9002304F0F8F802460B461046194604F0DAF92E
:401D400002468B4B43F82420894B1A68884B5B688849894804F056FA854B1B681846FFF737FE834B5B681846FFF7E2FE764B1B78DBB283F00103DAB2734B1A70724B1B78D7
:401D8000DBB2184602F018F8774B00221A7002F0E3F97A4B1B78DBB2032B00F2B88001A252F823F0B51D0000D11D0000DB1D0000E11D0000724B1B78DBB278225A211846B7
:401DC000FEF79EFA6F4800F0DDFFFEF7E9F99FE0FFF764FEFFF77CFB9AE0FEF769FB97E0694B1B78DBB2002B20D000F0DBFD674800F0C8FF644B1B78DBB21A46644B33F848
:401E0000123019465A4B1B68624A82FB03021211DB17D31A0B44604A92FBF3F39BB2013B9BB20121184600F065FE71E05B4B1B78DBB2002B2DD000F0B5FD594800F0A2FF81
:401E4000564B1B78DBB21946564A0B465B000B4413441B78184600F07BFF504B1B78DBB21A464B4B33F812301946414B1B68494A82FB03021211DB17D31A0B44464A92FBE6
:401E8000F3F39BB2013B9BB20121184600F032FE3EE0454B1B78DBB2002B2DD000F082FD3F4800F06FFF404B1B78DBB219463D4A0B465B000B4413441B78184600F048FF71
:401EC000394B1B78DBB21A46314B33F812301946274B1B682F4A82FB03021211DB17D31A0B442D4A92FBF3F39BB2013B9BB20121184600F0FFFD0BE000F066FD03F0D6FA28
:401F00002A4B00221A702A4B00221A7000E000BF1A4B1B78DAB2274B1A70D1E6AFF300806666666666660A40E91F000001200000192000003120000049200000612000001C
:401F4000B91F0000D11F0000618BFF1F50760000B120000079200000E08BFF1FC9200000A68AFF1FA58AFF1F628BFF1FE1830F3E648BFF1F5C760000E88BFF1FA48AFF1FDA
:401F8000E48BFF1F6C7600005D8BFF1F74760000946B00001F85EB5190D003005E8BFF1F7C760000506A00005F8BFF1FD88BFF1FBA8BFF1FA78AFF1F80B400AF034B01223E
:401FC0001A7000BFBD4680BC704700BF608BFF1F80B400AF034B01221A7000BFBD4680BC704700BF628BFF1F80B400AF034B4B221A7000BFBD4680BC704700BF5D8BFF1FDB
:4020000080B400AF034B00221A7000BFBD4680BC704700BF5D8BFF1F80B400AF034B55221A7000BFBD4680BC704700BF5E8BFF1F80B400AF034B00221A7000BFBD4680BCC1
:40204000704700BF5E8BFF1F80B400AF034B50221A7000BFBD4680BC704700BF5F8BFF1F80B400AF034B00221A7000BFBD4680BC704700BF5F8BFF1F80B500AF0A4B1B7815
:40208000DBB2012B0DD102F09DFE03461A46074B1A80054B02221A70002002F083FE02F0B9FD00BF80BD00BF788BFF1FDA8BFF1F80B500AF034B01221A7001F0F9FB00BF4C
:4020C00080BD00BFA58AFF1F90B585B004AF114B1B78DBB21846104B1B78DBB21C460F4B1B680F4A1278D2B211460E4A1278D2B2029201910093234602460B490B4804F0AD
:4021000081F80A4803F0F0F803F044F800BF0437BD4690BDAD8AFF1FE48BFF1F748BFF1FAA8AFF1FAB8AFF1F80760000BC8BFF1F80B582B000AF786039603A680021786857
:4021400004F057F800BF0837BD4680BD80B584B000AFF860B9607A607A68B968F86804F03DF800BF1037BD4680BD00BF80B483B000AF0346FB71FEE780B487B000AF786048
:40218000396000233B6100237B6127E07B699B007A6813441B68BB60BB68FB73BB6823F0FF03BB6014E03B695B003A6813441B781A46BB68134419463B695B003A681344D7
:4021C0005B780B703B6901333B61FB7B013BFB73FB7B002BE7D17B6901337B617B692A2BD4D900BF1C37BD4680BC704780B582B000AF504B00221A804F4B50221A704F4B25
:402200000E221A804E4B18221A704E4B19221A804D4B18221A704D4B19221A804C4B18221A704C4B5F221A804B4B18221A704B4B5F221A804A4B18221A704A4BEF221A808F
:40224000494B18221A70494B47F22F521A80484B19221A70042247494748FFF777FF474B02221A704FF0402308221A70444B03221A70444B444A1278D2B21A70434B0822D4
:402280001A80434B41F251221A800023FB7019237B6014E0FB785B00DAB23E4B1B78DBB203F00103DBB21343DBB203F00303FB704FF4F07003F044FB7B68013B7B607B689D
:4022C000002B02D0FB78032BE4D17B68002B02D10320FFF74BFF304B4FF480721A802E4B07221A702D4B00221A702D4B48221A70294B00221A702B4B02221A702A4B042262
:402300001A702A4B1B78294BFF221A70284A284B1B78DBB243F00103DBB21370254A254B1B78DBB263F07F03DBB2137000BF0837BD4680BD80400040824000408440004078
:4023400086400040884000408A4000408C4000408E40004090400040924000409440004096400040984000409A4000409C4000409E400040F80E0048004100400043004021
:4023800000420040A146004008010049224200402042004025420040044000400640004008400040014000400B400040A2430040A1430040A043004080B483B000AF134BB7
:4023C0001B78FB71124AFB7903F00703DBB21370104AFB791B09DBB213700F4B10221A700E4B20221A700E4B40F201121A800D4B4FF481721A800C4B1C221A700B4B442289
:402400001A7000BF0C37BD4680BC7047CF0100496E5800406F580040905A0040985A0040425B0040465B0040585B00407658004080B483B000AF0346FB71FB79012B0ED888
:40244000FB79094A52F82330FA79074951F822201178FA790548825C0A43D2B21A7000BF0C37BD4680BC7047947600009C76000080B483B000AF0346FB71FB79012B10D8C1
:40248000FB790A4A52F82330FA79084951F822201178FA790648825CD243D2B20A40D2B21A7000BF0C37BD4680BC7047947600009C76000080B483B000AF0346FB71FB79FC
:4024C000012B24D8FA79FB791344FB71FB79124A52F82330FA79104951F822201178FA790E48825C0A43D2B21A70FB790133FB71FB79094A52F82330FA79074951F82220F5
:402500001178FA790548825C0A43D2B21A7000BF0C37BD4680BC7047A0760000B076000080B483B000AF0346FB71FB79012B28D8FA79FB791344FB71FB79144A52F8233061
:40254000FA79124951F822201178FA791048825CD243D2B20A40D2B21A70FB790133FB71FB790A4A52F82330FA79084951F822201178FA790648825CD243D2B20A40D2B288
:402580001A7000BF0C37BD4680BC7047A0760000B076000080B586B000AF72B65C4A5C4B1B78DBB243F00403DBB213700023FB7513E0FA7D13465B0013445B00554A13440B
:4025C0003B613B691A683B699B889BB219461046FFF7AEFDFB7D0133FB75FB7D062BE8D90023FB751CE0FA7D13469B0013445B00494A1344FB60FB681B68BB60FB685B6811
:402600007B60FB681A7A5B7A1B0213437B807B881A467968B868FFF799FDFB7D0133FB75FB7D012BDFD93D494FF09040FFF7A4FD3B4B0A221A7004213A48FFF779FD04217D
:402640003948FFF775FD04213848FFF771FD04213748FFF76DFD374A364B1B78DBB243F00203DBB21370344A334B1B78DBB243F00203DBB21370314A304B1B78DBB243F04D
:402680004003DBB213702E4A2D4B1B78DBB243F01003DBB213700A222A492B48FFF756FD0A222A492A48FFF751FD0A2229492A48FFF74CFD0A2229492948FFF747FD0A22ED
:4026C00028492948FFF742FD082228492848FFF73DFD284A274B1B78DBB243F00803DBB21370254B61221A70FFF780FD224B81221A70224B01221A70FFF75EFE0E220F49B8
:402700001F48FFF723FD00BF1837BD4680BD00BFE8460040B4760000E0760000AC00004883580040007600400876004010760040187600400350014013500140A0430040AF
:40274000C2430040B40E004800510040C00E0048C0510040CC0E0048F0510040D80E004810510040E40E004820510040F00E00483251004022430040004800400400084033
:40278000B043004080B500AF03F0FCFC03461B680C2B00D1FEE7FEE780B584B000AF7860104B1A687B6813441A460F4BD31AB3F5805F09DC0B4B1B68FB600A4B1A687B6871
:4027C0001344084A136007E003F0DCFC02460C2313604FF0FF33FB60FB6818461037BD4680BD00BFB48AFF1F588CFF1F80B586B000AF224B7B61224B3B61204B7B6135E028
:402800003B691B68FB603B695B68BB603B699B683B6000237B600CE0FB681A68BB681A60BB680433BB60FB680433FB607B6804337B607A683B689A42EED13B69DB683B60E5
:4028400000237B6008E0BB6800221A60BB680433BB607B6804337B607A683B689A42F2D13B6910333B617B69013B7B617B69002BC6D103F08DFCFFF7D3F9FEE701000000DC
:40288000E078000080B582B000AF194B194A1A60194A194B1B6843F40073136000237B600FE07B68032B04D8144A7B6852F8233000E0134B13497A6841F822307B6801332C
:4028C0007B607B682F2BECD90F4B1B78DAB20F4B1A700F4B0B4A1A60FFF75CFE00F0FEFB0C4B00221A6000BF0837BD4680BD00BF0CED00E00004FA0514ED00E0000000008F
:40290000852700000080FF1FBC760040C480FF1F08ED00E0C080FF1F80B500AF00F0B8FA022000F007FB042000F024FB00F070FB00F054FD03461A46084B1A7000F04EFD1C
:4029400003461A46064B1A706421064800F050F86421054800F080F800BF80BD808BFF1F818BFF1FF47600005877000080B500AF00F0ACFA00F054FB084B1B7801211846E7
:4029800000F0DAFB064B1B780121184600F0D4FB002000F00FFB00BF80BD00BF7E8BFF1F7F8BFF1F80B500AF064B1B78002B04D1FFF7B2FF034B01221A70FFF7D7FF00BF16
:4029C00080BD00BF7D8BFF1F80B500AF064B1B78184600F0F7FB054B1B78184600F0F2FB00F08EFA00BF80BD7E8BFF1F7F8BFF1F80B582B000AF78600B467B807B681B0C88
:402A00009AB24FF480430121012000F0DDF903461A460F4B1A700F4B18780E4B1A787988012300F009FD0B4B1B787A6891B245F68332184600F040FD054B1A78054B1B7870
:402A40001946104600F05CFC00BF0837BD4680BD7E8BFF1F808BFF1F80B582B000AF78600B467B807B681B0C9AB24FF480430121012000F0DBF903461A460F4B1A700F4B47
:402A800018780E4B1A787988012300F0D5FC0B4B1B787A6891B245F68332184600F00CFD054B1A78054B1B781946104600F028FC00BF0837BD4680BD7F8BFF1F818BFF1F42
:402AC00080B400AF094A094B1B78DBB243F01003DBB21370064A064B1B78DBB243F01003DBB2137000BFBD4680BC7047A2430040B243004080B584B000AF03460A46FB8084
:402B000013467B7100F0B4F80346FB7300F0A4F80346BB81FA88BB899A4200F08880464B1B78DBB203F01003FB72FB7B002B20D1BB89002B02D0FB88002B1AD1BB89002B53
:402B40000BD13E4AFB8813803D4A3D4B1B78DBB223F04003DBB2137069E0394A384B1B78DBB243F04003DBB21370344AFB8813805DE0FB7A002B33D0324B00221A70324B37
:402B800010221A70314B00221A70314A304B1B78DBB203F07F03DBB21370294B1B78DBB203F00803002B02D0FB88002B18D1294ABB891380234B07221A7000BF214B1B7847
:402BC000DBB203F00103002BF8D11B4A1A4B1B78DBB223F01003DBB213701A4B00221A70154B1B78DBB203F01003002B13D0194AFB881380134A7B79002B01D0032300E0CC
:402C00000123137000BF0F4B1B78DBB203F00103002BF8D10BE0094AFB8813800649064B1B78DAB2FB7A1343DBB20B70FFE700BF1037BD4680BD00BFA243004090400040C3
:402C400092400040014000401040004014400040084000400240004080B400AF034B1B889BB21846BD4680BC704700BF9040004080B400AF044B1B78DBB203F00703DBB273
:402C80001846BD4680BC70479240004080B500AF064B1B78002B04D100F00AF8034B01221A7000F025F800BF80BD00BF828BFF1F80B400AF094B72221A70094B00221A70B1
:402CC000084B06221A70084B47221A70074B00221A7000BFBD4680BC704700BF896500408B65004028650040386500408964004080B582B000AF02F02BFE0346FB71114AA1
:402D0000104B1B78DBB243F02003DBB213700E4A0D4B1B78DBB243F01003DBB213700B4A0A4B1B78DBB243F01003DBB2137000F0BBF9FB79184602F00FFE00BF0837BD46F6
:402D400080BD00BF996500409B6500409964004080B483B000AF0346FB7100BF074B1B78DBB203F00403002BF8D1054AFB79137000BF0C37BD4680BC704700BF69640040A8
:402D80004964004080B584B000AF78600023FB810C4B1B78002B10D009E0FB897A6813441B781846FFF7D4FFFB890133FB81FB897A6813441B78002BEFD100BF1037BD46CA
:402DC00080BD00BF828BFF1F90B585B002AF0446084611461A462346FB710346BB710B46BB8013467B80104B00221A700E4B1878BA79F9790023019300230093002300F0F3
:402E00009DFA094B1B787A88B988184600F03CFA054B1B780221184600F004FA024B1B7818460C37BD4690BDB88AFF1F90B585B002AF0446084611461A462346FB71034632
:402E4000BB710B46BB8013467B80104B01221A700E4B1878BA79F9790023019300230093002300F06BFA094B1B787A88B988184600F00AFA054B1B780221184600F0D2F930
:402E8000024B1B7818460C37BD4690BDB98AFF1F80B500AF0A4B00221A700A4B00221A70094A094B1B78DBB243F00803DBB21370002000F05FF8022000F03CF800BF80BD3C
:402EC0002C5800402D5800409F5A004080B400AF094A094B1B78DBB243F00803DBB21370064A064B1B78DBB243F00803DBB2137000BFBD4680BC7047A8430040B8430040EE
:402F000080B400AF094A094B1B78DBB223F00803DBB21370064A064B1B78DBB223F00803DBB2137000BFBD4680BC7047A8430040B843004080B483B000AF0346FB710C4A8E
:402F40000B4B1B78DBB223F00203DBB213700849074B1B78DAB2FB7903F00203DBB21343DBB20B7000BF0C37BD4680BC704700BF2C58004080B582B000AF0346FB710C4AFE
:402F80000B4B1B78DBB223F00C03DBB213700849074B1B78DAB2FB7903F00C03DBB21343DBB20B7000F016F800BF0837BD4680BD2C58004080B483B000AF0346FB71044A2D
:402FC000FB79137000BF0C37BD4680BC704700BF835B004080B483B000AF0B4B1B78DBB203F00C039B08DBB20633FB71074AFB7903F1924303F59C731B78DBB2137000BFAB
:403000000C37BD4680BC70472C5800400B46004080B500AF022000F027F800BF80BD00BF80B400AF0D4A0D4B1B78DBB243F06003DBB213700A4A0A4B1B78DBB243F00803D3
:40304000DBB21370074A074B1B78DBB243F00803DBB2137000BFBD4680BC704777580040A4430040B443004080B483B000AF0346FB710C4A0B4B1B78DBB223F00303DBB2D0
:4030800013700849074B1B78DAB2FB7903F00303DBB21343DBB20B7000BF0C37BD4680BC704700BF5E58004080B400AF094A094B1B78DBB243F00803DBB21370064A064B2D
:4030C0001B78DBB243F00803DBB2137000BFBD4680BC7047A2430040B243004080B483B000AF134B7F221A70124B80221A707F23FB710CE0FB79DB0003F1804303F5F04300
:40310000FA79013AD2B21A70FB79013BFB71FB79002BEFD1FB79DB0003F1804303F5F04300221A7000BF0C37BD4680BC704700BFBD8AFF1FBC8AFF1F80B485B000AF03469A
:403140000A46FB711346BB710123FB60FB79172B2FD8BB79002B0ED0FB791A01184B1344FA791101164A0A441278D2B242F02002D2B21A700DE0FB791A01114B1344FA7907
:4031800011010F4A0A441278D2B222F02002D2B21A70FB791A010A4B1344FA791101084A0A441278D2B242F00102D2B21A700023FB60FB6818461437BD4680BC704700BF16
:4031C0001070004080B485B000AF0346FB710123FB60FB79172B1DD8FB791A01104B1344FA7911010E4A0A441278D2B222F00102D2B21A70FB791A01094B1344FA791101BC
:40320000074A0A441278D2B222F02002D2B21A700023FB60FB6818461437BD4680BC70471070004080B485B000AF03460A46FB711346BB710123FB60FB79172B1BD8FB7921
:403240001A01104B13441B78DBB223F00E03FB72FB791A010B4B1344BA795200D2B252B202F00E0251B297F90B200A4352B2D2B21A700023FB60FB6818461437BD4680BC9F
:40328000704700BF1070004080B485B000AF0346FB710B46BB8013467B800123FB60BB8841F6FF72934202D14FF40053BB807B8841F6FF72934202D14FF400537B80FB79F0
:4032C000172B17D8FB79DB0003F1804303F5EC430433BB60BB68BA881A80FB79DB0003F1804303F5EC430633BB60BB687A881A800023FB60FB6818461437BD4680BC70475F
:4033000080B485B000AF03460A46FB711346BB710123FB60FB79172B07D8FB791A01064B1344BA795A720023FB60FB6818461437BD4680BC704700BF1070004090B484B02A
:4033400000AF0446084611461A462346FB710346BB710B467B7113463B710123FB60FB79172B34D8FB79DB0003F1804303F5EC43BA7902F07F02D1B27A79D201D2B20A4395
:40338000D2B21A70FB79DB0003F1804303F5EC433A7E1201D1B23A7902F00F02D2B20A43D2B25A70FB79DB0003F1804303F5EC433A7F02F00F02D2B29A70FB79DB0003F1F5
:4033C000804303F5EC430022DA700023FB60FB6818461037BD4690BC704700BF80B582B000AFFF23FB7102F0B3FA0346BB71104B1B78182B12D90F4B1B78FB710C4B1B7815
:40340000013BDAB20A4B1A70FB79DB0003F1804303F5F0431B78DAB2064B1A70BB79184602F09AFAFB7918460837BD4680BD00BFBC8AFF1FBD8AFF1F90B484B000AF044658
:40344000084611461A462346FB710346BB800B46BB711346FB700123FB6097F90730002B23DBBB8823F47F6323F00F039BB2002B1BD1FB79DB0003F1804303F5F043BB602D
:40348000BB68BA881A80FB79DB0003F1804303F5F043BA799A70FB79DB0003F1804303F5F043FA78DA700023FB60FB6818461037BD4690BC704700BF80B485B000AF034606
:4034C000FB710B46BB8013467B800123FB6097F90730002B17DBFB79DB0003F1804303F5F0430433BB60BB68BA881A80FB79DB0003F1804303F5F0430633BB60BB687A88F1
:403500001A800023FB60FB6818461437BD4680BC704700BF80B483B000AF0346FB7101BE00BF0C37BD4680BC704700BF80B582B000AF786008E00C4B1B68184602F000FA77
:403540007B68A3F500437B607B68B3F5004FF2D8064B1B687A6802FB03F3184602F0F0F900BF0837BD4680BDD08AFF1FC88AFF1F80B582B000AF0346FB80FB88054A1278D0
:4035800002FB03F3184602F0DBF900BF0837BD4680BD00BFCC8AFF1F80B584B000AF03463960FB710F4B1B68FB60FB791F2B02D90020FFF7AFFFFB7903F01F0310339B0021
:4035C000FA6813441B68BB60FB7903F01F0310339B00FA6813443A681A60BB6818461037BD4680BD08ED00E080B582B000AF03460A46FB711346BB71BB79072B02D900205A
:40360000FFF788FFFB791F2B02D90020FFF782FFFB7903F01F0303F1604303F56443BA795201D2B21A7000BF0837BD4680BD00BF80B400AF054B1B78DBB203F00803DB0859
:40364000DBB21846BD4680BC704700BFC151004080B400AF054B1B78DBB203F020035B09DBB21846BD4680BC704700BF2151004080B485B000AF0346FB710B4B1B78DBB2F6
:4036800023F00403FB730849FB799B00DBB203F00403DAB2FB7B1343DBB20B7000BF1437BD4680BC704700BFC051004080B485B000AF0346FB710B4B1B78DBB223F0400392
:4036C000FB730849FB799B01DBB203F04003DAB2FB7B1343DBB20B7000BF1437BD4680BC704700BF2051004080B582B000AF786000F03CF8786800F009F8052000F018F860
:4037000000F028F800BF0837BD4680BD80B485B000AF7860054B1B68FB60FB6888337A681A6000BF1437BD4680BC704708ED00E080B483B000AF0346FB71054AFB795B01E4
:40374000DBB2137000BF0C37BD4680BC704700BF12E400E080B400AF034B4FF480221A6000BFBD4680BC704700E100E080B400AF034B4FF480221A6000BFBD4680BC704761
:4037800080E100E080B500AF224A224B1B78DBB203F00103DBB213701F4A1F4B1B78DBB223F00303DBB213701C4A1C4B1B78DBB223F03003DBB21370184A184B1B78DBB2A0
:4037C00043F03003DBB21370144A144B1B78DBB223F00F03DBB21370104A104B1B78DBB243F00F03DBB213700D4A0D4B1B78DBB243F00103DBB213704EF6C32000F064F88E
:403800004EF6C32000F072F8082000F041F800BF80BD00BF0C4F00400E4F0040174F00400D4F004080B400AF0D4A0D4B1B78DBB243F00203DBB213700A4A0A4B1B78DBB2BE
:4038400043F00203DBB21370074A074B1B78DBB243F00103DBB2137000BFBD4680BC7047A3430040B34300400C4F004080B500AF064B1B78002B04D1FFF784FF034B012298
:403880001A70FFF7CFFF00BF80BD00BF848BFF1F80B483B000AF0346FB71044AFB79137000BF0C37BD4680BC704700BF0F4F004080B400AF034B1B78DBB21846BD4680BC7F
:4038C000704700BF0F4F004080B485B000AF0346FB80FB88FB81044AFB89138000BF1437BD4680BC704700BF104F004080B483B000AF0346FB80044AFB88138000BF0C37D6
:40390000BD4680BC704700BF124F004080B582B000AF786000F03CF8786800F009F8052000F018F800F028F800BF0837BD4680BD80B485B000AF7860054B1B68FB60FB685A
:4039400050337A681A6000BF1437BD4680BC704708ED00E080B483B000AF0346FB71054AFB795B01DBB2137000BF0C37BD4680BC704700BF04E400E080B400AF034B1022B7
:403980001A6000BFBD4680BC704700BF00E100E080B400AF034B10221A6000BFBD4680BC704700BF80E100E080B582B000AF786000F03CF8786800F009F8052000F018F8BE
:4039C00000F028F800BF0837BD4680BD80B485B000AF7860054B1B68FB60FB684C337A681A6000BF1437BD4680BC704708ED00E080B483B000AF0346FB71054AFB795B015E
:403A0000DBB2137000BF0C37BD4680BC704700BF03E400E080B400AF034B08221A6000BFBD4680BC704700BF00E100E080B400AF034B08221A6000BFBD4680BC704700BFA5
:403A400080E100E080B400AF094A094B1B78DBB263F07F03DBB21370064A064B1B78DBB263F07F03DBB2137000BFBD4680BC7047A2430040B243004080B582B000AF7860D3
:403A800000F03CF8786800F009F8052000F018F800F028F800BF0837BD4680BD80B485B000AF7860054B1B68FB60FB6858337A681A6000BF1437BD4680BC704708ED00E061
:403AC00080B483B000AF0346FB71054AFB795B01DBB2137000BF0C37BD4680BC704700BF06E400E080B400AF034B40221A6000BFBD4680BC704700BF00E100E080B400AF26
:403B0000034B40221A6000BFBD4680BC704700BF80E100E080B582B000AF786000F03CF8786800F009F8052000F018F800F028F800BF0837BD4680BD80B485B000AF786060
:403B4000054B1B68FB60FB6854337A681A6000BF1437BD4680BC704708ED00E080B483B000AF0346FB71054AFB795B01DBB2137000BF0C37BD4680BC704700BF05E400E082
:403B800080B400AF034B20221A6000BFBD4680BC704700BF00E100E080B400AF034B20221A6000BFBD4680BC704700BF80E100E080B582B000AF786000F03CF8786800F05F
:403BC00009F8052000F018F800F028F800BF0837BD4680BD80B485B000AF7860054B1B68FB60FB6864337A681A6000BF1437BD4680BC704708ED00E080B483B000AF0346A9
:403C0000FB71054AFB795B01DBB2137000BF0C37BD4680BC704700BF09E400E080B400AF034B4FF400721A6000BFBD4680BC704700E100E080B400AF034B4FF400721A602F
:403C400000BFBD4680BC704780E100E080B582B000AF786000F03CF8786800F009F8052000F018F800F028F800BF0837BD4680BD80B485B000AF7860054B1B68FB60FB6877
:403C800060337A681A6000BF1437BD4680BC704708ED00E080B483B000AF0346FB71054AFB795B01DBB2137000BF0C37BD4680BC704700BF08E400E080B400AF034B4FF44F
:403CC00080721A6000BFBD4680BC704700E100E080B400AF034B4FF480721A6000BFBD4680BC704780E100E080B582B000AF786000F03CF8786800F009F8052000F018F804
:403D000000F028F800BF0837BD4680BD80B485B000AF7860054B1B68FB60FB6848337A681A6000BF1437BD4680BC704708ED00E080B483B000AF0346FB71054AFB795B011E
:403D4000DBB2137000BF0C37BD4680BC704700BF02E400E080B400AF034B04221A6000BFBD4680BC704700BF00E100E080B400AF034B04221A6000BFBD4680BC704700BF6B
:403D800080E100E080B582B000AF0023FB7106E0FB791846FEF7C4FBFB790133FB71FB79012BF5D9034BFF221A7000BF0837BD4680BD00BFD48AFF1F80B582B000AF03465E
:403DC000FB71FFF7DFFFFB791846FEF773FB034AFB79137000BF0837BD4680BDD48AFF1F80B582B000AF786000F03CF8786800F009F8072000F018F800F028F800BF083738
:403E0000BD4680BD80B485B000AF7860054B1B68FB60FB68B4337A681A6000BF1437BD4680BC704708ED00E080B483B000AF0346FB71054AFB795B01DBB2137000BF0C37AD
:403E4000BD4680BC704700BF1DE400E080B400AF034B4FF000521A6000BFBD4680BC704700E100E080B400AF034B4FF000521A6000BFBD4680BC704780E100E080B582B061
:403E800002AF414B01221A70404B00221A70102000F0B2FD102000F095FE05210120FFF7A3FB3B4B04221A703A4B00221A703A4B00221A70394A394B1B78DBB243F0180377
:403EC000DBB21370364B00221A70364B00221A70354B00221A70354B0A221A70344B00221A70344B00221A70334B5B221A70334B5E221A70324B00221A70324B14221A702D
:403F00000123009310234FF4004249F2DA01002000F078FB0223009310234FF4004249F2DA01002000F06EFB0323009310234FF4004249F2DA01002000F064FB04230093CA
:403F400010234FF4004249F2DA01002000F05AFB1D4A0D4B1B78DBB2013B1C499B000B449B7813701A4A084B1B78DBB2013B174931F823301380044B1B78DBB2184600F0CF
:403F800039F900BFBD4680BDD58AFF1F888BFF1F96580040975800409E580040075B004093580040885B0040895B00408058004081580040835800408858004089580040EE
:403FC0008D580040014E00400E4E0040908BFF1F0C4E004080B582B000AF01F0B9FC0346FB71434B1B78BB71424A424B1B78DBB243F00103DBB213703E4A3E4B1B78DBB22F
:4040000043F01003DBB213703B4A3B4B1B78DBB243F00103DBB21370374A374B1B78DBB243F01003DBB21370344A344B1B78DBB243F00203DBB21370314A314B1B78DBB2C3
:4040400043F00203DBB213702E4A2E4B1B78DBB243F00303DBB213700320FFF789FA274A264B1B78DBB223F00203DBB21370244A234B1B78DBB223F00203DBB21370224A48
:40408000214B1B78DBB243F00603DBB213701F4B7A221A701E4A1E4B1B78DBB243F00103DBB213701B4A1B4B1B78DBB243F00103DBB21370184A184B1B78DBB243F0010312
:4040C000DBB21370154A154B1B78DBB243F00103DBB21370124B02221A60124B02221A60FB79184601F038FC00BF0837BD4680BDD58AFF1FAA430040BA430040F8460040FA
:40410000F9460040915800407758004082580040A1430040B1430040A2430040B243004080E200E000E100E080B500AF084B1B78002B09D1074B1B78DBB2002B01D1FFF7C5
:404140009DFE034B01221A70FFF744FF00BF80BD8A8BFF1F8B8BFF1F80B400AF054A054B1B78DBB243F00103DBB2137000BFBD4680BC7047004E004080B483B000AF174B69
:404180001B78DBB203F003037B717B79012B03D8134B1B88FB8011E0114B1B78DBB2FB80104B1B78DBB29BB21B029AB2FB881343FB807B79032B01D10B4B1B780B4B1B7850
:4041C000DBB2002B02D00A4B00221A70B7F9063018460C37BD4680BC704700BF144E0040104E0040114E0040124E0040898BFF1F888BFF1F80B582B000AF0346FB71C34B3D
:4042000000221A70FB79012B66D1C14B38221A70C04B04221A70C04B06221A70BF4B00221A70BF4B00221A70BE4B3F221A70BE4B00221A70BD4B00221A70BD4B00221A7016
:40424000BC4B01221A70BC4B50221A70BB4B27221A70BB4B2C221A70BA4B00221A70BA4B55221A70B94B5A221A70B94B05221A70B84B00221A70B84B00221A70B74B0A22CE
:404280001A70B74B43221A70442000F073FAB54B58221A70B44B00221A70B44B05221A70B34B02221A70B34B00221A70B24B00221A70002000F0CEFAB04B4FF47A421A6018
:4042C0000121052000F0DAFA0121BA2000F0BCFBAB490120FFF760F9FB79022B66D18C4B38221A708B4B04221A708B4B06221A708A4B00221A708A4B00221A70894B3F22D4
:404300001A70894B00221A70884B00221A70884B00221A70874B01221A70874B50221A70864B27221A70864B2C221A70854B00221A70854B55221A70844B5A221A70844BEA
:4043400005221A70834B01221A70834B11221A70824B19221A70824B97221A70442000F009FA804B58221A707F4B00221A707F4B05221A707E4B02221A707E4B00221A70E1
:404380007D4B00221A70002000F064FA7B4B4FF47A421A600121052000F070FA0121252000F052FB77490120FFF7F6F8FB79032B66D1574B38221A70564B04221A70564B81
:4043C00006221A70554B00221A70554B00221A70544B3F221A70544B00221A70534B00221A70534B00221A70524B01221A70524B50221A70514B27221A70514B2C221A7044
:40440000504B00221A70504B55221A704F4B5A221A704F4B05221A704E4B01221A704E4B11221A704D4B19221A704D4B97221A70442000F09FF94B4B58221A704A4B00229D
:404440001A704A4B05221A70494B02221A70494B00221A70484B00221A70002000F0FAF9464B4FF47A421A600121052000F006FA0121252000F0E8FA43490120FFF78CF807
:40448000FB79042B40F0A980214B38221A70214B04221A70204B06221A70204B00221A701F4B00221A701F4B3F221A701E4B00221A701E4B00221A701D4B00221A701D4B4F
:4044C00001221A701C4B50221A701C4B27221A701B4B2C221A701B4B00221A701A4B55221A701A4B5A221A70194B05221A70194B01221A70184B11221A70184B19221A70E3
:40450000174B97221A70442040E000BF898BFF1F004E0040024E0040034E0040044E0040054E0040064E0040084E0040094E00400A4E0040144E0040845800408558004059
:4045400086580040875800408A5800408B5800408C5800408E5800408F580040905800409158004094580040955800409A5800409B5800409C5800409D580040508CFF1FD6
:40458000F1470000FD4700000948000000F0F2F8144B58221A70144B00221A70134B05221A70134B02221A70124B00221A70124B00221A70002000F04DF9104B4FF47A4209
:4045C0001A600121052000F059F90121252000F03BFA0B490120FEF7DFFF00BF0837BD4680BD00BF94580040955800409A5800409B5800409C5800409D580040508CFF1FC6
:404600001548000090B587B000AF0446084611461A462346FB710346BB800B467B801346BB7197F82830002B00F08B8097F82830042B00F28680FB79013B092B4AD801A2B5
:4046400052F823F06D460000D5460000D54600006D460000D5460000D546000087460000A1460000D5460000BB460000BB790F2B04D9374B1B78DBB2FB752EE0354B1B78BD
:40468000DBB2FB7529E0BB790F2B04D9324B1B78DBB2FB7521E0314B1B78DBB2FB751CE0BB790F2B04D92E4B1B78DBB2FB7514E02C4B1B78DBB2FB750FE0BB790F2B04D90A
:4046C000294B1B78DBB2FB7507E0284B1B78DBB2FB7502E00023FB7500BFBA8897F917305B0113443B617B883A6902FB03F3FB60FB68DB0BBB82BB790D2B12D8BA8ABB79E8
:40470000C3F10E0342FA03F3BB8297F82830013BBA790132D1B2164A9B0013440A469A7007E097F82830013B114A9B0013440F229A7097F82830013B0D49BA8A21F82320E2
:4047400002E00020FEF7E6FE00BF1C37BD4690BD180100491C010049190100491D0100491A0100491E0100491B0100491F010049908BFF1F80B584B000AF0346FB7101F0D9
:40478000E7F80346FB73174A164B1B78DBB243F00303DBB21370144A134B1B78DBB243F00303DBB21370114AFB7913700320FEF7DFFE0C4A0B4B1B78DBB223F00303DBB25A
:4047C0001370094A084B1B78DBB223F00303DBB21370FB7B184601F0BFF800BF1037BD4680BD00BFF8460040F94600409258004080B400AF00BFBD4680BC704780B400AF24
:4048000000BFBD4680BC704780B400AF00BFBD4680BC704780B400AF00BFBD4680BC704780B582B000AF0023FB7106E0FB791846FDF71EFEFB790133FB71FB79012BF5D9A4
:40484000034BFF221A7000BF0837BD4680BD00BFD68AFF1F80B582B000AF0346FB71FFF7DFFFFB791846FDF7E3FD034AFB79137000BF0837BD4680BDD68AFF1F80B584B016
:4048800000AF03460A46FB8013467B7100F0CEF80346FB7300F0A4F80346BB81FA88BB899A4200F08880464B1B78DBB203F00103FB72FB7B002B20D1BB89002B02D0FB886D
:4048C000002B1AD1BB89002B0BD13E4AFB8813803D4A3D4B1B78DBB223F04003DBB2137069E0394A384B1B78DBB243F04003DBB21370344AFB8813805DE0FB7A002B33D0BB
:40490000324B00221A70324B01221A70314B00221A70314A304B1B78DBB203F07F03DBB21370294B1B78DBB203F00803002B02D0FB88002B18D1294ABB891380234B07225A
:404940001A7000BF214B1B78DBB203F00103002BF8D11B4A1A4B1B78DBB223F00103DBB213701A4B00221A70154B1B78DBB203F00103002B13D0194AFB881380134A7B7906
:40498000002B01D0032300E00123137000BF0F4B1B78DBB203F00103002BF8D10BE0094AFB8813800649064B1B78DAB2FB7A1343DBB20B70FFE700BF1037BD4680BD00BF59
:4049C000A24300408040004082400040014000401040004014400040084000400240004080B400AF034B1B889BB21846BD4680BC704700BF8040004080B483B000AF03464E
:404A0000FB710949084B1B78DBB25AB297F9073023F007035BB213435BB2DBB20B7000BF0C37BD4680BC70478240004080B400AF044B1B78DBB203F00703DBB21846BD46A6
:404A400080BC70478240004080B584B000AF03460A46FB8013467B7100F0CEF80346FB7300F0A4F80346BB81FA88BB899A4200F08880464B1B78DBB203F00103FB72FB7B2D
:404A8000002B20D1BB89002B02D0FB88002B1AD1BB89002B0BD13E4AFB8813803D4A3D4B1B78DBB223F04003DBB2137069E0394A384B1B78DBB243F04003DBB21370344A0F
:404AC000FB8813805DE0FB7A002B33D0324B00221A70324B01221A70314B00221A70314A304B1B78DBB203F07F03DBB21370294B1B78DBB203F00803002B02D0FB88002B6D
:404B000018D1294ABB891380234B07221A7000BF214B1B78DBB203F00103002BF8D11B4A1A4B1B78DBB223F00103DBB213701A4B00221A70154B1B78DBB203F00103002B27
:404B400013D0194AFB881380134A7B79002B01D0032300E00123137000BF0F4B1B78DBB203F00103002BF8D10BE0094AFB8813800649064B1B78DAB2FB7A1343DBB20B70D5
:404B8000FFE700BF1037BD4680BD00BFA14300400041004002410040014000401440004010400040084000400240004080B400AF034B1B889BB21846BD4680BC704700BFFF
:404BC0000041004080B483B000AF0346FB710949084B1B78DBB25AB297F9073023F007035BB213435BB2DBB20B7000BF0C37BD4680BC70470241004080B400AF044B1B78FC
:404C0000DBB203F00703DBB21846BD4680BC70470241004080B400AF054B1B78DBB203F002035B08DBB21846BD4680BC704700BF8345004080B485B000AF0346FB710A4B0E
:404C40001B78DBB223F00103FB730749FB7903F00103DAB2FB7B1343DBB20B7000BF1437BD4680BC704700BF3051004080B400AF094A094B1B78DBB243F04003DBB21370C4
:404C8000064A064B1B78DBB243F04003DBB2137000BFBD4680BC7047A2430040B243004080B582B000AF40F2E73000F05FF840F2E73000F077F800F04BFE0346FB710A4A0E
:404CC000094B1B78DBB243F01003DBB21370FB79184600F041FE00F085F8002000F01EF800BF0837BD4680BD9565004080B400AF00BFBD4680BC704780B500AF064B1B787E
:404D0000002B04D1FFF7CCFF034B01221A70FFF7EDFF00BF80BD00BFA08BFF1F80B483B000AF0346FB71044AFB79137000BF0C37BD4680BC704700BF8565004080B400AFFD
:404D4000034B1B78DBB21846BD4680BC704700BF6565004080B400AF034B1B889BB21846BD4680BC704700BF486A004080B483B000AF0346FB80044AFB88138000BF0C3742
:404D8000BD4680BC704700BF486A004080B400AF034B1B889BB21846BD4680BC704700BF886A004080B483B000AF0346FB80044AFB88138000BF0C37BD4680BC704700BFF1
:404DC000086A004080B400AF044B1B78044B1B889BB21846BD4680BC704700BF04650040886A004080B500AF01E0FFF7CFFFFFF7A5FF034603F00803002BF6D100BF80BDB7
:404E000080B582B000AF786000F03CF8786800F009F8042000F018F800F028F800BF0837BD4680BD80B485B000AF7860054B1B68FB60FB685C337A681A6000BF1437BD46A4
:404E400080BC704708ED00E080B483B000AF0346FB71054AFB795B01DBB2137000BF0C37BD4680BC704700BF07E400E080B400AF034B80221A6000BFBD4680BC704700BF2D
:404E800000E100E080B400AF034B80221A6000BFBD4680BC704700BF80E100E080B400AF094A094B1B78DBB243F02003DBB21370064A064B1B78DBB243F02003DBB21370F8
:404EC00000BFBD4680BC7047A2430040B243004080B584B000AF03460A46FB8013467B7100F0B4F80346FB7300F0A4F80346BB81FA88BB899A4200F08880464B1B78DBB283
:404F000003F02003FB72FB7B002B20D1BB89002B02D0FB88002B1AD1BB89002B0BD13E4AFB8813803D4A3D4B1B78DBB223F04003DBB2137069E0394A384B1B78DBB243F062
:404F40004003DBB21370344AFB8813805DE0FB7A002B33D0324B00221A70324B20221A70314B00221A70314A304B1B78DBB203F07F03DBB21370294B1B78DBB203F00803A3
:404F8000002B02D0FB88002B18D1294ABB891380234B07221A7000BF214B1B78DBB203F00103002BF8D11B4A1A4B1B78DBB223F02003DBB213701A4B00221A70154B1B7888
:404FC000DBB203F02003002B13D0194AFB881380134A7B79002B01D0032300E00123137000BF0F4B1B78DBB203F00103002BF8D10BE0094AFB8813800649064B1B78DAB256
:40500000FB7A1343DBB20B70FFE700BF1037BD4680BD00BFA24300409440004096400040014000401040004014400040084000400240004080B400AF034B1B889BB2184635
:40504000BD4680BC704700BF9440004080B400AF044B1B78DBB203F00703DBB21846BD4680BC70479640004080B500AF224A224B1B78DBB203F00103DBB213701F4A1F4B6A
:405080001B78DBB223F00303DBB213701C4A1C4B1B78DBB223F03003DBB21370184A184B1B78DBB243F03003DBB21370144A144B1B78DBB223F00F03DBB21370104A104B42
:4050C0001B78DBB243F00F03DBB213700D4A0D4B1B78DBB243F00103DBB2137040F2135000F064F840F2135000F072F8082000F041F800BF80BD00BF004F0040024F004029
:405100000B4F0040014F004080B400AF0D4A0D4B1B78DBB243F00103DBB213700A4A0A4B1B78DBB243F00103DBB21370074A074B1B78DBB243F00103DBB2137000BFBD4670
:4051400080BC7047A3430040B3430040004F004080B500AF064B1B78002B04D1FFF784FF034B01221A70FFF7CFFF00BF80BD00BFA18BFF1F80B483B000AF0346FB71044A33
:40518000FB79137000BF0C37BD4680BC704700BF034F004080B400AF034B1B78DBB21846BD4680BC704700BF034F004080B485B000AF0346FB80FB88FB81044AFB89138079
:4051C00000BF1437BD4680BC704700BF044F004080B483B000AF0346FB80044AFB88138000BF0C37BD4680BC704700BF064F004080B500AF064B1B78002B04D100F00AF819
:40520000034B01221A7000F025F800BF80BD00BFA28BFF1F80B400AF094B72221A70094B00221A70084B06221A70084B47221A70074B00221A7000BFBD4680BC704700BF4E
:40524000806400408764004026640040366400408765004080B582B000AF00F079FB0346FB71114A104B1B78DBB243F02003DBB213700E4A0D4B1B78DBB243F01003DBB201
:4052800013700B4A0A4B1B78DBB243F01003DBB2137000F04BF8FB79184600F05DFB00BF0837BD4680BD00BF90640040976400409765004080B483B000AF0346FB7100BFCC
:4052C000074B1B78DBB203F00403002BF8D1054AFB79137000BF0C37BD4680BC704700BF676500404764004080B584B000AF78600023FB810C4B1B78002B10D009E0FB8969
:405300007A6813441B781846FFF7D4FFFB890133FB81FB897A6813441B78002BEFD100BF1037BD4680BD00BFA28BFF1F80B400AF094A094B1B78DBB243F00403DBB21370C7
:40534000064A064B1B78DBB243F00403DBB2137000BFBD4680BC7047A2430040B243004080B582B000AF786000F03CF8786800F009F8042000F018F800F028F800BF0837FE
:40538000BD4680BD80B485B000AF7860054B1B68FB60FB6884337A681A6000BF1437BD4680BC704708ED00E080B483B000AF0346FB71054AFB795B01DBB2137000BF0C3748
:4053C000BD4680BC704700BF11E400E080B400AF034B4FF400321A6000BFBD4680BC704700E100E080B400AF034B4FF400321A6000BFBD4680BC704780E100E080B500AF93
:4054000000F034F9022000F083F9042000F0A0F900F0ECF9FDF7E2FF03461A46084B1A70FDF7DCFF03461A46064B1A706421064800F050F86421054800F080F800BF80BD50
:40544000A78BFF1FA88BFF1FBC7700002078000080B500AF00F028F900F0D0F9084B1B7801211846FDF768FE064B1B7801211846FDF762FE002000F08BF900BF80BD00BF4B
:40548000A58BFF1FA68BFF1F80B500AF064B1B78002B04D1FFF7B2FF034B01221A70FFF7D7FF00BF80BD00BFA48BFF1F80B500AF064B1B781846FDF785FE054B1B78184633
:4054C000FDF780FE00F00AF900BF80BDA58BFF1FA68BFF1F80B582B000AF78600B467B807B681B0C9AB24FF480430121012000F059F803461A460F4B1A700F4B18780E4BC4
:405500001A7879880123FDF797FF0B4B1B787A6891B245F682321846FDF7CEFF054B1A78054B1B7819461046FDF7EAFE00BF0837BD4680BDA58BFF1FA78BFF1F80B582B075
:4055400000AF78600B467B807B681B0C9AB24FF480430121012000F057F803461A460F4B1A700F4B18780E4B1A7879880123FDF763FF0B4B1B787A6891B245F68232184642
:40558000FDF79AFF054B1A78054B1B7819461046FDF7B6FE00BF0837BD4680BDA68BFF1FA88BFF1F90B585B002AF0446084611461A462346FB710346BB710B46BB801346B5
:4055C0007B80104B02221A700E4B1878BA79F97900230193002300930023FDF7AFFE094B1B787A88B9881846FDF74EFE054B1B7802211846FDF716FE024B1B7818460C3733
:40560000BD4690BDD78AFF1F90B585B002AF0446084611461A462346FB710346BB710B46BB8013467B80104B03221A700E4B1878BA79F97900230193002300930023FDF7DB
:405640007DFE094B1B787A88B9881846FDF71CFE054B1B7802211846FDF7E4FD024B1B7818460C37BD4690BDD88AFF1F80B500AF0A4B00221A700A4B00221A70094A094B02
:405680001B78DBB243F00803DBB21370002000F05FF8022000F03CF800BF80BD2858004029580040975A004080B400AF094A094B1B78DBB243F00403DBB21370064A064B8C
:4056C0001B78DBB243F00403DBB2137000BFBD4680BC7047A8430040B843004080B400AF094A094B1B78DBB223F00403DBB21370064A064B1B78DBB223F00403DBB2137066
:4057000000BFBD4680BC7047A8430040B843004080B483B000AF0346FB710C4A0B4B1B78DBB223F00203DBB213700849074B1B78DAB2FB7903F00203DBB21343DBB20B7076
:4057400000BF0C37BD4680BC704700BF2858004080B582B000AF0346FB710C4A0B4B1B78DBB223F00C03DBB213700849074B1B78DAB2FB7903F00C03DBB21343DBB20B70C6
:4057800000F016F800BF0837BD4680BD2858004080B483B000AF0346FB71044AFB79137000BF0C37BD4680BC704700BF825B004080B483B000AF0B4B1B78DBB203F00C037B
:4057C0009B08DBB20633FB71074AFB7903F1924303F594731B78DBB2137000BF0C37BD4680BC7047285800400A46004080B500AF022000F027F800BF80BD00BF80B400AFA9
:405800000D4A0D4B1B78DBB243F06003DBB213700A4A0A4B1B78DBB243F00203DBB21370074A074B1B78DBB243F00203DBB2137000BFBD4680BC704777580040A4430040EC
:40584000B443004080B483B000AF0346FB710C4A0B4B1B78DBB223F00303DBB213700849074B1B78DAB2FB7903F00303DBB21343DBB20B7000BF0C37BD4680BC704700BF60
:405880005A58004080B400AF054B1B78DBB203F08003DB09DBB21846BD4680BC704700BF0151004080B400AF054B1B78DBB203F040039B09DBB21846BD4680BC704700BF4A
:4058C0000151004080B485B000AF0346FB710B4B1B78DBB223F01003FB730849FB791B01DBB203F01003DAB2FB7B1343DBB20B7000BF1437BD4680BC704700BF005100401B
:4059000080B485B000AF0346FB710B4B1B78DBB223F02003FB730849FB795B01DBB203F02003DAB2FB7B1343DBB20B7000BF1437BD4680BC704700BF00510040000000000C
:405940000230800803D000BF01380046FCD17047EFF3108072B6704780F31088704700BF81F0004102E000BF83F0004330B54FEA41044FEA430594EA050F08BF90EA020F35
:405980001FBF54EA000C55EA020C7FEA645C7FEA655C00F0E2804FEA5454D4EB5555B8BF6D420CDD2C4480EA020281EA030382EA000083EA010180EA020281EA0303362D08
:4059C00088BF30BD11F0004F4FEA01314FF4801C4CEA113102D0404261EB410113F0004F4FEA03334CEA133302D0524263EB430394EA050F00F0A780A4F10104D5F1200E11
:405A00000DDB02FA0EFC22FA05F2801841F1000103FA0EF2801843FA05F359410EE0A5F120050EF1200E012A03FA0EFC28BF4CF0020C43FA05F3C01851EBE37101F000452A
:405A400007D54FF0000EDCF1000C7EEB00006EEB0101B1F5801F1BD3B1F5001F0CD349085FEA30004FEA3C0C04F101044FEA445212F5800F80F09A80BCF1004F08BF5FEA49
:405A8000500C50F1000041EB045141EA050130BD5FEA4C0C404141EB010111F4801FA4F10104E9D191F0000F04BF01460020B1FA81F308BF2033A3F10B03B3F120020CDA21
:405AC0000C3208DD02F1140CC2F10C0201FA0CF021FA02F10CE002F11402D8BFC2F1200C01FA02F120FA0CFCDCBF41EA0C019040E41AA2BF01EB0451294330BD6FEA040432
:405B00001F3C1CDA0C340EDC04F11404C4F1200220FA04F001FA02F340EA030021FA04F345EA030130BDC4F10C04C4F1200220FA02F001FA04F340EA0300294630BD21FA6B
:405B400004F0294630BD94F0000F83F4801306BF81F480110134013D4EE77FEA645C18BF7FEA655C29D094EA050F08BF90EA020F05D054EA000C04BF1946104630BD91EABF
:405B8000030F1EBF0021002030BD5FEA545C05D14000494128BF41F0004130BD14F580043CBF01F5801130BD01F0004545F0FE4141F470014FF0000030BD7FEA645C1ABF6F
:405BC000194610467FEA655C1CBF0B46024650EA013406BF52EA033591EA030F41F4002130BD00BF90F0000F04BF0021704730B54FF4806404F132044FF000054FF0000136
:405C000050E700BF90F0000F04BF0021704730B54FF4806404F1320410F0004548BF40424FF000013EE700BF42004FEAE2014FEA31014FEA02701FBF12F07F4393F07F4FB4
:405C400081F06051704792F0000F14BF93F07F4F704730B54FF4607401F0004521F0004120E700BF50EA010208BF704730B54FF000050AE050EA010208BF704730B511F026
:405C8000004502D5404261EB41014FF4806404F132045FEA915C3FF4DCAE4FF003025FEADC0C18BF03325FEADC0C18BF033202EBDC02C2F1200300FA03FC20FA02F001FA14
:405CC00003FE40EA0E0021FA02F11444C1E600BF70B54FF0FF0C4CF4E06C1CEA11541DBF1CEA135594EA0C0F95EA0C0F00F0DEF82C4481EA030621EA4C5123EA4C5350EA84
:405D0000013518BF52EA033541F4801143F4801338D0A0FB02CE4FF00005E1FB02E506F00042E0FB03E54FF00006E1FB03569CF0000F18BF4EF0010EA4F1FF04B6F5007FE2
:405D400064F5407404D25FEA4E0E6D4146EB060642EAC62141EA55514FEAC52040EA5E504FEACE2EB4F1FD0C88BFBCF5E06F1ED8BEF1004F08BF5FEA500E50F1000041EBDD
:405D8000045170BD06F0004646EA010140EA020081EA0301B4EB5C04C2BFD4EB0C0541EA045170BD41F480114FF0000E013C00F3AB8014F1360FDEBF002001F0004170BD87
:405DC000C4F10004203C35DA0C341BDC04F11404C4F1200500FA05F320FA04F001FA05F240EA020001F0004221F0004110EBD37021FA04F642EB06015EEA430E08BF20EACD
:405E0000D37070BDC4F10C04C4F1200500FA04F320FA05F001FA04F240EA020001F0004110EBD37041F100015EEA430E08BF20EAD37070BDC4F1200500FA05F24EEA020EA6
:405E400020FA04F301FA05F243EA020321FA04F001F0004121FA04F220EA020000EBD3705EEA430E08BF20EAD37070BD94F0000F0FD101F00046400041EB010111F4801FCB
:405E800008BF013CF7D041EA060195F0000F18BF704703F00046520043EB030313F4801F08BF013DF7D043EA0603704794EA0C0F0CEA135518BF95EA0C0F0CD050EA4106E0
:405EC00018BF52EA4306D1D181EA030101F000414FF0000070BD50EA410606BF1046194652EA430619D094EA0C0F02D150EA013613D195EA0C0F05D152EA03361CBF104657
:405F000019460AD181EA030101F0004141F0FE4141F470014FF0000070BD41F0FE4141F4780170BD70B54FF0FF0C4CF4E06C1CEA11541DBF1CEA135594EA0C0F95EA0C0FD6
:405F400000F0A7F8A4EB050481EA030E52EA03354FEA013100F088804FEA03334FF0805545EA131343EA12634FEA022245EA111545EA10654FEA00260EF000419D4208BF93
:405F8000964244F1FD0404F5407402D25B084FEA3202B61A65EB03055B084FEA32024FF480104FF4002CB6EB020E75EB030E22BFB61A754640EA0C005B084FEA3202B6EB13
:405FC000020E75EB030E22BFB61A754640EA5C005B084FEA3202B6EB020E75EB030E22BFB61A754640EA9C005B084FEA3202B6EB020E75EB030E22BFB61A754640EADC00A6
:4060000055EA060E18D04FEA051545EA16754FEA06164FEAC30343EA52734FEAC2025FEA1C1CC0D111F4801F0BD141EA00014FF000004FF0004CB6E711F4801F04BF014305
:406040000020B4F1FD0C88BFBCF5E06F3FF6AFAEB5EB030C04BFB6EB020C5FEA500C50F1000041EB045170BD0EF0004E4EEA113114EB5C04C2BFD4EB0C0541EA045170BDA1
:4060800041F480114FF0000E013C90E645EA060E8DE60CEA135594EA0C0F08BF95EA0C0F3FF43BAF94EA0C0F0AD150EA01347FF434AF95EA0C0F7FF425AF104619462CE70D
:4060C00095EA0C0F06D152EA03353FF4FDAE1046194622E750EA410618BF52EA43067FF4C5AE50EA41047FF40DAF52EA43057FF4EBAE12E74FEA410212F5001215D211D5C3
:406100006FF47873B3EB625212D94FEAC12343F0004343EA505311F0004F23FA02F018BF404270474FF00000704750EA013005D111F0004008BF6FF0004070474FF000002E
:40614000704700BF4A0011D212F5001211D20DD56FF47873B3EB62520ED44FEAC12343F0004343EA505323FA02F070474FF00000704750EA013002D14FF0FF3070474FF05B
:4061800000007047014B1868704700BF3C8BFF1F0E4B70B51E460E4C0025E41AA410A54204D056F8253098470135F8E701F086FB084B094C1E46E41AA4100025A54204D08C
:4061C00056F8253098470135F8E770BDC8780000C8780000C8780000D078000010B5431E0A44914204D011F8014B03F8014FF8E710BD03460244934202D003F8011BFAE73E
:40620000704700000EB400B54FF402719CB0ADF814106FF00041049107914FF6FF711DAB02900690084853F8042BADF81610006802A9019300F064F8029B00221A701CB056
:406240005DF804EB03B070473C8BFF1F2DE9F0478E6882469E420C46914698463ED88A8912F4906F3AD02568096902236F1A656905EB450595FBF3F57B1C43449D4238BF40
:406280001D4653050FD5294600F040FB064698B13A462169FFF7A2FFA38923F4906343F08003A38113E02A4600F08EFB064670B92169504600F0DEFA0C23CAF80030A389D9
:4062C0004FF0FF3043F04003A381BDE8F08726613E44266046466561ED1BA560464528BF464649463246206800F0A8FAA36800209B1BA36023681E442660BDE8F0870000FA
:406300002DE9F04F9DB003938B8980461C060D4616460DD50B695BB9402100F0F7FA2860286118B90C23C8F80030CDE040236B610023099320238DF82930DFF89CB130239A
:406340008DF82A3037463C4614F8013B1BB9B7EB060910D003E0252BF9D02746F3E74B46324629464046FFF771FF013000F0A780099B4B4409933B78002B00F0A0800023C3
:406380004FF0FF3204930793059206938DF853301A930126052221784E4800F041FA671C049B38B14B4A3C46801A06FA00F018430490EFE7D90644BF20228DF853201A0701
:4063C00044BF2B228DF8532022782A2A03D0079A00210A200BE0039A111D12680391002A10DA524243F00200079204900BE027463B780134303B092B03D800FB02320121CF
:40640000F5E701B107923B782E2B1ED17B782A2B0AD1039B02371A1D1B680392002BB8BF4FF0FF33059310E0002319460593781C0A2407463A780130303A092A03D804FBD3
:4064400001210123F5E703B1059103223978224800F0E6F940B14023CBEB000003FA00F0049B013718430490397806221B487E1C8DF8281000F0D4F988B1194B33B9039B6D
:40648000073323F007030833039314E003AB00932A46144B04A94046AFF3008007E003AB00932A460F4B04A9404600F093F8B0F1FF3F824603D0099B5344099342E7AB890D
:4064C0005B0601D4099801E04FF0FF301DB0BDE8F08F00BF867800008C78000090780000000000004D6200002DE9F04791461F460A698B6806469342B8BF1346C9F800303C
:4065000091F843200C46DDF8208012B10133C9F800302368990642BFD9F800300233C9F80030256815F0060510D104F1190A07E00123524639463046C04701301AD00135E8
:40654000E368D9F800209B1A9D42F1DB94F843302268003318BF012392060FD5E118302081F843005A1C94F845102244023382F8431003E04FF0FF30BDE8F08704F14302E1
:4065800039463046C0470130F4D02268D9F80050E36802F00602042A08BF5D1B2269A3680CBF25EAE57500259342C4BF9B1AED184FF000091A344D4509D001232246394680
:4065C0003046C0470130D5D009F10109F3E70020BDE8F0872DE9F04317460A7E85B06E2A984606460C460C9B01F1430E00F0AE8011D8632A22D009D8002A00F0BB80582A8F
:4066000040F0CA8081F84520834955E0642A1ED0692A1CD0C0E0732A00F0B08009D86F2A2ED0702A40F0B8800A6842F020020A603EE0752A24D0782A3AD0ADE01A6801F1A1
:406640004205111D1960136884F84230A8E021681A6811F0800F02D0111D196008E011F0400F02F10401196002D0B2F9003000E01368002B3CDA2D225B4284F8432037E053
:4066800021681A6811F0800F02D0111D196007E011F0400F02F10401196001D0138800E01368227E5C496F2A14BF0A2208221BE078225A4984F845202268186812F0800F9C
:4066C00000F104051D6003D1550601D5038800E00368D00744BF42F0200222601BB9226822F0200222601022002084F8430001E049490A226568002DA56008DB206820F05A
:40670000040020602BB9002D7DD175460CE0002B79D07546B3FBF2F002FB1033CB5C05F8013D03460028F5D1082A0BD12368DA0708D5236962689A42DEBF302305F8013C84
:4067400005F1FF35C5EB0E0323612EE008681A6810F0800F496903D0101D1860136808E010F0400F02F104001860136801D0198000E0196000232361754616E01A68111D8A
:406780001960156800216268284600F049F808B1401B6060636804E004F1420584F8422001232361002384F84330CDF800803B4603AA21463046FFF797FE013002D14FF0E4
:4067C000FF3026E023692A4639463046C0470130F5D023689B0710D5002504F1190907E001234A4639463046C0470130E7D00135E368039A9B1A9D42F2DBE068039B98426A
:40680000B8BF184605E00B7804F1420584F842308AE705B0BDE8F08397780000A878000010B5C9B202449042034605D01C7801308C42F8D1184610BD002010BD884210B50B
:4068400001EB020301D8421E0BE09842FBD28118D21AD34204D013F8014D01F8014DF8E710BD994204D011F8014B02F8014FF8E710BD000038B50546002944D051F8043CAA
:406880000C1F002BB8BFE41800F0D4F81E4A1368114613B96360146030E0A3420DD92268A018834201BF18685B681218226063600C6023E0A24203D813465A68002AF9D185
:4068C00018681918A1420BD12168014458188242196013D110685268014419605A600DE002D90C232B6009E021686018824201BF106852680918216062605C602846BDE8CA
:40690000384000F098B838BDB08BFF1F70B5CD1C25F0030508350C2D38BF0C25002D064601DBA94202D90C23336046E000F082F8234B1C681A462146A1B10B685B1B0ED445
:406940000B2B03D90B60CC18CD501EE08C420BBF63684B681360636018BF0C4615E00C464968E9E7174C23681BB9304600F052F820602946304600F04DF8431C18D0C41C2B
:4069800024F00304A0420DD12560304600F053F804F10B00231D20F00700C31A0ED05A42E25070BD211A304600F034F80130EBD10C233360304600F03EF8002070BD00BF95
:4069C000B08BFF1FAC8BFF1FF8B5074615460E4621B91146BDE8F840FFF798BF1AB9FFF749FF2846F8BD00F027F885420ED929463846FFF78BFF044650B131462A46FFF75F
:406A0000EDFB31463846FFF735FF01E03046F8BD2046F8BD38B5064C0023054608462360FBF7BAFE431C02D1236803B12B6038BD548CFF1F7047704751F8040C0028BEBFA5
:406A4000091851F8043CC018043870470000000043302043233044302044233045302046302046233047302047233041302041233042302043312043233144312044233149
:406A80004531204631204623314731204723314131204123314231204332204323324432204423324532204632204623324732204723324132204123324232204333204331
:406AC00023334433204423334533204633204623334733204723334133204123334233204334204323344434204423344534204634204623344734204723344134204123E5
:406B00003442342043352043233544352044233545352046352046233547352047233541352041233542352043362043233644362044233645362046362046233647362070
:406B40004723364136204123364236204337204323374437204423374537204637204623374737204723374137204123374237204338204323384438204423384538204601
:406B80003820462338473820472338413820412338423820100011001200130015001600170019001A001C001D001F00210023002500270029002C002E003100340037000A
:406BC0003A003E004100450049004E00520057005C00620068006E0075007B0083008B0093009C00A500AF00B900C400D000DC00E900F70006011501260137014A015D0114
:406C0000720188019F01B801D201EE010B022A024B026E029302BA02E40210033F037003A403DC03170455049704DD0427057505C80520067D06E0064907B8072D08A908DB
:406C40002D09B9094D0AEA0A900B400CFA0CC00D920E6F0F5A1053115B1272139A14D4151F178018F519801B231DDE1E3C0608000002040709000000000305070A00000076
:406C80000001050708000000000105060A00000000010307080000000002050709000000000306070B000000000205070A00000000030506070A00000002030507090B0008
:406CC0000002030507090A000001030506080A00000305070A0000000002030507080B000002030507080A000001030506080A000002040007090A000002040607090A0088
:406D00000001040007080A000001030406080A000002040007080A00000103040607090A00020406080A00000002040507090A0000020407090000000002040507090B004F
:406D40000002030507090A000001030506080A000002040607090B000002040507090A000002030507080A000001030506080A0000030507080B00000002030507080B00F8
:406D80000001030506090A000002040506090B000002030607090A000001040507080A000003040607090B00000103040608090000030507090B00000002030507090B00B5
:406DC0000001030507090A000002040608090B000002040607090A000002040507080A000002030506080A000001030406080A0030206D616A6F722070656E7461746F6ECA
:406E000069630000000000000000000000000000000000000000000031206D696E6F722070656E7461746F6E696300000000000000000000000000000000000000000000BB
:406E400032206B756D6F692070656E7461205B6A6170616E5D000000000000000000000000000000000000003320697761746F2070656E7461205B6A6170616E5D000000F0
:406E800000000000000000000000000000000000342070656C6F672070656E7461205B62616C695D0000000000000000000000000000000000000000352068796F6A6F2021
:406EC00070656E7461205B6368696E615D00000000000000000000000000000000000000362070656E7461205B6368696E615D000000000000000000000000000000000056
:406F00000000000000000000372070656E7461205B65677970745D000000000000000000000000000000000000000000000000003020626C75657300000000000000000076
:406F400000000000000000000000000000000000000000000000000031206D656C6F646963206D696E6F72205B4D4D315D00000000000000000000000000000000000000FB
:406F80003220646F7269616E205B49495D0000000000000000000000000000000000000000000000000000003320706872796769616E205B4949495D000000000000000030
:406FC0000000000000000000000000000000000034206D696E6F722070656E7461746F6E69630000000000000000000000000000000000000000000035206861726D6F6EE9
:407000006963206D696E6F72205B484D315D000000000000000000000000000000000000362061656F6C69616E205B56495D000000000000000000000000000000000000FB
:40704000000000000000000037206C6F637269616E205B5649495D0000000000000000000000000000000000000000000000000030206D69786F6C796469616E5F61766FDE
:4070800069643400000000000000000000000000000000000000000031206D69786F6C796469616E5F233131205B4D4D345D000000000000000000000000000000000000B6
:4070C0003220484D35206D69786F6C796469616E5F62396231335F61766F69643400000000000000000000003320616C74657265642F73757065726C6F637269616E205BBB
:407100004D4D375D00000000000000000000000034206D69786F6C796469616E5F6231335F61766F6964340000000000000000000000000000000000352048544654205BBE
:4071400068616C6620746F6E652066756C6C20746F6E655D00000000000000000000000036204654205B66756C6C20746F6E65207363616C655D000000000000000000001F
:40718000000000000000000037206D69786F6C796469616E205B562D375D0000000000000000000000000000000000000000000030206D616A6F722070656E7461746F6EB6
:4071C0006963000000000000000000000000000000000000000000003120696F6E6963205B495D00000000000000000000000000000000000000000000000000000000003F
:407200003220646F7269616E205B49495D0000000000000000000000000000000000000000000000000000003320706872796769616E205B4949495D0000000000000000AD
