:400000000080002011000000ED0D0000ED0D000080B500AF024A034B1B68136000F01AFFBC760040FA46004010B5054C237833B9044B13B10448AFF300800123237010BD0A
:400040005085FF1F0000000084430000084B10B51BB108490848AFF300800848036803B910BD074B002BFBD0BDE81040184700BF000000005485FF1F84430000C880FF1F5C
:400080000000000080B500AF01F0ECFD03461A46384B1A6001F0F4FD03461A46364B1A60344B1B68002B15D1334B1B68002B11D1324B1B78DBB2002B0CD0304B00221A706A
:4000C000002001F0EDFD002001F008FE2C4801F073F94DE0274B1B68002B15D1264B1B68012B11D1254B1B78DBB2012B0CD0234B01221A70002001F0D3FD012001F0EEFD57
:40010000204801F059F933E01A4B1B68012B15D1194B1B68002B11D1184B1B78DBB2022B0CD0164B02221A70012001F0B9FD002001F0D4FD144801F03FF919E00D4B1B6875
:40014000012B15D10C4B1B68012B11D10B4B1B78DBB2032B0CD0094B03221A70012001F09FFD012001F0BAFD084801F025F9FFE700BF80BDB885FF1F2486FF1FC084FF1FC5
:400180000849000014490000204900002C49000090B587B004AF474B1B88B3F5FA5F02D9444B78221A80434B1B881A46424B93FBF2F3184603F0C2F903460C463F4AC2E944
:4001C00000343E4B18CB1846214603F057FC03469AB23B4B1A8000237B6044E0394A7B6832F81320364B1B889BB29A4238D17B68DAB2354B1A70344B1B78DBB21946334A70
:400200000B465B000B4413441B7818462E4B1B78DBB219462D4A0B465B000B44134401331B781C46284B1B78DBB21946274A0B465B000B44134402331B781A46204B1B88A6
:400240009BB219461B4B1B88029301910092234602461F491F4803F071FC1E4801F0ACF87B6801337B607B686B2BB7D9114B1B88013B9BB20121184600F056FF0D4B1B88F2
:4002800001339AB20B4B1A800A4B1B881A464FF4FA5393FBF2F39BB214339AB20E4B1A800D4B1B889BB2184601F05AFC00BF0C37BD4690BDC284FF1F90D00300B085FF1F47
:4002C000A885FF1FCC440000BF85FF1F8843000038490000C085FF1FBE84FF1F90B589B004AF0346FB710B46BB711346BB802E4801F062F8BB796B2B01D96B23BB71FB79A8
:40030000FB7349E0294B1B78DBB21A46284B33F812301A46274B93FBF2F39AB2264B1A80254B1B88013B9BB20121184600F0FCFEFA7B224913465B0013440B441B78184685
:40034000FA7B1E4913465B0013440B4401331B781C46FA7B194913465B0013440B4402331B781946FB7B124A32F813301A46124B1B8802930192009123460246104911480B
:4003800003F0DCFB0F4801F017F8BB88184601F0E7FBFB7B0133FB73FA7BBB799A42B1D900BF1437BD4690BD504900006C85FF1FCC44000090D00300C284FF1F88430000DD
:4003C00038490000C085FF1F80B582B000AF78607B68BE2B0DDD234B1B78022B03D1214B01221A7005E01F4B1B780133DAB21D4B1A707B6813F1BE0F30DA1A4B1B78002BE5
:4004000003D1184B02221A7005E0164B1B78013BDAB2144B1A70134B1B78012B0DD0022B13D0002B00D019E04FF4FB710E4800F013FE0E4800F0C0FF10E004210C4800F0EB
:400440000BFE0C4800F0B8FF08E04FF4FB710A4800F002FE094800F0AFFF00BF00BF0837BD4680BD7C85FF1FC882FF1F60490000CC80FF1F6C490000D080FF1F7849000035
:4004800090B583B000AF62B601F00CFE9C4801F06DFD9C4801F0B8FD9B4801F01DFE9B4801F068FE9A4801F0B3FE9A4801F0FEFE994801F049FF994801F0C2FF01F092FF8E
:4004C000974B1B78DBB2184601F0A6FF02F05CF902F072F900F0F4FE924800F06DFF01F0DBFC01F029FD904801F016FC8F4B1B78DBB2002B09D08E4B1B78DBB2002B04D09A
:40050000FFF7C0FD8A4B00221A708A4B1B78DBB2002B45D002F060F90346A3F22A337B607B68002B0EDD7E4B1B78DBB219467B68814A82FB0302D210DB17D31A7F4A42F8BC
:40054000213015E0764B1B78DBB21C46786802F0F5FF69A3D3E9002303F080F902460B461046194603F062FA0246744B43F82420724B5B681846FFF727FF694B1B78DBB2E4
:4005800083F00103DAB2664B1A70654B1B78DBB2184601F041FF674B00221A7002F00CF9674B1B78DBB2032B00F2A48001A252F823F000BFC5050000CB050000F5060000DF
:4005C000D7050000FFF7E4FD95E078225A213220FFF784FE8FE05B4B1B78DBB2002B20D000F014FD584800F0E7FE564B1B78DBB21A46564B33F812301946504B1B68544AE4
:4006000082FB03021211DB17D31A0B44514A92FBF3F39BB2013B9BB20121184600F084FD69E04D4B1B78DBB2002B2DD000F0EEFC4A4800F0C1FE484B1B78DBB21946484A2A
:400640000B465B000B4413441B78184600F09AFE414B1B78DBB21A463C4B33F812301946364B1B683A4A82FB03021211DB17D31A0B44384A92FBF3F39BB2013B9BB2012108
:40068000184600F051FD36E0364B1B78DBB2002B2DD000F0BBFC314800F08EFE314B1B78DBB219462E4A0B465B000B4413441B78184600F067FE2B4B1B78DBB21A46234BB4
:4006C00033F8123019461D4B1B68214A82FB03021211DB17D31A0B441E4A92FBF3F39BB2013B9BB20121184600F01EFD03E000F09FFC00E000BFF9E66666666666660A402F
:4007000095070000B1070000CD070000E90700000508000021080000690700007D0700007085FF1F884900003D0800007F85FF1F7E85FF1F7185FF1FE1830F3E7485FF1F2F
:40074000C084FF1F6C85FF1FC085FF1FCC4400001F85EB5190D003006D85FF1F94490000884300006E85FF1F80B500AF024800F023FE00BF80BD00BF9849000080B400AFCB
:40078000034B01221A7000BFBD4680BC704700BF7185FF1F80B500AF034800F00DFE034B4B221A7000BF80BDB04900006C85FF1F80B500AF034800F0FFFD034B00221A702E
:4007C00000BF80BDC44900006C85FF1F80B500AF034800F0F1FD034B55221A7000BF80BDD84900006D85FF1F80B500AF034800F0E3FD034B00221A7000BF80BDEC4900002E
:400800006D85FF1F80B500AF034800F0D5FD034B50221A7000BF80BD004A00006E85FF1F80B500AF034800F0C7FD034B00221A7000BF80BD144A00006E85FF1F80B500AFEA
:40084000034B01221A7001F049FB00BF80BD00BF7E85FF1F80B582B000AF786039603A680021786803F061F900BF0837BD4680BD80B584B000AFF860B9607A607A68B96851
:40088000F86803F047F900BF1037BD4680BD00BF80B483B000AF0346FB71FEE780B487B000AF7860396000233B6100237B6127E07B699B007A6813441B68BB60BB68FB73B9
:4008C000BB6823F0FF03BB6014E03B695B003A6813441B781A46BB68134419463B695B003A6813445B780B703B6901333B61FB7B013BFB73FB7B002BE7D17B6901337B61C6
:400900007B69202BD4D900BF1C37BD4680BC704780B582B000AF494B00221A80484B50221A70484B19221A80474B18221A70474BEF221A80464B18221A70464B47F22F5243
:400940001A80454B19221A70444B47F22F521A80434B19221A70042242494348FFF788FF424B02221A704FF0402308221A70404B03221A703F4B404A1278D2B21A703F4B98
:4009800008221A803E4B41F251221A800023FB7019237B6014E0FB785B00DAB2394B1B78DBB203F00103DBB21343DBB203F00303FB704FF4F07002F05FFC7B68013B7B605E
:4009C0007B68002B02D0FB78032BE4D17B68002B02D10320FFF75CFF2B4B4FF480721A80294B07221A70294B00221A70284B48221A70254B00221A70264B02221A70264BCD
:400A000004221A70254A254B1B78DBB243F01F03DBB21370224A224B1B78DBB243F00103DBB213701F4A1F4B1B78DBB263F07F03DBB2137000BF0837BD4680BD804000404C
:400A4000824000408440004086400040884000408A4000408C4000408E4000409040004092400040FC050048004100400043004000420040A1460040080100492242004030
:400A80002042004025420040044000400640004008400040014000400B400040A2430040A1430040A043004080B483B000AF104B1B78FB710F4AFB7903F00703DBB2137099
:400AC0000D4AFB791B09DBB213700C4B10221A700B4B40F201121A800A4B0C221A700A4B44221A7000BF0C37BD4680BC704700BFCF0100496E5800406F580040985A00404E
:400B0000425B0040585B00407658004080B483B000AF0346FB71FB79012B0ED8FB79094A52F82330FA79074951F822201178FA790548825C0A43D2B21A7000BF0C37BD464D
:400B400080BC7047284A0000304A000080B483B000AF0346FB71FB79012B10D8FB790A4A52F82330FA79084951F822201178FA790648825CD243D2B20A40D2B21A7000BFB7
:400B80000C37BD4680BC7047284A0000304A000080B483B000AF0346FB71FB79012B24D8FA79FB791344FB71FB79124A52F82330FA79104951F822201178FA790E48825C0B
:400BC0000A43D2B21A70FB790133FB71FB79094A52F82330FA79074951F822201178FA790548825C0A43D2B21A7000BF0C37BD4680BC7047344A0000444A000080B483B0E7
:400C000000AF0346FB71FB79012B28D8FA79FB791344FB71FB79144A52F82330FA79124951F822201178FA791048825CD243D2B20A40D2B21A70FB790133FB71FB790A4A3F
:400C400052F82330FA79084951F822201178FA790648825CD243D2B20A40D2B21A7000BF0C37BD4680BC7047344A0000444A000080B582B000AF72B6444A444B1B78DBB2F0
:400C800043F00403DBB213700023FB7113E0FA7913465B0013445B003D4A13443B603B681A683B689B889BB219461046FFF7D2FDFB790133FB71FB79072BE8D935494FF02C
:400CC0009040FFF7EBFD344B0A221A7004213348FFF7C0FD04213248FFF7BCFD314A314B1B78DBB243F00203DBB213702E4A2E4B1B78DBB243F00203DBB213702B4A2B4BCD
:400D00001B78DBB243F04003DBB21370284A284B1B78DBB243F01003DBB213700A2225492548FFF7A5FD0A2224492548FFF7A0FD0A2224492448FFF79BFD082223492448E5
:400D4000FFF796FD082223492348FFF791FD234A224B1B78DBB243F00803DBB21370204B61221A70FFF7D4FD1D4B81221A701D4B01221A70FFF798FE0E220C491A48FFF7CB
:400D800077FD00BF0837BD4680BD00BFE8460040484A0000840000488358004000760040087600400350014013500140A0430040C2430040C805004800510040D405004800
:400DC000C0510040E005004810510040EC05004822510040F405004832510040224300400048004004000840B043004080B500AF02F064FE03461B680C2B00D1FEE7FEE762
:400E000080B584B000AF7860104B1A687B6813441A460F4BD31AB3F5805F09DC0B4B1B68FB600A4B1A687B681344084A136007E002F044FE02460C2313604FF0FF33FB60BD
:400E4000FB6818461037BD4680BD00BFC484FF1F3086FF1F80B586B000AF224B7B61224B3B61204B7B6135E03B691B68FB603B695B68BB603B699B683B6000237B600CE039
:400E8000FB681A68BB681A60BB680433BB60FB680433FB607B6804337B607A683B689A42EED13B69DB683B6000237B6008E0BB6800221A60BB680433BB607B6804337B60A0
:400EC0007A683B689A42F2D13B6910333B617B69013B7B617B69002BC6D102F0F5FDFFF7CFFAFEE7010000009C4B000080B582B000AF194B194A1A60194A194B1B6843F461
:400F00000073136000237B600FE07B68032B04D8144A7B6852F8233000E0134B13497A6841F822307B6801337B607B682F2BECD90F4B1B78DAB20F4B1A700F4B0B4A1A6092
:400F4000FFF796FE00F0E4FB0C4B00221A6000BF0837BD4680BD00BF0CED00E00004FA0514ED00E000000000ED0D00000080FF1FBC760040C480FF1F08ED00E0C080FF1FCC
:400F800080B500AF00F09EFA022000F0EDFA002000F00AFB00F056FB00F03AFD03461A46084B1A7000F034FD03461A46064B1A706421064800F050F86421054800F080F8DF
:400FC00000BF80BD8385FF1F8485FF1F784A0000DC4A000080B500AF00F092FA00F03AFB084B1B780121184600F0C0FB064B1B780121184600F0BAFB002000F0F5FA00BF63
:4010000080BD00BF8185FF1F8285FF1F80B500AF064B1B78002B04D1FFF7B2FF034B01221A70FFF7D7FF00BF80BD00BF8085FF1F80B500AF064B1B78184600F0DDFB054B19
:401040001B78184600F0D8FB00F074FA00BF80BD8185FF1F8285FF1F80B582B000AF78600B467B807B681B0C9AB24FF480430121012000F0C3F903461A460F4B1A700F4BAD
:4010800018780E4B1A787988012300F0EFFC0B4B1B787A6891B245F68332184600F026FD054B1A78054B1B781946104600F042FC00BF0837BD4680BD8185FF1F8385FF1F16
:4010C00080B582B000AF78600B467B807B681B0C9AB24FF480430121012000F0C1F903461A460F4B1A700F4B18780E4B1A787988012300F0BBFC0B4B1B787A6891B245F6F6
:401100008332184600F0F2FC054B1A78054B1B781946104600F00EFC00BF0837BD4680BD8285FF1F8485FF1F80B584B000AF03460A46FB8013467B7100F0B4F80346FB73FC
:4011400000F0A4F80346BB81FA88BB899A4200F08880464B1B78DBB203F00403FB72FB7B002B20D1BB89002B02D0FB88002B1AD1BB89002B0BD13E4AFB8813803D4A3D4B48
:401180001B78DBB223F04003DBB2137069E0394A384B1B78DBB243F04003DBB21370344AFB8813805DE0FB7A002B33D0324B00221A70324B04221A70314B00221A70314A47
:4011C000304B1B78DBB203F07F03DBB21370294B1B78DBB203F00803002B02D0FB88002B18D1294ABB891380234B07221A7000BF214B1B78DBB203F00103002BF8D11B4AA3
:401200001A4B1B78DBB223F00403DBB213701A4B00221A70154B1B78DBB203F00403002B13D0194AFB881380134A7B79002B01D0032300E00123137000BF0F4B1B78DBB2BA
:4012400003F00103002BF8D10BE0094AFB8813800649064B1B78DAB2FB7A1343DBB20B70FFE700BF1037BD4680BD00BFA2430040884000408A40004001400040104000406A
:4012800014400040084000400240004080B400AF034B1B889BB21846BD4680BC704700BF8840004080B400AF044B1B78DBB203F00703DBB21846BD4680BC70478A4000401A
:4012C00080B500AF064B1B78002B04D100F00AF8034B01221A7000F025F800BF80BD00BF8585FF1F80B400AF094B72221A70094B00221A70084B06221A70084B47221A70A9
:40130000074B00221A7000BFBD4680BC704700BF89650040896400402B6400403B6400408B65004080B582B000AF01F0ADFF0346FB71114A104B1B78DBB243F02003DBB2E1
:4013400013700E4A0D4B1B78DBB243F01003DBB213700B4A0A4B1B78DBB243F01003DBB2137000F0BBF9FB79184601F091FF00BF0837BD4680BD00BF996500409964004035
:401380009B65004080B483B000AF0346FB7100BF074B1B78DBB203F00403002BF8D1054AFB79137000BF0C37BD4680BC704700BF6B6500404B65004080B584B000AF786016
:4013C0000023FB810C4B1B78002B10D009E0FB897A6813441B781846FFF7D4FFFB890133FB81FB897A6813441B78002BEFD100BF1037BD4680BD00BF8585FF1F90B585B0E3
:4014000002AF0446084611461A462346FB710346BB710B46BB8013467B80104B00221A700E4B1878BA79F9790023019300230093002300F09DFA094B1B787A88B98818464E
:4014400000F03CFA054B1B780221184600F004FA024B1B7818460C37BD4690BDC884FF1F90B585B002AF0446084611461A462346FB710346BB710B46BB8013467B80104BBA
:4014800001221A700E4B1878BA79F9790023019300230093002300F06BFA094B1B787A88B988184600F00AFA054B1B780221184600F0D2F9024B1B7818460C37BD4690BDA0
:4014C000C984FF1F80B500AF0A4B00221A700A4B00221A70094A094B1B78DBB243F00803DBB21370002000F05FF8022000F03CF800BF80BD2C5800402D5800409F5A00401B
:4015000080B400AF094A094B1B78DBB243F00803DBB21370064A064B1B78DBB243F00803DBB2137000BFBD4680BC7047A8430040B843004080B400AF094A094B1B78DBB2DF
:4015400023F00803DBB21370064A064B1B78DBB223F00803DBB2137000BFBD4680BC7047A8430040B843004080B483B000AF0346FB710C4A0B4B1B78DBB223F00203DBB2F7
:4015800013700849074B1B78DAB2FB7903F00203DBB21343DBB20B7000BF0C37BD4680BC704700BF2C58004080B582B000AF0346FB710C4A0B4B1B78DBB223F00C03DBB2CE
:4015C00013700849074B1B78DAB2FB7903F00C03DBB21343DBB20B7000F016F800BF0837BD4680BD2C58004080B483B000AF0346FB71044AFB79137000BF0C37BD4680BCF4
:40160000704700BF835B004080B483B000AF0B4B1B78DBB203F00C039B08DBB20633FB71074AFB7903F1924303F59C731B78DBB2137000BF0C37BD4680BC70472C580040BF
:401640000B46004080B500AF022000F027F800BF80BD00BF80B400AF0D4A0D4B1B78DBB243F06003DBB213700A4A0A4B1B78DBB243F00203DBB21370074A074B1B78DBB2DD
:4016800043F00203DBB2137000BFBD4680BC704777580040A4430040B443004080B483B000AF0346FB710C4A0B4B1B78DBB223F00303DBB213700849074B1B78DAB2FB79CA
:4016C00003F00303DBB21343DBB20B7000BF0C37BD4680BC704700BF5A58004080B400AF094A094B1B78DBB243F00203DBB21370064A064B1B78DBB243F00203DBB2137062
:4017000000BFBD4680BC7047A2430040B243004080B483B000AF134B7F221A70124B80221A707F23FB710CE0FB79DB0003F1804303F5F043FA79013AD2B21A70FB79013BDB
:40174000FB71FB79002BEFD1FB79DB0003F1804303F5F04300221A7000BF0C37BD4680BC704700BFCD84FF1FCC84FF1F80B485B000AF03460A46FB711346BB710123FB600C
:40178000FB79172B2FD8BB79002B0ED0FB791A01184B1344FA791101164A0A441278D2B242F02002D2B21A700DE0FB791A01114B1344FA7911010F4A0A441278D2B222F0C8
:4017C0002002D2B21A70FB791A010A4B1344FA791101084A0A441278D2B242F00102D2B21A700023FB60FB6818461437BD4680BC704700BF1070004080B485B000AF0346A8
:40180000FB710123FB60FB79172B1DD8FB791A01104B1344FA7911010E4A0A441278D2B222F00102D2B21A70FB791A01094B1344FA791101074A0A441278D2B222F02002D5
:40184000D2B21A700023FB60FB6818461437BD4680BC70471070004080B485B000AF03460A46FB711346BB710123FB60FB79172B1BD8FB791A01104B13441B78DBB223F0DC
:401880000E03FB72FB791A010B4B1344BA795200D2B252B202F00E0251B297F90B200A4352B2D2B21A700023FB60FB6818461437BD4680BC704700BF1070004080B485B0DA
:4018C00000AF0346FB710B46BB8013467B800123FB60BB8841F6FF72934202D14FF40053BB807B8841F6FF72934202D14FF400537B80FB79172B17D8FB79DB0003F1804332
:4019000003F5EC430433BB60BB68BA881A80FB79DB0003F1804303F5EC430633BB60BB687A881A800023FB60FB6818461437BD4680BC704780B485B000AF03460A46FB7152
:401940001346BB710123FB60FB79172B07D8FB791A01064B1344BA795A720023FB60FB6818461437BD4680BC704700BF1070004090B484B000AF0446084611461A462346BA
:40198000FB710346BB710B467B7113463B710123FB60FB79172B34D8FB79DB0003F1804303F5EC43BA7902F07F02D1B27A79D201D2B20A43D2B21A70FB79DB0003F18043C2
:4019C00003F5EC433A7E1201D1B23A7902F00F02D2B20A43D2B25A70FB79DB0003F1804303F5EC433A7F02F00F02D2B29A70FB79DB0003F1804303F5EC430022DA7000236A
:401A0000FB60FB6818461037BD4690BC704700BF80B582B000AFFF23FB7101F035FC0346BB71104B1B78182B12D90F4B1B78FB710C4B1B78013BDAB20A4B1A70FB79DB00EE
:401A400003F1804303F5F0431B78DAB2064B1A70BB79184601F01CFCFB7918460837BD4680BD00BFCC84FF1FCD84FF1F90B484B000AF0446084611461A462346FB7103466E
:401A8000BB800B46BB711346FB700123FB6097F90730002B23DBBB8823F47F6323F00F039BB2002B1BD1FB79DB0003F1804303F5F043BB60BB68BA881A80FB79DB0003F1E8
:401AC000804303F5F043BA799A70FB79DB0003F1804303F5F043FA78DA700023FB60FB6818461037BD4690BC704700BF80B485B000AF0346FB710B46BB8013467B800123B2
:401B0000FB6097F90730002B17DBFB79DB0003F1804303F5F0430433BB60BB68BA881A80FB79DB0003F1804303F5F0430633BB60BB687A881A800023FB60FB681846143716
:401B4000BD4680BC704700BF80B483B000AF0346FB7101BE00BF0C37BD4680BC704700BF80B582B000AF786008E00C4B1B68184601F082FB7B68A3F500437B607B68B3F5CF
:401B8000004FF2D8064B1B687A6802FB03F3184601F072FB00BF0837BD4680BDE084FF1FD884FF1F80B582B000AF0346FB80FB88054A127802FB03F3184601F05DFB00BFDE
:401BC0000837BD4680BD00BFDC84FF1F80B584B000AF03463960FB710F4B1B68FB60FB791F2B02D90020FFF7AFFFFB7903F01F0310339B00FA6813441B68BB60FB7903F009
:401C00001F0310339B00FA6813443A681A60BB6818461037BD4680BD08ED00E080B582B000AF03460A46FB711346BB71BB79072B02D90020FFF788FFFB791F2B02D90020BB
:401C4000FFF782FFFB7903F01F0303F1604303F56443BA795201D2B21A7000BF0837BD4680BD00BF80B400AF044B1B78DBB203F00103DBB21846BD4680BC704701510040E1
:401C800080B400AF054B1B78DBB203F002035B08DBB21846BD4680BC704700BF0151004080B485B000AF0346FB710B4B1B78DBB223F00403FB730849FB799B00DBB203F099
:401CC0000403DAB2FB7B1343DBB20B7000BF1437BD4680BC704700BF0051004080B485B000AF0346FB710B4B1B78DBB223F00803FB730849FB79DB00DBB203F00803DAB2A7
:401D0000FB7B1343DBB20B7000BF1437BD4680BC704700BF0051004080B582B000AF786000F03CF8786800F009F8072000F018F800F028F800BF0837BD4680BD80B485B0BE
:401D400000AF7860054B1B68FB60FB6884337A681A6000BF1437BD4680BC704708ED00E080B483B000AF0346FB71054AFB795B01DBB2137000BF0C37BD4680BC704700BFB2
:401D800011E400E080B400AF034B4FF400321A6000BFBD4680BC704700E100E080B400AF034B4FF400321A6000BFBD4680BC704780E100E080B500AF214A214B1B78DBB2C7
:401DC00003F00103DBB213701E4A1E4B1B78DBB223F00303DBB213701B4A1B4B1B78DBB223F03003DBB21370174A174B1B78DBB243F03003DBB21370134A134B1B78DBB24D
:401E000023F00F03DBB213700F4A0F4B1B78DBB243F00F03DBB213700C4A0C4B1B78DBB243F00103DBB21370632000F063F8632000F072F8082000F041F800BF80BD00BF7A
:401E4000004F0040024F00400B4F0040014F004080B400AF0D4A0D4B1B78DBB243F00103DBB213700A4A0A4B1B78DBB243F00103DBB21370074A074B1B78DBB243F0010315
:401E8000DBB2137000BFBD4680BC7047A3430040B3430040004F004080B500AF064B1B78002B04D1FFF786FF034B01221A70FFF7CFFF00BF80BD00BF8785FF1F80B483B024
:401EC00000AF0346FB71044AFB79137000BF0C37BD4680BC704700BF034F004080B400AF034B1B78DBB21846BD4680BC704700BF034F004080B485B000AF0346FB71FB79B9
:401F0000FB81044AFB89138000BF1437BD4680BC704700BF044F004080B483B000AF0346FB71044BFA7992B21A8000BF0C37BD4680BC7047064F004080B400AF094A094BEC
:401F40001B78DBB243F01003DBB21370064A064B1B78DBB243F01003DBB2137000BFBD4680BC7047A2430040B243004080B582B000AF786000F03CF8786800F009F80720BB
:401F800000F018F800F028F800BF0837BD4680BD80B485B000AF7860054B1B68FB60FB684C337A681A6000BF1437BD4680BC704708ED00E080B483B000AF0346FB71054A88
:401FC000FB795B01DBB2137000BF0C37BD4680BC704700BF03E400E080B400AF034B08221A6000BFBD4680BC704700BF00E100E080B400AF034B08221A6000BFBD4680BCA6
:40200000704700BF80E100E080B582B000AF786000F03CF8786800F009F8072000F018F800F028F800BF0837BD4680BD80B485B000AF7860054B1B68FB60FB6848337A68B3
:402040001A6000BF1437BD4680BC704708ED00E080B483B000AF0346FB71054AFB795B01DBB2137000BF0C37BD4680BC704700BF02E400E080B400AF034B04221A6000BF0A
:40208000BD4680BC704700BF00E100E080B400AF034B04221A6000BFBD4680BC704700BF80E100E080B400AF094A094B1B78DBB243F00803DBB21370064A064B1B78DBB26B
:4020C00043F00803DBB2137000BFBD4680BC7047A2430040B243004080B582B000AF786000F03CF8786800F009F8072000F018F800F028F800BF0837BD4680BD80B485B0C2
:4021000000AF7860054B1B68FB60FB6854337A681A6000BF1437BD4680BC704708ED00E080B483B000AF0346FB71054AFB795B01DBB2137000BF0C37BD4680BC704700BF1E
:4021400005E400E080B400AF034B20221A6000BFBD4680BC704700BF00E100E080B400AF034B20221A6000BFBD4680BC704700BF80E100E080B582B000AF786000F03CF8C0
:40218000786800F009F8072000F018F800F028F800BF0837BD4680BD80B485B000AF7860054B1B68FB60FB6850337A681A6000BF1437BD4680BC704708ED00E080B483B03D
:4021C00000AF0346FB71054AFB795B01DBB2137000BF0C37BD4680BC704700BF04E400E080B400AF034B10221A6000BFBD4680BC704700BF00E100E080B400AF034B102258
:402200001A6000BFBD4680BC704700BF80E100E080B582B000AF786000F03CF8786800F009F8072000F018F800F028F800BF0837BD4680BD80B485B000AF7860054B1B6854
:40224000FB60FB685C337A681A6000BF1437BD4680BC704708ED00E080B483B000AF0346FB71054AFB795B01DBB2137000BF0C37BD4680BC704700BF07E400E080B400AF81
:40228000034B80221A6000BFBD4680BC704700BF00E100E080B400AF034B80221A6000BFBD4680BC704700BF80E100E080B582B000AF786000F03CF8786800F009F8072073
:4022C00000F018F800F028F800BF0837BD4680BD80B485B000AF7860054B1B68FB60FB6858337A681A6000BF1437BD4680BC704708ED00E080B483B000AF0346FB71054A39
:40230000FB795B01DBB2137000BF0C37BD4680BC704700BF06E400E080B400AF034B40221A6000BFBD4680BC704700BF00E100E080B400AF034B40221A6000BFBD4680BCEF
:40234000704700BF80E100E080B582B000AF786000F03CF8786800F009F8072000F018F800F028F800BF0837BD4680BD80B485B000AF7860054B1B68FB60FB6844337A6874
:402380001A6000BF1437BD4680BC704708ED00E080B483B000AF0346FB71054AFB795B01DBB2137000BF0C37BD4680BC704700BF01E400E080B400AF034B02221A6000BFCA
:4023C000BD4680BC704700BF00E100E080B400AF034B02221A6000BFBD4680BC704700BF80E100E080B582B000AF0023FB7106E0FB791846FEF702FCFB790133FB71FB790B
:40240000012BF5D9034BFF221A7000BF0837BD4680BD00BFE484FF1F80B582B000AF0346FB71FFF7DFFFFB791846FEF7B1FB034AFB79137000BF0837BD4680BDE484FF1F0C
:4024400080B582B000AF786000F03CF8786800F009F8072000F018F800F028F800BF0837BD4680BD80B485B000AF7860054B1B68FB60FB68B4337A681A6000BF1437BD4633
:4024800080BC704708ED00E080B483B000AF0346FB71054AFB795B01DBB2137000BF0C37BD4680BC704700BF1DE400E080B400AF034B4FF000521A6000BFBD4680BC7047D1
:4024C00000E100E080B400AF034B4FF000521A6000BFBD4680BC704780E100E080B582B002AF414B01221A70404B00221A70102000F0B2FD102000F095FE07210020FFF7A1
:402500008DFB3B4B04221A703A4B00221A703A4B00221A70394A394B1B78DBB243F01803DBB21370364B00221A70364B00221A70354B00221A70354B0A221A70344B002299
:402540001A70344B00221A70334B5B221A70334B5E221A70324B00221A70324B14221A700123009310234FF4004249F2DA01002000F078FB0223009310234FF4004249F280
:40258000DA01002000F06EFB0323009310234FF4004249F2DA01002000F064FB0423009310234FF4004249F2DA01002000F05AFB1D4A0D4B1B78DBB2013B1C499B000B447A
:4025C0009B7813701A4A084B1B78DBB2013B174931F823301380044B1B78DBB2184600F039F900BFBD4680BDE584FF1F8885FF1F96580040975800409E580040075B0040EE
:4026000093580040885B0040895B004080580040815800408358004088580040895800408D580040014E00400E4E00409085FF1F0C4E004080B582B000AF00F025FE03460C
:40264000FB71434B1B78BB71424A424B1B78DBB243F00103DBB213703E4A3E4B1B78DBB243F01003DBB213703B4A3B4B1B78DBB243F00103DBB21370374A374B1B78DBB205
:4026800043F01003DBB21370344A344B1B78DBB243F00203DBB21370314A314B1B78DBB243F00203DBB213702E4A2E4B1B78DBB243F00303DBB213700320FFF773FA274AAF
:4026C000264B1B78DBB223F00203DBB21370244A234B1B78DBB223F00203DBB21370224A214B1B78DBB243F00603DBB213701F4B7A221A701E4A1E4B1B78DBB243F0010301
:40270000DBB213701B4A1B4B1B78DBB243F00103DBB21370184A184B1B78DBB243F00103DBB21370154A154B1B78DBB243F00103DBB21370124B01221A60124B01221A6011
:40274000FB79184600F0A4FD00BF0837BD4680BDE584FF1FAA430040BA430040F8460040F9460040915800407758004082580040A1430040B1430040A2430040B2430040C6
:4027800080E200E000E100E080B500AF084B1B78002B09D1074B1B78DBB2002B01D1FFF79DFE034B01221A70FFF744FF00BF80BD8A85FF1F8B85FF1F80B400AF054A054B3A
:4027C0001B78DBB243F00103DBB2137000BFBD4680BC7047004E004080B483B000AF174B1B78DBB203F003037B717B79012B03D8134B1B88FB8011E0114B1B78DBB2FB8053
:40280000104B1B78DBB29BB21B029AB2FB881343FB807B79032B01D10B4B1B780B4B1B78DBB2002B02D00A4B00221A70B7F9063018460C37BD4680BC704700BF144E0040E4
:40284000104E0040114E0040124E00408985FF1F8885FF1F80B582B000AF0346FB71C34B00221A70FB79012B66D1C14B38221A70C04B04221A70C04B06221A70BF4B002234
:402880001A70BF4B00221A70BE4B3F221A70BE4B00221A70BD4B00221A70BD4B00221A70BC4B01221A70BC4B50221A70BB4B27221A70BB4B2C221A70BA4B00221A70BA4BA3
:4028C00055221A70B94B5A221A70B94B05221A70B84B00221A70B84B00221A70B74B0A221A70B74B43221A70442000F073FAB54B58221A70B44B00221A70B44B05221A70F1
:40290000B34B02221A70B34B00221A70B24B00221A70002000F0CEFAB04B4FF47A421A600121052000F0DAFA0121BA2000F0BCFBAB490020FFF74AF9FB79022B66D18C4BA2
:4029400038221A708B4B04221A708B4B06221A708A4B00221A708A4B00221A70894B3F221A70894B00221A70884B00221A70884B00221A70874B01221A70874B50221A70D9
:40298000864B27221A70864B2C221A70854B00221A70854B55221A70844B5A221A70844B05221A70834B01221A70834B11221A70824B19221A70824B97221A70442000F02C
:4029C00009FA804B58221A707F4B00221A707F4B05221A707E4B02221A707E4B00221A707D4B00221A70002000F064FA7B4B4FF47A421A600121052000F070FA01212520FF
:402A000000F052FB77490020FFF7E0F8FB79032B66D1574B38221A70564B04221A70564B06221A70554B00221A70554B00221A70544B3F221A70544B00221A70534B00227B
:402A40001A70534B00221A70524B01221A70524B50221A70514B27221A70514B2C221A70504B00221A70504B55221A704F4B5A221A704F4B05221A704E4B01221A704E4B0F
:402A800011221A704D4B19221A704D4B97221A70442000F09FF94B4B58221A704A4B00221A704A4B05221A70494B02221A70494B00221A70484B00221A70002000F0FAF950
:402AC000464B4FF47A421A600121052000F006FA0121252000F0E8FA43490020FFF776F8FB79042B40F0A980214B38221A70214B04221A70204B06221A70204B00221A70B0
:402B00001F4B00221A701F4B3F221A701E4B00221A701E4B00221A701D4B00221A701D4B01221A701C4B50221A701C4B27221A701B4B2C221A701B4B00221A701A4B55220E
:402B40001A701A4B5A221A70194B05221A70194B01221A70184B11221A70184B19221A70174B97221A70442040E000BF8985FF1F004E0040024E0040034E0040044E00409D
:402B8000054E0040064E0040084E0040094E00400A4E0040144E0040845800408558004086580040875800408A5800408B5800408C5800408E5800408F5800409058004033
:402BC0009158004094580040955800409A5800409B5800409C5800409D5800402886FF1F512E00005D2E0000692E000000F0F2F8144B58221A70144B00221A70134B05224B
:402C00001A70134B02221A70124B00221A70124B00221A70002000F04DF9104B4FF47A421A600121052000F059F90121252000F03BFA0B490020FEF7C9FF00BF0837BD467B
:402C400080BD00BF94580040955800409A5800409B5800409C5800409D5800402886FF1F752E000090B587B000AF0446084611461A462346FB710346BB800B467B8013464A
:402C8000BB7197F82830002B00F08B8097F82830042B00F28680FB79013B092B4AD801A252F823F0CD2C0000352D0000352D0000CD2C0000352D0000352D0000E72C00003A
:402CC000012D0000352D00001B2D0000BB790F2B04D9374B1B78DBB2FB752EE0354B1B78DBB2FB7529E0BB790F2B04D9324B1B78DBB2FB7521E0314B1B78DBB2FB751CE017
:402D0000BB790F2B04D92E4B1B78DBB2FB7514E02C4B1B78DBB2FB750FE0BB790F2B04D9294B1B78DBB2FB7507E0284B1B78DBB2FB7502E00023FB7500BFBA8897F91730CF
:402D40005B0113443B617B883A6902FB03F3FB60FB68DB0BBB82BB790D2B12D8BA8ABB79C3F10E0342FA03F3BB8297F82830013BBA790132D1B2164A9B0013440A469A70D0
:402D800007E097F82830013B114A9B0013440F229A7097F82830013B0D49BA8A21F8232002E00020FEF7D0FE00BF1C37BD4690BD180100491C010049190100491D010049AF
:402DC0001A0100491E0100491B0100491F0100499085FF1F80B584B000AF0346FB7100F053FA0346FB73174A164B1B78DBB243F00303DBB21370144A134B1B78DBB243F00B
:402E00000303DBB21370114AFB7913700320FEF7C9FE0C4A0B4B1B78DBB223F00303DBB21370094A084B1B78DBB223F00303DBB21370FB7B184600F02BFA00BF1037BD4675
:402E400080BD00BFF8460040F94600409258004080B400AF00BFBD4680BC704780B400AF00BFBD4680BC704780B400AF00BFBD4680BC704780B400AF00BFBD4680BC7047CF
:402E800080B582B000AF0023FB7106E0FB791846FDF75CFEFB790133FB71FB79012BF5D9034BFF221A7000BF0837BD4680BD00BFE684FF1F80B582B000AF0346FB71FFF7A6
:402EC000DFFFFB791846FDF721FE034AFB79137000BF0837BD4680BDE684FF1F80B584B000AF03460A46FB8013467B7100F0CEF80346FB7300F0A4F80346BB81FA88BB8950
:402F00009A4200F08880464B1B78DBB203F00103FB72FB7B002B20D1BB89002B02D0FB88002B1AD1BB89002B0BD13E4AFB8813803D4A3D4B1B78DBB223F04003DBB21370BE
:402F400069E0394A384B1B78DBB243F04003DBB21370344AFB8813805DE0FB7A002B33D0324B00221A70324B01221A70314B00221A70314A304B1B78DBB203F07F03DBB255
:402F80001370294B1B78DBB203F00803002B02D0FB88002B18D1294ABB891380234B07221A7000BF214B1B78DBB203F00103002BF8D11B4A1A4B1B78DBB223F00103DBB239
:402FC00013701A4B00221A70154B1B78DBB203F00103002B13D0194AFB881380134A7B79002B01D0032300E00123137000BF0F4B1B78DBB203F00103002BF8D10BE0094AE3
:40300000FB8813800649064B1B78DAB2FB7A1343DBB20B70FFE700BF1037BD4680BD00BFA24300408040004082400040014000401040004014400040084000400240004027
:4030400080B400AF034B1B889BB21846BD4680BC704700BF8040004080B483B000AF0346FB710949084B1B78DBB25AB297F9073023F007035BB213435BB2DBB20B7000BF65
:403080000C37BD4680BC70478240004080B400AF044B1B78DBB203F00703DBB21846BD4680BC70478240004080B584B000AF03460A46FB8013467B7100F0CEF80346FB73C5
:4030C00000F0A4F80346BB81FA88BB899A4200F08880464B1B78DBB203F00103FB72FB7B002B20D1BB89002B02D0FB88002B1AD1BB89002B0BD13E4AFB8813803D4A3D4BAC
:403100001B78DBB223F04003DBB2137069E0394A384B1B78DBB243F04003DBB21370344AFB8813805DE0FB7A002B33D0324B00221A70324B01221A70314B00221A70314AAA
:40314000304B1B78DBB203F07F03DBB21370294B1B78DBB203F00803002B02D0FB88002B18D1294ABB891380234B07221A7000BF214B1B78DBB203F00103002BF8D11B4A03
:403180001A4B1B78DBB223F00103DBB213701A4B00221A70154B1B78DBB203F00103002B13D0194AFB881380134A7B79002B01D0032300E00123137000BF0F4B1B78DBB221
:4031C00003F00103002BF8D10BE0094AFB8813800649064B1B78DAB2FB7A1343DBB20B70FFE700BF1037BD4680BD00BFA143004000410040024100400140004014400040D6
:4032000010400040084000400240004080B400AF034B1B889BB21846BD4680BC704700BF0041004080B483B000AF0346FB710949084B1B78DBB25AB297F9073023F00703BF
:403240005BB213435BB2DBB20B7000BF0C37BD4680BC70470241004080B400AF044B1B78DBB203F00703DBB21846BD4680BC704702410040000000000230800803D000BF5C
:4032800001380046FCD17047EFF3108072B6704780F31088704700BF81F0004102E000BF83F0004330B54FEA41044FEA430594EA050F08BF90EA020F1FBF54EA000C55EA01
:4032C000020C7FEA645C7FEA655C00F0E2804FEA5454D4EB5555B8BF6D420CDD2C4480EA020281EA030382EA000083EA010180EA020281EA0303362D88BF30BD11F0004FD2
:403300004FEA01314FF4801C4CEA113102D0404261EB410113F0004F4FEA03334CEA133302D0524263EB430394EA050F00F0A780A4F10104D5F1200E0DDB02FA0EFC22FA71
:4033400005F2801841F1000103FA0EF2801843FA05F359410EE0A5F120050EF1200E012A03FA0EFC28BF4CF0020C43FA05F3C01851EBE37101F0004507D54FF0000EDCF125
:40338000000C7EEB00006EEB0101B1F5801F1BD3B1F5001F0CD349085FEA30004FEA3C0C04F101044FEA445212F5800F80F09A80BCF1004F08BF5FEA500C50F1000041EB5D
:4033C000045141EA050130BD5FEA4C0C404141EB010111F4801FA4F10104E9D191F0000F04BF01460020B1FA81F308BF2033A3F10B03B3F120020CDA0C3208DD02F1140C9B
:40340000C2F10C0201FA0CF021FA02F10CE002F11402D8BFC2F1200C01FA02F120FA0CFCDCBF41EA0C019040E41AA2BF01EB0451294330BD6FEA04041F3C1CDA0C340EDCD3
:4034400004F11404C4F1200220FA04F001FA02F340EA030021FA04F345EA030130BDC4F10C04C4F1200220FA02F001FA04F340EA0300294630BD21FA04F0294630BD94F0F9
:40348000000F83F4801306BF81F480110134013D4EE77FEA645C18BF7FEA655C29D094EA050F08BF90EA020F05D054EA000C04BF1946104630BD91EA030F1EBF002100204A
:4034C00030BD5FEA545C05D14000494128BF41F0004130BD14F580043CBF01F5801130BD01F0004545F0FE4141F470014FF0000030BD7FEA645C1ABF194610467FEA655CA7
:403500001CBF0B46024650EA013406BF52EA033591EA030F41F4002130BD00BF90F0000F04BF0021704730B54FF4806404F132044FF000054FF0000150E700BF90F0000F76
:4035400004BF0021704730B54FF4806404F1320410F0004548BF40424FF000013EE700BF42004FEAE2014FEA31014FEA02701FBF12F07F4393F07F4F81F06051704792F0C5
:40358000000F14BF93F07F4F704730B54FF4607401F0004521F0004120E700BF50EA010208BF704730B54FF000050AE050EA010208BF704730B511F0004502D5404261EB7E
:4035C00041014FF4806404F132045FEA915C3FF4DCAE4FF003025FEADC0C18BF03325FEADC0C18BF033202EBDC02C2F1200300FA03FC20FA02F001FA03FE40EA0E0021FA91
:4036000002F11444C1E600BF70B54FF0FF0C4CF4E06C1CEA11541DBF1CEA135594EA0C0F95EA0C0F00F0DEF82C4481EA030621EA4C5123EA4C5350EA013518BF52EA03353D
:4036400041F4801143F4801338D0A0FB02CE4FF00005E1FB02E506F00042E0FB03E54FF00006E1FB03569CF0000F18BF4EF0010EA4F1FF04B6F5007F64F5407404D25FEA1E
:403680004E0E6D4146EB060642EAC62141EA55514FEAC52040EA5E504FEACE2EB4F1FD0C88BFBCF5E06F1ED8BEF1004F08BF5FEA500E50F1000041EB045170BD06F0004632
:4036C00046EA010140EA020081EA0301B4EB5C04C2BFD4EB0C0541EA045170BD41F480114FF0000E013C00F3AB8014F1360FDEBF002001F0004170BDC4F10004203C35DA08
:403700000C341BDC04F11404C4F1200500FA05F320FA04F001FA05F240EA020001F0004221F0004110EBD37021FA04F642EB06015EEA430E08BF20EAD37070BDC4F10C04A2
:40374000C4F1200500FA04F320FA05F001FA04F240EA020001F0004110EBD37041F100015EEA430E08BF20EAD37070BDC4F1200500FA05F24EEA020E20FA04F301FA05F2BF
:4037800043EA020321FA04F001F0004121FA04F220EA020000EBD3705EEA430E08BF20EAD37070BD94F0000F0FD101F00046400041EB010111F4801F08BF013CF7D041EABF
:4037C000060195F0000F18BF704703F00046520043EB030313F4801F08BF013DF7D043EA0603704794EA0C0F0CEA135518BF95EA0C0F0CD050EA410618BF52EA4306D1D1BF
:4038000081EA030101F000414FF0000070BD50EA410606BF1046194652EA430619D094EA0C0F02D150EA013613D195EA0C0F05D152EA03361CBF104619460AD181EA030192
:4038400001F0004141F0FE4141F470014FF0000070BD41F0FE4141F4780170BD70B54FF0FF0C4CF4E06C1CEA11541DBF1CEA135594EA0C0F95EA0C0F00F0A7F8A4EB05043F
:4038800081EA030E52EA03354FEA013100F088804FEA03334FF0805545EA131343EA12634FEA022245EA111545EA10654FEA00260EF000419D4208BF964244F1FD0404F59A
:4038C000407402D25B084FEA3202B61A65EB03055B084FEA32024FF480104FF4002CB6EB020E75EB030E22BFB61A754640EA0C005B084FEA3202B6EB020E75EB030E22BF9F
:40390000B61A754640EA5C005B084FEA3202B6EB020E75EB030E22BFB61A754640EA9C005B084FEA3202B6EB020E75EB030E22BFB61A754640EADC0055EA060E18D04FEA7A
:40394000051545EA16754FEA06164FEAC30343EA52734FEAC2025FEA1C1CC0D111F4801F0BD141EA00014FF000004FF0004CB6E711F4801F04BF01430020B4F1FD0C88BF4B
:40398000BCF5E06F3FF6AFAEB5EB030C04BFB6EB020C5FEA500C50F1000041EB045170BD0EF0004E4EEA113114EB5C04C2BFD4EB0C0541EA045170BD41F480114FF0000E8A
:4039C000013C90E645EA060E8DE60CEA135594EA0C0F08BF95EA0C0F3FF43BAF94EA0C0F0AD150EA01347FF434AF95EA0C0F7FF425AF104619462CE795EA0C0F06D152EA5A
:403A000003353FF4FDAE1046194622E750EA410618BF52EA43067FF4C5AE50EA41047FF40DAF52EA43057FF4EBAE12E74FEA410212F5001215D211D56FF47873B3EB6252B6
:403A400012D94FEAC12343F0004343EA505311F0004F23FA02F018BF404270474FF00000704750EA013005D111F0004008BF6FF0004070474FF00000704700BF4A0011D212
:403A800012F5001211D20DD56FF47873B3EB62520ED44FEAC12343F0004343EA505323FA02F070474FF00000704750EA013002D14FF0FF3070474FF000007047014B186862
:403AC000704700BF4885FF1F0E4B70B51E460E4C0025E41AA410A54204D056F8253098470135F8E701F048F8084B094C1E46E41AA4100025A54204D056F825309847013579
:403B0000F8E770BD844B0000844B0000844B00008C4B000010B5431E0A44914204D011F8014B03F8014FF8E710BD03460244934202D003F8011BFAE7704700000EB400B572
:403B40004FF402719CB0ADF814106FF00041049107914FF6FF711DAB02900690084853F8042BADF81610006802A9019300F064F8029B00221A701CB05DF804EB03B07047BD
:403B80004885FF1F2DE9F0478E6882469E420C46914698463ED88A8912F4906F3AD02568096902236F1A656905EB450595FBF3F57B1C43449D4238BF1D4653050FD52946C1
:403BC00000F040FB064698B13A462169FFF7A2FFA38923F4906343F08003A38113E02A4600F08EFB064670B92169504600F0DEFA0C23CAF80030A3894FF0FF3043F04003EA
:403C0000A381BDE8F08726613E44266046466561ED1BA560464528BF464649463246206800F0A8FAA36800209B1BA36023681E442660BDE8F08700002DE9F04F9DB003938C
:403C40008B8980461C060D4616460DD50B695BB9402100F0F7FA2860286118B90C23C8F80030CDE040236B610023099320238DF82930DFF89CB130238DF82A3037463C46DB
:403C800014F8013B1BB9B7EB060910D003E0252BF9D02746F3E74B46324629464046FFF771FF013000F0A780099B4B4409933B78002B00F0A08000234FF0FF3204930793E7
:403CC000059206938DF853301A930126052221784E4800F041FA671C049B38B14B4A3C46801A06FA00F018430490EFE7D90644BF20228DF853201A0744BF2B228DF8532041
:403D000022782A2A03D0079A00210A200BE0039A111D12680391002A10DA524243F00200079204900BE027463B780134303B092B03D800FB02320121F5E701B107923B7823
:403D40002E2B1ED17B782A2B0AD1039B02371A1D1B680392002BB8BF4FF0FF33059310E0002319460593781C0A2407463A780130303A092A03D804FB01210123F5E703B1BE
:403D8000059103223978224800F0E6F940B14023CBEB000003FA00F0049B013718430490397806221B487E1C8DF8281000F0D4F988B1194B33B9039B073323F00703083398
:403DC000039314E003AB00932A46144B04A94046AFF3008007E003AB00932A460F4B04A9404600F093F8B0F1FF3F824603D0099B5344099342E7AB895B0601D4099801E0CE
:403E00004FF0FF301DB0BDE8F08F00BF424B0000484B00004C4B000000000000853B00002DE9F04791461F460A698B6806469342B8BF1346C9F8003091F843200C46DDF809
:403E4000208012B10133C9F800302368990642BFD9F800300233C9F80030256815F0060510D104F1190A07E00123524639463046C04701301AD00135E368D9F800209B1AF1
:403E80009D42F1DB94F843302268003318BF012392060FD5E118302081F843005A1C94F845102244023382F8431003E04FF0FF30BDE8F08704F1430239463046C04701308C
:403EC000F4D02268D9F80050E36802F00602042A08BF5D1B2269A3680CBF25EAE57500259342C4BF9B1AED184FF000091A344D4509D00123224639463046C0470130D5D041
:403F000009F10109F3E70020BDE8F0872DE9F04317460A7E85B06E2A984606460C460C9B01F1430E00F0AE8011D8632A22D009D8002A00F0BB80582A40F0CA8081F8452070
:403F4000834955E0642A1ED0692A1CD0C0E0732A00F0B08009D86F2A2ED0702A40F0B8800A6842F020020A603EE0752A24D0782A3AD0ADE01A6801F14205111D1960136877
:403F800084F84230A8E021681A6811F0800F02D0111D196008E011F0400F02F10401196002D0B2F9003000E01368002B3CDA2D225B4284F8432037E021681A6811F0800F08
:403FC00002D0111D196007E011F0400F02F10401196001D0138800E01368227E5C496F2A14BF0A2208221BE078225A4984F845202268186812F0800F00F104051D6003D1D3
:40400000550601D5038800E00368D00744BF42F0200222601BB9226822F0200222601022002084F8430001E049490A226568002DA56008DB206820F0040020602BB9002DF6
:404040007DD175460CE0002B79D07546B3FBF2F002FB1033CB5C05F8013D03460028F5D1082A0BD12368DA0708D5236962689A42DEBF302305F8013C05F1FF35C5EB0E0315
:4040800023612EE008681A6810F0800F496903D0101D1860136808E010F0400F02F104001860136801D0198000E0196000232361754616E01A68111D19601568002162687B
:4040C000284600F049F808B1401B6060636804E004F1420584F8422001232361002384F84330CDF800803B4603AA21463046FFF797FE013002D14FF0FF3026E023692A467B
:4041000039463046C0470130F5D023689B0710D5002504F1190907E001234A4639463046C0470130E7D00135E368039A9B1A9D42F2DBE068039B9842B8BF184605E00B7844
:4041400004F1420584F842308AE705B0BDE8F083534B0000644B000010B5C9B202449042034605D01C7801308C42F8D1184610BD002010BD884210B501EB020301D8421EE7
:404180000BE09842FBD28118D21AD34204D013F8014D01F8014DF8E710BD994204D011F8014B02F8014FF8E710BD000038B50546002944D051F8043C0C1F002BB8BFE418F2
:4041C00000F0D4F81E4A1368114613B96360146030E0A3420DD92268A018834201BF18685B681218226063600C6023E0A24203D813465A68002AF9D118681918A1420BD1C5
:404200002168014458188242196013D110685268014419605A600DE002D90C232B6009E021686018824201BF106852680918216062605C602846BDE8384000F098B838BD73
:40424000A485FF1F70B5CD1C25F0030508350C2D38BF0C25002D064601DBA94202D90C23336046E000F082F8234B1C681A462146A1B10B685B1B0ED40B2B03D90B60CC188A
:40428000CD501EE08C420BBF63684B681360636018BF0C4615E00C464968E9E7174C23681BB9304600F052F820602946304600F04DF8431C18D0C41C24F00304A0420DD198
:4042C0002560304600F053F804F10B00231D20F00700C31A0ED05A42E25070BD211A304600F034F80130EBD10C233360304600F03EF8002070BD00BFA485FF1FA085FF1FCD
:40430000F8B5074615460E4621B91146BDE8F840FFF798BF1AB9FFF749FF2846F8BD00F027F885420ED929463846FFF78BFF044650B131462A46FFF7EDFB31463846FFF720
:4043400035FF01E03046F8BD2046F8BD38B5064C0023054608462360FCF752FD431C02D1236803B12B6038BD2C86FF1F7047704751F8040C0028BEBF091851F8043CC01873
:40438000043870470000000043302043233044302044233045302046302046233047302047233041302041233042302043312043233144312044233145312046312046231C
:4043C0003147312047233141312041233142312043322043233244322044233245322046322046233247322047233241322041233242322043332043233344332044233327
:4044000045332046332046233347332047233341332041233342332043342043233444342044233445342046342046233447342047233441342041233442342043352043AD
:404440002335443520442335453520463520462335473520472335413520412335423520433620432336443620442336453620463620462336473620472336413620412361
:4044800036423620433720432337443720442337453720463720462337473720472337413720412337423720433820432338443820442338453820463820462338473820EB
:4044C000472338413820412338423820100011001200130015001600170019001A001C001D001F00210023002500270029002C002E003100340037003A003E00410045008B
:4045000049004E00520057005C00620068006E0075007B0083008B0093009C00A500AF00B900C400D000DC00E900F70006011501260137014A015D01720188019F01B801A3
:40454000D201EE010B022A024B026E029302BA02E40210033F037003A403DC03170455049704DD0427057505C80520067D06E0064907B8072D08A9082D09B9094D0AEA0AD4
:40458000900B400CFA0CC00D920E6F0F5A1053115B1272139A14D4151F178018F519801B231DDE1E000000009A9999999959304052B81E85EB5131409A999999995932402F
:4045C00033333333337333409A9999999999344014AE47E17AD435401F85EB51B81E37400000000000803840F6285C8FC2F539400000000000803B40A4703D0AD7233D40F3
:404600001F85EB51B8DE3E409A9999999959404033333333335341407B14AE47E15A424052B81E85EB7143409A999999999944403333333333D345400000000000204740F6
:40464000000000000080484014AE47E17AF449400000000000804B40C3F5285C8F224D401F85EB51B8DE4E400AD7A3703D5A504033333333335351407B14AE47E15A524079
:4046800052B81E85EB7153400AD7A3703D9A5440A4703D0AD7D355400000000000205740000000000080584085EB51B81EF559400000000000805B40C3F5285C8F225D40CC
:4046C000AE47E17A14DE5E4052B81E85EB5960407B14AE47E1526140C3F5285C8F5A624052B81E85EB71634052B81E85EB996440EC51B81E85D365400000000000206740D2
:404700000000000000806840CDCCCCCCCCF469400000000000806B40C3F5285C8F226D40AE47E17A14DE6E40AE47E17A145A70407B14AE47E1527140C3F5285C8F5A724055
:40474000AE47E17A14727340AE47E17A149A744048E17A14AED37540A4703D0AD71F77400000000000807840CDCCCCCCCCF479400000000000807B40C3F5285C8F227D4042
:40478000AE47E17A14DE7E4000000000005A8040295C8FC2F5528140713D0AD7A35A8240000000000072834000000000009A844048E17A14AED3854052B81E85EB1F8740A5
:4047C00052B81E85EB7F88407B14AE47E1F489400000000000808B40713D0AD7A3228D405C8FC2F528DE8E4000000000005A904052B81E85EB529140713D0AD7A35A924093
:40480000D7A3703D0A729340D7A3703D0A9A9440713D0AD7A3D3954052B81E85EB1F974052B81E85EB7F98407B14AE47E1F499400000000000809B40713D0AD7A3229D404E
:4048400085EB51B81EDE9E4000000000005AA04052B81E85EB52A140713D0AD7A35AA240D7A3703D0A72A340D7A3703D0A9AA4405C8FC2F5A8D3A54052B81E85EB1FA7409D
:4048800052B81E85EB7FA8407B14AE47E1F4A940000000000080AB4085EB51B89E22AD40713D0AD723DEAE40F6285C8F025AB04052B81E85EB52B1407B14AE47A15AB24007
:4048C000E17A14AE0772B340D7A3703D0A9AB44066666666A6D3B5405C8FC2F5E81FB74048E17A14EE7FB8407B14AE47E1F4B940000000000080BB4085EB51B89E22BD40AB
:404900007B14AE4721DEBE404D4F44452030200A0D0000004D4F44452031200A0D0000004D4F44452032200A0D0000004D4F44452033200A0D000000256325632563203A4E
:40494000202569487A204449563A2025690A0D00504C41592052414E4745200A0D00000073696E657761766500000000737175617265776176650000747269616E676C65CF
:40498000776176650000000048656C6C6F200A0D000000000D0A00000D0A616E616C6F67627574746F6E207072657373656400000D0A627574746F6E203120707265737376
:4049C000656400000D0A627574746F6E20312072656C6561736564000D0A627574746F6E2032207072657373656400000D0A627574746F6E20322072656C65617365640000
:404A00000D0A627574746F6E2033207072657373656400000D0A627574746F6E20332072656C656173656400035B004024430040400000001D510040005B00401D51004073
:404A4000005B004040048008004F00400C00405100403000F0510040100000000140001000140140000800400140000A004C0140000200500140200080878F979FA6AEB554
:404A8000BCC2C9CFD5DBE0E5E9EDF1F4F6F9FAFCFCFCFCFCFAF9F6F4F1EDE9E5E0DBD5CFC9C2BCB5AEA69F978F87807870686059514A433D36302A241F1A16120E0B090676
:404AC0000503030303030506090B0E12161A1F242A30363D434A51596068707880878F979FA6AEB5BCC2C9CFD5DBE0E5E9EDF1F4F6F9FAFCFCFCFCFCFAF9F6F4F1EDE9E5C3
:404B0000E0DBD5CFC9C2BCB5AEA69F978F87807870686059514A433D36302A241F1A16120E0B09060503030303030506090B0E12161A1F242A30363D434A5159606870781F
:404B40004300232D302B2000686C4C006566674546470030313233343536373839414243444546003031323334353637383961626364656600000000F8B500BFF8BC08BC1B
:404B80009E4670474D000000ED0E0000F8B500BFF8BC08BC9E46704729000000B04B0000C880FF1F88040000E00000000000000000000000FC00FC007E7F80818283848599
:404BC000868788898A8B8C8D8E8F909192939495969798999A9B9C9D9E9FA0A1A2A3A4A5A6A7A8A9AAABACADAEAFB0B1B2B3B4B5B6B7B8B9BABBBCBDBEBFC0C1C2C3C4C555
:404C0000C6C7C8C9CACBCCCDCECFD0D1D2D3D4D5D6D7D8D9DADBDCDDDEDFE0E1E2E3E4E5E6E7E8E9EAEBECEDEEEFF0F1F2F3F4F5F6F7F8F9FAFBFC02030405060708090AE7
:404C40000B0C0D0E0F101112131415161718191A1B1C1D1E1F202122232425262728292A2B2C2D2E2F303132333435363738393A3B3C3D3E3F404142434445464748494A94
:404C80004B4C4D4E4F505152535455565758595A5B5C5D5E5F606162636465666768696A6B6C6D6E6F707172737475767778797A7B7C7D0000000000000000000000000008
:404CC00000000000000000000000000000000000000000000000000000000000000000000000000000000000000000000000000000000000000000000000000000000000B4
:404D00000000000000000000000000000000000000000000000000000000000000000000000000000000000000000000000000000000000000000000000000000000000073
:404D40000000000000000000000000000000000000000000000000000000000000000000000000000000000000000000000000000000000000000000000000000000000033
:404D80000000000000000000000000000000000000000000000000000000000000000000000000000000000000000000000000007F808283858688898B8D8E90919394964F
:404DC00097999A9C9D9FA0A2A3A5A6A8A9ABACAEAFB1B2B4B5B6B8B9BABCBDBFC0C1C3C4C5C6C8C9CACBCDCECFD0D1D3D4D5D6D7D8D9DADBDDDEDFE0E1E1E2E3E4E5E6E70D
:404E0000E8E9E9EAEBECEDEDEEEFEFF0F1F1F2F3F3F4F4F5F5F6F6F7F7F7F8F8F9F9F9F9FAFAFAFAFBFBFBFBFBFBFBFBFBFBFBFBFBFBFBFBFBFBFBFBFAFAFAFAF9F9F9F9E0
:404E4000F8F8F7F7F7F6F6F5F5F4F4F3F3F2F1F1F0EFEFEEEDEDECEBEAE9E9E8E7E6E5E4E3E2E1E1E0DFDEDDDBDAD9D8D7D6D5D4D3D1D0CFCECDCBCAC9C8C6C5C4C3C1C0EA
:404E8000BFBDBCBAB9B8B6B5B4B2B1AFAEACABA9A8A6A5A3A2A09F9D9C9A999796949391908E8D8B898886858382807F7D7B7A7877757472706F6D6C6A69676664636160F6
:404EC0005E5D5B5A5857555452514F4E4C4B49484745444341403E3D3C3A39383735343332302F2E2D2C2A2928272625242322201F1E1D1C1C1B1A191817161514141312A4
:404F00001110100F0E0E0D0C0C0B0A0A0909080807070606060505040404040303030302020202020202020202020202020202020202020303030304040404050506060609
:404F40000707080809090A0A0B0C0C0D0E0E0F1010111213141415161718191A1B1C1C1D1E1F2022232425262728292A2C2D2E2F30323334353738393A3C3D3E404143440F
:404F8000454748494B4C4E4F5152545557585A5B5D5E606163646667696A6C6D6F7072747577787A7B7D1400030078003086FF1FFFFF0000807F00000300000000366E0191
:404FC000C05D0000180000000000E02EFF01FF000000000000000000000000000000000000000000000000000000000000000000404B0000000000000000000000000000E4
:40500000000000000000000000000000000000000000000000000000000000000000000000000000000000000000000000000000E884FF1F000000000000000000000000E6
:405040000000000000000000000000000000000000000000000000000000000000000000000000000000000000000000000000000000000000000000000000000000000030
:4050800000000000000000000000000000000000000000000000000000000000000000000000000000000000000000000000000000000000000000000000000000000000F0
:4050C00000000000000000000000000000000000000000000000000000000000000000000000000000000000000000000000000000000000000000000000000000000000B0
:40510000000000000000000000000000000000000000000000000000000000000000000000000000000000000000000000000000000000000000000000000000000000006F
:020000040003F7
:0200000480007A
:40000000024F004002520040015A0040016400400265004001010140020301400305014004070140460801403B090140420A0140310B0140040D0140040E0140040F01407F
:400040004118014045190140611A0140461B01400A4001400D410140134201400D4301400444014004450140054601400447014005480140034C01400B4D01400450014031
:400080000451014001400A4B618064409F01893889728B0FE202E201EE08E208E602EE01E208E401E804EA080308070C0A010B030C01110113061402150C17031910240160
:4000C0002501270E29102D1031103403350F38203B20580459045C115F0182018302840685188601870588188C088E108F04901092089302940695189802991C9B019C04F2
:400100009D10A006A105A201A318A407A508A818A91DAC01AE06B018B101B31CB407B502B902BA20BF10D418D804D904DB04DC11DD10DF0100200160036007050860090863
:400140000A800E20111012911410170818881A801B201E041F10200421022310244026012744282829012A192C102D102E4030C0311A3520370538483B023E043F225A025E
:4001800060046240852097209B089F05A218A311A404A604AF02C0CFC22FC42FCA77CCEFCEEBD601D80CE401E80406020B040E09110814011B081F0124022A042B0230021F
:4001C0003104320833013404350236013708580459045C335F018302841088088B019201930595069604970198019A029B03A00CA40CA706AA10B002B210B401B507B60C65
:40020000B880BB20BE40C001C540C9FFCA07CBFFCC40CD20CEF0CF05D008D804D904DA04DC13DD01DF01E040E1A8E240E32000040202040407040A200EA80F2010041304BA
:4002400015201709180419201A211B021D801E942110224A23042620270829202F103292362037053A203F2245804F02571084048601969498049A20A280AA40AE20B004C1
:40028000C065C274C476CA44CCEDCEA4D010EA0882909604AF20E604B820BE10D804DF011D101F2086048D100414081C0A020C100E0C1420160317051C101D01240C2611AC
:4002C00028092A102F02321F33023501362037043E40580459045C315F018263841F8620870488118A808B048C029073920C947F9501981C99029A439E109F01A008A10269
:40030000A404A502A80CA902AC03B00FB104B302B47CB501B680BA22BF05D602D712D804D904DB04DC31DD10DF01004003680610070508080A850E100F02108012011324D3
:400340001604170819111A851B021E101F4020082204234025202684280829212B202D8031103288368838083A403B505A0866046720681069106A40708071087208732459
:400380008740908093309550964297029B4C9C089D119E489F01A219A321A494A528A604B510B680C0EFC2AFC46FCA17CC5ECE06D602E008000201040205030108070C0442
:4003C0000D080E020F01110C1B0C1F0C210C2302270C2807290C2C012E023007310C37033A203F40404541024206440145E0470C481249FF4AFF4BFF4C624DA04EF04F4121
:40040000500C580459045A045C115D015F016640670269106A306B106D106E106F12850387048A01950A960197049B059C029D039F0CA001A401A708A903AA01AB04B00161
:40044000B402B70FBB80BE11C042C103C5E0C6B0C70CC81AC9FFCAFFCBFFCEF0CF44D00CD401D804D904DA04DB04DC10DD11DF01E6C0EA40EB020060010207040C840E206A
:40048000115016241729180419231E84200122012680270129212A012B202E202F10315033023690370438C23E08400543024404470949404A014B124C804D015004561CDE
:4004C0005D015E845F2087088C018D40908091109330944895409602970299109B0C9D209E119F01A010A211A322A708B180C04BC2A0C473CA67CC7DCE49D0EDD20CD6F004
:40050000E60232023380360837203B203C108720CCF0CE30E240300231203480820294109720A301A60AA780AF01CC70E280EE101B043F0863028402871094109720A30169
:40054000A402A520A608A780A880C610CE80D640E210E640EE801140801085209414A520A780A804AE08C440E210E480E820EA107C208C20DE01E00208200C828020C20753
:400580004708AC80B002D001EE0132408240AB08CC0824149414A940AB80C8A00C048710C20412801302731087028E809310B004C408DC01E202EE01000A0C0A100A1C0AD6
:4005C00000FE01FF040C100203000C0F0000000000000000800040808000800000000000200000EBCB000000C0000000E0E00000000000000000000000004000BB00180113
:4006000000000000000000000000000000000000000000000000000000000000000000000000000000000000000000000000000000000000000000000000000000000000BA
:40064000000000000000000000000000000000000000000000000000000000000000000000000000000000000000000000000000000000000000000000000000000000007A
:40068000000000000000000000000000000000000000000000000000000000000000000000000000000000000000000000000000000000000000000000000000000000003A
:4006C00000000000000000000000000000000000000000000000000000000000000000000000000000000000000000000000000000000000000000000000000000000000FA
:0200000490006A
:0400000000004005B7
:0200000490105A
:04000000BC90ACAF55
:0200000490303A
:02000000EA799B
:0200000490402A
:4000000000000000000000000000000000000000000000000000000000000000000000000000000000000000000000000000000000000000000000000000000000000000C0
:400040000000000000000000000000000000000000000000000000000000000000000000000000000000000000000000000000000000000000000000000000000000000080
:400080000000000000000000000000000000000000000000000000000000000000000000000000000000000000000000000000000000000000000000000000000000000040
:4000C0000000000000000000000000000000000000000000000000000000000000000000000000000000000000000000000000000000000000000000000000000000000000
:0200000490501A
:0C00000000012E16106900012E35FAE2F6
:00000001FF