:400000000080002011000000F1100000F110000080B500AF024A034B1B68136001F09CF8BC760040FA46004010B5054C237833B9044B13B10448AFF300800123237010BD80
:400040004887FF1F0000000014490000084B10B51BB108490848AFF300800848036803B910BD074B002BFBD0BDE81040184700BF000000004C87FF1F14490000C880FF1F3C
:400080000000000080B500AF01F06EFF03461A46384B1A6001F078FF03461A46364B1A60344B1B68002B15D1334B1B68002B11D1324B1B78DBB2002B0CD0304B00221A7060
:4000C000002001F071FF002001F08CFF2C4801F0F5FA4DE0274B1B68002B15D1264B1B68012B11D1254B1B78DBB2012B0CD0234B01221A70002001F057FF012001F072FFBD
:40010000204801F0DBFA33E01A4B1B68012B15D1194B1B68002B11D1184B1B78DBB2022B0CD0164B02221A70012001F03DFF002001F058FF144801F0C1FA19E00D4B1B6863
:40014000012B15D10C4B1B68012B11D10B4B1B78DBB2032B0CD0094B03221A70012001F023FF012001F03EFF084801F0A7FAFFE700BF80BDC487FF1F3888FF1FB486FF1F1C
:40018000004F00000C4F0000184F0000244F000090B587B004AF4A4B1B78DBB2002B00F08B80484B1B88B3F5FA5F02D9454B78221A80444B1B881A46434B93FBF2F31846EA
:4001C00003F084FC03460C46404AC2E900343F4B18CB1846214603F019FF03469AB23C4B1A8000237B6044E03A4A7B6832F81320374B1B889BB29A4238D17B68DAB2364B68
:400200001A70354B1B78DBB21946344A0B465B000B4413441B7818462F4B1B78DBB219462E4A0B465B000B44134401331B781C46294B1B78DBB21946284A0B465B000B4428
:40024000134402331B781A46214B1B889BB219461C4B1B88029301910092234602462049204803F033FF1F4801F028FA7B6801337B607B686B2BB7D9124B1B88013B9BB2DC
:400280000121184601F0D2F80E4B1B8801339AB20C4B1A800B4B1B885B004FF4FA5292FBF3F39BB214339AB20F4B1A800E4B1B889BB2184601F0D6FD00BF0C37BD4690BDAF
:4002C0006587FF1FB886FF1F90D00300B887FF1FB087FF1F5C4A0000D287FF1F18490000304F0000D487FF1FB286FF1F90B589B004AF0346FB710B46BB711346BB80BB798C
:400300006B2B01D96B23BB712F4B1B78DBB2002B57D02E4801F0D2F9FB79FB734BE02C4B1B78DBB2002B4BD1FB7B2A4A32F813301A46294B93FBF2F39AB2284B1A80274B21
:400340001B88013B9BB20121184601F06FF8FA7B234913465B0013440B441B781846FA7B1F4913465B0013440B4401331B781C46FA7B1B4913465B0013440B4402331B78F2
:400380001946FB7B134A32F813301A46134B1B88029301920091234602461249124803F095FE114801F08AF9BB88184601F05AFDFB7B0133FB73FA7BBB799A42AFD900E0DD
:4003C00000BF1437BD4690BD6487FF1F484F00006587FF1F5C4A000090D00300B886FF1F18490000304F0000D487FF1F98B500AF614B1B78DBB2002B1DD0604B1B889BB2C0
:400400005B009AB25D4B1A805C4B1B889BB2B3F5A57F02D9594B28221A80584B1B889BB21A465749574803F051FE564801F046F9514B00221A70544B1B78DBB2002B0DD0BC
:40044000524B1B889BB21A4651494E4803F03EFE4C4801F033F94C4B00221A704D4B1B78DBB2002B12D1002003F098F8022001F01BFD012003F092F8142001F015FD0020B3
:4004800003F08CF8434B01221A7061E0414B1B78DBB2022B5CD1404B1B889AB23F4B1B889BB2D31A9AB23E4B1A803D4B1B889BB21A463C49334803F009FE324801F0FEF8C0
:4004C000374B1B889BB2B3F5A07F19D2344B1B889BB20A2B14D9324B1B889BB2184603F0F5FA4FF00002304B03F080FC03460C461846214603F08AFD03469AB22B4B1A80F0
:400500002A4B1B889BB21A4629491E4803F0DEFD1C4801F0D3F8254B1B889BB2DBB21E33DAB2244B1A70234B1B78DBB21A46224B33F812301A46214B93FBF2F39BB2013BDD
:400540009BB20121184600F071FF124B00221A70094B1B78DBB21A4609490A4803F0B6FD084801F0ABF8054B1B889BB2184601F079FC00BF98BD00BF6487FF1FBC86FF1F03
:40058000584F0000D487FF1F6587FF1FBA86FF1F6C4F00007E87FF1FC887FF1FC087FF1FB287FF1F844F000000001640D087FF1F984F0000D287FF1F5C4A000090D00300A7
:4005C00080B582B000AF78607B68BE2B11DD294B1B68B32B0DDC284B1B78022B03D1264B01221A7005E0244B1B780133DAB2224B1A707B6813F1BE0F35DA1E4B1B6813F11F
:40060000B30F30DB1C4B1B78002B03D11A4B02221A7005E0184B1B78013BDAB2164B1A70154B1B78012B0CD0022B13D0002B1AD14FF4FB71114800F091FE114801F03EF82B
:4006400011E04FF4FB710F4800F088FE0E4801F035F808E04FF4FB710C4800F07FFE0C4801F02CF800BF034A7B68136000BF0837BD4680BD7487FF1F7887FF1FBC84FF1FA4
:40068000AC4F0000CC80FF1FB84F0000C482FF1FC84F00000000000090B583B000AF62B601F084FEB24801F0E5FDB24801F030FEB14801F095FEB14801F0E0FEB04801F08D
:4006C0002BFFB04801F076FFAF4801F0C1FFAF4802F03AF802F00AF8AD4B1B78DBB2184602F01EF802F0D4F902F0EAF900F06AFFA84800F0E3FF01F053FD01F0A1FDA648D0
:4007000001F08EFC02F066FF02F0AAFFA34803F02BF802F0D3FF03461A46A14B1A8000F0F7FDA04B1B78DBB2002B09D09E4B1B78DBB2002B04D0FFF7A5FC9B4B00221A7034
:400740009A4B1B78DBB2002B45D002F0C9F90346A3F22A337B607B68002B0EDD8C4B1B78DBB219467B68924A82FB0302D210DB17D31A904A42F8213015E0854B1B78DBB2CF
:400780001C46786803F0A2F977A3D3E9002303F02DFB02460B461046194603F00FFC0246844B43F82420834B5B681846FFF708FF774B1B78DBB283F00103DAB2744B1A7059
:4007C000734B1B78DBB2184601F0AAFF774B00221A7002F075F9784B1B78DBB2032B00F2BC8001A252F823F0F9070000230800005B0900003D080000704B1B78DAB26E4BAF
:400800001B78DBB29A4201D000F082FD6C4B1B78DBB278225A211846FFF768FDFFF7B8FC9CE0664B1B78DAB2634B1B78DBB29A4201D000F06DFDFFF7D9FD8FE0614B1B7892
:40084000DBB2002B20D000F063FD5F4800F036FF5C4B1B78DBB21A465C4B33F812301946544B1B685A4A82FB03021211DB17D31A0B44584A92FBF3F39BB2013B9BB2012174
:40088000184600F0D3FD69E0534B1B78DBB2002B2DD000F03DFD514800F010FF4E4B1B78DBB219464E4A0B465B000B4413441B78184600F0E9FE484B1B78DBB21A46434BBE
:4008C00033F8123019463B4B1B68414A82FB03021211DB17D31A0B443E4A92FBF3F39BB2013B9BB20121184600F0A0FD36E03D4B1B78DBB2002B2DD000F00AFD374800F09B
:40090000DDFE384B1B78DBB21946354A0B465B000B4413441B78184600F0B6FE314B1B78DBB21A46294B33F812301946214B1B68274A82FB03021211DB17D31A0B44254A96
:4009400092FBF3F39BB2013B9BB20121184600F06DFD03E000F0EEFC00E000BF164B1B78DAB2164B1A70DCE66666666666660A40150A0000310A00004D0A0000690A0000F9
:40098000850A0000A10A0000E9090000FD0900006887FF1FD84F0000F50A0000BD0A0000C887FF1FB586FF1F7A87FF1F6987FF1FE1830F3E6C87FF1FB486FF1FB686FF1FA4
:4009C000D287FF1F6487FF1FD487FF1F5C4A00001F85EB5190D003006587FF1FE44F0000184900006687FF1F80B500AF024800F065FE00BF80BD00BFE84F000080B400AF16
:400A0000034B01221A7000BFBD4680BC704700BF6987FF1F80B500AF034800F04FFE034B4B221A7000BF80BD005000006487FF1F80B500AF034800F041FE034B00221A70DB
:400A400000BF80BD145000006487FF1F80B500AF034800F033FE034B55221A7000BF80BD285000006587FF1F80B500AF034800F025FE034B00221A7000BF80BD3C5000002C
:400A80006587FF1F80B500AF034800F017FE034B50221A7000BF80BD505000006687FF1F80B500AF034800F009FE034B00221A7000BF80BD645000006687FF1F80B500AF48
:400AC0000A4B1B78DBB2012B0DD102F02FFE03461A46074B1A80054B02221A70002002F015FE02F04BFD00BF80BD00BF7E87FF1FC087FF1F80B500AF034B01221A7001F053
:400B000071FB00BF80BD00BF7A87FF1F80B582B000AF786039603A680021786803F0CDFA00BF0837BD4680BD80B584B000AFF860B9607A607A68B968F86803F0B3FA00BF28
:400B40001037BD4680BD00BF80B483B000AF0346FB71FEE780B487B000AF7860396000233B6100237B6127E07B699B007A6813441B68BB60BB68FB73BB6823F0FF03BB60F5
:400B800014E03B695B003A6813441B781A46BB68134419463B695B003A6813445B780B703B6901333B61FB7B013BFB73FB7B002BE7D17B6901337B617B69212BD4D900BFBA
:400BC0001C37BD4680BC704780B582B000AF4C4B00221A804B4B50221A704B4B19221A804A4B18221A704A4B5F221A80494B18221A70494BEF221A80484B18221A70484BBC
:400C000047F22F521A80474B19221A70464B47F22F521A80454B19221A70042244494548FFF782FF444B02221A704FF0402308221A70424B03221A70414B424A1278D2B223
:400C40001A70414B08221A80404B41F251221A800023FB7019237B6014E0FB785B00DAB23B4B1B78DBB203F00103DBB21343DBB203F00303FB704FF4F07002F0C5FD7B6831
:400C8000013B7B607B68002B02D0FB78032BE4D17B68002B02D10320FFF756FF2D4B4FF480721A802B4B07221A702B4B00221A702A4B48221A70274B00221A70284B0222E8
:400CC0001A70284B04221A70274A274B1B78DBB243F03F03DBB21370244A244B1B78DBB243F00103DBB21370214A214B1B78DBB263F07F03DBB2137000BF0837BD4680BD61
:400D000080400040824000408440004086400040884000408A4000408C4000408E40004090400040924000409440004096400040F805004800410040004300400042004064
:400D4000A146004008010049224200402042004025420040044000400640004008400040014000400B400040A2430040A1430040A043004080B483B000AF104B1B78FB7193
:400D80000F4AFB7903F00703DBB213700D4AFB791B09DBB213700C4B20221A700B4B4FF481721A800A4B0C221A700A4B44221A7000BF0C37BD4680BC704700BFCF010049EF
:400DC0006E5800406F580040985A0040425B0040585B00407658004080B483B000AF0346FB71FB79012B0ED8FB79094A52F82330FA79074951F822201178FA790548825CAC
:400E00000A43D2B21A7000BF0C37BD4680BC7047785000008050000080B483B000AF0346FB71FB79012B10D8FB790A4A52F82330FA79084951F822201178FA790648825C98
:400E4000D243D2B20A40D2B21A7000BF0C37BD4680BC7047785000008050000080B483B000AF0346FB71FB79012B24D8FA79FB791344FB71FB79124A52F82330FA791049A7
:400E800051F822201178FA790E48825C0A43D2B21A70FB790133FB71FB79094A52F82330FA79074951F822201178FA790548825C0A43D2B21A7000BF0C37BD4680BC7047DC
:400EC000845000009450000080B483B000AF0346FB71FB79012B28D8FA79FB791344FB71FB79144A52F82330FA79124951F822201178FA791048825CD243D2B20A40D2B2C4
:400F00001A70FB790133FB71FB790A4A52F82330FA79084951F822201178FA790648825CD243D2B20A40D2B21A7000BF0C37BD4680BC7047845000009450000080B586B02B
:400F400000AF72B6534A534B1B78DBB243F00403DBB213700023FB7513E0FA7D13465B0013445B004C4A13443B613B691A683B699B889BB219461046FFF7C8FDFB7D0133B3
:400F8000FB75FB7D092BE8D90023FB751CE0FA7D13469B0013445B00404A1344FB60FB681B68BB60FB685B687B60FB681A7A5B7A1B0213437B807B881A467968B868FFF7D6
:400FC000B3FDFB7D0133FB75FB7D022BDFD934494FF09040FFF7BEFD324B0A221A7004213148FFF793FD04213048FFF78FFD304A2F4B1B78DBB243F00203DBB213702D4A42
:401000002C4B1B78DBB243F00203DBB213702A4A294B1B78DBB243F04003DBB21370274A264B1B78DBB243F01003DBB213700A2223492448FFF778FD0A2223492348FFF783
:4010400073FD0A2222492348FFF76EFD082222492248FFF769FD224A214B1B78DBB243F00803DBB213701F4B61221A70FFF7ACFD1C4B81221A701C4B01221A70FFF77AFED0
:401080000E220D491948FFF74FFD00BF1837BD4680BD00BFE846004098500000D4500000880000488358004000760040087600400350014013500140A0430040C243004081
:4010C000CC050048C0510040D805004810510040E405004820510040F005004832510040224300400048004004000840B043004080B500AF02F0AAFF03461B680C2B00D1DF
:40110000FEE7FEE780B584B000AF7860104B1A687B6813441A460F4BD31AB3F5805F09DC0B4B1B68FB600A4B1A687B681344084A136007E002F08AFF02460C2313604FF036
:40114000FF33FB60FB6818461037BD4680BD00BFC086FF1F4888FF1F80B586B000AF224B7B61224B3B61204B7B6135E03B691B68FB603B695B68BB603B699B683B60002358
:401180007B600CE0FB681A68BB681A60BB680433BB60FB680433FB607B6804337B607A683B689A42EED13B69DB683B6000237B6008E0BB6800221A60BB680433BB607B68E8
:4011C00004337B607A683B689A42F2D13B6910333B617B69013B7B617B69002BC6D102F03BFFFFF759FAFEE7010000001852000080B582B000AF194B194A1A60194A194BB1
:401200001B6843F40073136000237B600FE07B68032B04D8144A7B6852F8233000E0134B13497A6841F822307B6801337B607B682F2BECD90F4B1B78DAB20F4B1A700F4BA4
:401240000B4A1A60FFF77AFE00F0E4FB0C4B00221A6000BF0837BD4680BD00BF0CED00E00004FA0514ED00E000000000F11000000080FF1FBC760040C480FF1F08ED00E06D
:40128000C080FF1F80B500AF00F09EFA022000F0EDFA002000F00AFB00F056FB00F03AFD03461A46084B1A7000F034FD03461A46064B1A706421064800F050F864210548E6
:4012C00000F080F800BF80BD8287FF1F8387FF1FF45000005851000080B500AF00F092FA00F03AFB084B1B780121184600F0C0FB064B1B780121184600F0BAFB002000F09F
:40130000F5FA00BF80BD00BF8087FF1F8187FF1F80B500AF064B1B78002B04D1FFF7B2FF034B01221A70FFF7D7FF00BF80BD00BF7F87FF1F80B500AF064B1B78184600F08D
:40134000DDFB054B1B78184600F0D8FB00F074FA00BF80BD8087FF1F8187FF1F80B582B000AF78600B467B807B681B0C9AB24FF480430121012000F0C3F903461A460F4B64
:401380001A700F4B18780E4B1A787988012300F0EFFC0B4B1B787A6891B245F68332184600F026FD054B1A78054B1B781946104600F042FC00BF0837BD4680BD8087FF1F54
:4013C0008287FF1F80B582B000AF78600B467B807B681B0C9AB24FF480430121012000F0C1F903461A460F4B1A700F4B18780E4B1A787988012300F0BBFC0B4B1B787A684A
:4014000091B245F68332184600F0F2FC054B1A78054B1B781946104600F00EFC00BF0837BD4680BD8187FF1F8387FF1F80B584B000AF03460A46FB8013467B7100F0B4F830
:401440000346FB7300F0A4F80346BB81FA88BB899A4200F08880464B1B78DBB203F00403FB72FB7B002B20D1BB89002B02D0FB88002B1AD1BB89002B0BD13E4AFB8813809D
:401480003D4A3D4B1B78DBB223F04003DBB2137069E0394A384B1B78DBB243F04003DBB21370344AFB8813805DE0FB7A002B33D0324B00221A70324B04221A70314B00223A
:4014C0001A70314A304B1B78DBB203F07F03DBB21370294B1B78DBB203F00803002B02D0FB88002B18D1294ABB891380234B07221A7000BF214B1B78DBB203F00103002BC9
:40150000F8D11B4A1A4B1B78DBB223F00403DBB213701A4B00221A70154B1B78DBB203F00403002B13D0194AFB881380134A7B79002B01D0032300E00123137000BF0F4BA9
:401540001B78DBB203F00103002BF8D10BE0094AFB8813800649064B1B78DAB2FB7A1343DBB20B70FFE700BF1037BD4680BD00BFA2430040884000408A40004001400040D7
:401580001040004014400040084000400240004080B400AF034B1B889BB21846BD4680BC704700BF8840004080B400AF044B1B78DBB203F00703DBB21846BD4680BC704791
:4015C0008A40004080B500AF064B1B78002B04D100F00AF8034B01221A7000F025F800BF80BD00BF8487FF1F80B400AF094B72221A70094B00221A70084B06221A70084B8E
:4016000047221A70074B00221A7000BFBD4680BC704700BF886500408B65004028640040386400408964004080B582B000AF02F0F3F80346FB71114A104B1B78DBB243F062
:401640002003DBB213700E4A0D4B1B78DBB243F01003DBB213700B4A0A4B1B78DBB243F01003DBB2137000F0BBF9FB79184602F0D7F800BF0837BD4680BD00BF9865004080
:401680009B6500409964004080B483B000AF0346FB7100BF074B1B78DBB203F00403002BF8D1054AFB79137000BF0C37BD4680BC704700BF696400404964004080B584B063
:4016C00000AF78600023FB810C4B1B78002B10D009E0FB897A6813441B781846FFF7D4FFFB890133FB81FB897A6813441B78002BEFD100BF1037BD4680BD00BF8487FF1FD2
:4017000090B585B002AF0446084611461A462346FB710346BB710B46BB8013467B80104B00221A700E4B1878BA79F9790023019300230093002300F09DFA094B1B787A8870
:40174000B988184600F03CFA054B1B780221184600F004FA024B1B7818460C37BD4690BDC486FF1F90B585B002AF0446084611461A462346FB710346BB710B46BB80134670
:401780007B80104B01221A700E4B1878BA79F9790023019300230093002300F06BFA094B1B787A88B988184600F00AFA054B1B780221184600F0D2F9024B1B7818460C3797
:4017C000BD4690BDC586FF1F80B500AF0A4B00221A700A4B00221A70094A094B1B78DBB243F00803DBB21370002000F05FF8022000F03CF800BF80BD2C5800402D58004003
:401800009F5A004080B400AF094A094B1B78DBB243F00803DBB21370064A064B1B78DBB243F00803DBB2137000BFBD4680BC7047A8430040B843004080B400AF094A094BC3
:401840001B78DBB223F00803DBB21370064A064B1B78DBB223F00803DBB2137000BFBD4680BC7047A8430040B843004080B483B000AF0346FB710C4A0B4B1B78DBB223F066
:401880000203DBB213700849074B1B78DAB2FB7903F00203DBB21343DBB20B7000BF0C37BD4680BC704700BF2C58004080B582B000AF0346FB710C4A0B4B1B78DBB223F0D5
:4018C0000C03DBB213700849074B1B78DAB2FB7903F00C03DBB21343DBB20B7000F016F800BF0837BD4680BD2C58004080B483B000AF0346FB71044AFB79137000BF0C3794
:40190000BD4680BC704700BF835B004080B483B000AF0B4B1B78DBB203F00C039B08DBB20633FB71074AFB7903F1924303F59C731B78DBB2137000BF0C37BD4680BC704741
:401940002C5800400B46004080B500AF022000F027F800BF80BD00BF80B400AF0D4A0D4B1B78DBB243F06003DBB213700A4A0A4B1B78DBB243F00203DBB21370074A074B36
:401980001B78DBB243F00203DBB2137000BFBD4680BC704777580040A4430040B443004080B483B000AF0346FB710C4A0B4B1B78DBB223F00303DBB213700849074B1B78A7
:4019C000DAB2FB7903F00303DBB21343DBB20B7000BF0C37BD4680BC704700BF5A58004080B400AF094A094B1B78DBB243F00203DBB21370064A064B1B78DBB243F002036F
:401A0000DBB2137000BFBD4680BC7047A2430040B243004080B483B000AF134B7F221A70124B80221A707F23FB710CE0FB79DB0003F1804303F5F043FA79013AD2B21A7078
:401A4000FB79013BFB71FB79002BEFD1FB79DB0003F1804303F5F04300221A7000BF0C37BD4680BC704700BFC986FF1FC886FF1F80B485B000AF03460A46FB711346BB71DC
:401A80000123FB60FB79172B2FD8BB79002B0ED0FB791A01184B1344FA791101164A0A441278D2B242F02002D2B21A700DE0FB791A01114B1344FA7911010F4A0A441278DC
:401AC000D2B222F02002D2B21A70FB791A010A4B1344FA791101084A0A441278D2B242F00102D2B21A700023FB60FB6818461437BD4680BC704700BF1070004080B485B007
:401B000000AF0346FB710123FB60FB79172B1DD8FB791A01104B1344FA7911010E4A0A441278D2B222F00102D2B21A70FB791A01094B1344FA791101074A0A441278D2B20E
:401B400022F02002D2B21A700023FB60FB6818461437BD4680BC70471070004080B485B000AF03460A46FB711346BB710123FB60FB79172B1BD8FB791A01104B13441B7845
:401B8000DBB223F00E03FB72FB791A010B4B1344BA795200D2B252B202F00E0251B297F90B200A4352B2D2B21A700023FB60FB6818461437BD4680BC704700BF10700040A0
:401BC00080B485B000AF0346FB710B46BB8013467B800123FB60BB8841F6FF72934202D14FF40053BB807B8841F6FF72934202D14FF400537B80FB79172B17D8FB79DB007D
:401C000003F1804303F5EC430433BB60BB68BA881A80FB79DB0003F1804303F5EC430633BB60BB687A881A800023FB60FB6818461437BD4680BC704780B485B000AF034654
:401C40000A46FB711346BB710123FB60FB79172B07D8FB791A01064B1344BA795A720023FB60FB6818461437BD4680BC704700BF1070004090B484B000AF044608461146C4
:401C80001A462346FB710346BB710B467B7113463B710123FB60FB79172B34D8FB79DB0003F1804303F5EC43BA7902F07F02D1B27A79D201D2B20A43D2B21A70FB79DB00AD
:401CC00003F1804303F5EC433A7E1201D1B23A7902F00F02D2B20A43D2B25A70FB79DB0003F1804303F5EC433A7F02F00F02D2B29A70FB79DB0003F1804303F5EC4300221D
:401D0000DA700023FB60FB6818461037BD4690BC704700BF80B582B000AFFF23FB7101F07BFD0346BB71104B1B78182B12D90F4B1B78FB710C4B1B78013BDAB20A4B1A7086
:401D4000FB79DB0003F1804303F5F0431B78DAB2064B1A70BB79184601F062FDFB7918460837BD4680BD00BFC886FF1FC986FF1F90B484B000AF0446084611461A4623468E
:401D8000FB710346BB800B46BB711346FB700123FB6097F90730002B23DBBB8823F47F6323F00F039BB2002B1BD1FB79DB0003F1804303F5F043BB60BB68BA881A80FB79FF
:401DC000DB0003F1804303F5F043BA799A70FB79DB0003F1804303F5F043FA78DA700023FB60FB6818461037BD4690BC704700BF80B485B000AF0346FB710B46BB801346FF
:401E00007B800123FB6097F90730002B17DBFB79DB0003F1804303F5F0430433BB60BB68BA881A80FB79DB0003F1804303F5F0430633BB60BB687A881A800023FB60FB689D
:401E400018461437BD4680BC704700BF80B483B000AF0346FB7101BE00BF0C37BD4680BC704700BF80B582B000AF786008E00C4B1B68184601F0C8FC7B68A3F500437B6067
:401E80007B68B3F5004FF2D8064B1B687A6802FB03F3184601F0B8FC00BF0837BD4680BDDC86FF1FD486FF1F80B582B000AF0346FB80FB88054A127802FB03F3184601F024
:401EC000A3FC00BF0837BD4680BD00BFD886FF1F80B584B000AF03463960FB710F4B1B68FB60FB791F2B02D90020FFF7AFFFFB7903F01F0310339B00FA6813441B68BB6011
:401F0000FB7903F01F0310339B00FA6813443A681A60BB6818461037BD4680BD08ED00E080B582B000AF03460A46FB711346BB71BB79072B02D90020FFF788FFFB791F2B4C
:401F400002D90020FFF782FFFB7903F01F0303F1604303F56443BA795201D2B21A7000BF0837BD4680BD00BF80B400AF054B1B78DBB203F00803DB08DBB21846BD4680BC41
:401F8000704700BFC151004080B400AF054B1B78DBB203F020035B09DBB21846BD4680BC704700BF2151004080B485B000AF0346FB710B4B1B78DBB223F00403FB7308491E
:401FC000FB799B00DBB203F00403DAB2FB7B1343DBB20B7000BF1437BD4680BC704700BFC051004080B485B000AF0346FB710B4B1B78DBB223F04003FB730849FB799B0173
:40200000DBB203F04003DAB2FB7B1343DBB20B7000BF1437BD4680BC704700BF2051004080B582B000AF786000F03CF8786800F009F8072000F018F800F028F800BF0837F5
:40204000BD4680BD80B485B000AF7860054B1B68FB60FB6884337A681A6000BF1437BD4680BC704708ED00E080B483B000AF0346FB71054AFB795B01DBB2137000BF0C37BB
:40208000BD4680BC704700BF11E400E080B400AF034B4FF400321A6000BFBD4680BC704700E100E080B400AF034B4FF400321A6000BFBD4680BC704780E100E080B500AF06
:4020C000214A214B1B78DBB203F00103DBB213701E4A1E4B1B78DBB223F00303DBB213701B4A1B4B1B78DBB223F03003DBB21370174A174B1B78DBB243F03003DBB213702E
:40210000134A134B1B78DBB223F00F03DBB213700F4A0F4B1B78DBB243F00F03DBB213700C4A0C4B1B78DBB243F00103DBB21370632000F063F8632000F072F8082000F090
:4021400041F800BF80BD00BF004F0040024F00400B4F0040014F004080B400AF0D4A0D4B1B78DBB243F00103DBB213700A4A0A4B1B78DBB243F00103DBB21370074A074B75
:402180001B78DBB243F00103DBB2137000BFBD4680BC7047A3430040B3430040004F004080B500AF064B1B78002B04D1FFF786FF034B01221A70FFF7CFFF00BF80BD00BF5B
:4021C0008687FF1F80B483B000AF0346FB71044AFB79137000BF0C37BD4680BC704700BF034F004080B400AF034B1B78DBB21846BD4680BC704700BF034F004080B485B0FC
:4022000000AF0346FB71FB79FB81044AFB89138000BF1437BD4680BC704700BF044F004080B483B000AF0346FB71044BFA7992B21A8000BF0C37BD4680BC7047064F00409B
:4022400080B400AF094A094B1B78DBB243F02003DBB21370064A064B1B78DBB243F02003DBB2137000BFBD4680BC7047A2430040B243004080B582B000AF786000F03CF806
:40228000786800F009F8072000F018F800F028F800BF0837BD4680BD80B485B000AF7860054B1B68FB60FB684C337A681A6000BF1437BD4680BC704708ED00E080B483B040
:4022C00000AF0346FB71054AFB795B01DBB2137000BF0C37BD4680BC704700BF03E400E080B400AF034B08221A6000BFBD4680BC704700BF00E100E080B400AF034B082268
:402300001A6000BFBD4680BC704700BF80E100E080B582B000AF786000F03CF8786800F009F8072000F018F800F028F800BF0837BD4680BD80B485B000AF7860054B1B6853
:40234000FB60FB6848337A681A6000BF1437BD4680BC704708ED00E080B483B000AF0346FB71054AFB795B01DBB2137000BF0C37BD4680BC704700BF02E400E080B400AF99
:40238000034B04221A6000BFBD4680BC704700BF00E100E080B400AF034B04221A6000BFBD4680BC704700BF80E100E080B400AF094A094B1B78DBB243F01003DBB2137074
:4023C000064A064B1B78DBB243F01003DBB2137000BFBD4680BC7047A2430040B243004080B582B000AF786000F03CF8786800F009F8072000F018F800F028F800BF08379F
:40240000BD4680BD80B485B000AF7860054B1B68FB60FB6854337A681A6000BF1437BD4680BC704708ED00E080B483B000AF0346FB71054AFB795B01DBB2137000BF0C3727
:40244000BD4680BC704700BF05E400E080B400AF034B20221A6000BFBD4680BC704700BF00E100E080B400AF034B20221A6000BFBD4680BC704700BF80E100E080B582B0B3
:4024800000AF786000F03CF8786800F009F8072000F018F800F028F800BF0837BD4680BD80B485B000AF7860054B1B68FB60FB6850337A681A6000BF1437BD4680BC7047CB
:4024C00008ED00E080B483B000AF0346FB71054AFB795B01DBB2137000BF0C37BD4680BC704700BF04E400E080B400AF034B10221A6000BFBD4680BC704700BF00E100E07C
:4025000080B400AF034B10221A6000BFBD4680BC704700BF80E100E080B582B000AF786000F03CF8786800F009F8072000F018F800F028F800BF0837BD4680BD80B485B048
:4025400000AF7860054B1B68FB60FB6860337A681A6000BF1437BD4680BC704708ED00E080B483B000AF0346FB71054AFB795B01DBB2137000BF0C37BD4680BC704700BFCE
:4025800008E400E080B400AF034B4FF480721A6000BFBD4680BC704700E100E080B400AF034B4FF480721A6000BFBD4680BC704780E100E080B582B000AF786000F03CF811
:4025C000786800F009F8072000F018F800F028F800BF0837BD4680BD80B485B000AF7860054B1B68FB60FB6858337A681A6000BF1437BD4680BC704708ED00E080B483B0F1
:4026000000AF0346FB71054AFB795B01DBB2137000BF0C37BD4680BC704700BF06E400E080B400AF034B40221A6000BFBD4680BC704700BF00E100E080B400AF034B4022B1
:402640001A6000BFBD4680BC704700BF80E100E080B582B000AF786000F03CF8786800F009F8072000F018F800F028F800BF0837BD4680BD80B485B000AF7860054B1B6810
:40268000FB60FB6844337A681A6000BF1437BD4680BC704708ED00E080B483B000AF0346FB71054AFB795B01DBB2137000BF0C37BD4680BC704700BF01E400E080B400AF5B
:4026C000034B02221A6000BFBD4680BC704700BF00E100E080B400AF034B02221A6000BFBD4680BC704700BF80E100E080B582B000AF0023FB7106E0FB791846FEF7E4FB04
:40270000FB790133FB71FB79012BF5D9034BFF221A7000BF0837BD4680BD00BFE086FF1F80B582B000AF0346FB71FFF7DFFFFB791846FEF793FB034AFB79137000BF083767
:40274000BD4680BDE086FF1F80B582B000AF786000F03CF8786800F009F8072000F018F800F028F800BF0837BD4680BD80B485B000AF7860054B1B68FB60FB68B4337A68F3
:402780001A6000BF1437BD4680BC704708ED00E080B483B000AF0346FB71054AFB795B01DBB2137000BF0C37BD4680BC704700BF1DE400E080B400AF034B4FF000521A60FC
:4027C00000BFBD4680BC704700E100E080B400AF034B4FF000521A6000BFBD4680BC704780E100E080B582B002AF414B01221A70404B00221A70102000F0B2FD102000F0BA
:4028000095FE07210020FFF78BFB3B4B04221A703A4B00221A703A4B00221A70394A394B1B78DBB243F01803DBB21370364B00221A70364B00221A70354B00221A70354B1E
:402840000A221A70344B00221A70344B00221A70334B5B221A70334B5E221A70324B00221A70324B14221A700123009310234FF4004249F2DA01002000F078FB0223009319
:4028800010234FF4004249F2DA01002000F06EFB0323009310234FF4004249F2DA01002000F064FB0423009310234FF4004249F2DA01002000F05AFB1D4A0D4B1B78DBB20F
:4028C000013B1C499B000B449B7813701A4A084B1B78DBB2013B174931F823301380044B1B78DBB2184600F039F900BFBD4680BDE186FF1F8887FF1F965800409758004038
:402900009E580040075B004093580040885B0040895B004080580040815800408358004088580040895800408D580040014E00400E4E00409087FF1F0C4E004080B582B03A
:4029400000AF00F069FF0346FB71434B1B78BB71424A424B1B78DBB243F00103DBB213703E4A3E4B1B78DBB243F01003DBB213703B4A3B4B1B78DBB243F00103DBB21370D5
:40298000374A374B1B78DBB243F01003DBB21370344A344B1B78DBB243F00203DBB21370314A314B1B78DBB243F00203DBB213702E4A2E4B1B78DBB243F00303DBB2137080
:4029C0000320FFF771FA274A264B1B78DBB223F00203DBB21370244A234B1B78DBB223F00203DBB21370224A214B1B78DBB243F00603DBB213701F4B7A221A701E4A1E4B60
:402A00001B78DBB243F00103DBB213701B4A1B4B1B78DBB243F00103DBB21370184A184B1B78DBB243F00103DBB21370154A154B1B78DBB243F00103DBB21370124B01222B
:402A40001A60124B01221A60FB79184600F0E8FE00BF0837BD4680BDE186FF1FAA430040BA430040F8460040F9460040915800407758004082580040A1430040B143004066
:402A8000A2430040B243004080E200E000E100E080B500AF084B1B78002B09D1074B1B78DBB2002B01D1FFF79DFE034B01221A70FFF744FF00BF80BD8A87FF1F8B87FF1F5B
:402AC00080B400AF054A054B1B78DBB243F00103DBB2137000BFBD4680BC7047004E004080B483B000AF174B1B78DBB203F003037B717B79012B03D8134B1B88FB8011E0C5
:402B0000114B1B78DBB2FB80104B1B78DBB29BB21B029AB2FB881343FB807B79032B01D10B4B1B780B4B1B78DBB2002B02D00A4B00221A70B7F9063018460C37BD4680BC02
:402B4000704700BF144E0040104E0040114E0040124E00408987FF1F8887FF1F80B582B000AF0346FB71C34B00221A70FB79012B66D1C14B38221A70C04B04221A70C04BF3
:402B800006221A70BF4B00221A70BF4B00221A70BE4B3F221A70BE4B00221A70BD4B00221A70BD4B00221A70BC4B01221A70BC4B50221A70BB4B27221A70BB4B2C221A7078
:402BC000BA4B00221A70BA4B55221A70B94B5A221A70B94B05221A70B84B00221A70B84B00221A70B74B0A221A70B74B43221A70442000F073FAB54B58221A70B44B002272
:402C00001A70B44B05221A70B34B02221A70B34B00221A70B24B00221A70002000F0CEFAB04B4FF47A421A600121052000F0DAFA0121BA2000F0BCFBAB490020FFF748F916
:402C4000FB79022B66D18C4B38221A708B4B04221A708B4B06221A708A4B00221A708A4B00221A70894B3F221A70894B00221A70884B00221A70884B00221A70874B01227F
:402C80001A70874B50221A70864B27221A70864B2C221A70854B00221A70854B55221A70844B5A221A70844B05221A70834B01221A70834B11221A70824B19221A70824B68
:402CC00097221A70442000F009FA804B58221A707F4B00221A707F4B05221A707E4B02221A707E4B00221A707D4B00221A70002000F064FA7B4B4FF47A421A600121052026
:402D000000F070FA0121252000F052FB77490020FFF7DEF8FB79032B66D1574B38221A70564B04221A70564B06221A70554B00221A70554B00221A70544B3F221A70544B25
:402D400000221A70534B00221A70534B00221A70524B01221A70524B50221A70514B27221A70514B2C221A70504B00221A70504B55221A704F4B5A221A704F4B05221A707F
:402D80004E4B01221A704E4B11221A704D4B19221A704D4B97221A70442000F09FF94B4B58221A704A4B00221A704A4B05221A70494B02221A70494B00221A70484B0022FB
:402DC0001A70002000F0FAF9464B4FF47A421A600121052000F006FA0121252000F0E8FA43490020FFF774F8FB79042B40F0A980214B38221A70214B04221A70204B0622C3
:402E00001A70204B00221A701F4B00221A701F4B3F221A701E4B00221A701E4B00221A701D4B00221A701D4B01221A701C4B50221A701C4B27221A701B4B2C221A701B4BF2
:402E400000221A701A4B55221A701A4B5A221A70194B05221A70194B01221A70184B11221A70184B19221A70174B97221A70442040E000BF8987FF1F004E0040024E004033
:402E8000034E0040044E0040054E0040064E0040084E0040094E00400A4E0040144E0040845800408558004086580040875800408A5800408B5800408C5800408E5800405C
:402EC0008F580040905800409158004094580040955800409A5800409B5800409C5800409D5800403C88FF1F59310000653100007131000000F0F2F8144B58221A70144BF3
:402F000000221A70134B05221A70134B02221A70124B00221A70124B00221A70002000F04DF9104B4FF47A421A600121052000F059F90121252000F03BFA0B490020FEF710
:402F4000C7FF00BF0837BD4680BD00BF94580040955800409A5800409B5800409C5800409D5800403C88FF1F7D31000090B587B000AF0446084611461A462346FB7103463F
:402F8000BB800B467B801346BB7197F82830002B00F08B8097F82830042B00F28680FB79013B092B4AD801A252F823F0D52F00003D3000003D300000D52F00003D30000095
:402FC0003D300000EF2F0000093000003D30000023300000BB790F2B04D9374B1B78DBB2FB752EE0354B1B78DBB2FB7529E0BB790F2B04D9324B1B78DBB2FB7521E0314BF4
:403000001B78DBB2FB751CE0BB790F2B04D92E4B1B78DBB2FB7514E02C4B1B78DBB2FB750FE0BB790F2B04D9294B1B78DBB2FB7507E0284B1B78DBB2FB7502E00023FB7518
:4030400000BFBA8897F917305B0113443B617B883A6902FB03F3FB60FB68DB0BBB82BB790D2B12D8BA8ABB79C3F10E0342FA03F3BB8297F82830013BBA790132D1B2164A41
:403080009B0013440A469A7007E097F82830013B114A9B0013440F229A7097F82830013B0D49BA8A21F8232002E00020FEF7CEFE00BF1C37BD4690BD180100491C0100492C
:4030C000190100491D0100491A0100491E0100491B0100491F0100499087FF1F80B584B000AF0346FB7100F097FB0346FB73174A164B1B78DBB243F00303DBB21370144AA8
:40310000134B1B78DBB243F00303DBB21370114AFB7913700320FEF7C7FE0C4A0B4B1B78DBB223F00303DBB21370094A084B1B78DBB223F00303DBB21370FB7B184600F0F1
:403140006FFB00BF1037BD4680BD00BFF8460040F94600409258004080B400AF00BFBD4680BC704780B400AF00BFBD4680BC704780B400AF00BFBD4680BC704780B400AF0E
:4031800000BFBD4680BC704780B582B000AF0023FB7106E0FB791846FDF73EFEFB790133FB71FB79012BF5D9034BFF221A7000BF0837BD4680BD00BFE286FF1F80B582B068
:4031C00000AF0346FB71FFF7DFFFFB791846FDF703FE034AFB79137000BF0837BD4680BDE286FF1F80B584B000AF03460A46FB8013467B7100F0CEF80346FB7300F0A4F85E
:403200000346BB81FA88BB899A4200F08880464B1B78DBB203F00103FB72FB7B002B20D1BB89002B02D0FB88002B1AD1BB89002B0BD13E4AFB8813803D4A3D4B1B78DBB2D6
:4032400023F04003DBB2137069E0394A384B1B78DBB243F04003DBB21370344AFB8813805DE0FB7A002B33D0324B00221A70324B01221A70314B00221A70314A304B1B787B
:40328000DBB203F07F03DBB21370294B1B78DBB203F00803002B02D0FB88002B18D1294ABB891380234B07221A7000BF214B1B78DBB203F00103002BF8D11B4A1A4B1B78D8
:4032C000DBB223F00103DBB213701A4B00221A70154B1B78DBB203F00103002B13D0194AFB881380134A7B79002B01D0032300E00123137000BF0F4B1B78DBB203F00103E1
:40330000002BF8D10BE0094AFB8813800649064B1B78DAB2FB7A1343DBB20B70FFE700BF1037BD4680BD00BFA24300408040004082400040014000401040004014400040FC
:40334000084000400240004080B400AF034B1B889BB21846BD4680BC704700BF8040004080B483B000AF0346FB710949084B1B78DBB25AB297F9073023F007035BB213432C
:403380005BB2DBB20B7000BF0C37BD4680BC70478240004080B400AF044B1B78DBB203F00703DBB21846BD4680BC70478240004080B584B000AF03460A46FB8013467B715B
:4033C00000F0CEF80346FB7300F0A4F80346BB81FA88BB899A4200F08880464B1B78DBB203F00103FB72FB7B002B20D1BB89002B02D0FB88002B1AD1BB89002B0BD13E4A61
:40340000FB8813803D4A3D4B1B78DBB223F04003DBB2137069E0394A384B1B78DBB243F04003DBB21370344AFB8813805DE0FB7A002B33D0324B00221A70324B01221A7025
:40344000314B00221A70314A304B1B78DBB203F07F03DBB21370294B1B78DBB203F00803002B02D0FB88002B18D1294ABB891380234B07221A7000BF214B1B78DBB203F0BA
:403480000103002BF8D11B4A1A4B1B78DBB223F00103DBB213701A4B00221A70154B1B78DBB203F00103002B13D0194AFB881380134A7B79002B01D0032300E001231370FA
:4034C00000BF0F4B1B78DBB203F00103002BF8D10BE0094AFB8813800649064B1B78DAB2FB7A1343DBB20B70FFE700BF1037BD4680BD00BFA14300400041004002410040AF
:40350000014000401440004010400040084000400240004080B400AF034B1B889BB21846BD4680BC704700BF0041004080B483B000AF0346FB710949084B1B78DBB25AB28B
:4035400097F9073023F007035BB213435BB2DBB20B7000BF0C37BD4680BC70470241004080B400AF044B1B78DBB203F00703DBB21846BD4680BC70470241004080B400AFDE
:40358000054B1B78DBB203F002035B08DBB21846BD4680BC704700BF8345004080B485B000AF0346FB710A4B1B78DBB223F00103FB730749FB7903F00103DAB2FB7B1343BE
:4035C000DBB20B7000BF1437BD4680BC704700BF3051004080B400AF094A094B1B78DBB243F00803DBB21370064A064B1B78DBB243F00803DBB2137000BFBD4680BC704787
:40360000A2430040B243004080B582B000AF40F2E73000F05FF840F2E73000F077F800F0FBF80346FB710A4A094B1B78DBB243F01003DBB21370FB79184600F0F1F800F091
:4036400085F8002000F01EF800BF0837BD4680BD9565004080B400AF00BFBD4680BC704780B500AF064B1B78002B04D1FFF7CCFF034B01221A70FFF7EDFF00BF80BD00BF76
:40368000A087FF1F80B483B000AF0346FB71044AFB79137000BF0C37BD4680BC704700BF8565004080B400AF034B1B78DBB21846BD4680BC704700BF6565004080B400AF83
:4036C000034B1B889BB21846BD4680BC704700BF486A004080B483B000AF0346FB80044AFB88138000BF0C37BD4680BC704700BF486A004080B400AF034B1B889BB2184621
:40370000BD4680BC704700BF886A004080B483B000AF0346FB80044AFB88138000BF0C37BD4680BC704700BF086A004080B400AF044B1B78044B1B889BB21846BD4680BC5A
:40374000704700BF04650040886A004080B500AF01E0FFF7CFFFFFF7A5FF034603F00803002BF6D100BF80BD80B582B000AF786000F03CF8786800F009F8072000F018F896
:4037800000F028F800BF0837BD4680BD80B485B000AF7860054B1B68FB60FB685C337A681A6000BF1437BD4680BC704708ED00E080B483B000AF0346FB71054AFB795B0190
:4037C000DBB2137000BF0C37BD4680BC704700BF07E400E080B400AF034B80221A6000BFBD4680BC704700BF00E100E080B400AF034B80221A6000BFBD4680BC704700BFF4
:4038000080E100E0000000000230800803D000BF01380046FCD17047EFF3108072B6704780F31088704700BF81F0004102E000BF83F0004330B54FEA41044FEA430594EABB
:40384000050F08BF90EA020F1FBF54EA000C55EA020C7FEA645C7FEA655C00F0E2804FEA5454D4EB5555B8BF6D420CDD2C4480EA020281EA030382EA000083EA010180EADB
:40388000020281EA0303362D88BF30BD11F0004F4FEA01314FF4801C4CEA113102D0404261EB410113F0004F4FEA03334CEA133302D0524263EB430394EA050F00F0A78028
:4038C000A4F10104D5F1200E0DDB02FA0EFC22FA05F2801841F1000103FA0EF2801843FA05F359410EE0A5F120050EF1200E012A03FA0EFC28BF4CF0020C43FA05F3C018C4
:4039000051EBE37101F0004507D54FF0000EDCF1000C7EEB00006EEB0101B1F5801F1BD3B1F5001F0CD349085FEA30004FEA3C0C04F101044FEA445212F5800F80F09A80F0
:40394000BCF1004F08BF5FEA500C50F1000041EB045141EA050130BD5FEA4C0C404141EB010111F4801FA4F10104E9D191F0000F04BF01460020B1FA81F308BF2033A3F130
:403980000B03B3F120020CDA0C3208DD02F1140CC2F10C0201FA0CF021FA02F10CE002F11402D8BFC2F1200C01FA02F120FA0CFCDCBF41EA0C019040E41AA2BF01EB045193
:4039C000294330BD6FEA04041F3C1CDA0C340EDC04F11404C4F1200220FA04F001FA02F340EA030021FA04F345EA030130BDC4F10C04C4F1200220FA02F001FA04F340EA8D
:403A00000300294630BD21FA04F0294630BD94F0000F83F4801306BF81F480110134013D4EE77FEA645C18BF7FEA655C29D094EA050F08BF90EA020F05D054EA000C04BFC3
:403A40001946104630BD91EA030F1EBF0021002030BD5FEA545C05D14000494128BF41F0004130BD14F580043CBF01F5801130BD01F0004545F0FE4141F470014FF00000A2
:403A800030BD7FEA645C1ABF194610467FEA655C1CBF0B46024650EA013406BF52EA033591EA030F41F4002130BD00BF90F0000F04BF0021704730B54FF4806404F132042C
:403AC0004FF000054FF0000150E700BF90F0000F04BF0021704730B54FF4806404F1320410F0004548BF40424FF000013EE700BF42004FEAE2014FEA31014FEA02701FBFA7
:403B000012F07F4393F07F4F81F06051704792F0000F14BF93F07F4F704730B54FF4607401F0004521F0004120E700BF50EA010208BF704730B54FF000050AE050EA0102D6
:403B400008BF704730B511F0004502D5404261EB41014FF4806404F132045FEA915C3FF4DCAE4FF003025FEADC0C18BF03325FEADC0C18BF033202EBDC02C2F1200300FA17
:403B800003FC20FA02F001FA03FE40EA0E0021FA02F11444C1E600BF70B54FF0FF0C4CF4E06C1CEA11541DBF1CEA135594EA0C0F95EA0C0F00F0DEF82C4481EA030621EA62
:403BC0004C5123EA4C5350EA013518BF52EA033541F4801143F4801338D0A0FB02CE4FF00005E1FB02E506F00042E0FB03E54FF00006E1FB03569CF0000F18BF4EF0010E83
:403C0000A4F1FF04B6F5007F64F5407404D25FEA4E0E6D4146EB060642EAC62141EA55514FEAC52040EA5E504FEACE2EB4F1FD0C88BFBCF5E06F1ED8BEF1004F08BF5FEA47
:403C4000500E50F1000041EB045170BD06F0004646EA010140EA020081EA0301B4EB5C04C2BFD4EB0C0541EA045170BD41F480114FF0000E013C00F3AB8014F1360FDEBF9C
:403C8000002001F0004170BDC4F10004203C35DA0C341BDC04F11404C4F1200500FA05F320FA04F001FA05F240EA020001F0004221F0004110EBD37021FA04F642EB060119
:403CC0005EEA430E08BF20EAD37070BDC4F10C04C4F1200500FA04F320FA05F001FA04F240EA020001F0004110EBD37041F100015EEA430E08BF20EAD37070BDC4F12005D7
:403D000000FA05F24EEA020E20FA04F301FA05F243EA020321FA04F001F0004121FA04F220EA020000EBD3705EEA430E08BF20EAD37070BD94F0000F0FD101F000464000C5
:403D400041EB010111F4801F08BF013CF7D041EA060195F0000F18BF704703F00046520043EB030313F4801F08BF013DF7D043EA0603704794EA0C0F0CEA135518BF95EAE7
:403D80000C0F0CD050EA410618BF52EA4306D1D181EA030101F000414FF0000070BD50EA410606BF1046194652EA430619D094EA0C0F02D150EA013613D195EA0C0F05D1E6
:403DC00052EA03361CBF104619460AD181EA030101F0004141F0FE4141F470014FF0000070BD41F0FE4141F4780170BD70B54FF0FF0C4CF4E06C1CEA11541DBF1CEA1355C5
:403E000094EA0C0F95EA0C0F00F0A7F8A4EB050481EA030E52EA03354FEA013100F088804FEA03334FF0805545EA131343EA12634FEA022245EA111545EA10654FEA0026A6
:403E40000EF000419D4208BF964244F1FD0404F5407402D25B084FEA3202B61A65EB03055B084FEA32024FF480104FF4002CB6EB020E75EB030E22BFB61A754640EA0C0000
:403E80005B084FEA3202B6EB020E75EB030E22BFB61A754640EA5C005B084FEA3202B6EB020E75EB030E22BFB61A754640EA9C005B084FEA3202B6EB020E75EB030E22BF27
:403EC000B61A754640EADC0055EA060E18D04FEA051545EA16754FEA06164FEAC30343EA52734FEAC2025FEA1C1CC0D111F4801F0BD141EA00014FF000004FF0004CB6E781
:403F000011F4801F04BF01430020B4F1FD0C88BFBCF5E06F3FF6AFAEB5EB030C04BFB6EB020C5FEA500C50F1000041EB045170BD0EF0004E4EEA113114EB5C04C2BFD4EB15
:403F40000C0541EA045170BD41F480114FF0000E013C90E645EA060E8DE60CEA135594EA0C0F08BF95EA0C0F3FF43BAF94EA0C0F0AD150EA01347FF434AF95EA0C0F7FF44C
:403F800025AF104619462CE795EA0C0F06D152EA03353FF4FDAE1046194622E750EA410618BF52EA43067FF4C5AE50EA41047FF40DAF52EA43057FF4EBAE12E74FEA41026E
:403FC00012F5001215D211D56FF47873B3EB625212D94FEAC12343F0004343EA505311F0004F23FA02F018BF404270474FF00000704750EA013005D111F0004008BF6FF0E0
:40400000004070474FF00000704700BF4A0011D212F5001211D20DD56FF47873B3EB62520ED44FEAC12343F0004343EA505323FA02F070474FF00000704750EA013002D1EA
:404040004FF0FF3070474FF000007047014B1868704700BF4487FF1F0E4B70B51E460E4C0025E41AA410A54204D056F8253098470135F8E701F0BEF8084B094C1E46E41AE4
:40408000A4100025A54204D056F8253098470135F8E770BD0052000000520000005200000852000010B5431E0A44914204D011F8014B03F8014FF8E710BD0346024493428D
:4040C00002D003F8011BFAE7704700000EB400B54FF402719CB0ADF814106FF00041049107914FF6FF711DAB02900690084853F8042BADF81610006802A9019300F064F803
:40410000029B00221A701CB05DF804EB03B070474487FF1F2DE9F0478E6882469E420C46914698463ED88A8912F4906F3AD02568096902236F1A656905EB450595FBF3F57C
:404140007B1C43449D4238BF1D4653050FD5294600F040FB064698B13A462169FFF7A2FFA38923F4906343F08003A38113E02A4600F08EFB064670B92169504600F0DEFA93
:404180000C23CAF80030A3894FF0FF3043F04003A381BDE8F08726613E44266046466561ED1BA560464528BF464649463246206800F0A8FAA36800209B1BA36023681E44B0
:4041C0002660BDE8F08700002DE9F04F9DB003938B8980461C060D4616460DD50B695BB9402100F0F7FA2860286118B90C23C8F80030CDE040236B610023099320238DF82A
:404200002930DFF89CB130238DF82A3037463C4614F8013B1BB9B7EB060910D003E0252BF9D02746F3E74B46324629464046FFF771FF013000F0A780099B4B4409933B78B2
:40424000002B00F0A08000234FF0FF3204930793059206938DF853301A930126052221784E4800F041FA671C049B38B14B4A3C46801A06FA00F018430490EFE7D90644BF5F
:4042800020228DF853201A0744BF2B228DF8532022782A2A03D0079A00210A200BE0039A111D12680391002A10DA524243F00200079204900BE027463B780134303B092B01
:4042C00003D800FB02320121F5E701B107923B782E2B1ED17B782A2B0AD1039B02371A1D1B680392002BB8BF4FF0FF33059310E0002319460593781C0A2407463A78013080
:40430000303A092A03D804FB01210123F5E703B1059103223978224800F0E6F940B14023CBEB000003FA00F0049B013718430490397806221B487E1C8DF8281000F0D4F97E
:4043400088B1194B33B9039B073323F007030833039314E003AB00932A46144B04A94046AFF3008007E003AB00932A460F4B04A9404600F093F8B0F1FF3F824603D0099BD7
:404380005344099342E7AB895B0601D4099801E04FF0FF301DB0BDE8F08F00BFBE510000C4510000C851000000000000154100002DE9F04791461F460A698B6806469342F4
:4043C000B8BF1346C9F8003091F843200C46DDF8208012B10133C9F800302368990642BFD9F800300233C9F80030256815F0060510D104F1190A07E00123524639463046E1
:40440000C04701301AD00135E368D9F800209B1A9D42F1DB94F843302268003318BF012392060FD5E118302081F843005A1C94F845102244023382F8431003E04FF0FF3040
:40444000BDE8F08704F1430239463046C0470130F4D02268D9F80050E36802F00602042A08BF5D1B2269A3680CBF25EAE57500259342C4BF9B1AED184FF000091A344D456F
:4044800009D00123224639463046C0470130D5D009F10109F3E70020BDE8F0872DE9F04317460A7E85B06E2A984606460C460C9B01F1430E00F0AE8011D8632A22D009D8E3
:4044C000002A00F0BB80582A40F0CA8081F84520834955E0642A1ED0692A1CD0C0E0732A00F0B08009D86F2A2ED0702A40F0B8800A6842F020020A603EE0752A24D0782A37
:404500003AD0ADE01A6801F14205111D1960136884F84230A8E021681A6811F0800F02D0111D196008E011F0400F02F10401196002D0B2F9003000E01368002B3CDA2D223C
:404540005B4284F8432037E021681A6811F0800F02D0111D196007E011F0400F02F10401196001D0138800E01368227E5C496F2A14BF0A2208221BE078225A4984F8452005
:404580002268186812F0800F00F104051D6003D1550601D5038800E00368D00744BF42F0200222601BB9226822F0200222601022002084F8430001E049490A226568002DA0
:4045C000A56008DB206820F0040020602BB9002D7DD175460CE0002B79D07546B3FBF2F002FB1033CB5C05F8013D03460028F5D1082A0BD12368DA0708D5236962689A4290
:40460000DEBF302305F8013C05F1FF35C5EB0E0323612EE008681A6810F0800F496903D0101D1860136808E010F0400F02F104001860136801D0198000E019600023236122
:40464000754616E01A68111D1960156800216268284600F049F808B1401B6060636804E004F1420584F8422001232361002384F84330CDF800803B4603AA21463046FFF7BC
:4046800097FE013002D14FF0FF3026E023692A4639463046C0470130F5D023689B0710D5002504F1190907E001234A4639463046C0470130E7D00135E368039A9B1A9D4280
:4046C000F2DBE068039B9842B8BF184605E00B7804F1420584F842308AE705B0BDE8F083CF510000E051000010B5C9B202449042034605D01C7801308C42F8D1184610BD3A
:40470000002010BD884210B501EB020301D8421E0BE09842FBD28118D21AD34204D013F8014D01F8014DF8E710BD994204D011F8014B02F8014FF8E710BD000038B5054655
:40474000002944D051F8043C0C1F002BB8BFE41800F0D4F81E4A1368114613B96360146030E0A3420DD92268A018834201BF18685B681218226063600C6023E0A24203D82F
:4047800013465A68002AF9D118681918A1420BD12168014458188242196013D110685268014419605A600DE002D90C232B6009E021686018824201BF1068526809182160AD
:4047C00062605C602846BDE8384000F098B838BDA887FF1F70B5CD1C25F0030508350C2D38BF0C25002D064601DBA94202D90C23336046E000F082F8234B1C681A4621463F
:40480000A1B10B685B1B0ED40B2B03D90B60CC18CD501EE08C420BBF63684B681360636018BF0C4615E00C464968E9E7174C23681BB9304600F052F820602946304600F0DB
:404840004DF8431C18D0C41C24F00304A0420DD12560304600F053F804F10B00231D20F00700C31A0ED05A42E25070BD211A304600F034F80130EBD10C233360304600F0CC
:404880003EF8002070BD00BFA887FF1FA487FF1FF8B5074615460E4621B91146BDE8F840FFF798BF1AB9FFF749FF2846F8BD00F027F885420ED929463846FFF78BFF044674
:4048C00050B131462A46FFF7EDFB31463846FFF735FF01E03046F8BD2046F8BD38B5064C0023054608462360FCF70CFC431C02D1236803B12B6038BD4088FF1F70477047EE
:4049000051F8040C0028BEBF091851F8043CC0180438704700000000433020432330443020442330453020463020462330473020472330413020412330423020433120432D
:4049400023314431204423314531204631204623314731204723314131204123314231204332204323324432204423324532204632204623324732204723324132204123B0
:40498000324232204333204323334433204423334533204633204623334733204723334133204123334233204334204323344434204423344534204634204623344734203E
:4049C00047233441342041233442342043352043233544352044233545352046352046233547352047233541352041233542352043362043233644362044233645362046CD
:404A00003620462336473620472336413620412336423620433720432337443720442337453720463720462337473720472337413720412337423720433820432338443872
:404A400020442338453820463820462338473820472338413820412338423820100011001200130015001600170019001A001C001D001F00210023002500270029002C0093
:404A80002E003100340037003A003E004100450049004E00520057005C00620068006E0075007B0083008B0093009C00A500AF00B900C400D000DC00E900F70006011501B3
:404AC000260137014A015D01720188019F01B801D201EE010B022A024B026E029302BA02E40210033F037003A403DC03170455049704DD0427057505C80520067D06E0062A
:404B00004907B8072D08A9082D09B9094D0AEA0A900B400CFA0CC00D920E6F0F5A1053115B1272139A14D4151F178018F519801B231DDE1E000000009A9999999959304094
:404B400052B81E85EB5131409A9999999959324033333333337333409A9999999999344014AE47E17AD435401F85EB51B81E37400000000000803840F6285C8FC2F5394017
:404B80000000000000803B40A4703D0AD7233D401F85EB51B8DE3E409A9999999959404033333333335341407B14AE47E15A424052B81E85EB7143409A99999999994440A2
:404BC0003333333333D345400000000000204740000000000080484014AE47E17AF449400000000000804B40C3F5285C8F224D401F85EB51B8DE4E400AD7A3703D5A50402A
:404C000033333333335351407B14AE47E15A524052B81E85EB7153400AD7A3703D9A5440A4703D0AD7D355400000000000205740000000000080584085EB51B81EF55940B7
:404C40000000000000805B40C3F5285C8F225D40AE47E17A14DE5E4052B81E85EB5960407B14AE47E1526140C3F5285C8F5A624052B81E85EB71634052B81E85EB9964407E
:404C8000EC51B81E85D3654000000000002067400000000000806840CDCCCCCCCCF469400000000000806B40C3F5285C8F226D40AE47E17A14DE6E40AE47E17A145A704038
:404CC0007B14AE47E1527140C3F5285C8F5A7240AE47E17A14727340AE47E17A149A744048E17A14AED37540A4703D0AD71F77400000000000807840CDCCCCCCCCF4794063
:404D00000000000000807B40C3F5285C8F227D40AE47E17A14DE7E4000000000005A8040295C8FC2F5528140713D0AD7A35A8240000000000072834000000000009A8440B5
:404D400048E17A14AED3854052B81E85EB1F874052B81E85EB7F88407B14AE47E1F489400000000000808B40713D0AD7A3228D405C8FC2F528DE8E4000000000005A9040AB
:404D800052B81E85EB529140713D0AD7A35A9240D7A3703D0A729340D7A3703D0A9A9440713D0AD7A3D3954052B81E85EB1F974052B81E85EB7F98407B14AE47E1F499403C
:404DC0000000000000809B40713D0AD7A3229D4085EB51B81EDE9E4000000000005AA04052B81E85EB52A140713D0AD7A35AA240D7A3703D0A72A340D7A3703D0A9AA4402C
:404E00005C8FC2F5A8D3A54052B81E85EB1FA74052B81E85EB7FA8407B14AE47E1F4A940000000000080AB4085EB51B89E22AD40713D0AD723DEAE40F6285C8F025AB0402D
:404E400052B81E85EB52B1407B14AE47A15AB240E17A14AE0772B340D7A3703D0A9AB44066666666A6D3B5405C8FC2F5E81FB74048E17A14EE7FB8407B14AE47E1F4B9408A
:404E8000000000000080BB4085EB51B89E22BD407B14AE4721DEBE40000204070900000002040507090B0002030507090A0001030506080A0002040607090B000204050706
:404EC000090A0002030507080A0001030506080A0002030507090A000001030506080A000002040607090B000002040507090A000002030507080A000001030506080A0086
:404F00004D4F44452030200A0D0000004D4F44452031200A0D0000004D4F44452032200A0D0000004D4F44452033200A0D000000256325632563203A202569487A204449AC
:404F4000563A2025690A0D00504C41592052414E4745200A0D0000006563686F54756E6544656C61793A2025690A0D006563686F54756E6552616E67654469763A20256986
:404F80000A0D00004563686F4475726174696F6E3A2025690A0D00006563686F44697374616E63653A2025690A0D00000D0A73696E657761766500000D0A7371756172652C
:404FC00077617665000000000D0A747269616E676C6577617665000048656C6C6F200A0D000000000D0A00000D0A616E616C6F67627574746F6E2070726573736564000061
:405000000D0A627574746F6E2031207072657373656400000D0A627574746F6E20312072656C6561736564000D0A627574746F6E2032207072657373656400000D0A6275E4
:4050400074746F6E20322072656C6561736564000D0A627574746F6E2033207072657373656400000D0A627574746F6E20332072656C656173656400035B004024430040E8
:40508000400000001D510040005B00401D510040005B004040048008004F00400C00005100401000405100403000F051004010000000014000100014014000048018014001
:4050C000800300400140000A004C01400002005001402000605200403C050048060000510140440500480800001801404C0500488000000080878F979FA6AEB5BCC2C9CF59
:40510000D5DBE0E5E9EDF1F4F6F9FAFCFCFCFCFCFAF9F6F4F1EDE9E5E0DBD5CFC9C2BCB5AEA69F978F87807870686059514A433D36302A241F1A16120E0B090605030303F7
:4051400003030506090B0E12161A1F242A30363D434A51596068707880878F979FA6AEB5BCC2C9CFD5DBE0E5E9EDF1F4F6F9FAFCFCFCFCFCFAF9F6F4F1EDE9E5E0DBD5CFEB
:40518000C9C2BCB5AEA69F978F87807870686059514A433D36302A241F1A16120E0B09060503030303030506090B0E12161A1F242A30363D434A5159606870784300232D65
:4051C000302B2000686C4C006566674546470030313233343536373839414243444546003031323334353637383961626364656600000000F8B500BFF8BC08BC9E4670478D
:405200004D000000F1110000F8B500BFF8BC08BC9E4670472900000028520000C880FF1F800600000001000000000000FCFCFCFCFCFCFCFCFCFCFCFCFCFCFCFCFCFCFCFC60
:40524000FCFCFCFCFCFCFCFCFCFCFCFCFCFCFCFCFCFCFCFCFCFCFCFCFCFCFCFCFCFCFCFCFCFCFCFCFCFCFCFCFCFCFCFCFCFCFCFCFCFCFCFCFCFCFCFCFCFCFCFCFCFCFCFC2E
:40528000FCFCFCFCFCFCFCFCFCFCFCFCFCFCFCFCFCFCFCFCFCFCFCFCFCFCFCFCFCFCFCFCFCFCFCFCFCFCFCFCFC000000000000000000000000000000000000000000000092
:4052C00000000000000000000000000000000000000000000000000000000000000000000000000000000000000000000000000000000000000000000000000000000000AE
:405300000000000000000000000000000000000000000000000000000000000000000000000000000000FCFCFCFCFCFCFCFCFCFCFCFCFCFCFCFCFCFCFCFCFCFCFCFCFCFCD5
:40534000FCFCFCFCFCFCFCFCFCFCFCFCFCFCFCFCFCFCFCFCFCFCFCFCFCFCFCFCFCFCFCFCFCFCFCFCFCFCFCFCFCFCFCFCFCFCFCFCFCFCFCFCFCFCFCFCFCFCFCFCFCFCFCFC2D
:40538000FCFCFCFCFCFCFCFCFCFCFCFCFCFCFCFCFCFCFCFCFCFCFCFCFCFCFCFCFCFCFCFCFCFCFC000000000000000000000000000000000000000000000000000000000079
:4053C00000000000000000000000000000000000000000000000000000000000000000000000000000000000000000000000000000000000000000000000000000000000AD
:405400000000000000000000000000000000000000000000000000000000000000000000000000007E7F808182838485868788898A8B8C8D8E8F909192939495969798992A
:405440009A9B9C9D9E9FA0A1A2A3A4A5A6A7A8A9AAABACADAEAFB0B1B2B3B4B5B6B7B8B9BABBBCBDBEBFC0C1C2C3C4C5C6C7C8C9CACBCCCDCECFD0D1D2D3D4D5D6D7D8D9CC
:40548000DADBDCDDDEDFE0E1E2E3E4E5E6E7E8E9EAEBECEDEEEFF0F1F2F3F4F5F6F7F8F9FAFBFC02030405060708090A0B0C0D0E0F101112131415161718191A1B1C1D1EFB
:4054C0001F202122232425262728292A2B2C2D2E2F303132333435363738393A3B3C3D3E3F404142434445464748494A4B4C4D4E4F505152535455565758595A5B5C5D5E0C
:405500005F606162636465666768696A6B6C6D6E6F707172737475767778797A7B7C7D00000000000000000000000000000000000000000000000000000000000000000019
:40554000000000000000000000000000000000000000000000000000000000000000000000000000000000000000000000000000000000000000000000000000000000002B
:4055800000000000000000000000000000000000000000000000000000000000000000000000000000000000000000000000000000000000000000000000000000000000EB
:4055C00000000000000000000000000000000000000000000000000000000000000000000000000000000000000000000000000000000000000000000000000000000000AB
:40560000000000000000000000000000000000000000000000000000000000007F808283858688898B8D8E909193949697999A9C9D9FA0A2A3A5A6A8A9ABACAEAFB1B2B4D8
:40564000B5B6B8B9BABCBDBFC0C1C3C4C5C6C8C9CACBCDCECFD0D1D3D4D5D6D7D8D9DADBDDDEDFE0E1E1E2E3E4E5E6E7E8E9E9EAEBECEDEDEEEFEFF0F1F1F2F3F3F4F4F5CA
:40568000F5F6F6F7F7F7F8F8F9F9F9F9FAFAFAFAFBFBFBFBFBFBFBFBFBFBFBFBFBFBFBFBFBFBFBFBFAFAFAFAF9F9F9F9F8F8F7F7F7F6F6F5F5F4F4F3F3F2F1F1F0EFEFEEF7
:4056C000EDEDECEBEAE9E9E8E7E6E5E4E3E2E1E1E0DFDEDDDBDAD9D8D7D6D5D4D3D1D0CFCECDCBCAC9C8C6C5C4C3C1C0BFBDBCBAB9B8B6B5B4B2B1AFAEACABA9A8A6A5A393
:40570000A2A09F9D9C9A999796949391908E8D8B898886858382807F7D7B7A7877757472706F6D6C6A696766646361605E5D5B5A5857555452514F4E4C4B49484745444302
:4057400041403E3D3C3A39383735343332302F2E2D2C2A2928272625242322201F1E1D1C1C1B1A1918171615141413121110100F0E0E0D0C0C0B0A0A090908080707060682
:4057800006050504040404030303030202020202020202020202020202020202020202030303030404040405050606060707080809090A0A0B0C0C0D0E0E0F101011121368
:4057C000141415161718191A1B1C1C1D1E1F2022232425262728292A2C2D2E2F30323334353738393A3C3D3E40414344454748494B4C4E4F5152545557585A5B5D5E6061FF
:4058000063646667696A6C6D6F7072747577787A7B7D14000101010078000100280000004888FF1FFFFF0000807F00000300000000366E01C05D0000180000000000E02EFF
:40584000FF01FF000000000000000000000000000000000000000000000000000000000000000000BC5100000000000000000000000000000000000000000000000000001C
:40588000000000000000000000000000000000000000000000000000000000000000000000000000E486FF1F00000000000000000000000000000000000000000000000060
:4058C00000000000000000000000000000000000000000000000000000000000000000000000000000000000000000000000000000000000000000000000000000000000A8
:405900000000000000000000000000000000000000000000000000000000000000000000000000000000000000000000000000000000000000000000000000000000000067
:405940000000000000000000000000000000000000000000000000000000000000000000000000000000000000000000000000000000000000000000000000000000000027
:4059800000000000000000000000000000000000000000000000000000000000000000000000000000000000000000000000000000000000000000000000000000000000E7
:020000040003F7
:0200000480007A
:4000000001450040024F0040015A00400164004003650040020301400405014002070140610801403A090140080B01401A0C0140170D0140391401401C150140031701403E
:400040000718014031190140441A01403F1B0140074001400B4101401442014009430140024401400745014008460140034701400A48014004490140044C0140074D0140AD
:400080000650014001510140190201500A4B9F01890F850D88728B388D08E630A508E002EA08EE07A508E404031307080A020E05152C160117031B0C1E032131230E24066D
:4000C00026012A062D312F063330350F360739083A803B203F044002470449FF4A074BFF4C404D204EF04F055008580459045A045C115D015F01604061A862406320851C95
:400100008608874288038A148C138D4C8E0C8F1190139204958099149F03A150A215A30CA40AA510A614A909AB10AD20B00FB320B5C0B610B71FB920BA02BE40BF04C05633
:40014000C101C50CC6BEC80DC9FFCAFFCBFFCEF0CF44D00CD401D804D904DA04DB04DC11DD11DF01E6C0EA40EB020020012002200302058006040B800C080E0113091408EB
:400180001520170819421B021E011F402110226424042728280A29022A442D802F42302832403620370838043B803E083F0142014720481849804F0150205240560C580221
:4001C00059605A088C088F019801C0C7C2A8C46CCA9FCC6ECECAD028D20CD60FE4049801AA50AB01AF42B001B440E002EA0138823E4158045F018404910193049B089E0699
:40020000A108A208A904AB03AE01B004B102B201B308B402B501B608B704D804D904DC44DF0103200A01118013011A811BA41C401F402102221023222B8431023320854072
:400240008B20C004C201C409CA05CC05E202E62007040F0119011B02330135043702405249FF4AFF4BFF4F01501859045A045C405D035F0160406240644065406680688068
:400280006A806C806E809A01A601B001BE01C032C5ECC620C80BC9FFCAFFCBFFCD83CE03CF01D018D401D804DA04DB04DD33DF01E040E240E440E540E680E880EA80EC80AB
:4002C000EE800D2017081E80214822103210398841204520470849804D044F0155205D045E805F01858087089108A508C240C420CC04CE0AD064D208D6D08904A508E60C2D
:40030000A401A801AC01B601D804DC01DF010589070408200B080C400D280E010F40102211101280130117191A011DB81F14244026922D802F14362837053C403E29444066
:4003400045A04E2A56805E206C226D1074087580762877188304854092809801C0F0C2F0C477CA70CCE0CEF0D0B0D230D620E68009030C010D020E020F01180219031A096C
:400380001D04250127022E043008310332023404350436013B083F10580459045C145F0180648119820A830284228508861488618B018E618F209048911992049304946125
:4003C000951F980E99079B189F06A260A320A501A661A80EA918AD10B00EB210B460B520B601B71FB880BB80BF10D418D804D904DB04DC11DD10DF010302051907010A0456
:400400000C200F5010011460151019401A041B061C201D211E0122282350270929082C082D882E0130203240344035103608370139103B403C203E8A58085B085D016408BA
:4004400067018521862089088C208E029110928093019740986199909A889D499F01A028A608A704C0F1C272C471CAF2CCFCCEFCD680D830E4023008324037223B203C406C
:40048000CCF0CE3032103420350888088F209440968097209F22A408CCB01B043F085B0868026A808701944096809B089C209D08AA10AB02AF18C610CE80D640E040EA10D1
:4004C000EEE01002804094409C209D089F01A402C440E4207C20DE0103040701090287019C20C003C20845088508AB04B102B420D001E802EE0433808380CC0824402701A0
:400500008020850894409C209D089F01C8A0E63006408640C020E0100D048904C204E6011040740484048840C408DE04E20100120C020E10101A1A181C1210028080000091
:4005400040000000FE3F03000C00000003004002010420001F0C000008000010020F20000F0F100013000C10000013000C0013000403000C0C0D000200080000000E1C0022
:400580000F016010000028000000405024060500010C0E0005FFFFFF62A0F0410C00000000000211040404041111000100000000000040020010301000101012000000006E
:4005C0000000000000000000000000008800448C8000800000000000200000EBCB000000C000000020005C7C00000000000000000303000000004000BB00180100000000FB
:4006000000000000000000000000000000000000000000000000000000000000000000000000000000000000000000000000000000000000000000000000000000000000BA
:40064000000000000000000000000000000000000000000000000000000000000000000000000000000000000000000000000000000000000000000000000000000000007A
:40068000000000000000000000000000000000000000000000000000000000000000000000000000000000000000000000000000000000000000000000000000000000003A
:4006C00000000000000000000000000000000000000000000000000000000000000000000000000000000000000000000000000000000000000000000000000000000000FA
:0200000490006A
:0400000000004005B7
:0200000490105A
:04000000BC90ACAF55
:0200000490303A
:020000005406A4
:0200000490402A
:4000000000000000000000000000000000000000000000000000000000000000000000000000000000000000000000000000000000000000000000000000000000000000C0
:400040000000000000000000000000000000000000000000000000000000000000000000000000000000000000000000000000000000000000000000000000000000000080
:400080000000000000000000000000000000000000000000000000000000000000000000000000000000000000000000000000000000000000000000000000000000000040
:4000C0000000000000000000000000000000000000000000000000000000000000000000000000000000000000000000000000000000000000000000000000000000000000
:0200000490501A
:0C00000000012E16106900012E39646FFB
:00000001FF