:4000000000800020110000004D0700004D07000080B500AF024A034B1B68136000F0CAFBBC760040FA46004010B5054C237833B9044B13B10448AFF300800123237010BDAA
:400040005881FF1F00000000D8230000084B10B51BB108490848AFF300800848036803B910BD074B002BFBD0BDE81040184700BF000000005C81FF1FD8230000C880FF1FEC
:400080000000000080B500AF01F0D2F903461A46384B1A6001F0DCF903461A46364B1A60344B1B68002B15D1334B1B68002B11D1324B1B78DBB2002B0CD0304B00221A70A4
:4000C000002001F0D5F9002001F0F0F92C4800F00FFE4DE0274B1B68002B15D1264B1B68012B11D1254B1B78DBB2012B0CD0234B01221A70002001F0BBF9012001F0D6F928
:40010000204800F0F5FD33E01A4B1B68012B15D1194B1B68002B11D1184B1B78DBB2022B0CD0164B02221A70012001F0A1F9002001F0BCF9144800F0DBFD19E00D4B1B686F
:40014000012B15D10C4B1B68012B11D10B4B1B78DBB2032B0CD0094B03221A70012001F087F9012001F0A2F9084800F0C1FDFFE700BF80BD9C81FF1F0882FF1F7581FF1FEC
:40018000602900006C290000782900008429000090B587B004AF474B1B88B3F5FA5F02D9444B78221A80434B1B881A46424B93FBF2F3184601F026FC03460C463F4AC2E9FF
:4001C00000343E4B18CB1846214601F081FC03469AB23B4B1A8000237B6044E0394A7B6832F81320364B1B889BB29A4238D17B68DAB2354B1A70344B1B78DBB21946334A48
:400200000B465B000B4413441B7818462E4B1B78DBB219462D4A0B465B000B44134401331B781C46284B1B78DBB21946274A0B465B000B44134402331B781A46204B1B88A6
:400240009BB219461B4B1B88029301910092234602461F491F4801F09BFC1E4800F048FD7B6801337B607B686B2BB7D9114B1B88013B9BB20121184600F0F2FB0D4B1B8892
:4002800001339AB20B4B1A800A4B1B881A464FF4FA5393FBF2F39BB214339AB20E4B1A800D4B1B889BB2184601F0A0F800BF0C37BD4690BDD080FF1F90D003009081FF1F1F
:4002C0008881FF1F24250000A381FF1FE023000090290000A481FF1FCC80FF1F80B500AF62B600F089FC184800F002FD00F03EFB01F0BAF901F008FA144801F0F5F8144BCA
:400300001B78DBB2002B09D0124B1B78DBB2002B04D0FFF7B7FE0F4B00221A700E4B1B78DBB2032B0DD801A252F823F03D030000430300004303000043030000FFF728FFB1
:4003400000E000BFDBE700BFA82900005D030000CE80FF1F7681FF1F7581FF1F80B500AF034B01221A7001F0A1F900BF80BD00BF7681FF1F80B582B000AF786039603A6834
:400380000021786801F0FBFB00BF0837BD4680BD80B584B000AFF860B9607A607A68B968F86801F0E1FB00BF1037BD4680BD00BF80B483B000AF0346FB71FEE780B487B064
:4003C00000AF7860396000233B6100237B6127E07B699B007A6813441B68BB60BB68FB73BB6823F0FF03BB6014E03B695B003A6813441B781A46BB68134419463B695B0027
:400400003A6813445B780B703B6901333B61FB7B013BFB73FB7B002BE7D17B6901337B617B69192BD4D900BF1C37BD4680BC704780B582B000AF374B19221A80364B18228F
:400440001A70364B5F221A80354B18221A70354B47F22F521A80344B19221A70334B02221A704FF0402308221A70314B03221A70304B314A1278D2B21A70304B08221A8080
:400480002F4B41F251221A800023FB7019237B6014E0FB785B00DAB22A4B1B78DBB203F00103DBB21343DBB203F00303FB704FF4F07001F045F97B68013B7B607B68002B55
:4004C00002D0FB78032BE4D17B68002B02D10320FFF76EFF1C4B4FF480721A801A4B07221A701A4B00221A70194B48221A70164B00221A70174B02221A70174A164B1B7844
:40050000DBB243F00703DBB2137000BF0837BD4680BD00BF80400040824000408440004086400040884000408A4000400043004000420040A14600400801004922420040A4
:40054000204200402542004004400040064000400840004001400040A243004080B483B000AF0E4B1B78FB710D4AFB7903F00703DBB213700B4AFB791B09DBB213700A4B62
:4005800010221A70094B40F201121A80084B44221A7000BF0C37BD4680BC7047CF0100496E5800406F580040985A0040425B00407658004080B586B000AF72B64F4A4F4B59
:4005C0001B78DBB243F00403DBB213700023FB7513E0FA7D13465B0013445B00484A13443B613B691A683B699B889BB219461046FFF7C0FEFB7D0133FB75FB7D0A2BE8D97C
:400600000023FB751CE0FA7D13469B0013445B003C4A1344FB60FB681B68BB60FB685B687B60FB681A7A5B7A1B0213437B807B881A467968B868FFF7ABFEFB7D0133FB757B
:40064000FB7D002BDFD030494FF09040FFF7B6FE04212E48FFF78EFE04212D48FFF78AFE2C4A2C4B1B78DBB243F00203DBB21370294A294B1B78DBB243F00203DBB213701D
:40068000264A264B1B78DBB243F04003DBB21370234A234B1B78DBB243F01003DBB213700A2220492048FFF773FE0A221F492048FFF76EFE08221F491F48FFF769FE1F4AE1
:4006C0001E4B1B78DBB243F00803DBB213701C4B61221A70FFF7ACFE194B81221A70194B01221A70FFF73AFF0E220C491648FFF74FFE00BF1837BD4680BD00BFE84600409D
:40070000B0290000F42900006800004800760040087600400350014013500140A0430040C2430040F4030048C051004000040048105100400C0400483251004022430040C2
:400740000048004004000840B043004080B500AF01F0DEF903461B680C2B00D1FEE7FEE780B584B000AF7860104B1A687B6813441A460F4BD31AB3F5805F09DC0B4B1B6835
:40078000FB600A4B1A687B681344084A136007E001F0BEF902460C2313604FF0FF33FB60FB6818461037BD4680BD00BFD480FF1F1082FF1F80B586B000AF224B7B61224BCA
:4007C0003B61204B7B6135E03B691B68FB603B695B68BB603B699B683B6000237B600CE0FB681A68BB681A60BB680433BB60FB680433FB607B6804337B607A683B689A428F
:40080000EED13B69DB683B6000237B6008E0BB6800221A60BB680433BB607B6804337B607A683B689A42F2D13B6910333B617B69013B7B617B69002BC6D101F06FF9FFF7D0
:400840004DFDFEE701000000242B000080B582B000AF194B194A1A60194A194B1B6843F40073136000237B600FE07B68032B04D8144A7B6852F8233000E0134B13497A6807
:4008800041F822307B6801337B607B682F2BECD90F4B1B78DAB20F4B1A700F4B0B4A1A60FFF788FE00F0B6FB0C4B00221A6000BF0837BD4680BD00BF0CED00E00004FA054A
:4008C00014ED00E0000000004D0700000080FF1FBC760040C480FF1F08ED00E0C080FF1F80B500AF00F08AFA022000F0BFFA042000F0DCFA00F028FB00F0DCFC03461A468D
:40090000084B1A7000F0D6FC03461A46064B1A706421064800F03CF86421054800F06CF800BF80BD7A81FF1F7B81FF1F002A0000642A000080B500AF00F07EFA00F00CFB4D
:40094000084B1B780121184600F092FB064B1B780121184600F08CFB002000F0C7FA00BF80BD00BF7881FF1F7981FF1F80B500AF064B1B78002B04D1FFF7B2FF034B01221E
:400980001A70FFF7D7FF00BF80BD00BF7781FF1F80B582B000AF78600B467B807B681B0C9AB24FF480430121012000F0C3F903461A460F4B1A700F4B18780E4B1A78798828
:4009C000012300F0A5FC0B4B1B787A6891B245F68332184600F0DCFC054B1A78054B1B781946104600F0F8FB00BF0837BD4680BD7881FF1F7A81FF1F80B582B000AF786065
:400A00000B467B807B681B0C9AB24FF480430121012000F0C1F903461A460F4B1A700F4B18780E4B1A787988012300F071FC0B4B1B787A6891B245F68332184600F0A8FC4D
:400A4000054B1A78054B1B781946104600F0C4FB00BF0837BD4680BD7981FF1F7B81FF1F80B584B000AF03460A46FB8013467B7100F0B4F80346FB7300F0A4F80346BB8108
:400A8000FA88BB899A4200F08880464B1B78DBB203F00203FB72FB7B002B20D1BB89002B02D0FB88002B1AD1BB89002B0BD13E4AFB8813803D4A3D4B1B78DBB223F04003AC
:400AC000DBB2137069E0394A384B1B78DBB243F04003DBB21370344AFB8813805DE0FB7A002B33D0324B00221A70324B02221A70314B00221A70314A304B1B78DBB203F0F8
:400B00007F03DBB21370294B1B78DBB203F00803002B02D0FB88002B18D1294ABB891380234B07221A7000BF214B1B78DBB203F00103002BF8D11B4A1A4B1B78DBB223F05F
:400B40000203DBB213701A4B00221A70154B1B78DBB203F00203002B13D0194AFB881380134A7B79002B01D0032300E00123137000BF0F4B1B78DBB203F00103002BF8D132
:400B80000BE0094AFB8813800649064B1B78DAB2FB7A1343DBB20B70FFE700BF1037BD4680BD00BFA243004084400040864000400140004010400040144000400840004008
:400BC0000240004080B400AF034B1B889BB21846BD4680BC704700BF8440004080B400AF044B1B78DBB203F00703DBB21846BD4680BC70478640004080B500AF064B1B783D
:400C0000002B04D100F00AF8034B01221A7000F025F800BF80BD00BF7C81FF1F80B400AF094B72221A70094B00221A70084B06221A70084B47221A70074B00221A7000BF87
:400C4000BD4680BC704700BF886500408B65004029640040396400408864004080B582B000AF00F075FD0346FB71114A104B1B78DBB243F02003DBB213700E4A0D4B1B78E0
:400C8000DBB243F01003DBB213700B4A0A4B1B78DBB243F01003DBB2137000F0A1F9FB79184600F059FD00BF0837BD4680BD00BF986500409B6500409864004080B483B072
:400CC00000AF0346FB7100BF074B1B78DBB203F00403002BF8D1054AFB79137000BF0C37BD4680BC704700BF686400404864004080B584B000AF78600023FB810C4B1B7803
:400D0000002B10D009E0FB897A6813441B781846FFF7D4FFFB890133FB81FB897A6813441B78002BEFD100BF1037BD4680BD00BF7C81FF1F90B585B002AF0446084611469F
:400D40001A462346FB710346BB710B46BB8013467B80104B00221A700E4B1878BA79F9790023019300230093002300F053FA094B1B787A88B988184600F0F2F9054B1B7841
:400D80000221184600F0BAF9024B1B7818460C37BD4690BDD880FF1F90B585B002AF0446084611461A462346FB710346BB710B46BB8013467B80104B01221A700E4B187833
:400DC000BA79F9790023019300230093002300F021FA094B1B787A88B988184600F0C0F9054B1B780221184600F088F9024B1B7818460C37BD4690BDD980FF1F80B500AF81
:400E00000A4B00221A700A4B00221A70094A094B1B78DBB243F00803DBB21370002000F045F8022000F022F800BF80BD2C5800402D5800409F5A004080B400AF094A094BDA
:400E40001B78DBB243F00803DBB21370064A064B1B78DBB243F00803DBB2137000BFBD4680BC7047A8430040B843004080B483B000AF0346FB710C4A0B4B1B78DBB223F030
:400E80000203DBB213700849074B1B78DAB2FB7903F00203DBB21343DBB20B7000BF0C37BD4680BC704700BF2C58004080B582B000AF0346FB710C4A0B4B1B78DBB223F0DF
:400EC0000C03DBB213700849074B1B78DAB2FB7903F00C03DBB21343DBB20B7000F016F800BF0837BD4680BD2C58004080B483B000AF0346FB71044AFB79137000BF0C379E
:400F0000BD4680BC704700BF835B004080B483B000AF0B4B1B78DBB203F00C039B08DBB20633FB71074AFB7903F1924303F59C731B78DBB2137000BF0C37BD4680BC70474B
:400F40002C5800400B46004080B500AF022000F027F800BF80BD00BF80B400AF0D4A0D4B1B78DBB243F06003DBB213700A4A0A4B1B78DBB243F00203DBB21370074A074B40
:400F80001B78DBB243F00203DBB2137000BFBD4680BC704777580040A4430040B443004080B483B000AF0346FB710C4A0B4B1B78DBB223F00303DBB213700849074B1B78B1
:400FC000DAB2FB7903F00303DBB21343DBB20B7000BF0C37BD4680BC704700BF5A58004080B400AF094A094B1B78DBB243F00103DBB21370064A064B1B78DBB243F001037B
:40100000DBB2137000BFBD4680BC7047A2430040B243004080B483B000AF134B7F221A70124B80221A707F23FB710CE0FB79DB0003F1804303F5F043FA79013AD2B21A7082
:40104000FB79013BFB71FB79002BEFD1FB79DB0003F1804303F5F04300221A7000BF0C37BD4680BC704700BFDD80FF1FDC80FF1F80B485B000AF03460A46FB711346BB71CA
:401080000123FB60FB79172B2FD8BB79002B0ED0FB791A01184B1344FA791101164A0A441278D2B242F02002D2B21A700DE0FB791A01114B1344FA7911010F4A0A441278E6
:4010C000D2B222F02002D2B21A70FB791A010A4B1344FA791101084A0A441278D2B242F00102D2B21A700023FB60FB6818461437BD4680BC704700BF1070004080B485B011
:4011000000AF03460A46FB711346BB710123FB60FB79172B1BD8FB791A01104B13441B78DBB223F00E03FB72FB791A010B4B1344BA795200D2B252B202F00E0251B297F97E
:401140000B200A4352B2D2B21A700023FB60FB6818461437BD4680BC704700BF1070004080B485B000AF0346FB710B46BB8013467B800123FB60BB8841F6FF72934202D127
:401180004FF40053BB807B8841F6FF72934202D14FF400537B80FB79172B17D8FB79DB0003F1804303F5EC430433BB60BB68BA881A80FB79DB0003F1804303F5EC430633F1
:4011C000BB60BB687A881A800023FB60FB6818461437BD4680BC704780B485B000AF03460A46FB711346BB710123FB60FB79172B07D8FB791A01064B1344BA795A72002386
:40120000FB60FB6818461437BD4680BC704700BF1070004090B484B000AF0446084611461A462346FB710346BB710B467B7113463B710123FB60FB79172B34D8FB79DB0040
:4012400003F1804303F5EC43BA7902F07F02D1B27A79D201D2B20A43D2B21A70FB79DB0003F1804303F5EC433A7E1201D1B23A7902F00F02D2B20A43D2B25A70FB79DB0023
:4012800003F1804303F5EC433A7F02F00F02D2B29A70FB79DB0003F1804303F5EC430022DA700023FB60FB6818461037BD4690BC704700BF80B582B000AFFF23FB7100F08E
:4012C00047FA0346BB71104B1B78182B12D90F4B1B78FB710C4B1B78013BDAB20A4B1A70FB79DB0003F1804303F5F0431B78DAB2064B1A70BB79184600F02EFAFB7918468B
:401300000837BD4680BD00BFDC80FF1FDD80FF1F90B484B000AF0446084611461A462346FB710346BB800B46BB711346FB700123FB6097F90730002B23DBBB8823F47F63BF
:4013400023F00F039BB2002B1BD1FB79DB0003F1804303F5F043BB60BB68BA881A80FB79DB0003F1804303F5F043BA799A70FB79DB0003F1804303F5F043FA78DA7000231B
:40138000FB60FB6818461037BD4690BC704700BF80B485B000AF0346FB710B46BB8013467B800123FB6097F90730002B17DBFB79DB0003F1804303F5F0430433BB60BB684F
:4013C000BA881A80FB79DB0003F1804303F5F0430633BB60BB687A881A800023FB60FB6818461437BD4680BC704700BF80B582B000AF786008E00C4B1B68184600F0A0F9F7
:401400007B68A3F500437B607B68B3F5004FF2D8064B1B687A6802FB03F3184600F090F900BF0837BD4680BDF080FF1FE880FF1F80B400AF054B1B78DBB203F08003DB09F0
:40144000DBB21846BD4680BC704700BF1151004080B400AF054B1B78DBB203F020035B09DBB21846BD4680BC704700BF1151004080B485B000AF0346FB710B4B1B78DBB2D8
:4014800023F04003FB730849FB799B01DBB203F04003DAB2FB7B1343DBB20B7000BF1437BD4680BC704700BF1051004080B485B000AF0346FB710B4B1B78DBB223F010031B
:4014C000FB730849FB791B01DBB203F01003DAB2FB7B1343DBB20B7000BF1437BD4680BC704700BF1051004080B582B000AF786000F03CF8786800F009F8072000F018F840
:4015000000F028F800BF0837BD4680BD80B485B000AF7860054B1B68FB60FB6884337A681A6000BF1437BD4680BC704708ED00E080B483B000AF0346FB71054AFB795B010A
:40154000DBB2137000BF0C37BD4680BC704700BF11E400E080B400AF034B4FF400321A6000BFBD4680BC704700E100E080B400AF034B4FF400321A6000BFBD4680BC704764
:4015800080E100E080B500AF214A214B1B78DBB203F00103DBB213701E4A1E4B1B78DBB223F00303DBB213701B4A1B4B1B78DBB223F03003DBB21370174A174B1B78DBB2CA
:4015C00043F03003DBB21370134A134B1B78DBB223F00F03DBB213700F4A0F4B1B78DBB243F00F03DBB213700C4A0C4B1B78DBB243F00103DBB21370632000F063F86320D8
:4016000000F072F8082000F041F800BF80BD00BF004F0040024F00400B4F0040014F004080B400AF0D4A0D4B1B78DBB243F00103DBB213700A4A0A4B1B78DBB243F0010301
:40164000DBB21370074A074B1B78DBB243F00103DBB2137000BFBD4680BC7047A3430040B3430040004F004080B500AF064B1B78002B04D1FFF786FF034B01221A70FFF77C
:40168000CFFF00BF80BD00BF7E81FF1F80B483B000AF0346FB71044AFB79137000BF0C37BD4680BC704700BF034F004080B400AF034B1B78DBB21846BD4680BC704700BFC7
:4016C000034F004080B485B000AF0346FB71FB79FB81044AFB89138000BF1437BD4680BC704700BF044F004080B483B000AF0346FB71044BFA7992B21A8000BF0C37BD4674
:4017000080BC7047064F004080B400AF094A094B1B78DBB243F00403DBB21370064A064B1B78DBB243F00403DBB2137000BFBD4680BC7047A2430040B24300400000000013
:401740000230800803D000BF01380046FCD17047EFF3108072B6704780F31088704700BF81F0004102E000BF83F0004330B54FEA41044FEA430594EA050F08BF90EA020F77
:401780001FBF54EA000C55EA020C7FEA645C7FEA655C00F0E2804FEA5454D4EB5555B8BF6D420CDD2C4480EA020281EA030382EA000083EA010180EA020281EA0303362D4A
:4017C00088BF30BD11F0004F4FEA01314FF4801C4CEA113102D0404261EB410113F0004F4FEA03334CEA133302D0524263EB430394EA050F00F0A780A4F10104D5F1200E53
:401800000DDB02FA0EFC22FA05F2801841F1000103FA0EF2801843FA05F359410EE0A5F120050EF1200E012A03FA0EFC28BF4CF0020C43FA05F3C01851EBE37101F000456C
:4018400007D54FF0000EDCF1000C7EEB00006EEB0101B1F5801F1BD3B1F5001F0CD349085FEA30004FEA3C0C04F101044FEA445212F5800F80F09A80BCF1004F08BF5FEA8B
:40188000500C50F1000041EB045141EA050130BD5FEA4C0C404141EB010111F4801FA4F10104E9D191F0000F04BF01460020B1FA81F308BF2033A3F10B03B3F120020CDA63
:4018C0000C3208DD02F1140CC2F10C0201FA0CF021FA02F10CE002F11402D8BFC2F1200C01FA02F120FA0CFCDCBF41EA0C019040E41AA2BF01EB0451294330BD6FEA040474
:401900001F3C1CDA0C340EDC04F11404C4F1200220FA04F001FA02F340EA030021FA04F345EA030130BDC4F10C04C4F1200220FA02F001FA04F340EA0300294630BD21FAAD
:4019400004F0294630BD94F0000F83F4801306BF81F480110134013D4EE77FEA645C18BF7FEA655C29D094EA050F08BF90EA020F05D054EA000C04BF1946104630BD91EA01
:40198000030F1EBF0021002030BD5FEA545C05D14000494128BF41F0004130BD14F580043CBF01F5801130BD01F0004545F0FE4141F470014FF0000030BD7FEA645C1ABFB1
:4019C000194610467FEA655C1CBF0B46024650EA013406BF52EA033591EA030F41F4002130BD00BF90F0000F04BF0021704730B54FF4806404F132044FF000054FF0000178
:401A000050E700BF90F0000F04BF0021704730B54FF4806404F1320410F0004548BF40424FF000013EE700BF42004FEAE2014FEA31014FEA02701FBF12F07F4393F07F4FF6
:401A400081F06051704792F0000F14BF93F07F4F704730B54FF4607401F0004521F0004120E700BF50EA010208BF704730B54FF000050AE050EA010208BF704730B511F068
:401A8000004502D5404261EB41014FF4806404F132045FEA915C3FF4DCAE4FF003025FEADC0C18BF03325FEADC0C18BF033202EBDC02C2F1200300FA03FC20FA02F001FA56
:401AC00003FE40EA0E0021FA02F11444C1E600BF4A0011D212F5001211D20DD56FF47873B3EB62520ED44FEAC12343F0004343EA505323FA02F070474FF00000704750EAFB
:401B0000013002D14FF0FF3070474FF000007047014B1868704700BF5481FF1F0E4B70B51E460E4C0025E41AA410A54204D056F8253098470135F8E700F0E2FF084B094C73
:401B40001E46E41AA4100025A54204D056F8253098470135F8E770BD0C2B00000C2B00000C2B0000142B000010B5431E0A44914204D011F8014B03F8014FF8E710BD034617
:401B80000244934202D003F8011BFAE7704700000EB400B54FF402719CB0ADF814106FF00041049107914FF6FF711DAB02900690084853F8042BADF81610006802A9019399
:401BC00000F064F8029B00221A701CB05DF804EB03B070475481FF1F2DE9F0478E6882469E420C46914698463ED88A8912F4906F3AD02568096902236F1A656905EB450504
:401C000095FBF3F57B1C43449D4238BF1D4653050FD5294600F040FB064698B13A462169FFF7A2FFA38923F4906343F08003A38113E02A4600F08EFB064670B92169504648
:401C400000F0DEFA0C23CAF80030A3894FF0FF3043F04003A381BDE8F08726613E44266046466561ED1BA560464528BF464649463246206800F0A8FAA36800209B1BA3603A
:401C800023681E442660BDE8F08700002DE9F04F9DB003938B8980461C060D4616460DD50B695BB9402100F0F7FA2860286118B90C23C8F80030CDE040236B61002309936A
:401CC00020238DF82930DFF89CB130238DF82A3037463C4614F8013B1BB9B7EB060910D003E0252BF9D02746F3E74B46324629464046FFF771FF013000F0A780099B4B449F
:401D000009933B78002B00F0A08000234FF0FF3204930793059206938DF853301A930126052221784E4800F041FA671C049B38B14B4A3C46801A06FA00F018430490EFE757
:401D4000D90644BF20228DF853201A0744BF2B228DF8532022782A2A03D0079A00210A200BE0039A111D12680391002A10DA524243F00200079204900BE027463B78013423
:401D8000303B092B03D800FB02320121F5E701B107923B782E2B1ED17B782A2B0AD1039B02371A1D1B680392002BB8BF4FF0FF33059310E0002319460593781C0A24074629
:401DC0003A780130303A092A03D804FB01210123F5E703B1059103223978224800F0E6F940B14023CBEB000003FA00F0049B013718430490397806221B487E1C8DF82810BE
:401E000000F0D4F988B1194B33B9039B073323F007030833039314E003AB00932A46144B04A94046AFF3008007E003AB00932A460F4B04A9404600F093F8B0F1FF3F8246F6
:401E400003D0099B5344099342E7AB895B0601D4099801E04FF0FF301DB0BDE8F08F00BFCA2A0000D02A0000D42A000000000000D91B00002DE9F04791461F460A698B68B6
:401E800006469342B8BF1346C9F8003091F843200C46DDF8208012B10133C9F800302368990642BFD9F800300233C9F80030256815F0060510D104F1190A07E0012352461A
:401EC00039463046C04701301AD00135E368D9F800209B1A9D42F1DB94F843302268003318BF012392060FD5E118302081F843005A1C94F845102244023382F8431003E01F
:401F00004FF0FF30BDE8F08704F1430239463046C0470130F4D02268D9F80050E36802F00602042A08BF5D1B2269A3680CBF25EAE57500259342C4BF9B1AED184FF0000946
:401F40001A344D4509D00123224639463046C0470130D5D009F10109F3E70020BDE8F0872DE9F04317460A7E85B06E2A984606460C460C9B01F1430E00F0AE8011D8632A3B
:401F800022D009D8002A00F0BB80582A40F0CA8081F84520834955E0642A1ED0692A1CD0C0E0732A00F0B08009D86F2A2ED0702A40F0B8800A6842F020020A603EE0752A5F
:401FC00024D0782A3AD0ADE01A6801F14205111D1960136884F84230A8E021681A6811F0800F02D0111D196008E011F0400F02F10401196002D0B2F9003000E01368002B71
:402000003CDA2D225B4284F8432037E021681A6811F0800F02D0111D196007E011F0400F02F10401196001D0138800E01368227E5C496F2A14BF0A2208221BE078225A49E6
:4020400084F845202268186812F0800F00F104051D6003D1550601D5038800E00368D00744BF42F0200222601BB9226822F0200222601022002084F8430001E049490A221E
:402080006568002DA56008DB206820F0040020602BB9002D7DD175460CE0002B79D07546B3FBF2F002FB1033CB5C05F8013D03460028F5D1082A0BD12368DA0708D52369A1
:4020C00062689A42DEBF302305F8013C05F1FF35C5EB0E0323612EE008681A6810F0800F496903D0101D1860136808E010F0400F02F104001860136801D0198000E0196089
:4021000000232361754616E01A68111D1960156800216268284600F049F808B1401B6060636804E004F1420584F8422001232361002384F84330CDF800803B4603AA2146E6
:402140003046FFF797FE013002D14FF0FF3026E023692A4639463046C0470130F5D023689B0710D5002504F1190907E001234A4639463046C0470130E7D00135E368039A0D
:402180009B1A9D42F2DBE068039B9842B8BF184605E00B7804F1420584F842308AE705B0BDE8F083DB2A0000EC2A000010B5C9B202449042034605D01C7801308C42F8D16C
:4021C000184610BD002010BD884210B501EB020301D8421E0BE09842FBD28118D21AD34204D013F8014D01F8014DF8E710BD994204D011F8014B02F8014FF8E710BD0000C8
:4022000038B50546002944D051F8043C0C1F002BB8BFE41800F0D4F81E4A1368114613B96360146030E0A3420DD92268A018834201BF18685B681218226063600C6023E01B
:40224000A24203D813465A68002AF9D118681918A1420BD12168014458188242196013D110685268014419605A600DE002D90C232B6009E021686018824201BF10685268F5
:402280000918216062605C602846BDE8384000F098B838BD8481FF1F70B5CD1C25F0030508350C2D38BF0C25002D064601DBA94202D90C23336046E000F082F8234B1C68F3
:4022C0001A462146A1B10B685B1B0ED40B2B03D90B60CC18CD501EE08C420BBF63684B681360636018BF0C4615E00C464968E9E7174C23681BB9304600F052F820602946E0
:40230000304600F04DF8431C18D0C41C24F00304A0420DD12560304600F053F804F10B00231D20F00700C31A0ED05A42E25070BD211A304600F034F80130EBD10C23336031
:40234000304600F03EF8002070BD00BF8481FF1F8081FF1FF8B5074615460E4621B91146BDE8F840FFF798BF1AB9FFF749FF2846F8BD00F027F885420ED929463846FFF79B
:402380008BFF044650B131462A46FFF7EDFB31463846FFF735FF01E03046F8BD2046F8BD38B5064C0023054608462360FEF7D8F9431C02D1236803B12B6038BD0C82FF1F5C
:4023C0007047704751F8040C0028BEBF091851F8043CC0180438704700000000000000004330204323304430204423304530204630204623304730204723304130204123BE
:40240000304230204331204323314431204423314531204631204623314731204723314131204123314231204332204323324432204423324532204632204623324732200F
:40244000472332413220412332423220433320432333443320442333453320463320462333473320472333413320412333423320433420432334443420442334453420469C
:402480003420462334473420472334413420412334423420433520432335443520442335453520463520462335473520472335413520412335423520433620432336443644
:4024C00020442336453620463620462336473620472336413620412336423620433720432337443720442337453720463720462337473720472337413720412337423720EF
:40250000433820432338443820442338453820463820462338473820472338413820412338423820100011001200130015001600170019001A001C001D001F0021002300E4
:402540002500270029002C002E003100340037003A003E004100450049004E00520057005C00620068006E0075007B0083008B0093009C00A500AF00B900C400D000DC0074
:40258000E900F70006011501260137014A015D01720188019F01B801D201EE010B022A024B026E029302BA02E40210033F037003A403DC03170455049704DD0427057505EE
:4025C000C80520067D06E0064907B8072D08A9082D09B9094D0AEA0A900B400CFA0CC00D920E6F0F5A1053115B1272139A14D4151F178018F519801B231DDE1E0000000065
:402600009A9999999959304052B81E85EB5131409A9999999959324033333333337333409A9999999999344014AE47E17AD435401F85EB51B81E37400000000000803840EE
:40264000F6285C8FC2F539400000000000803B40A4703D0AD7233D401F85EB51B8DE3E409A9999999959404033333333335341407B14AE47E15A424052B81E85EB714340E9
:402680009A999999999944403333333333D345400000000000204740000000000080484014AE47E17AF449400000000000804B40C3F5285C8F224D401F85EB51B8DE4E408F
:4026C0000AD7A3703D5A504033333333335351407B14AE47E15A524052B81E85EB7153400AD7A3703D9A5440A4703D0AD7D355400000000000205740000000000080584027
:4027000085EB51B81EF559400000000000805B40C3F5285C8F225D40AE47E17A14DE5E4052B81E85EB5960407B14AE47E1526140C3F5285C8F5A624052B81E85EB71634093
:4027400052B81E85EB996440EC51B81E85D3654000000000002067400000000000806840CDCCCCCCCCF469400000000000806B40C3F5285C8F226D40AE47E17A14DE6E4036
:40278000AE47E17A145A70407B14AE47E1527140C3F5285C8F5A7240AE47E17A14727340AE47E17A149A744048E17A14AED37540A4703D0AD71F7740000000000080784004
:4027C000CDCCCCCCCCF479400000000000807B40C3F5285C8F227D40AE47E17A14DE7E4000000000005A8040295C8FC2F5528140713D0AD7A35A82400000000000728340CF
:4028000000000000009A844048E17A14AED3854052B81E85EB1F874052B81E85EB7F88407B14AE47E1F489400000000000808B40713D0AD7A3228D405C8FC2F528DE8E40DC
:4028400000000000005A904052B81E85EB529140713D0AD7A35A9240D7A3703D0A729340D7A3703D0A9A9440713D0AD7A3D3954052B81E85EB1F974052B81E85EB7F9840A9
:402880007B14AE47E1F499400000000000809B40713D0AD7A3229D4085EB51B81EDE9E4000000000005AA04052B81E85EB52A140713D0AD7A35AA240D7A3703D0A72A3400E
:4028C000D7A3703D0A9AA4405C8FC2F5A8D3A54052B81E85EB1FA74052B81E85EB7FA8407B14AE47E1F4A940000000000080AB4085EB51B89E22AD40713D0AD723DEAE4039
:40290000F6285C8F025AB04052B81E85EB52B1407B14AE47A15AB240E17A14AE0772B340D7A3703D0A9AB44066666666A6D3B5405C8FC2F5E81FB74048E17A14EE7FB840EC
:402940007B14AE47E1F4B940000000000080BB4085EB51B89E22BD407B14AE4721DEBE404D4F44452030200A0D0000004D4F44452031200A0D0000004D4F44452032200AD9
:402980000D0000004D4F44452033200A0D000000256325632563203A202569487A204449563A2025690A0D0048656C6C6F000000004F00400C000051004010002051004016
:4029C0001000405100403000F0510040100000000140001000140140000480180140800300400140000A004C014000020050014020000000001801407403004880000000CC
:402A0000FCFCFCFCFCFCFCFCFCFCFCFCFCFCFCFCFCFCFCFCFCFCFCFCFCFCFCFCFCFCFCFCFCFCFCFCFCFCFCFCFCFCFCFCFCFCFCFCFCFC030303030303030303030303030334
:402A400003030303030303030303030303030303030303030303030303030303030303030303030380878F979FA6AEB5BCC2C9CFD5DBE0E5E9EDF1F4F6F9FAFCFCFCFCFCFA
:402A8000FAF9F6F4F1EDE9E5E0DBD5CFC9C2BCB5AEA69F978F87807870686059514A433D36302A241F1A16120E0B09060503030303030506090B0E12161A1F242A30363D1E
:402AC000434A5159606870784300232D302B2000686C4C006566674546470030313233343536373839414243444546003031323334353637383961626364656600000000B9
:402B0000F8B500BFF8BC08BC9E4670474D0000004D080000F8B500BFF8BC08BC9E46704729000000382B0000C880FF1F90000000B8000000000000000000000014000100A6
:402B4000780000001082FF1FFFFF0000807F00000300000000366E01C05D0000180000000000E02E0000000000000000000000000000000000000000000000000000000045
:402B800000000000C82A0000000000000000000000000000000000000000000000000000000000000000000000000000000000000000000000000000000000000000000023
:402BC00000000000F480FF1F000000000000000000000000000000000000000000000000000000000000000000000000000000000000000000000000000000000000000043
:402C00000000000000000000000000000000000000000000000000000000000000000000000000000000000000000000000000000000000000000000000000000000000094
:402C40000000000000000000000000000000000000000000000000000000000000000000000000000000000000000000000000000000000000000000000000000000000054
:402C80000000000000000000000000000000000000000000000000000000000000000000000000000000000000000000000000000000000000000000000000000000000014
:402CC00000000000000000000000000000000000000000000000000000000000000000000000000000000000000000000000000000000000000000000000000000000000D4
:020000040003F7
:0200000480007A
:40000000024F004002520040015A00400164004002650040040401400105014001070140610801403309014001150140081801403A190140401A01403D1B014002400140B1
:40004000014101400742014003430140024701400448014001490140014C0140094D0140045001400251014001200A4B618064409F01880F88728B3838083E0458045F01CF
:400080001B04AB040013010802040502061507040C130E0C11041302140A1507161418031A141D0129072A08301031013508360F37063A803E013F1040164104450C46B038
:4000C00047E0482949FF4AFF4BFF4EF04F44500C5401580459045A045B045F0166C06A406B0282038409858086D087138B0C8C0C8E7194DC952C962297439C109EAC9F0863
:40010000A010A171A240A30EA414AA20AD71AF06B0E0B130B30FB5C0B61FB922BA02BB08BF01C004C540C9FFCA07CBFFCC40CD20CEF0CF05D008D804D904DA04DF01E04058
:40014000E1A8E240E32000490408054109880D080F0810A81520184119011B801DC01E4020082119240426822701288029412F083080310836443701380839203D013E04EC
:400180003F0241014480458048804C044F08500C542057015C245D015E40C0BDC265C44ECA29CCDACEC6D091D220D6F0EC20910195019901A901B701BF40D904DF01052112
:4001C000071108800A010D080E010F4817241D101E01230124012508274029202C842E042F023004312D33123448352036823C013E684488452047404D604E024F48571023
:400200005F016D106E886F0874A8762877258D108F019604A282A380A644A708A820AB04C0F0C2F0C460CAF4CCF7CEF0D0B0D230D680000804070E011006120113011406EA
:4002400016011701180119011A06200424022806290130073101320839023A223E04580459045F018218850486188818890C8C098D038E02901A910F920595039620970C48
:400280009807990F9C149D029E02A108A220A418A501A807A90CAB03AE18AF03B007B220B50FB618BB20BE04D418D804D904DB04DF010004014003800525070109280A80E0
:4002C0000C400E480F2010A8130415521708180419211A901E421F0421012520270829202C802D402E042F08312933083440352137083E603F045E02670A82108A048B01F8
:40030000915093029644984099049A209D21A0A8A108A204A390A520C0FDC2FEC4FECAF4CCF7CE70D680D830E001EC203F40CE2097401B043F0862809740C610CE80D6400B
:400340009740AA80EE203020CC08208023409740C840B040A4201020710281028820B020C408DC01E604EC0400010C0110011C01040C10020C00020102080C000E180000EA
:4003800008000080000002060E070018001F01000000014000100000040100600C1900040019000200C0001F01000E20000000080000100125060400010CE00009FFFFFF1D
:4003C00062A0F0410C000000000002130404040400000001000000000000400200103010001010120000000000000000000000000000000080004080800080000000000094
:40040000A00050FB0B000000000000000000000000004000000000000000000000000000000000000000000000000000000000000000000000000000000000000000000086
:40044000000000000000000000000000000000000000000000000000000000000000000000000000000000000000000000000000000000000000000000000000000000007C
:40048000000000000000000000000000000000000000000000000000000000000000000000000000000000000000000000000000000000000000000000000000000000003C
:4004C00000000000000000000000000000000000000000000000000000000000000000000000000000000000000000000000000000000000000000000000000000000000FC
:4005000000000000000000000000000000000000000000000000000000000000000000000000000000000000000000000000000000000000000000000000000000000000BB
:0200000490006A
:0400000000004005B7
:0200000490105A
:04000000BC90ACAF55
:0200000490303A
:02000000502E80
:0200000490402A
:4000000000000000000000000000000000000000000000000000000000000000000000000000000000000000000000000000000000000000000000000000000000000000C0
:400040000000000000000000000000000000000000000000000000000000000000000000000000000000000000000000000000000000000000000000000000000000000080
:400080000000000000000000000000000000000000000000000000000000000000000000000000000000000000000000000000000000000000000000000000000000000040
:4000C0000000000000000000000000000000000000000000000000000000000000000000000000000000000000000000000000000000000000000000000000000000000000
:0200000490501A
:0C00000000012E16106900012E276097E9
:00000001FF