:400000000080002011000000851600008516000080B500AF024A034B1B68136001F066FBBC760040FA46004010B5054C237833B9044B13B10448AFF300800123237010BD7F
:40004000408BFF1F000000004C590000084B10B51BB108490848AFF300800848036803B910BD074B002BFBD0BDE81040184700BF00000000448BFF1F4C590000C880FF1FB4
:400080000000000080B500AF02F052FA03461A46384B1A6002F05CFA03461A46364B1A60344B1B68002B15D1334B1B68002B11D1324B1B78DBB2002B0CD0304B00221A70A0
:4000C000002002F055FA002002F070FA2C4801F0D9FD4DE0274B1B68002B15D1264B1B68012B11D1254B1B78DBB2012B0CD0234B01221A70002002F03BFA012002F056FA56
:40010000204801F0BFFD33E01A4B1B68012B15D1194B1B68002B11D1184B1B78DBB2022B0CD0164B02221A70012002F021FA002002F03CFA144801F0A5FD19E00D4B1B68D5
:40014000012B15D10C4B1B68012B11D10B4B1B78DBB2032B0CD0094B03221A70012002F007FA012002F022FA084801F08BFDFFE700BF80BDDC8BFF1F7C8CFF1FA48AFF1F1D
:40018000CC6C0000D86C0000E46C0000F06C000090B587B004AF4B4B1B78DBB2002B00F08C80494B1B88B3F5FA5F03D9464B4FF47A721A80444B1B881A46444B93FBF2F309
:4001C000184604F09FFC03460C46414AC2E900343F4B18CB1846214604F034FF03469AB23C4B1A8000237B6044E03B4A7B6832F81320384B1B889BB29A4238D17B68DAB250
:40020000364B1A70354B1B78DBB21946344A0B465B000B4413441B781846304B1B78DBB219462F4A0B465B000B44134401331B781C462A4B1B78DBB21946294A0B465B00F2
:400240000B44134402331B781A46224B1B889BB219461D4B1B88029301910092234602462049214804F04EFF1F4801F00BFD7B6801337B607B686B2BB7D9134B1B88013BD4
:400280009BB20121184601F0B5FB0F4B1B8801339AB20D4B1A800C4B1B885B004FF4FA5292FBF3F39BB214339AB2104B1A800F4B1B889BB2184602F0B9F800BF0C37BD46E5
:4002C00090BD00BF5D8BFF1FA88AFF1F90D00300D08BFF1FB88BFF1F905F0000EA8BFF1F4C5E0000FC6C0000EC8BFF1FA28AFF1F90B589B004AF0346FB710B46BB71134630
:40030000BB80BB796B2B01D96B23BB712F4B1B78DBB2002B57D02E4801F0B4FCFB79FB734BE02C4B1B78DBB2002B4BD1FB7B2A4A32F813301A46294B93FBF2F39AB2284BD9
:400340001A80274B1B88013B9BB20121184601F051FBFA7B234913465B0013440B441B781846FA7B1F4913465B0013440B4401331B781C46FA7B1B4913465B0013440B44C9
:4003800002331B781946FB7B134A32F813301A46134B1B88029301920091234602461249124804F0AFFE114801F06CFCBB88184602F03CF8FB7B0133FB73FA7BBB799A429F
:4003C000AFD900E000BF1437BD4690BD5C8BFF1F146D00005D8BFF1F905F000090D00300A88AFF1F4C5E0000FC6C0000EC8BFF1F90B583B000AF9A4B1B78002B1BD0994BCD
:400400001B78DBB283F00103DAB2964B1A70954B1B78DBB2184602F0ABF8924B1B78DBB2002B0CBF01230023DBB2184602F0BEF88B4B00221A708C4B1B78012B15D1894B9C
:400440001B78DBB2002B05D0884B1B680133874A136006E0864B1B78DBB20133DAB2844B1A70814B00221A7018E07F4B1B78022B14D17C4B1B78DBB2002B05D07B4B1B688F
:40048000013B7A4A136006E0794B1B78DBB2013BDAB2774B1A70744B00221A70744B1B78DBB2502B03D8724B1B78DBB200E050236F4A13706E4B1B78DBB2002B03D06C4B51
:4004C0001B78DBB200E00C23694A1370674B1B68502B02DC654B1B6800E05023634A1360644B1B78DBB2002B3DD05E4B1B78DBB2002B1AD0604B1B78DBB20133DAB25E4B4A
:400500001A705D4B1B78DBB2042B02D95A4B01221A70594B1B78DBB21A465849584804F0F1FD574801F0AEFB1AE0564B1B889BB25B009AB2534B1A80524B1B889BB2B3F5EE
:40054000967F02D94F4B28221A804E4B1B889BB21A464D494A4804F0D5FD494801F092FB444B00221A70494B1B78DBB2002B2FD0474B1B78DBB2642B06D1454B00221A70BA
:40058000444B00221A7015E0414B1B78DBB21A460623013B9A4206D13D4B64221A703D4B64221A7006E03A4B1B78DBB20133DAB2374B1A70354B00221A70354B1B78DBB294
:4005C0001A4635492E4804F09DFD2D4801F05AFB324B1B78DBB2002B29D02E4B1B78DBB2642B03D12B4B00221A7012E0294B1B78DBB21A460823013B9A4203D1254B0022F0
:400600001A7006E0234B1B78DBB20133DAB2214B1A70224B00221A701E4B1B78DBB21A461F49174804F06EFD154801F02BFB1D4B1B78DBB2002B37D1002003F07BFA022005
:4006400001F016FF012003F075FA142001F010FF002003F06FFA134B01221A7016E100BFE78BFF1F7B8CFF1FCC8BFF1F788BFF1FAE8AFF1F5C8BFF1FAD8AFF1F246D0000F4
:40068000EC8BFF1FB08AFF1F386D00005D8BFF1FAB8AFF1FAC8AFF1F4C6D00005E8BFF1F606D00007C8BFF1F7D4B1B78DBB2022B40F0EC807B4B1B889AB27B4B1B889BB22D
:4006C000D31A9AB2794B1A80784B1B889BB2B3F5A07F19D2754B1B889BB20A2B14D9734B1B889BB2184604F00DFA4FF00002704B04F098FB03460C461846214604F0A2FCB0
:4007000003469AB26B4B1A806B4B1B78DBB2642B4AD000237B6043E0664B1B889BB203F10C01664B83FB01235A10CB17D21A13465B0013449B00CA1A5F4B1B78DBB21C4651
:400740005F4B1B78DBB218465E49E3000344DB0019447B680B441B789A421ED1554B1B889BB2DAB2584B1B78DBB21344DAB2574B1B78DBB2194649000B449B00DBB21344BE
:40078000DAB2534B1A70534B1B68DAB2504B1B78DBB21344DAB2504B1A707B6801337B607B68072BB8DD1EE0424B1B889BB2DAB2454B1B78DBB21344DAB2444B1B78DBB230
:4007C000194649000B449B00DBB21344DAB2404B1A70404B1B68DAB23D4B1B78DBB21344DAB23D4B1A703A4B1B78DBB2642B04D8374B1B78DBB2002B02D1354B0C221A70C3
:40080000354B1B78DBB2642B04D8314B1B78DBB2002B06D12F4B1B68DBB20C33DAB22E4B1A70294B1B78DBB21A46294B1B78DBB22A492B4804F066FC294801F023FA244B05
:400840001B78DBB21A46274B33F812301A46264B93FBF2F39BB2013B9BB20121184601F0C9F81D4B1B78DBB21A461E4B33F812301A461D4B93FBF2F39BB2013B9BB20121DC
:40088000184603F0A5FA064B00221A70174B1B889BB2184601F0CAFD00BF0C37BD4690BD7C8BFF1FE28BFF1FDA8BFF1FCE8BFF1F00001640E88BFF1FAB8AFF1FABAAAA2A84
:4008C000AC8AFF1FCC630000AE8AFF1FAD8AFF1FEA8BFF1F788BFF1FE18BFF1F746D0000EC8BFF1F905F000090D00300B08AFF1F80B483B000AF78607B68E62B06DD124B4A
:400900001B68C72B02DC114B02221A707B6813F1E60F07DA0C4B1B6813F1C70F02DB0B4B01221A707B68952B03DD7B6813F1950F02DB064B00221A70034A7B68136000BFBF
:400940000C37BD4680BC7047708BFF1FCC8BFF1F80B500AF03F026FF03461A46154B1A7003F010FF03461A46134B1A70114B1B78DBB2002B03D1012003F024FF07E00D4B9D
:400980001B78DBB2002B02D0002003F01BFF0A4B1B78DBB2002B03D1012003F031FF07E0054B1B78DBB2002B02D0002003F028FF00BF80BDD98BFF1FE08BFF1F80B500AFBC
:4009C0001F4B1B78DBB2002B0AD11E4B1B78DBB2002B05D100F066FF1A4B01221A700EE0174B1B78DBB2002B09D0164B1B78DBB2002B04D000F068FF124B00221A70124BC5
:400A00001B78DBB2002B0AD1104B1B78DBB2002B05D103F0B9FC0D4B01221A700EE00A4B1B78DBB2002B09D0084B1B78DBB2002B04D003F0BBFC054B00221A7000BF80BDEC
:400A4000D98BFF1FD88BFF1FE08BFF1FBA8BFF1F80B582B000AF78607B68E62B11DD304B1B68C72B0DDC2F4B1B78042B03D12D4B00221A7005E02B4B1B780133DAB2294B88
:400A80001A707B6813F1E60F12DA254B1B6813F1C70F0DDB234B1B78002B03D1214B04221A7005E01F4B1B78013BDAB21D4B1A701C4B1B78042B2BD801A252F823F000BF8C
:400AC000D50A0000E10A0000ED0A0000F90A0000050B00004FF4FB71134800F009FF17E04FF4FB71114800F003FF11E04FF4FB710F4800F0FDFE0BE04FF4FB710D4800F06E
:400B0000F7FE05E04FF4FB710B4800F0F1FE00BF034A7B68136000BF0837BD4680BD00BF6C8BFF1F748BFF1FC482FF1FCC80FF1FBC84FF1FB486FF1FAC88FF1F0000000093
:400B400090B583B000AF62B601F0FCFEB84801F05DFEB84801F0A8FEB74801F00DFFB74801F058FFB64801F0A3FFB64801F0EEFFB54802F039F8B54802F0B2F802F082F893
:400B8000B34B1B78DBB2184602F096F802F04CFA02F062FA00F0FAFFAE4801F073F801F0E5FD00F00DFF03F0F9F8AB4801F01CFD02F0DCFF03F020F8A84803F0A1F803F081
:400BC00049F803461A46A64B1A8003F041FA03F08FFAA44803F044FBFFF7BAFEA24B1B78DBB2002B09D0A14B1B78DBB2002B04D0FFF748FA9D4B00221A709D4B1B78DBB21A
:400C0000002B51D002F038FA0346A3F22A337B607B68002B0EDD8E4B1B78DBB219467B68944A82FB0302D210DB17D31A924A42F8213015E0864B1B78DBB21C46786803F057
:400C400061FF79A3D3E9002304F0ECF802460B461046194604F0CEF90246874B43F82420854B5B681A468549854804F04BFA824B1B681846FFF73CFE7F4B5B681846FFF719
:400C8000E7FE734B1B78DBB283F00103DAB2704B1A706F4B1B78DBB2184602F00DF8744B00221A7002F0D8F9764B1B78DBB2032B00F2B38001A252F823F000BFCD0C000000
:400CC000E30C00001B0E0000ED0C00006E4B1B78DBB278225A211846FFF70AFBFFF758FA9CE0FFF76BFEFFF783FB97E0674B1B78DBB2002B20D000F0D5FD614800F0C2FF85
:400D0000624B1B78DBB21A46614B33F812301946594B1B685F4A82FB03021211DB17D31A0B445D4A92FBF3F39BB2013B9BB20121184600F05FFE71E0584B1B78DBB2002B6F
:400D40002DD000F0AFFD564800F09CFF534B1B78DBB21946534A0B465B000B4413441B78184600F075FF4D4B1B78DBB21A46484B33F812301946404B1B68464A82FB0302B9
:400D80001211DB17D31A0B44434A92FBF3F39BB2013B9BB20121184600F02CFE3EE0424B1B78DBB2002B2DD000F07CFD3C4800F069FF3D4B1B78DBB219463A4A0B465B0003
:400DC0000B4413441B78184600F042FF364B1B78DBB21A462E4B33F812301946264B1B682C4A82FB03021211DB17D31A0B442A4A92FBF3F39BB2013B9BB20121184600F07B
:400E0000F9FD0BE000F060FD03F0D0FA274B00221A70274B00221A7000E000BF194B1B78DAB2244B1A70D7E66666666666660A40E90E0000010F0000190F0000310F000096
:400E4000490F0000610F0000B90E0000D10E0000608BFF1F946D0000B10F0000790F0000E28BFF1FC90F0000768BFF1FA58AFF1F618BFF1FE1830F3E648BFF1FA06D00000E
:400E8000EC8BFF1FA48AFF1FEA8BFF1F5C8BFF1F905F00001F85EB5190D003005D8BFF1FB06D00004C5E00005E8BFF1FD88BFF1FBA8BFF1FA68AFF1F80B400AF034B01222D
:400EC0001A7000BFBD4680BC704700BFE78BFF1F80B400AF034B01221A7000BFBD4680BC704700BF618BFF1F80B400AF034B4B221A7000BFBD4680BC704700BF5C8BFF1F67
:400F000080B400AF034B00221A7000BFBD4680BC704700BF5C8BFF1F80B400AF034B55221A7000BFBD4680BC704700BF5D8BFF1F80B400AF034B00221A7000BFBD4680BCD4
:400F4000704700BF5D8BFF1F80B400AF034B50221A7000BFBD4680BC704700BF5E8BFF1F80B400AF034B00221A7000BFBD4680BC704700BF5E8BFF1F80B500AF0A4B1B7829
:400F8000DBB2012B0DD102F09DFE03461A46074B1A80054B02221A70002002F083FE02F0B9FD00BF80BD00BF7C8BFF1FDA8BFF1F80B500AF034B01221A7001F0F9FB00BF59
:400FC00080BD00BFA58AFF1F90B585B004AF114B1B78DBB21846104B1B78DBB21C460F4B1B680F4A1278D2B211460E4A1278D2B2029201910093234602460B490B4804F0BE
:4010000081F80A4803F0F0F803F044F800BF0437BD4690BDAE8AFF1FEA8BFF1F788BFF1FAB8AFF1FAC8AFF1FB46D0000BC8BFF1F80B582B000AF786039603A680021786830
:4010400004F057F800BF0837BD4680BD80B584B000AFF860B9607A607A68B968F86804F03DF800BF1037BD4680BD00BF80B483B000AF0346FB71FEE780B487B000AF786059
:40108000396000233B6100237B6127E07B699B007A6813441B68BB60BB68FB73BB6823F0FF03BB6014E03B695B003A6813441B781A46BB68134419463B695B003A681344E8
:4010C0005B780B703B6901333B61FB7B013BFB73FB7B002BE7D17B6901337B617B692A2BD4D900BF1C37BD4680BC704780B582B000AF504B00221A804F4B50221A704F4B36
:401100000E221A804E4B18221A704E4B19221A804D4B18221A704D4B19221A804C4B18221A704C4B5F221A804B4B18221A704B4B5F221A804A4B18221A704A4BEF221A80A0
:40114000494B18221A70494B47F22F521A80484B19221A70042247494748FFF777FF474B02221A704FF0402308221A70444B03221A70444B444A1278D2B21A70434B0822E5
:401180001A80434B41F251221A800023FB7019237B6014E0FB785B00DAB23E4B1B78DBB203F00103DBB21343DBB203F00303FB704FF4F07003F044FB7B68013B7B607B68AE
:4011C000002B02D0FB78032BE4D17B68002B02D10320FFF74BFF304B4FF480721A802E4B07221A702D4B00221A702D4B48221A70294B00221A702B4B02221A702A4B042273
:401200001A702A4B1B78294BFF221A70284A284B1B78DBB243F00103DBB21370254A254B1B78DBB263F07F03DBB2137000BF0837BD4680BD80400040824000408440004089
:4012400086400040884000408A4000408C4000408E40004090400040924000409440004096400040984000409A4000409C4000409E400040F40E0048004100400043004036
:4012800000420040A146004008010049224200402042004025420040044000400640004008400040014000400B400040A2430040A1430040A043004080B483B000AF134BC8
:4012C0001B78FB71124AFB7903F00703DBB21370104AFB791B09DBB213700F4B10221A700E4B20221A700E4B40F201121A800D4B4FF481721A800C4B1C221A700B4B44229A
:401300001A7000BF0C37BD4680BC7047CF0100496E5800406F580040905A0040985A0040425B0040465B0040585B00407658004080B483B000AF0346FB71FB79012B0ED899
:40134000FB79094A52F82330FA79074951F822201178FA790548825C0A43D2B21A7000BF0C37BD4680BC7047C86D0000D06D000080B483B000AF0346FB71FB79012B10D87C
:40138000FB790A4A52F82330FA79084951F822201178FA790648825CD243D2B20A40D2B21A7000BF0C37BD4680BC7047C86D0000D06D000080B483B000AF0346FB71FB79B7
:4013C000012B24D8FA79FB791344FB71FB79124A52F82330FA79104951F822201178FA790E48825C0A43D2B21A70FB790133FB71FB79094A52F82330FA79074951F8222006
:401400001178FA790548825C0A43D2B21A7000BF0C37BD4680BC7047D46D0000E46D000080B483B000AF0346FB71FB79012B28D8FA79FB791344FB71FB79144A52F823301C
:40144000FA79124951F822201178FA791048825CD243D2B20A40D2B21A70FB790133FB71FB790A4A52F82330FA79084951F822201178FA790648825CD243D2B20A40D2B299
:401480001A7000BF0C37BD4680BC7047D46D0000E46D000080B586B000AF72B65C4A5C4B1B78DBB243F00403DBB213700023FB7513E0FA7D13465B0013445B00554A1344C6
:4014C0003B613B691A683B699B889BB219461046FFF7AEFDFB7D0133FB75FB7D062BE8D90023FB751CE0FA7D13469B0013445B00494A1344FB60FB681B68BB60FB685B6822
:401500007B60FB681A7A5B7A1B0213437B807B881A467968B868FFF799FDFB7D0133FB75FB7D012BDFD93D494FF09040FFF7A4FD3B4B0A221A7004213A48FFF779FD04218E
:401540003948FFF775FD04213848FFF771FD04213748FFF76DFD374A364B1B78DBB243F00203DBB21370344A334B1B78DBB243F00203DBB21370314A304B1B78DBB243F05E
:401580004003DBB213702E4A2D4B1B78DBB243F01003DBB213700A222A492B48FFF756FD0A222A492A48FFF751FD0A2229492A48FFF74CFD0A2229492948FFF747FD0A22FE
:4015C00028492948FFF742FD082228492848FFF73DFD284A274B1B78DBB243F00803DBB21370254B61221A70FFF780FD224B81221A70224B01221A70FFF75EFE0E220F49C9
:401600001F48FFF723FD00BF1837BD4680BD00BFE8460040E86D0000146E0000AC00004883580040007600400876004010760040187600400350014013500140A043004069
:40164000C2430040B00E004800510040BC0E0048C0510040C80E0048F0510040D40E004810510040E00E004820510040EC0E0048325100402243004000480040040008405C
:40168000B043004080B500AF03F0FCFC03461B680C2B00D1FEE7FEE780B584B000AF7860104B1A687B6813441A460F4BD31AB3F5805F09DC0B4B1B68FB600A4B1A687B6882
:4016C0001344084A136007E003F0DCFC02460C2313604FF0FF33FB60FB6818461037BD4680BD00BFB48AFF1F888CFF1F80B586B000AF224B7B61224B3B61204B7B6135E009
:401700003B691B68FB603B695B68BB603B699B683B6000237B600CE0FB681A68BB681A60BB680433BB60FB680433FB607B6804337B607A683B689A42EED13B69DB683B60F6
:4017400000237B6008E0BB6800221A60BB680433BB607B6804337B607A683B689A42F2D13B6910333B617B69013B7B617B69002BC6D103F08DFCFFF7E3F9FEE701000000DD
:401780001470000080B582B000AF194B194A1A60194A194B1B6843F40073136000237B600FE07B68032B04D8144A7B6852F8233000E0134B13497A6841F822307B68013311
:4017C0007B607B682F2BECD90F4B1B78DAB20F4B1A700F4B0B4A1A60FFF75CFE00F0FEFB0C4B00221A6000BF0837BD4680BD00BF0CED00E00004FA0514ED00E000000000A0
:40180000851600000080FF1FBC760040C480FF1F08ED00E0C080FF1F80B500AF00F0B8FA022000F007FB042000F024FB00F070FB00F054FD03461A46084B1A7000F04EFD3E
:4018400003461A46064B1A706421064800F050F86421054800F080F800BF80BD808BFF1F818BFF1F286E00008C6E000080B500AF00F0ACFA00F054FB084B1B7801211846A1
:4018800000F0DAFB064B1B780121184600F0D4FB002000F00FFB00BF80BD00BF7E8BFF1F7F8BFF1F80B500AF064B1B78002B04D1FFF7B2FF034B01221A70FFF7D7FF00BF27
:4018C00080BD00BF7D8BFF1F80B500AF064B1B78184600F0F7FB054B1B78184600F0F2FB00F08EFA00BF80BD7E8BFF1F7F8BFF1F80B582B000AF78600B467B807B681B0C99
:401900009AB24FF480430121012000F0DDF903461A460F4B1A700F4B18780E4B1A787988012300F009FD0B4B1B787A6891B245F68332184600F040FD054B1A78054B1B7881
:401940001946104600F05CFC00BF0837BD4680BD7E8BFF1F808BFF1F80B582B000AF78600B467B807B681B0C9AB24FF480430121012000F0DBF903461A460F4B1A700F4B58
:4019800018780E4B1A787988012300F0D5FC0B4B1B787A6891B245F68332184600F00CFD054B1A78054B1B781946104600F028FC00BF0837BD4680BD7F8BFF1F818BFF1F53
:4019C00080B400AF094A094B1B78DBB243F01003DBB21370064A064B1B78DBB243F01003DBB2137000BFBD4680BC7047A2430040B243004080B584B000AF03460A46FB8095
:401A000013467B7100F0B4F80346FB7300F0A4F80346BB81FA88BB899A4200F08880464B1B78DBB203F01003FB72FB7B002B20D1BB89002B02D0FB88002B1AD1BB89002B64
:401A40000BD13E4AFB8813803D4A3D4B1B78DBB223F04003DBB2137069E0394A384B1B78DBB243F04003DBB21370344AFB8813805DE0FB7A002B33D0324B00221A70324B48
:401A800010221A70314B00221A70314A304B1B78DBB203F07F03DBB21370294B1B78DBB203F00803002B02D0FB88002B18D1294ABB891380234B07221A7000BF214B1B7858
:401AC000DBB203F00103002BF8D11B4A1A4B1B78DBB223F01003DBB213701A4B00221A70154B1B78DBB203F01003002B13D0194AFB881380134A7B79002B01D0032300E0DD
:401B00000123137000BF0F4B1B78DBB203F00103002BF8D10BE0094AFB8813800649064B1B78DAB2FB7A1343DBB20B70FFE700BF1037BD4680BD00BFA243004090400040D4
:401B400092400040014000401040004014400040084000400240004080B400AF034B1B889BB21846BD4680BC704700BF9040004080B400AF044B1B78DBB203F00703DBB284
:401B80001846BD4680BC70479240004080B500AF064B1B78002B04D100F00AF8034B01221A7000F025F800BF80BD00BF828BFF1F80B400AF094B72221A70094B00221A70C2
:401BC000084B06221A70084B47221A70074B00221A7000BFBD4680BC704700BF896500408B65004028650040386500408964004080B582B000AF02F02BFE0346FB71114AB2
:401C0000104B1B78DBB243F02003DBB213700E4A0D4B1B78DBB243F01003DBB213700B4A0A4B1B78DBB243F01003DBB2137000F0BBF9FB79184602F00FFE00BF0837BD4607
:401C400080BD00BF996500409B6500409964004080B483B000AF0346FB7100BF074B1B78DBB203F00403002BF8D1054AFB79137000BF0C37BD4680BC704700BF69640040B9
:401C80004964004080B584B000AF78600023FB810C4B1B78002B10D009E0FB897A6813441B781846FFF7D4FFFB890133FB81FB897A6813441B78002BEFD100BF1037BD46DB
:401CC00080BD00BF828BFF1F90B585B002AF0446084611461A462346FB710346BB710B46BB8013467B80104B00221A700E4B1878BA79F9790023019300230093002300F004
:401D00009DFA094B1B787A88B988184600F03CFA054B1B780221184600F004FA024B1B7818460C37BD4690BDB88AFF1F90B585B002AF0446084611461A462346FB71034643
:401D4000BB710B46BB8013467B80104B01221A700E4B1878BA79F9790023019300230093002300F06BFA094B1B787A88B988184600F00AFA054B1B780221184600F0D2F941
:401D8000024B1B7818460C37BD4690BDB98AFF1F80B500AF0A4B00221A700A4B00221A70094A094B1B78DBB243F00803DBB21370002000F05FF8022000F03CF800BF80BD4D
:401DC0002C5800402D5800409F5A004080B400AF094A094B1B78DBB243F00803DBB21370064A064B1B78DBB243F00803DBB2137000BFBD4680BC7047A8430040B8430040FF
:401E000080B400AF094A094B1B78DBB223F00803DBB21370064A064B1B78DBB223F00803DBB2137000BFBD4680BC7047A8430040B843004080B483B000AF0346FB710C4A9F
:401E40000B4B1B78DBB223F00203DBB213700849074B1B78DAB2FB7903F00203DBB21343DBB20B7000BF0C37BD4680BC704700BF2C58004080B582B000AF0346FB710C4A0F
:401E80000B4B1B78DBB223F00C03DBB213700849074B1B78DAB2FB7903F00C03DBB21343DBB20B7000F016F800BF0837BD4680BD2C58004080B483B000AF0346FB71044A3E
:401EC000FB79137000BF0C37BD4680BC704700BF835B004080B483B000AF0B4B1B78DBB203F00C039B08DBB20633FB71074AFB7903F1924303F59C731B78DBB2137000BFBC
:401F00000C37BD4680BC70472C5800400B46004080B500AF022000F027F800BF80BD00BF80B400AF0D4A0D4B1B78DBB243F06003DBB213700A4A0A4B1B78DBB243F00803E4
:401F4000DBB21370074A074B1B78DBB243F00803DBB2137000BFBD4680BC704777580040A4430040B443004080B483B000AF0346FB710C4A0B4B1B78DBB223F00303DBB2E1
:401F800013700849074B1B78DAB2FB7903F00303DBB21343DBB20B7000BF0C37BD4680BC704700BF5E58004080B400AF094A094B1B78DBB243F00803DBB21370064A064B3E
:401FC0001B78DBB243F00803DBB2137000BFBD4680BC7047A2430040B243004080B483B000AF134B7F221A70124B80221A707F23FB710CE0FB79DB0003F1804303F5F04311
:40200000FA79013AD2B21A70FB79013BFB71FB79002BEFD1FB79DB0003F1804303F5F04300221A7000BF0C37BD4680BC704700BFBD8AFF1FBC8AFF1F80B485B000AF0346AB
:402040000A46FB711346BB710123FB60FB79172B2FD8BB79002B0ED0FB791A01184B1344FA791101164A0A441278D2B242F02002D2B21A700DE0FB791A01114B1344FA7918
:4020800011010F4A0A441278D2B222F02002D2B21A70FB791A010A4B1344FA791101084A0A441278D2B242F00102D2B21A700023FB60FB6818461437BD4680BC704700BF27
:4020C0001070004080B485B000AF0346FB710123FB60FB79172B1DD8FB791A01104B1344FA7911010E4A0A441278D2B222F00102D2B21A70FB791A01094B1344FA791101CD
:40210000074A0A441278D2B222F02002D2B21A700023FB60FB6818461437BD4680BC70471070004080B485B000AF03460A46FB711346BB710123FB60FB79172B1BD8FB7932
:402140001A01104B13441B78DBB223F00E03FB72FB791A010B4B1344BA795200D2B252B202F00E0251B297F90B200A4352B2D2B21A700023FB60FB6818461437BD4680BCB0
:40218000704700BF1070004080B485B000AF0346FB710B46BB8013467B800123FB60BB8841F6FF72934202D14FF40053BB807B8841F6FF72934202D14FF400537B80FB7901
:4021C000172B17D8FB79DB0003F1804303F5EC430433BB60BB68BA881A80FB79DB0003F1804303F5EC430633BB60BB687A881A800023FB60FB6818461437BD4680BC704770
:4022000080B485B000AF03460A46FB711346BB710123FB60FB79172B07D8FB791A01064B1344BA795A720023FB60FB6818461437BD4680BC704700BF1070004090B484B03B
:4022400000AF0446084611461A462346FB710346BB710B467B7113463B710123FB60FB79172B34D8FB79DB0003F1804303F5EC43BA7902F07F02D1B27A79D201D2B20A43A6
:40228000D2B21A70FB79DB0003F1804303F5EC433A7E1201D1B23A7902F00F02D2B20A43D2B25A70FB79DB0003F1804303F5EC433A7F02F00F02D2B29A70FB79DB0003F106
:4022C000804303F5EC430022DA700023FB60FB6818461037BD4690BC704700BF80B582B000AFFF23FB7102F0B3FA0346BB71104B1B78182B12D90F4B1B78FB710C4B1B7826
:40230000013BDAB20A4B1A70FB79DB0003F1804303F5F0431B78DAB2064B1A70BB79184602F09AFAFB7918460837BD4680BD00BFBC8AFF1FBD8AFF1F90B484B000AF044669
:40234000084611461A462346FB710346BB800B46BB711346FB700123FB6097F90730002B23DBBB8823F47F6323F00F039BB2002B1BD1FB79DB0003F1804303F5F043BB603E
:40238000BB68BA881A80FB79DB0003F1804303F5F043BA799A70FB79DB0003F1804303F5F043FA78DA700023FB60FB6818461037BD4690BC704700BF80B485B000AF034617
:4023C000FB710B46BB8013467B800123FB6097F90730002B17DBFB79DB0003F1804303F5F0430433BB60BB68BA881A80FB79DB0003F1804303F5F0430633BB60BB687A8802
:402400001A800023FB60FB6818461437BD4680BC704700BF80B483B000AF0346FB7101BE00BF0C37BD4680BC704700BF80B582B000AF786008E00C4B1B68184602F000FA88
:402440007B68A3F500437B607B68B3F5004FF2D8064B1B687A6802FB03F3184602F0F0F900BF0837BD4680BDD08AFF1FC88AFF1F80B582B000AF0346FB80FB88054A1278E1
:4024800002FB03F3184602F0DBF900BF0837BD4680BD00BFCC8AFF1F80B584B000AF03463960FB710F4B1B68FB60FB791F2B02D90020FFF7AFFFFB7903F01F0310339B0032
:4024C000FA6813441B68BB60FB7903F01F0310339B00FA6813443A681A60BB6818461037BD4680BD08ED00E080B582B000AF03460A46FB711346BB71BB79072B02D900206B
:40250000FFF788FFFB791F2B02D90020FFF782FFFB7903F01F0303F1604303F56443BA795201D2B21A7000BF0837BD4680BD00BF80B400AF054B1B78DBB203F00803DB086A
:40254000DBB21846BD4680BC704700BFC151004080B400AF054B1B78DBB203F020035B09DBB21846BD4680BC704700BF2151004080B485B000AF0346FB710B4B1B78DBB207
:4025800023F00403FB730849FB799B00DBB203F00403DAB2FB7B1343DBB20B7000BF1437BD4680BC704700BFC051004080B485B000AF0346FB710B4B1B78DBB223F04003A3
:4025C000FB730849FB799B01DBB203F04003DAB2FB7B1343DBB20B7000BF1437BD4680BC704700BF2051004080B582B000AF786000F03CF8786800F009F8052000F018F871
:4026000000F028F800BF0837BD4680BD80B485B000AF7860054B1B68FB60FB6888337A681A6000BF1437BD4680BC704708ED00E080B483B000AF0346FB71054AFB795B01F5
:40264000DBB2137000BF0C37BD4680BC704700BF12E400E080B400AF034B4FF480221A6000BFBD4680BC704700E100E080B400AF034B4FF480221A6000BFBD4680BC704772
:4026800080E100E080B500AF224A224B1B78DBB203F00103DBB213701F4A1F4B1B78DBB223F00303DBB213701C4A1C4B1B78DBB223F03003DBB21370184A184B1B78DBB2B1
:4026C00043F03003DBB21370144A144B1B78DBB223F00F03DBB21370104A104B1B78DBB243F00F03DBB213700D4A0D4B1B78DBB243F00103DBB213704EF6C32000F064F89F
:402700004EF6C32000F072F8082000F041F800BF80BD00BF0C4F00400E4F0040174F00400D4F004080B400AF0D4A0D4B1B78DBB243F00203DBB213700A4A0A4B1B78DBB2CF
:4027400043F00203DBB21370074A074B1B78DBB243F00103DBB2137000BFBD4680BC7047A3430040B34300400C4F004080B500AF064B1B78002B04D1FFF784FF034B0122A9
:402780001A70FFF7CFFF00BF80BD00BF848BFF1F80B483B000AF0346FB71044AFB79137000BF0C37BD4680BC704700BF0F4F004080B400AF034B1B78DBB21846BD4680BC90
:4027C000704700BF0F4F004080B485B000AF0346FB80FB88FB81044AFB89138000BF1437BD4680BC704700BF104F004080B483B000AF0346FB80044AFB88138000BF0C37E7
:40280000BD4680BC704700BF124F004080B582B000AF786000F03CF8786800F009F8052000F018F800F028F800BF0837BD4680BD80B485B000AF7860054B1B68FB60FB686B
:4028400050337A681A6000BF1437BD4680BC704708ED00E080B483B000AF0346FB71054AFB795B01DBB2137000BF0C37BD4680BC704700BF04E400E080B400AF034B1022C8
:402880001A6000BFBD4680BC704700BF00E100E080B400AF034B10221A6000BFBD4680BC704700BF80E100E080B582B000AF786000F03CF8786800F009F8052000F018F8CF
:4028C00000F028F800BF0837BD4680BD80B485B000AF7860054B1B68FB60FB684C337A681A6000BF1437BD4680BC704708ED00E080B483B000AF0346FB71054AFB795B016F
:40290000DBB2137000BF0C37BD4680BC704700BF03E400E080B400AF034B08221A6000BFBD4680BC704700BF00E100E080B400AF034B08221A6000BFBD4680BC704700BFB6
:4029400080E100E080B400AF094A094B1B78DBB263F07F03DBB21370064A064B1B78DBB263F07F03DBB2137000BFBD4680BC7047A2430040B243004080B582B000AF7860E4
:4029800000F03CF8786800F009F8052000F018F800F028F800BF0837BD4680BD80B485B000AF7860054B1B68FB60FB6858337A681A6000BF1437BD4680BC704708ED00E072
:4029C00080B483B000AF0346FB71054AFB795B01DBB2137000BF0C37BD4680BC704700BF06E400E080B400AF034B40221A6000BFBD4680BC704700BF00E100E080B400AF37
:402A0000034B40221A6000BFBD4680BC704700BF80E100E080B582B000AF786000F03CF8786800F009F8052000F018F800F028F800BF0837BD4680BD80B485B000AF786071
:402A4000054B1B68FB60FB6854337A681A6000BF1437BD4680BC704708ED00E080B483B000AF0346FB71054AFB795B01DBB2137000BF0C37BD4680BC704700BF05E400E093
:402A800080B400AF034B20221A6000BFBD4680BC704700BF00E100E080B400AF034B20221A6000BFBD4680BC704700BF80E100E080B582B000AF786000F03CF8786800F070
:402AC00009F8052000F018F800F028F800BF0837BD4680BD80B485B000AF7860054B1B68FB60FB6864337A681A6000BF1437BD4680BC704708ED00E080B483B000AF0346BA
:402B0000FB71054AFB795B01DBB2137000BF0C37BD4680BC704700BF09E400E080B400AF034B4FF400721A6000BFBD4680BC704700E100E080B400AF034B4FF400721A6040
:402B400000BFBD4680BC704780E100E080B582B000AF786000F03CF8786800F009F8052000F018F800F028F800BF0837BD4680BD80B485B000AF7860054B1B68FB60FB6888
:402B800060337A681A6000BF1437BD4680BC704708ED00E080B483B000AF0346FB71054AFB795B01DBB2137000BF0C37BD4680BC704700BF08E400E080B400AF034B4FF460
:402BC00080721A6000BFBD4680BC704700E100E080B400AF034B4FF480721A6000BFBD4680BC704780E100E080B582B000AF786000F03CF8786800F009F8052000F018F815
:402C000000F028F800BF0837BD4680BD80B485B000AF7860054B1B68FB60FB6848337A681A6000BF1437BD4680BC704708ED00E080B483B000AF0346FB71054AFB795B012F
:402C4000DBB2137000BF0C37BD4680BC704700BF02E400E080B400AF034B04221A6000BFBD4680BC704700BF00E100E080B400AF034B04221A6000BFBD4680BC704700BF7C
:402C800080E100E080B582B000AF0023FB7106E0FB791846FEF7C4FBFB790133FB71FB79012BF5D9034BFF221A7000BF0837BD4680BD00BFD48AFF1F80B582B000AF03466F
:402CC000FB71FFF7DFFFFB791846FEF773FB034AFB79137000BF0837BD4680BDD48AFF1F80B582B000AF786000F03CF8786800F009F8072000F018F800F028F800BF083749
:402D0000BD4680BD80B485B000AF7860054B1B68FB60FB68B4337A681A6000BF1437BD4680BC704708ED00E080B483B000AF0346FB71054AFB795B01DBB2137000BF0C37BE
:402D4000BD4680BC704700BF1DE400E080B400AF034B4FF000521A6000BFBD4680BC704700E100E080B400AF034B4FF000521A6000BFBD4680BC704780E100E080B582B072
:402D800002AF414B01221A70404B00221A70102000F0B2FD102000F095FE05210120FFF7A3FB3B4B04221A703A4B00221A703A4B00221A70394A394B1B78DBB243F0180388
:402DC000DBB21370364B00221A70364B00221A70354B00221A70354B0A221A70344B00221A70344B00221A70334B5B221A70334B5E221A70324B00221A70324B14221A703E
:402E00000123009310234FF4004249F2DA01002000F078FB0223009310234FF4004249F2DA01002000F06EFB0323009310234FF4004249F2DA01002000F064FB04230093DB
:402E400010234FF4004249F2DA01002000F05AFB1D4A0D4B1B78DBB2013B1C499B000B449B7813701A4A084B1B78DBB2013B174931F823301380044B1B78DBB2184600F0E0
:402E800039F900BFBD4680BDD58AFF1F888BFF1F96580040975800409E580040075B004093580040885B0040895B00408058004081580040835800408858004089580040FF
:402EC0008D580040014E00400E4E0040908BFF1F0C4E004080B582B000AF01F0B9FC0346FB71434B1B78BB71424A424B1B78DBB243F00103DBB213703E4A3E4B1B78DBB240
:402F000043F01003DBB213703B4A3B4B1B78DBB243F00103DBB21370374A374B1B78DBB243F01003DBB21370344A344B1B78DBB243F00203DBB21370314A314B1B78DBB2D4
:402F400043F00203DBB213702E4A2E4B1B78DBB243F00303DBB213700320FFF789FA274A264B1B78DBB223F00203DBB21370244A234B1B78DBB223F00203DBB21370224A59
:402F8000214B1B78DBB243F00603DBB213701F4B7A221A701E4A1E4B1B78DBB243F00103DBB213701B4A1B4B1B78DBB243F00103DBB21370184A184B1B78DBB243F0010323
:402FC000DBB21370154A154B1B78DBB243F00103DBB21370124B02221A60124B02221A60FB79184601F038FC00BF0837BD4680BDD58AFF1FAA430040BA430040F84600400B
:40300000F9460040915800407758004082580040A1430040B1430040A2430040B243004080E200E000E100E080B500AF084B1B78002B09D1074B1B78DBB2002B01D1FFF7D6
:403040009DFE034B01221A70FFF744FF00BF80BD8A8BFF1F8B8BFF1F80B400AF054A054B1B78DBB243F00103DBB2137000BFBD4680BC7047004E004080B483B000AF174B7A
:403080001B78DBB203F003037B717B79012B03D8134B1B88FB8011E0114B1B78DBB2FB80104B1B78DBB29BB21B029AB2FB881343FB807B79032B01D10B4B1B780B4B1B7861
:4030C000DBB2002B02D00A4B00221A70B7F9063018460C37BD4680BC704700BF144E0040104E0040114E0040124E0040898BFF1F888BFF1F80B582B000AF0346FB71C34B4E
:4031000000221A70FB79012B66D1C14B38221A70C04B04221A70C04B06221A70BF4B00221A70BF4B00221A70BE4B3F221A70BE4B00221A70BD4B00221A70BD4B00221A7027
:40314000BC4B01221A70BC4B50221A70BB4B27221A70BB4B2C221A70BA4B00221A70BA4B55221A70B94B5A221A70B94B05221A70B84B00221A70B84B00221A70B74B0A22DF
:403180001A70B74B43221A70442000F073FAB54B58221A70B44B00221A70B44B05221A70B34B02221A70B34B00221A70B24B00221A70002000F0CEFAB04B4FF47A421A6029
:4031C0000121052000F0DAFA0121BA2000F0BCFBAB490120FFF760F9FB79022B66D18C4B38221A708B4B04221A708B4B06221A708A4B00221A708A4B00221A70894B3F22E5
:403200001A70894B00221A70884B00221A70884B00221A70874B01221A70874B50221A70864B27221A70864B2C221A70854B00221A70854B55221A70844B5A221A70844BFB
:4032400005221A70834B01221A70834B11221A70824B19221A70824B97221A70442000F009FA804B58221A707F4B00221A707F4B05221A707E4B02221A707E4B00221A70F2
:403280007D4B00221A70002000F064FA7B4B4FF47A421A600121052000F070FA0121252000F052FB77490120FFF7F6F8FB79032B66D1574B38221A70564B04221A70564B92
:4032C00006221A70554B00221A70554B00221A70544B3F221A70544B00221A70534B00221A70534B00221A70524B01221A70524B50221A70514B27221A70514B2C221A7055
:40330000504B00221A70504B55221A704F4B5A221A704F4B05221A704E4B01221A704E4B11221A704D4B19221A704D4B97221A70442000F09FF94B4B58221A704A4B0022AE
:403340001A704A4B05221A70494B02221A70494B00221A70484B00221A70002000F0FAF9464B4FF47A421A600121052000F006FA0121252000F0E8FA43490120FFF78CF818
:40338000FB79042B40F0A980214B38221A70214B04221A70204B06221A70204B00221A701F4B00221A701F4B3F221A701E4B00221A701E4B00221A701D4B00221A701D4B60
:4033C00001221A701C4B50221A701C4B27221A701B4B2C221A701B4B00221A701A4B55221A701A4B5A221A70194B05221A70194B01221A70184B11221A70184B19221A70F4
:40340000174B97221A70442040E000BF898BFF1F004E0040024E0040034E0040044E0040054E0040064E0040084E0040094E00400A4E0040144E004084580040855800406A
:4034400086580040875800408A5800408B5800408C5800408E5800408F580040905800409158004094580040955800409A5800409B5800409C5800409D580040808CFF1FB7
:40348000F1360000FD3600000937000000F0F2F8144B58221A70144B00221A70134B05221A70134B02221A70124B00221A70124B00221A70002000F04DF9104B4FF47A424D
:4034C0001A600121052000F059F90121252000F03BFA0B490120FEF7DFFF00BF0837BD4680BD00BF94580040955800409A5800409B5800409C5800409D580040808CFF1FA7
:403500001537000090B587B000AF0446084611461A462346FB710346BB800B467B801346BB7197F82830002B00F08B8097F82830042B00F28680FB79013B092B4AD801A2D7
:4035400052F823F06D350000D5350000D53500006D350000D5350000D535000087350000A1350000D5350000BB350000BB790F2B04D9374B1B78DBB2FB752EE0354B1B7878
:40358000DBB2FB7529E0BB790F2B04D9324B1B78DBB2FB7521E0314B1B78DBB2FB751CE0BB790F2B04D92E4B1B78DBB2FB7514E02C4B1B78DBB2FB750FE0BB790F2B04D91B
:4035C000294B1B78DBB2FB7507E0284B1B78DBB2FB7502E00023FB7500BFBA8897F917305B0113443B617B883A6902FB03F3FB60FB68DB0BBB82BB790D2B12D8BA8ABB79F9
:40360000C3F10E0342FA03F3BB8297F82830013BBA790132D1B2164A9B0013440A469A7007E097F82830013B114A9B0013440F229A7097F82830013B0D49BA8A21F82320F3
:4036400002E00020FEF7E6FE00BF1C37BD4690BD180100491C010049190100491D0100491A0100491E0100491B0100491F010049908BFF1F80B584B000AF0346FB7101F0EA
:40368000E7F80346FB73174A164B1B78DBB243F00303DBB21370144A134B1B78DBB243F00303DBB21370114AFB7913700320FEF7DFFE0C4A0B4B1B78DBB223F00303DBB26B
:4036C0001370094A084B1B78DBB223F00303DBB21370FB7B184601F0BFF800BF1037BD4680BD00BFF8460040F94600409258004080B400AF00BFBD4680BC704780B400AF35
:4037000000BFBD4680BC704780B400AF00BFBD4680BC704780B400AF00BFBD4680BC704780B582B000AF0023FB7106E0FB791846FDF71EFEFB790133FB71FB79012BF5D9B5
:40374000034BFF221A7000BF0837BD4680BD00BFD68AFF1F80B582B000AF0346FB71FFF7DFFFFB791846FDF7E3FD034AFB79137000BF0837BD4680BDD68AFF1F80B584B027
:4037800000AF03460A46FB8013467B7100F0CEF80346FB7300F0A4F80346BB81FA88BB899A4200F08880464B1B78DBB203F00103FB72FB7B002B20D1BB89002B02D0FB887E
:4037C000002B1AD1BB89002B0BD13E4AFB8813803D4A3D4B1B78DBB223F04003DBB2137069E0394A384B1B78DBB243F04003DBB21370344AFB8813805DE0FB7A002B33D0CC
:40380000324B00221A70324B01221A70314B00221A70314A304B1B78DBB203F07F03DBB21370294B1B78DBB203F00803002B02D0FB88002B18D1294ABB891380234B07226B
:403840001A7000BF214B1B78DBB203F00103002BF8D11B4A1A4B1B78DBB223F00103DBB213701A4B00221A70154B1B78DBB203F00103002B13D0194AFB881380134A7B7917
:40388000002B01D0032300E00123137000BF0F4B1B78DBB203F00103002BF8D10BE0094AFB8813800649064B1B78DAB2FB7A1343DBB20B70FFE700BF1037BD4680BD00BF6A
:4038C000A24300408040004082400040014000401040004014400040084000400240004080B400AF034B1B889BB21846BD4680BC704700BF8040004080B483B000AF03465F
:40390000FB710949084B1B78DBB25AB297F9073023F007035BB213435BB2DBB20B7000BF0C37BD4680BC70478240004080B400AF044B1B78DBB203F00703DBB21846BD46B7
:4039400080BC70478240004080B584B000AF03460A46FB8013467B7100F0CEF80346FB7300F0A4F80346BB81FA88BB899A4200F08880464B1B78DBB203F00103FB72FB7B3E
:40398000002B20D1BB89002B02D0FB88002B1AD1BB89002B0BD13E4AFB8813803D4A3D4B1B78DBB223F04003DBB2137069E0394A384B1B78DBB243F04003DBB21370344A20
:4039C000FB8813805DE0FB7A002B33D0324B00221A70324B01221A70314B00221A70314A304B1B78DBB203F07F03DBB21370294B1B78DBB203F00803002B02D0FB88002B7E
:403A000018D1294ABB891380234B07221A7000BF214B1B78DBB203F00103002BF8D11B4A1A4B1B78DBB223F00103DBB213701A4B00221A70154B1B78DBB203F00103002B38
:403A400013D0194AFB881380134A7B79002B01D0032300E00123137000BF0F4B1B78DBB203F00103002BF8D10BE0094AFB8813800649064B1B78DAB2FB7A1343DBB20B70E6
:403A8000FFE700BF1037BD4680BD00BFA14300400041004002410040014000401440004010400040084000400240004080B400AF034B1B889BB21846BD4680BC704700BF10
:403AC0000041004080B483B000AF0346FB710949084B1B78DBB25AB297F9073023F007035BB213435BB2DBB20B7000BF0C37BD4680BC70470241004080B400AF044B1B780D
:403B0000DBB203F00703DBB21846BD4680BC70470241004080B400AF054B1B78DBB203F002035B08DBB21846BD4680BC704700BF8345004080B485B000AF0346FB710A4B1F
:403B40001B78DBB223F00103FB730749FB7903F00103DAB2FB7B1343DBB20B7000BF1437BD4680BC704700BF3051004080B400AF094A094B1B78DBB243F04003DBB21370D5
:403B8000064A064B1B78DBB243F04003DBB2137000BFBD4680BC7047A2430040B243004080B582B000AF40F2E73000F05FF840F2E73000F077F800F04BFE0346FB710A4A1F
:403BC000094B1B78DBB243F01003DBB21370FB79184600F041FE00F085F8002000F01EF800BF0837BD4680BD9565004080B400AF00BFBD4680BC704780B500AF064B1B788F
:403C0000002B04D1FFF7CCFF034B01221A70FFF7EDFF00BF80BD00BFA08BFF1F80B483B000AF0346FB71044AFB79137000BF0C37BD4680BC704700BF8565004080B400AF0E
:403C4000034B1B78DBB21846BD4680BC704700BF6565004080B400AF034B1B889BB21846BD4680BC704700BF486A004080B483B000AF0346FB80044AFB88138000BF0C3753
:403C8000BD4680BC704700BF486A004080B400AF034B1B889BB21846BD4680BC704700BF886A004080B483B000AF0346FB80044AFB88138000BF0C37BD4680BC704700BF02
:403CC000086A004080B400AF044B1B78044B1B889BB21846BD4680BC704700BF04650040886A004080B500AF01E0FFF7CFFFFFF7A5FF034603F00803002BF6D100BF80BDC8
:403D000080B582B000AF786000F03CF8786800F009F8042000F018F800F028F800BF0837BD4680BD80B485B000AF7860054B1B68FB60FB685C337A681A6000BF1437BD46B5
:403D400080BC704708ED00E080B483B000AF0346FB71054AFB795B01DBB2137000BF0C37BD4680BC704700BF07E400E080B400AF034B80221A6000BFBD4680BC704700BF3E
:403D800000E100E080B400AF034B80221A6000BFBD4680BC704700BF80E100E080B400AF094A094B1B78DBB243F02003DBB21370064A064B1B78DBB243F02003DBB2137009
:403DC00000BFBD4680BC7047A2430040B243004080B584B000AF03460A46FB8013467B7100F0B4F80346FB7300F0A4F80346BB81FA88BB899A4200F08880464B1B78DBB294
:403E000003F02003FB72FB7B002B20D1BB89002B02D0FB88002B1AD1BB89002B0BD13E4AFB8813803D4A3D4B1B78DBB223F04003DBB2137069E0394A384B1B78DBB243F073
:403E40004003DBB21370344AFB8813805DE0FB7A002B33D0324B00221A70324B20221A70314B00221A70314A304B1B78DBB203F07F03DBB21370294B1B78DBB203F00803B4
:403E8000002B02D0FB88002B18D1294ABB891380234B07221A7000BF214B1B78DBB203F00103002BF8D11B4A1A4B1B78DBB223F02003DBB213701A4B00221A70154B1B7899
:403EC000DBB203F02003002B13D0194AFB881380134A7B79002B01D0032300E00123137000BF0F4B1B78DBB203F00103002BF8D10BE0094AFB8813800649064B1B78DAB267
:403F0000FB7A1343DBB20B70FFE700BF1037BD4680BD00BFA24300409440004096400040014000401040004014400040084000400240004080B400AF034B1B889BB2184646
:403F4000BD4680BC704700BF9440004080B400AF044B1B78DBB203F00703DBB21846BD4680BC70479640004080B500AF224A224B1B78DBB203F00103DBB213701F4A1F4B7B
:403F80001B78DBB223F00303DBB213701C4A1C4B1B78DBB223F03003DBB21370184A184B1B78DBB243F03003DBB21370144A144B1B78DBB223F00F03DBB21370104A104B53
:403FC0001B78DBB243F00F03DBB213700D4A0D4B1B78DBB243F00103DBB2137040F2135000F064F840F2135000F072F8082000F041F800BF80BD00BF004F0040024F00403A
:404000000B4F0040014F004080B400AF0D4A0D4B1B78DBB243F00103DBB213700A4A0A4B1B78DBB243F00103DBB21370074A074B1B78DBB243F00103DBB2137000BFBD4681
:4040400080BC7047A3430040B3430040004F004080B500AF064B1B78002B04D1FFF784FF034B01221A70FFF7CFFF00BF80BD00BFA18BFF1F80B483B000AF0346FB71044A44
:40408000FB79137000BF0C37BD4680BC704700BF034F004080B400AF034B1B78DBB21846BD4680BC704700BF034F004080B485B000AF0346FB80FB88FB81044AFB8913808A
:4040C00000BF1437BD4680BC704700BF044F004080B483B000AF0346FB80044AFB88138000BF0C37BD4680BC704700BF064F004080B500AF064B1B78002B04D100F00AF82A
:40410000034B01221A7000F025F800BF80BD00BFA28BFF1F80B400AF094B72221A70094B00221A70084B06221A70084B47221A70074B00221A7000BFBD4680BC704700BF5F
:40414000806400408764004026640040366400408765004080B582B000AF00F079FB0346FB71114A104B1B78DBB243F02003DBB213700E4A0D4B1B78DBB243F01003DBB212
:4041800013700B4A0A4B1B78DBB243F01003DBB2137000F04BF8FB79184600F05DFB00BF0837BD4680BD00BF90640040976400409765004080B483B000AF0346FB7100BFDD
:4041C000074B1B78DBB203F00403002BF8D1054AFB79137000BF0C37BD4680BC704700BF676500404764004080B584B000AF78600023FB810C4B1B78002B10D009E0FB897A
:404200007A6813441B781846FFF7D4FFFB890133FB81FB897A6813441B78002BEFD100BF1037BD4680BD00BFA28BFF1F80B400AF094A094B1B78DBB243F00403DBB21370D8
:40424000064A064B1B78DBB243F00403DBB2137000BFBD4680BC7047A2430040B243004080B582B000AF786000F03CF8786800F009F8042000F018F800F028F800BF08370F
:40428000BD4680BD80B485B000AF7860054B1B68FB60FB6884337A681A6000BF1437BD4680BC704708ED00E080B483B000AF0346FB71054AFB795B01DBB2137000BF0C3759
:4042C000BD4680BC704700BF11E400E080B400AF034B4FF400321A6000BFBD4680BC704700E100E080B400AF034B4FF400321A6000BFBD4680BC704780E100E080B500AFA4
:4043000000F034F9022000F083F9042000F0A0F900F0ECF9FDF7E2FF03461A46084B1A70FDF7DCFF03461A46064B1A706421064800F050F86421054800F080F800BF80BD61
:40434000A78BFF1FA88BFF1FF06E0000546F000080B500AF00F028F900F0D0F9084B1B7801211846FDF768FE064B1B7801211846FDF762FE002000F08BF900BF80BD00BF06
:40438000A58BFF1FA68BFF1F80B500AF064B1B78002B04D1FFF7B2FF034B01221A70FFF7D7FF00BF80BD00BFA48BFF1F80B500AF064B1B781846FDF785FE054B1B78184644
:4043C000FDF780FE00F00AF900BF80BDA58BFF1FA68BFF1F80B582B000AF78600B467B807B681B0C9AB24FF480430121012000F059F803461A460F4B1A700F4B18780E4BD5
:404400001A7879880123FDF797FF0B4B1B787A6891B245F682321846FDF7CEFF054B1A78054B1B7819461046FDF7EAFE00BF0837BD4680BDA58BFF1FA78BFF1F80B582B086
:4044400000AF78600B467B807B681B0C9AB24FF480430121012000F057F803461A460F4B1A700F4B18780E4B1A7879880123FDF763FF0B4B1B787A6891B245F68232184653
:40448000FDF79AFF054B1A78054B1B7819461046FDF7B6FE00BF0837BD4680BDA68BFF1FA88BFF1F90B585B002AF0446084611461A462346FB710346BB710B46BB801346C6
:4044C0007B80104B02221A700E4B1878BA79F97900230193002300930023FDF7AFFE094B1B787A88B9881846FDF74EFE054B1B7802211846FDF716FE024B1B7818460C3744
:40450000BD4690BDD78AFF1F90B585B002AF0446084611461A462346FB710346BB710B46BB8013467B80104B03221A700E4B1878BA79F97900230193002300930023FDF7EC
:404540007DFE094B1B787A88B9881846FDF71CFE054B1B7802211846FDF7E4FD024B1B7818460C37BD4690BDD88AFF1F80B500AF0A4B00221A700A4B00221A70094A094B13
:404580001B78DBB243F00803DBB21370002000F05FF8022000F03CF800BF80BD2858004029580040975A004080B400AF094A094B1B78DBB243F00403DBB21370064A064B9D
:4045C0001B78DBB243F00403DBB2137000BFBD4680BC7047A8430040B843004080B400AF094A094B1B78DBB223F00403DBB21370064A064B1B78DBB223F00403DBB2137077
:4046000000BFBD4680BC7047A8430040B843004080B483B000AF0346FB710C4A0B4B1B78DBB223F00203DBB213700849074B1B78DAB2FB7903F00203DBB21343DBB20B7087
:4046400000BF0C37BD4680BC704700BF2858004080B582B000AF0346FB710C4A0B4B1B78DBB223F00C03DBB213700849074B1B78DAB2FB7903F00C03DBB21343DBB20B70D7
:4046800000F016F800BF0837BD4680BD2858004080B483B000AF0346FB71044AFB79137000BF0C37BD4680BC704700BF825B004080B483B000AF0B4B1B78DBB203F00C038C
:4046C0009B08DBB20633FB71074AFB7903F1924303F594731B78DBB2137000BF0C37BD4680BC7047285800400A46004080B500AF022000F027F800BF80BD00BF80B400AFBA
:404700000D4A0D4B1B78DBB243F06003DBB213700A4A0A4B1B78DBB243F00203DBB21370074A074B1B78DBB243F00203DBB2137000BFBD4680BC704777580040A4430040FD
:40474000B443004080B483B000AF0346FB710C4A0B4B1B78DBB223F00303DBB213700849074B1B78DAB2FB7903F00303DBB21343DBB20B7000BF0C37BD4680BC704700BF71
:404780005A58004080B400AF054B1B78DBB203F08003DB09DBB21846BD4680BC704700BF0151004080B400AF054B1B78DBB203F040039B09DBB21846BD4680BC704700BF5B
:4047C0000151004080B485B000AF0346FB710B4B1B78DBB223F01003FB730849FB791B01DBB203F01003DAB2FB7B1343DBB20B7000BF1437BD4680BC704700BF005100402C
:4048000080B485B000AF0346FB710B4B1B78DBB223F02003FB730849FB795B01DBB203F02003DAB2FB7B1343DBB20B7000BF1437BD4680BC704700BF00510040000000001D
:404840000230800803D000BF01380046FCD17047EFF3108072B6704780F31088704700BF81F0004102E000BF83F0004330B54FEA41044FEA430594EA050F08BF90EA020F46
:404880001FBF54EA000C55EA020C7FEA645C7FEA655C00F0E2804FEA5454D4EB5555B8BF6D420CDD2C4480EA020281EA030382EA000083EA010180EA020281EA0303362D19
:4048C00088BF30BD11F0004F4FEA01314FF4801C4CEA113102D0404261EB410113F0004F4FEA03334CEA133302D0524263EB430394EA050F00F0A780A4F10104D5F1200E22
:404900000DDB02FA0EFC22FA05F2801841F1000103FA0EF2801843FA05F359410EE0A5F120050EF1200E012A03FA0EFC28BF4CF0020C43FA05F3C01851EBE37101F000453B
:4049400007D54FF0000EDCF1000C7EEB00006EEB0101B1F5801F1BD3B1F5001F0CD349085FEA30004FEA3C0C04F101044FEA445212F5800F80F09A80BCF1004F08BF5FEA5A
:40498000500C50F1000041EB045141EA050130BD5FEA4C0C404141EB010111F4801FA4F10104E9D191F0000F04BF01460020B1FA81F308BF2033A3F10B03B3F120020CDA32
:4049C0000C3208DD02F1140CC2F10C0201FA0CF021FA02F10CE002F11402D8BFC2F1200C01FA02F120FA0CFCDCBF41EA0C019040E41AA2BF01EB0451294330BD6FEA040443
:404A00001F3C1CDA0C340EDC04F11404C4F1200220FA04F001FA02F340EA030021FA04F345EA030130BDC4F10C04C4F1200220FA02F001FA04F340EA0300294630BD21FA7C
:404A400004F0294630BD94F0000F83F4801306BF81F480110134013D4EE77FEA645C18BF7FEA655C29D094EA050F08BF90EA020F05D054EA000C04BF1946104630BD91EAD0
:404A8000030F1EBF0021002030BD5FEA545C05D14000494128BF41F0004130BD14F580043CBF01F5801130BD01F0004545F0FE4141F470014FF0000030BD7FEA645C1ABF80
:404AC000194610467FEA655C1CBF0B46024650EA013406BF52EA033591EA030F41F4002130BD00BF90F0000F04BF0021704730B54FF4806404F132044FF000054FF0000147
:404B000050E700BF90F0000F04BF0021704730B54FF4806404F1320410F0004548BF40424FF000013EE700BF42004FEAE2014FEA31014FEA02701FBF12F07F4393F07F4FC5
:404B400081F06051704792F0000F14BF93F07F4F704730B54FF4607401F0004521F0004120E700BF50EA010208BF704730B54FF000050AE050EA010208BF704730B511F037
:404B8000004502D5404261EB41014FF4806404F132045FEA915C3FF4DCAE4FF003025FEADC0C18BF03325FEADC0C18BF033202EBDC02C2F1200300FA03FC20FA02F001FA25
:404BC00003FE40EA0E0021FA02F11444C1E600BF70B54FF0FF0C4CF4E06C1CEA11541DBF1CEA135594EA0C0F95EA0C0F00F0DEF82C4481EA030621EA4C5123EA4C5350EA95
:404C0000013518BF52EA033541F4801143F4801338D0A0FB02CE4FF00005E1FB02E506F00042E0FB03E54FF00006E1FB03569CF0000F18BF4EF0010EA4F1FF04B6F5007FF3
:404C400064F5407404D25FEA4E0E6D4146EB060642EAC62141EA55514FEAC52040EA5E504FEACE2EB4F1FD0C88BFBCF5E06F1ED8BEF1004F08BF5FEA500E50F1000041EBEE
:404C8000045170BD06F0004646EA010140EA020081EA0301B4EB5C04C2BFD4EB0C0541EA045170BD41F480114FF0000E013C00F3AB8014F1360FDEBF002001F0004170BD98
:404CC000C4F10004203C35DA0C341BDC04F11404C4F1200500FA05F320FA04F001FA05F240EA020001F0004221F0004110EBD37021FA04F642EB06015EEA430E08BF20EADE
:404D0000D37070BDC4F10C04C4F1200500FA04F320FA05F001FA04F240EA020001F0004110EBD37041F100015EEA430E08BF20EAD37070BDC4F1200500FA05F24EEA020EB7
:404D400020FA04F301FA05F243EA020321FA04F001F0004121FA04F220EA020000EBD3705EEA430E08BF20EAD37070BD94F0000F0FD101F00046400041EB010111F4801FDC
:404D800008BF013CF7D041EA060195F0000F18BF704703F00046520043EB030313F4801F08BF013DF7D043EA0603704794EA0C0F0CEA135518BF95EA0C0F0CD050EA4106F1
:404DC00018BF52EA4306D1D181EA030101F000414FF0000070BD50EA410606BF1046194652EA430619D094EA0C0F02D150EA013613D195EA0C0F05D152EA03361CBF104668
:404E000019460AD181EA030101F0004141F0FE4141F470014FF0000070BD41F0FE4141F4780170BD70B54FF0FF0C4CF4E06C1CEA11541DBF1CEA135594EA0C0F95EA0C0FE7
:404E400000F0A7F8A4EB050481EA030E52EA03354FEA013100F088804FEA03334FF0805545EA131343EA12634FEA022245EA111545EA10654FEA00260EF000419D4208BFA4
:404E8000964244F1FD0404F5407402D25B084FEA3202B61A65EB03055B084FEA32024FF480104FF4002CB6EB020E75EB030E22BFB61A754640EA0C005B084FEA3202B6EB24
:404EC000020E75EB030E22BFB61A754640EA5C005B084FEA3202B6EB020E75EB030E22BFB61A754640EA9C005B084FEA3202B6EB020E75EB030E22BFB61A754640EADC00B7
:404F000055EA060E18D04FEA051545EA16754FEA06164FEAC30343EA52734FEAC2025FEA1C1CC0D111F4801F0BD141EA00014FF000004FF0004CB6E711F4801F04BF014316
:404F40000020B4F1FD0C88BFBCF5E06F3FF6AFAEB5EB030C04BFB6EB020C5FEA500C50F1000041EB045170BD0EF0004E4EEA113114EB5C04C2BFD4EB0C0541EA045170BDB2
:404F800041F480114FF0000E013C90E645EA060E8DE60CEA135594EA0C0F08BF95EA0C0F3FF43BAF94EA0C0F0AD150EA01347FF434AF95EA0C0F7FF425AF104619462CE71E
:404FC00095EA0C0F06D152EA03353FF4FDAE1046194622E750EA410618BF52EA43067FF4C5AE50EA41047FF40DAF52EA43057FF4EBAE12E74FEA410212F5001215D211D5D4
:405000006FF47873B3EB625212D94FEAC12343F0004343EA505311F0004F23FA02F018BF404270474FF00000704750EA013005D111F0004008BF6FF0004070474FF000003F
:40504000704700BF4A0011D212F5001211D20DD56FF47873B3EB62520ED44FEAC12343F0004343EA505323FA02F070474FF00000704750EA013002D14FF0FF3070474FF06C
:4050800000007047014B1868704700BF3C8BFF1F0E4B70B51E460E4C0025E41AA410A54204D056F8253098470135F8E701F0A0FF084B094C1E46E41AA4100025A54204D07F
:4050C00056F8253098470135F8E770BDFC6F0000FC6F0000FC6F00000470000010B5431E0A44914204D011F8014B03F8014FF8E710BD03460244934202D003F8011BFAE7A2
:40510000704700000EB400B54FF402719CB0ADF814106FF00041049107914FF6FF711DAB02900690084853F8042BADF81610006802A9019300F064F8029B00221A701CB067
:405140005DF804EB03B070473C8BFF1F2DE9F0478E6882469E420C46914698463ED88A8912F4906F3AD02568096902236F1A656905EB450595FBF3F57B1C43449D4238BF51
:405180001D4653050FD5294600F040FB064698B13A462169FFF7A2FFA38923F4906343F08003A38113E02A4600F08EFB064670B92169504600F0DEFA0C23CAF80030A389EA
:4051C0004FF0FF3043F04003A381BDE8F08726613E44266046466561ED1BA560464528BF464649463246206800F0A8FAA36800209B1BA36023681E442660BDE8F08700000B
:405200002DE9F04F9DB003938B8980461C060D4616460DD50B695BB9402100F0F7FA2860286118B90C23C8F80030CDE040236B610023099320238DF82930DFF89CB13023AB
:405240008DF82A3037463C4614F8013B1BB9B7EB060910D003E0252BF9D02746F3E74B46324629464046FFF771FF013000F0A780099B4B4409933B78002B00F0A0800023D4
:405280004FF0FF3204930793059206938DF853301A930126052221784E4800F041FA671C049B38B14B4A3C46801A06FA00F018430490EFE7D90644BF20228DF853201A0712
:4052C00044BF2B228DF8532022782A2A03D0079A00210A200BE0039A111D12680391002A10DA524243F00200079204900BE027463B780134303B092B03D800FB02320121E0
:40530000F5E701B107923B782E2B1ED17B782A2B0AD1039B02371A1D1B680392002BB8BF4FF0FF33059310E0002319460593781C0A2407463A780130303A092A03D804FBE4
:4053400001210123F5E703B1059103223978224800F0E6F940B14023CBEB000003FA00F0049B013718430490397806221B487E1C8DF8281000F0D4F988B1194B33B9039B7E
:40538000073323F007030833039314E003AB00932A46144B04A94046AFF3008007E003AB00932A460F4B04A9404600F093F8B0F1FF3F824603D0099B5344099342E7AB891E
:4053C0005B0601D4099801E04FF0FF301DB0BDE8F08F00BFBA6F0000C06F0000C46F0000000000004D5100002DE9F04791461F460A698B6806469342B8BF1346C9F80030DD
:4054000091F843200C46DDF8208012B10133C9F800302368990642BFD9F800300233C9F80030256815F0060510D104F1190A07E00123524639463046C04701301AD00135F9
:40544000E368D9F800209B1A9D42F1DB94F843302268003318BF012392060FD5E118302081F843005A1C94F845102244023382F8431003E04FF0FF30BDE8F08704F14302F2
:4054800039463046C0470130F4D02268D9F80050E36802F00602042A08BF5D1B2269A3680CBF25EAE57500259342C4BF9B1AED184FF000091A344D4509D001232246394691
:4054C0003046C0470130D5D009F10109F3E70020BDE8F0872DE9F04317460A7E85B06E2A984606460C460C9B01F1430E00F0AE8011D8632A22D009D8002A00F0BB80582AA0
:4055000040F0CA8081F84520834955E0642A1ED0692A1CD0C0E0732A00F0B08009D86F2A2ED0702A40F0B8800A6842F020020A603EE0752A24D0782A3AD0ADE01A6801F1B2
:405540004205111D1960136884F84230A8E021681A6811F0800F02D0111D196008E011F0400F02F10401196002D0B2F9003000E01368002B3CDA2D225B4284F8432037E064
:4055800021681A6811F0800F02D0111D196007E011F0400F02F10401196001D0138800E01368227E5C496F2A14BF0A2208221BE078225A4984F845202268186812F0800FAD
:4055C00000F104051D6003D1550601D5038800E00368D00744BF42F0200222601BB9226822F0200222601022002084F8430001E049490A226568002DA56008DB206820F06B
:40560000040020602BB9002D7DD175460CE0002B79D07546B3FBF2F002FB1033CB5C05F8013D03460028F5D1082A0BD12368DA0708D5236962689A42DEBF302305F8013C95
:4056400005F1FF35C5EB0E0323612EE008681A6810F0800F496903D0101D1860136808E010F0400F02F104001860136801D0198000E0196000232361754616E01A68111D9B
:405680001960156800216268284600F049F808B1401B6060636804E004F1420584F8422001232361002384F84330CDF800803B4603AA21463046FFF797FE013002D14FF0F5
:4056C000FF3026E023692A4639463046C0470130F5D023689B0710D5002504F1190907E001234A4639463046C0470130E7D00135E368039A9B1A9D42F2DBE068039B98427B
:40570000B8BF184605E00B7804F1420584F842308AE705B0BDE8F083CB6F0000DC6F000010B5C9B202449042034605D01C7801308C42F8D1184610BD002010BD884210B5C6
:4057400001EB020301D8421E0BE09842FBD28118D21AD34204D013F8014D01F8014DF8E710BD994204D011F8014B02F8014FF8E710BD000038B50546002944D051F8043CBB
:405780000C1F002BB8BFE41800F0D4F81E4A1368114613B96360146030E0A3420DD92268A018834201BF18685B681218226063600C6023E0A24203D813465A68002AF9D196
:4057C00018681918A1420BD12168014458188242196013D110685268014419605A600DE002D90C232B6009E021686018824201BF106852680918216062605C602846BDE8DB
:40580000384000F098B838BDB08BFF1F70B5CD1C25F0030508350C2D38BF0C25002D064601DBA94202D90C23336046E000F082F8234B1C681A462146A1B10B685B1B0ED456
:405840000B2B03D90B60CC18CD501EE08C420BBF63684B681360636018BF0C4615E00C464968E9E7174C23681BB9304600F052F820602946304600F04DF8431C18D0C41C3C
:4058800024F00304A0420DD12560304600F053F804F10B00231D20F00700C31A0ED05A42E25070BD211A304600F034F80130EBD10C233360304600F03EF8002070BD00BFA6
:4058C000B08BFF1FAC8BFF1FF8B5074615460E4621B91146BDE8F840FFF798BF1AB9FFF749FF2846F8BD00F027F885420ED929463846FFF78BFF044650B131462A46FFF770
:40590000EDFB31463846FFF735FF01E03046F8BD2046F8BD38B5064C0023054608462360FBF7BAFE431C02D1236803B12B6038BD848CFF1F7047704751F8040C0028BEBF86
:40594000091851F8043CC018043870470000000000000000003E5B4F5B3E3E6B4F6B3E1C3E7C3E1C183C7E3C181C577D571C1C5E7F5E1C00183C1800FFE7C3E7FF0018242D
:405980001800FFE7DBE7FF30483A060E2629792926407F050507407F05253F5A3CE73C5A7F3E1C1C08081C1C3E7F14227F22145F5F005F5F06097F017F006689956A606023
:4059C00060606094A2FFA29408047E040810207E201008082A1C08081C2A08081E101010100C1E0C1E0C30383E3830060E3E0E06000000000000005F000000070007001439
:405A00007F147F14242A7F2A12231308646236495620500008070300001C2241000041221C002A1C7F1C2A08083E080800807030000808080808000060600020100804022F
:405A40003E5149453E00427F400072494949462141494D331814127F1027454545393C4A49493141211109073649494936464949291E000014000000403400000008142218
:405A8000411414141414004122140802015909063E415D594E7C1211127C7F494949363E414141227F4141413E7F494949417F090909013E414151737F0808087F00417FE4
:405AC00041002040413F017F081422417F404040407F021C027F7F0408107F3E4141413E7F090909063E4151215E7F09192946264949493203017F01033F4040403F1F205A
:405B000040201F3F4038403F631408146303047804036159494D43007F4141410204081020004141417F04020102044040404040000307080020545478407F284444383861
:405B400044444428384444287F385454541800087E090218A4A49C787F0804047800447D40002040403D007F1028440000417F40007C047804787C080404783844444438E5
:405B8000FC1824241818242418FC7C08040408485454542404043F44243C4040207C1C2040201C3C4030403C44281028444C9090907C4464544C4400083641000000770038
:405BC00000004136080002010204023C2623263C1EA1A161123A4040207A385454555921555579412254547842215554784020545579400C1E527212395555555939545400
:405C0000545939555454580000457C410002457D420001457C407D1211127DF0282528F07C545545002054547C547C0A097F4932494949323A4444443A324A4848303A410C
:405C400041217A3A42402078009DA0A07D3D4242423D3D4040403D3C24FF2424487E4943662B2FFC2F2BFF0929F620C0887E090320545479410000447D413048484A323800
:405C80004040227A007A0A0A727D0D19317D2629292F28262929292630484D4020380808080808080808382F10C8ACBA2F102834FA00007B000008142A142222142A140897
:405CC000AA005500AAAA55AA55AA000000FF00101010FF00141414FF001010FF00FF1010F010F0141414FC001414F700FF0000FF00FF1414F404FC141417101F10101F108F
:405D00001F1414141F00101010F0000000001F101010101F10101010F010000000FF101010101010101010FF10000000FF140000FF00FF00001F10170000FC04F4141417E3
:405D400010171414F404F40000FF00F714141414141414F700F7141414171410101F101F141414F4141010F010F000001F101F0000001F14000000FC140000F010F01010AE
:405D8000FF10FF141414FF141010101F00000000F010FFFFFFFFFFF0F0F0F0F0FFFFFF0000000000FFFF0F0F0F0F0F3844443844FC4A4A4A347E02020606027E027E026309
:405DC000554941633844443C04407E201E2006027E020299A5E7A5991C2A492A1C4C7201724C304A4D4D303048784830BC625A463D3E494949007E0101017E2A2A2A2A2A75
:405E000044445F444440514A444040444A51400000FF0103E080FF000008086B6B083612362436060F090F06000018180000001010003040FF0101001F01011E00191D178D
:405E400012003C3C3C3C00000000003C43302043233044302044233045302046302046233047302047233041302041233042302043312043233144312044233145312046B0
:405E8000312046233147312047233141312041233142312043322043233244322044233245322046322046233247322047233241322041233242322043332043233344334C
:405EC00020442333453320463320462333473320472333413320412333423320433420432334443420442334453420463420462334473420472334413420412334423420F4
:405F00004335204323354435204423354535204635204623354735204723354135204123354235204336204323364436204423364536204636204623364736204723364165
:405F4000362041233642362043372043233744372044233745372046372046233747372047233741372041233742372043382043233844382044233845382046382046232D
:405F800038473820472338413820412338423820100011001200130015001600170019001A001C001D001F00210023002500270029002C002E003100340037003A003E005F
:405FC0004100450049004E00520057005C00620068006E0075007B0083008B0093009C00A500AF00B900C400D000DC00E900F70006011501260137014A015D01720188019C
:406000009F01B801D201EE010B022A024B026E029302BA02E40210033F037003A403DC03170455049704DD0427057505C80520067D06E0064907B8072D08A9082D09B909EB
:406040004D0AEA0A900B400CFA0CC00D920E6F0F5A1053115B1272139A14D4151F178018F519801B231DDE1E9A9999999959304052B81E85EB5131409A9999999959324009
:4060800033333333337333409A9999999999344014AE47E17AD435401F85EB51B81E37400000000000803840F6285C8FC2F539400000000000803B40A4703D0AD7233D4018
:4060C0001F85EB51B8DE3E409A9999999959404033333333335341407B14AE47E15A424052B81E85EB7143409A999999999944403333333333D3454000000000002047401C
:40610000000000000080484014AE47E17AF449400000000000804B40C3F5285C8F224D401F85EB51B8DE4E400AD7A3703D5A504033333333335351407B14AE47E15A52409E
:4061400052B81E85EB7153400AD7A3703D9A5440A4703D0AD7D355400000000000205740000000000080584085EB51B81EF559400000000000805B40C3F5285C8F225D40F1
:40618000AE47E17A14DE5E4052B81E85EB5960407B14AE47E1526140C3F5285C8F5A624052B81E85EB71634052B81E85EB996440EC51B81E85D365400000000000206740F7
:4061C0000000000000806840CDCCCCCCCCF469400000000000806B40C3F5285C8F226D40AE47E17A14DE6E40AE47E17A145A70407B14AE47E1527140C3F5285C8F5A72407B
:40620000AE47E17A14727340AE47E17A149A744048E17A14AED37540A4703D0AD71F77400000000000807840CDCCCCCCCCF479400000000000807B40C3F5285C8F227D4067
:40624000AE47E17A14DE7E4000000000005A8040295C8FC2F5528140713D0AD7A35A8240000000000072834000000000009A844048E17A14AED3854052B81E85EB1F8740CA
:4062800052B81E85EB7F88407B14AE47E1F489400000000000808B40713D0AD7A3228D405C8FC2F528DE8E4000000000005A904052B81E85EB529140713D0AD7A35A9240B8
:4062C000D7A3703D0A729340D7A3703D0A9A9440713D0AD7A3D3954052B81E85EB1F974052B81E85EB7F98407B14AE47E1F499400000000000809B40713D0AD7A3229D4074
:4063000085EB51B81EDE9E4000000000005AA04052B81E85EB52A140713D0AD7A35AA240D7A3703D0A72A340D7A3703D0A9AA4405C8FC2F5A8D3A54052B81E85EB1FA740C2
:4063400052B81E85EB7FA8407B14AE47E1F4A940000000000080AB4085EB51B89E22AD40713D0AD723DEAE40F6285C8F025AB04052B81E85EB52B1407B14AE47A15AB2402C
:40638000E17A14AE0772B340D7A3703D0A9AB44066666666A6D3B5405C8FC2F5E81FB74048E17A14EE7FB8407B14AE47E1F4B940000000000080BB4085EB51B89E22BD40D0
:4063C0007B14AE4721DEBE40060800000002040709000000000305070A0000000001050708000000000105060A00000000010307080000000002050709000000000306077A
:406400000B000000000205070A00000000030506070A00000002030507090B000002030507090A000001030506080A00000305070A0000000002030507080B000002030569
:4064400007080A000001030506080A000002040007090A000002040607090A000001040007080A000001030406080A000002040007080A00000103040607090A000204060B
:40648000080A00000002040507090A0000020407090000000002040507090B000002030507090A000001030506080A000002040607090B000002040507090A0000020305CE
:4064C00007080A000001030506080A0000030507080B00000002030507080B000001030506090A000002040506090B000002030607090A000001040507080A000003040680
:4065000007090B00000103040608090000030507090B00000002030507090B000001030507090A000002040608090B000002040607090A000002040507080A00000203053A
:4065400006080A000001030406080A0030206D616A6F722070656E7461746F6E69630000000000000000000000000000000000000000000031206D696E6F722070656E74D8
:4065800061746F6E69630000000000000000000000000000000000000000000032206B756D6F692070656E7461205B6A6170616E5D000000000000000000000000000000CC
:4065C000000000003320697761746F2070656E7461205B6A6170616E5D00000000000000000000000000000000000000342070656C6F672070656E7461205B62616C695DF7
:406600000000000000000000000000000000000000000000352068796F6A6F2070656E7461205B6368696E615D00000000000000000000000000000000000000362070659E
:406640006E7461205B6368696E615D00000000000000000000000000000000000000000000000000372070656E7461205B65677970745D000000000000000000000000008C
:406680000000000000000000000000003020626C75657300000000000000000000000000000000000000000000000000000000000000000031206D656C6F646963206D694B
:4066C0006E6F72205B4D4D315D000000000000000000000000000000000000003220646F7269616E205B49495D00000000000000000000000000000000000000000000006F
:40670000000000003320706872796769616E205B4949495D00000000000000000000000000000000000000000000000034206D696E6F722070656E7461746F6E6963000023
:40674000000000000000000000000000000000000000000035206861726D6F6E6963206D696E6F72205B484D315D0000000000000000000000000000000000003620616574
:406780006F6C69616E205B56495D000000000000000000000000000000000000000000000000000037206C6F637269616E205B5649495D0000000000000000000000000050
:4067C00000000000000000000000000030206D69786F6C796469616E5F61766F69643400000000000000000000000000000000000000000031206D69786F6C796469616ED6
:406800005F233131205B4D4D345D0000000000000000000000000000000000003220484D35206D69786F6C796469616E5F62396231335F61766F69643400000000000000EE
:40684000000000003320616C74657265642F73757065726C6F637269616E205B4D4D375D00000000000000000000000034206D69786F6C796469616E5F6231335F61766F99
:406880006964340000000000000000000000000000000000352048544654205B68616C6620746F6E652066756C6C20746F6E655D000000000000000000000000362046546A
:4068C000205B66756C6C20746F6E65207363616C655D00000000000000000000000000000000000037206D69786F6C796469616E205B562D375D00000000000000000000E8
:4069000000000000000000000000000030206D616A6F722070656E7461746F6E6963000000000000000000000000000000000000000000003120696F6E6963205B495D0015
:40694000000000000000000000000000000000000000000000000000000000003220646F7269616E205B49495D0000000000000000000000000000000000000000000000DE
:40698000000000003320706872796769616E205B4949495D00000000000000000000000000000000000000000000000034206C796469616E205B49565D0000000000000023
:4069C000000000000000000000000000000000000000000035206D69786F6C796469616E205B56375D00000000000000000000000000000000000000000000003620616583
:406A00006F6C69616E205B56495D000000000000000000000000000000000000000000000000000037206C6F637269616E205B5649495D00000000000000000000000000CD
:406A40000000000000000000000000003020484D2070656E74612B5F62362A3700000000000000000000000000000000000000000000000031206861726D6F6E6963206D47
:406A8000696E6F72205B484D315D00000000000000000000000000000000000032206C6F637269616E5F2A36205B484D325D000000000000000000000000000000000000E8
:406AC000000000003320696F6E69635F2335205B484D335D0000000000000000000000000000000000000000000000003420646F7269616E5F233131205B484D345D000084
:406B0000000000000000000000000000000000000000000035206D69786F5F6239623133205B484D355D0000000000000000000000000000000000000000000036206C79A6
:406B40006469616E5F2339205B484D365D00000000000000000000000000000000000000000000003720484D370000000000000000000000000000000000000000000000F8
:406B800000000000000000000000000030204D4D2070656E74612B5F2A362A3700000000000000000000000000000000000000000000000031206D656C6F646963206D6944
:406BC0006E6F72205B4D4D315D000000000000000000000000000000000000003220646F7269616E5F6232205B4D4D325D000000000000000000000000000000000000003D
:406C00000000000033206C796469616E5F2335205B4D4D335D000000000000000000000000000000000000000000000034206D69786F6C796469616E5F233131205B4D4D99
:406C4000345D00000000000000000000000000000000000035206D69786F6C796469616E5F623133205B4D4D355D00000000000000000000000000000000000036206C6FF3
:406C8000637269616E5F2A39205B4D4D365D000000000000000000000000000000000000000000003720616C74657265642F73757065726C6F637269616E205B4D4D375D36
:406CC0000000000000000000000000004D4F44452030200A0D0000004D4F44452031200A0D0000004D4F44452032200A0D0000004D4F44452033200A0D00000025632563CE
:406D00002563203A202569487A204449563A2025690A0D00504C41592052414E4745200A0D0000006F637461766553656C6563743A2025690A0D00006563686F54756E65E9
:406D400044656C61793A2025690A0D00635363616C6547726F75703A2025690A0D000000635363616C653A20202020202025690A0D0000006F666673657455503A202569D0
:406D80000A0D206E6F7465496E6465783A202569200A0D0048656C6C6F200A0D0000000070697463685B315D3A202569200A0D000D0A00007C25692C25692C25692C256935
:406DC0002C25692C7C0D0A00035B004024430040400000001D510040005B00401D510040005B004040048008004F00401800405100403000000001400010001401400008E1
:406E000000400140000A004C01400002005001402000000060520040A00E0048060000510140A80E0048080080878F979FA6AEB5BCC2C9CFD5DBE0E5E9EDF1F4F6F9FAFC01
:406E4000FCFCFCFCFAF9F6F4F1EDE9E5E0DBD5CFC9C2BCB5AEA69F978F87807870686059514A433D36302A241F1A16120E0B09060503030303030506090B0E12161A1F24F7
:406E80002A30363D434A51596068707880878F979FA6AEB5BCC2C9CFD5DBE0E5E9EDF1F4F6F9FAFCFCFCFCFCFAF9F6F4F1EDE9E5E0DBD5CFC9C2BCB5AEA69F978F878078B2
:406EC00070686059514A433D36302A241F1A16120E0B09060503030303030506090B0E12161A1F242A30363D434A51596068707880878F979FA6AEB5BCC2C9CFD5DBE0E5CF
:406F0000E9EDF1F4F6F9FAFCFCFCFCFCFAF9F6F4F1EDE9E5E0DBD5CFC9C2BCB5AEA69F978F87807870686059514A433D36302A241F1A16120E0B090605030303030305063D
:406F4000090B0E12161A1F242A30363D434A51596068707880878F979FA6AEB5BCC2C9CFD5DBE0E5E9EDF1F4F6F9FAFCFCFCFCFCFAF9F6F4F1EDE9E5E0DBD5CFC9C2BCB5E2
:406F8000AEA69F978F87807870686059514A433D36302A241F1A16120E0B09060503030303030506090B0E12161A1F242A30363D434A5159606870784300232D302B2000C8
:406FC000686C4C006566674546470030313233343536373839414243444546003031323334353637383961626364656600000000F8B500BFF8BC08BC9E4670474D0000009D
:4070000085170000F8B500BFF8BC08BC9E4670472900000028700000C880FF1F780A0000480100000000000000000000FCFCFCFCFCFCFCFCFCFCFCFCFCFCFCFCFCFCFCFC93
:40704000FCFCFCFCFCFCFCFCFCFCFCFCFCFCFCFCFCFCFCFCFCFCFCFCFCFCFCFCFCFCFCFCFCFCFCFCFCFCFCFCFCFCFCFCFCFCFCFCFCFCFCFCFCFCFCFCFCFCFCFCFCFCFCFC10
:40708000FCFCFCFCFCFCFCFCFCFCFCFCFCFCFCFCFCFCFCFCFCFCFCFCFCFCFCFCFCFCFCFCFCFCFCFCFCFCFCFCFC000000000000000000000000000000000000000000000074
:4070C0000000000000000000000000000000000000000000000000000000000000000000000000000000000000000000000000000000000000000000000000000000000090
:40710000000000000000000000000000000000000000000000000000000000000000000000000000000000FCFCFCFCFCFCFCFCFCFCFCFCFCFCFCFCFCFCFCFCFCFCFCFCFCB3
:40714000FCFCFCFCFCFCFCFCFCFCFCFCFCFCFCFCFCFCFCFCFCFCFCFCFCFCFCFCFCFCFCFCFCFCFCFCFCFCFCFCFCFCFCFCFCFCFCFCFCFCFCFCFCFCFCFCFCFCFCFCFCFCFCFC0F
:40718000FCFCFCFCFCFCFCFCFCFCFCFCFCFCFCFCFCFCFCFCFCFCFCFCFCFCFCFCFCFCFCFCFCFCFCFC000000000000000000000000000000000000000000000000000000005F
:4071C000000000000000000000000000000000000000000000000000000000000000000000000000000000000000000000000000000000000000000000000000000000008F
:407200000000000000000000000000000000000000000000000000000000000000000000000000007F808283858688898B8D8E909193949697999A9C9D9FA0A2A3A5A6A830
